:020000040000FA
:1000000002180002180308F308F80002180B0B0A84
:0A0010000B14220218130AC40AD8C8
:0F001B0002181B43A18FEF22021823E4FFE1B765
:07002B0002182B12206F22C6
:0E0033000218337F0122D32202183B022BC099
:10004300021843A249922F2202184BA24A9232224B
:0700530002185375C82022BA
:06005B0002185B023D40AB
:0700630002186375ED042291
:07006B0002186B75ED022283
:10007300021873412CB7004103B500C12FC13241AF
:1000830003B400E0020200003826E0020200022F5F
:10009300D0E00402000446524545E0010200155435
:1000A300E001020016A5E0E8022568FEFEFEFEFE62
:1000B300FEFEFEFEFEFEFEFEFEFEFEFEFEFEFEFE5D
:1000C300FEFEFEFEFEFEFEFEFEFEFEFEFEFEFEFE4D
:1000D300FEFEFEFEFEFEFEFEFEFEFEFEFEFEFEFE3D
:1000E300FEFEFEFEFEFEFEFEFEFEFEFEFEFEFEFE2D
:1000F300FEFEFEFEFEFEFEFEFEFEFEFEFEFEFEFE1D
:10010300FEFEFEFEFEFEFEFEFEFEFEFEFEFEFEFE0C
:10011300FEFEFEFEFEFEFEFEFEFEFEFEFEFEFEFEFC
:10012300FEFEFEFEFEFEFEFEFEFEFEFEFEFEFEFEEC
:10013300FEFEFEFEFEFEFEFEFEFEFEFEFEFEFEFEDC
:10014300FEFEFEFEFEFEFEFEFEFEFEFEFEFEFEFECC
:10015300FEFEFEFEFEFEFEFEFEFEFEFEFEFEFEFEBC
:10016300FEFEFEFEFEFEFEFEFEFEFEFEFEFEFEFEAC
:10017300FEFEFEFEFEFEFEFEFEFEFEFEFEFEFEFE9C
:10018300FEFEFEFEFEFEFEFEFEFEFEFEFEFEFEFE8C
:10019300FEFEFEE001022650FFE00102268B28E06E
:1001A30001022F9EFFE001022FCC00E005022FCDBC
:1001B3002FD00206024106C2060114004106C10106
:1001C3004106BF01C13B011900011700C14F412C7A
:1001D3009300412C8800412C9100412C9200412C2A
:1001E3008FFF4129C500412966055D2BF100000001
:1001F30000000000000000000000000000000000FC
:1002030000000000000000000000C141412866001A
:10021300C111C129013800C125C126C127412F229F
:1002230005412FF200C163432C42000000412C41E1
:1002330000412C4500C137C139C142412C6900013D
:100243005600C123C121412C5B00412C680060286A
:10025300274A0601000000030008FE877F88CF7F3E
:10026300C04FFBDFFDE067000080008086000100D7
:10027300E87300800F000060000041216400412109
:100283007600412167004121610141216902412139
:10029300620141244400C146C1474129D696412900
:1002A300D20FE002022FD20039E0050230060039F6
:1002B300040601E00202300B0807E00502380D08CE
:1002C30007050601E0020238120013E00C0238149D
:1002D300000003080003000806010602E0050238D7
:1002E300200013FF0601E00202382500000075819B
:1002F3009075FF03759E0212082002288002040EE7
:10030300900076E47E019360F4A3FF543F30E50947
:10031300541FFEE493A360010ECF54E0B4E00EEF4C
:10032300FAEEF9A3A3A3A3DAFDD9FB80D654C02523
:10033300E0604B5026E493A3F85407240CC8C3335E
:10034300C4540F4420C8834004F456800146F6DFAA
:10035300E480B00102040810204080E493A3FAE48F
:1003630093A3F8E493A3C8C582C8CAC583CAF0A3FC
:10037300C8C582C8CAC583CADFE9DEE78085E493BE
:10038300A3F8E493A34003F68001F208DFF4020329
:1003930006C2D5E830E70FB2D5E4C39BFBE49AFA73
:1003A300E499F9E498F8EC30E717B2D51203CA12CE
:1003B30010A6E4C39BFBE49AFAE499F9E498F88065
:1003C300031210A630D50DE4C39FFFE49EFEE49D07
:1003D300FDE49CFC227890E4F6D8FD9000007F00B9
:1003E3007E10E4F0A3DFFCDEFA902FFAA3E583C3CB
:1003F30094204011FEAF829020000E0FE48002F0A3
:10040300A3DFFCDEFA1208200203032232EF90047A
:100413001993900800730A20364CE557FF22EFF535
:100423005722092F09340939093E09430948094D5F
:1004330009520957095C09610966096B097A097F41
:100443000989099309ED09F209F709FC0A010A066A
:100453000A0B0A100A1F0A290A3D0A420A470A56CA
:100463000A5B0A920A970A9C0C590C5E0C630C688F
:100473000C6D0C720C770C7C0C810C860C8B0C9025
:100483000C950C9A0C9F0CA40CA90CAE0CB30CB8D5
:100493000CBD0000000000003F241E16110E0B09C6
:1004A300070504030201F0C8A79177676046383552
:1004B3003230242220140001010202030304040544
:1004C3000506060707000DFA20000DDC700000008A
:1004D30000020C00013F3F3F0404043535350000A2
:1004E30000000BDC0BE60BEB0BF00BF50BFA0C042B
:0B04F3000C0E0C130C310C36AFEF2286
:100508005A2D5761766520362E303200276C304DD3
:1005180031E534BB822D1C16131110100B730BA080
:100528000BA50BAA7F01F1B7902CAFE0121334058D
:100538005304055B14056015056517057530057AC4
:1005480034057F360584370000056D5334EF853454
:1005580080802F5335EF80085335DF800353357F74
:10056800853590801D5336DF8536A080155337FEBC
:10057800800D5337EF80085337BF800353377F858B
:1005880037B07F0CDFFE227F01F1B7902FD97401BD
:10059800F0902FD9E0602FF1F0D12F902FD9EFF004
:1005A800D1E6D11E902CABEFF0D1E6902FD9E054D4
:1005B800011213C960DBA3E0F460D6EF30E7D2E4A0
:1005C800902FD9F080CBB1307F9FD113D12F902CB1
:1005D800ACD12D902CB1D12D902CB2EFF0F1B3907D
:1005E8002CAAE0F4601BA3E0F46016902CB1E0FDA7
:1005F800541F240FA3F0EDC41354074480902CB16A
:10060800F0221211AD780812116DE4E5C820E7FB5D
:1006180075FF028F9122B1307FD7D1137FFFD1139D
:10062800D133902CAAEFF07FFFD113E5C820E7FB68
:1006380075FF02AF91227F01F1B7304814F1F0D174
:100648002F902FDAEFF0D1E6902FDAE020E002C207
:1006580048304818D11E902CABEF1213C9600BA379
:10066800E0F46006EF30E702C248D1E6E4FFF1B7F4
:10067800A248E433FF22902D631211D5902D671202
:10068800122712204CD13EEF600512205B80F61233
:10069800173F600A902D631211AD7810D10F902D7D
:1006A80063D10A902D631211ADE48023902D6A1254
:1006B80049A8601F902D6712121EE94A600F120D9B
:1006C800E6FFD113902D68E4121CD080DFE4FFD13F
:1006D8001380D9F1B3902CAE7401F022D1131235E6
:1006E8008CEF70FA902CB1E0F4600B902FD8740660
:1006F800F0124AE070FB902CAFE01213340721048B
:10070800072914072E1507331707433007483407FE
:100718004D360752370000073B433410853480803C
:100728002F433510800843352080034335808535B5
:1007380090801D4336208536A08015433701800DF3
:10074800433710800843374080034337808537B0EC
:10075800902FD8740CF0124AE070FB22902EA4124D
:1007680011D5902EA41211AD12176B902EA8E06F20
:10077800603512204CD13EEF600512205B80F612E6
:10078800173F600A902EA41211AD7810D10F902E49
:10079800A4D10A902EA4F1F6902EA8E0FFF1B19012
:1007A8002CAE7401F0D322C322D113D1E6E4FFEFBB
:1007B800B4010775FF02438F402275FF02538FBFB4
:1007C8002212204CD13EEF600512205B80F67F019B
:1007D800F1B7D248B1307F06D1E4B1307F01D113EF
:1007E8007F03D1E4E4FF80C7B1307F05C113121144
:0707F800ADE4C1130208EE9D
:10080000C0577408C0E0C082C08375570AE5FF5422
:10081000CF4490F5FF22C0577408C0E0C082C08367
:10082000755720E5FF54CF4490F5FF22C057740858
:10083000C0E0C082C083755736E5FF54CF44A0F5B1
:10084000FF22C0577408C0E0C082C08375574CE5D2
:10085000FF54CF44B0F5FF2290800401169083DD51
:10086000011690848A01169084D101169099A301F3
:10087000169099A6011690A659011690BF2501164B
:1008800090BF2801169083B201169084F101169052
:10089000B754011690BF72011690A670011690A968
:1008A0008C011690B822011690C729011690B973D1
:1008B000011690B9B8011690C68C011690C7B10107
:1008C0001690BEFD011690BB2E011690BC9101162C
:1008D00090CF30011690CF53011690CF850116901E
:1008E000C328011690BEB6011690CA6C011690C4BA
:1008F000E9011690C6DF011690839C011690CCE5A5
:10090000011690BC3B011690DFAA011690E7220168
:100910001690D279011690B71E01169084C6011662
:1009200090E7A7011690E86A011690E5EC01169091
:10093000E927011690EA9C01169099940116909966
:100940009D011690DCDC011690DD69011690DCBB80
:10095000011690EAE6011690DD37011690EAFC01D7
:100960001690ECCD011690DBA7011690E6ED01166E
:1009700090B30C011690AE9E011690DBCC01169040
:10098000EE15011690B259011690BA3C011690EC82
:10099000C1011690BA37011690C2D8011690C0D581
:1009A000011690E6BA011690E612011690E1EB01ED
:1009B0001690E1F1011690E6D2011690E6A101161B
:1009C00090B115011690A269011690ECE101169004
:1009D000EBD9011690EC50011690EB98011690ECB3
:1009E000F6011690D043011690D04A011690D78692
:1009F000011690D980011690D988011690EEA201B7
:100A000016908528011690DB40011690EEB4011671
:100A100090B1F3011690BB67011690863C011690C9
:100A2000AED8011690BECC011690E18C01169098BC
:100A3000C8011690EEEE011690EA3B011690EF0CFD
:100A4000011690D0D3011690AABB011690B57B0178
:100A5000169083E4011690E325011690B423011645
:100A600090EF85011690B501011690EF990116904F
:100A7000E361011690EFB0011690B0BD011690EF42
:100A8000B3011690EFFB011690EFFE011690BC0922
:100A9000011690D138011690D1DC011690D1AA012F
:100AA0001690CC8D01169081D6011690DA7401163D
:100AB00090E54A011690E4E3011690F120011690AA
:100AC000A32F011690F0BC011690A48F011690C7B9
:100AD000DA01169099AD011690EE08011690EDF22C
:100AE000011690C295011690D05A011690C261016C
:100AF0001690F163011690F1A8011690F1DC011631
:100B000090F277011690F230011690847C011690D5
:100B1000801401169082B1011690D10F01169096A3
:100B2000E20116909759011690F2D601169084783A
:100B3000011690810D0116909900011690B0CC011C
:100B40004290B33E014290B3BC014290B5C4014211
:100B500090B63A014290B6DB014290B7080142904C
:100B60009ACA014290B9840142909B450142909BF0
:100B700084014290BA25014290BA26014290909B8E
:100B80000142908D1B014290BAB10142908B9D01B0
:100B90004290A985014290AB13014290800001422E
:100BA00090BB87014290BB9F01429085910142908A
:100BB000BBA0014290BBB8014290BC0A014290AB7D
:100BC0009C014290A098014290BC71014290BC7E71
:100BD000014290B08D014290BC8A014290B78C01D5
:100BE0004290AFEA014290B736014290B43F0142D1
:100BF00090B411014290B729014290B19001429006
:100C0000B70E014290B093014290AFFB014290B306
:100C100079014290BC8D014290B752014290BCF0E4
:100C2000014290B231014290BD4F014290B4D101D6
:100C30004290BDB0014290AD58014290AEEF0142EA
:100C400090B322014290BDF6014290BE2201429033
:100C5000B61F014290B64E014290A018012C909E02
:100C600051012C90A022012C90A02E012C90A04785
:100C7000012C90A059012C90A063012C909CDB01C9
:100C80002C90A153012C909EC5012C909F2B012CE0
:100C900090A15D012C909F91012C90A167012C9057
:100CA000A171012C909DA9012C90A17B012C90A1F8
:100CB00085012C9097CB012C90979B012C909BED5C
:100CC000012C9080A2012C90A27D012C90A2D40135
:100CD0002C9097FE012C909D5A012C9094E7012CAA
:100CE00090947C012C9096DB012C90A514012C0093
:100CF000E709F608DFFA8046E709F208DFFA803EE6
:100D000088828C83E709F0A3DFFA8032E309F608D2
:100D1000DFFA8078E309F208DFFA807088828C833A
:100D2000E309F0A3DFFA806489828A83E0A3F608EE
:100D3000DFFA805889828A83E0A3F208DFFA804CC8
:100D400080D280FA80C680D4806980F2803380109F
:100D500080A680EA809A80A880DA80E280CA803308
:100D600089828A83ECFAE493A3C8C582C8CCC58380
:100D7000CCF0A3C8C582C8CCC583CCDFE9DEE78050
:100D80000D89828A83E493A3F608DFF9ECFAA9F0CF
:100D9000EDFB2289828A83ECFAE0A3C8C582C8CC25
:100DA000C583CCF0A3C8C582C8CCC583CCDFEADE3E
:100DB000E880DB89828A83E493A3F208DFF980CCA0
:100DC00088F0EF60010E4E60C388F0ED2402B40499
:100DD0000050B9F582EB2402B4040050AF23234540
:100DE0008223900D4073BB010689828A83E02250E2
:100DF00002E722BBFE02E32289828A83E49322BBBC
:100E0000010CE58229F582E5833AF583E02250065C
:100E1000E92582F8E622BBFE06E92582F8E222E512
:100E20008229F582E5833AF583E49322BB0109899F
:100E3000828A83F8E028F022500327F722BBFE05C0
:100E4000F8E328F3228A838982F8E4932822BB01FD
:100E50000FF8E58229F582E5833AF583E028F02250
:100E60005009C58229F8E58226F622BBFE09C58213
:100E700029F8E22582F222F8EA2583F583E993280E
:100E800022BB010689828A83F0225002F722BBFE30
:100E900001F322F8BB010DE58229F582E5833AF5DD
:100EA00083E8F0225006E92582C8F622BBFE05E958
:100EB0002582C8F222EF8DF0A4A8F0CF8CF0A428F0
:100EC000CE8DF0A42EFE22BC000BBE0029EF8DF0CB
:100ED00084FFADF022E4CCF875F008EF2FFFEE337D
:100EE000FEEC33FCEE9DEC984005FCEE9DFE0FD52C
:100EF000F0E9E4CEFD22EDF8F5F0EE8420D21CFE00
:100F0000ADF075F008EF2FFFED33FD400798500668
:100F1000D5F0F222C398FD0FD5F0EA22C2D5EC300D
:100F2000E709B2D5E4C39DFDE49CFCEE30E715B2C1
:100F3000D5E4C39FFFE49EFE120EC7C3E49DFDE40B
:100F40009CFC8003120EC730D507C3E49FFFE49ECC
:100F5000FE22C5F0F8A3E028F0C5F0F8E58215827E
:100F600070021583E038F022A3F8E0C5F025F0F018
:100F7000E582158270021583E0C838F0E822BB01D3
:100F80000A89828A83E0F5F0A3E022500687F009FF
:100F9000E71922BBFE07E3F5F009E3192289828AEB
:100FA00083E493F5F074019322BB010789828A835D
:100FB000020F52500B09C5F027F7C5F01937F72279
:100FC000BBFE0D09F8E325F0F3C5F019E338F32271
:100FD000F889828A8374019325F0C5F0F8E4933888
:100FE00022BB010A89828A83F0E5F0A3F022500631
:100FF000F709A7F01922BBFE06F3E5F009F3192261
:10100000EF2BFFEE3AFEED39FDEC38FC22C3EF9BEF
:10101000FFEE9AFEED99FDEC98FC22E88FF0A4CC4F
:101020008BF0A42CFCE98EF0A42CFC8AF0EDA42C0F
:10103000FCEA8EF0A4CDA8F08BF0A42DCC3825F0DE
:10104000FDE98FF0A42CCD35F0FCEB8EF0A4FEA9C9
:10105000F0EB8FF0A4CFC5F02ECD39FEE43CFCEAD6
:10106000A42DCE35F0FDE43CFC2275F0087582001D
:10107000EF2FFFEE33FECD33CDCC33CCC58233C55D
:10108000829BED9AEC99E58298400CF582EE9BFEEE
:10109000ED9AFDEC99FC0FD5F0D6E4CEFBE4CDFA49
:1010A000E4CCF9A88222B800C1B90059BA002DECED
:1010B0008BF084CFCECDFCE5F0CBF97818EF2FFF85
:1010C000EE33FEED33FDEC33FCEB33FB10D703992D
:1010D0004004EB99FB0FD8E5E4F9FA227818EF2FDA
:1010E000FFEE33FEED33FDEC33FCC933C910D705F9
:1010F0009BE99A4007EC9BFCE99AF90FD8E0E4C918
:10110000FAE4CCFB2275F010EF2FFFEE33FEED3347
:10111000FDCC33CCC833C810D7079BEC9AE8994074
:101120000AED9BFDEC9AFCE899F80FD5F0DAE4CDD6
:10113000FBE4CCFAE4C8F922C3E49FFFE49EFEE49A
:101140009DFDE49CFC22EB9FF5F0EA9E42F0E99DB8
:1011500042F0EC6480C864809845F022EB9FF5F083
:10116000EA9E42F0E99D42F0E89C45F022E8600FDB
:10117000ECC313FCED13FDEE13FEEF13FFD8F122C9
:10118000E8600FEFC333FFEE33FEED33FDEC33FCCD
:10119000D8F122BB010789828A830211D55005E963
:1011A000F802138DBBFE05E9F802139922E0FCA3B7
:1011B000E0FDA3E0FEA3E0FF22E493FC740193FDB5
:1011C000740293FE740393FF22E0F8A3E0F9A3E016
:1011D000FAA3E0FB22ECF0A3EDF0A3EEF0A3EFF016
:1011E00022A8828583F0D083D0821211F81211F8E0
:1011F0001211F81211F8E473E493A3C583C5F0C586
:1012000083C8C582C8F0A3C583C5F0C583C8C5829D
:10121000C822A42582F582E5F03583F58322E0FB20
:10122000A3E0FAA3E0F922EBF0A3EAF0A3E9F022AD
:10123000E493FB740193FA740293F922BB010789CA
:10124000828A8302121E5005E9F80213A5BBFE052F
:10125000E9F80213B789828A83021230BB011A8926
:10126000828A83D0F0D0E0F8D0E0F9D0E0FAD0E084
:10127000FBE8C0E0C0F00212275016E9F8D083D096
:1012800082D0E0F9D0E0FAD0E0FBC082C083021344
:10129000AEBBFE16E9F8D083D082D0E0F9D0E0FAF8
:1012A000D0E0FBC082C0830213C022BB010DE582E7
:1012B00029F582E5833AF58302121E5007E925825B
:1012C000F80213A5BBFE07E92582F80213B7E582F1
:1012D00029F582E5833AF583021230BB0120E582CD
:1012E00029F582E5833AF583D0F0D0E0F8D0E0F933
:1012F000D0E0FAD0E0FBE8C0E0C0F00212275018BE
:10130000E92582F8D083D082D0E0F9D0E0FAD0E0AD
:10131000FBC082C0830213AEBBFE18E92582F8D061
:1013200083D082D0E0F9D0E0FAD0E0FBC082C08365
:101330000213C022D083D082F8E493701274019318
:10134000700DA3A393F8740193F5828883E47374FA
:1013500002936860EFA3A3A380DF8A838982E4738A
:10136000EC8EF0A4CCC5F0CCCDF8EFA4CEC5F02D1A
:10137000FDE43CFCE8A42EC8C5F03DFDE43CFCEFD8
:10138000A4FFE5F028FEE43DFDE43CFC22ECF60879
:10139000EDF608EEF608EFF622ECF208EDF208EEB4
:1013A000F208EFF222E6FB08E6FA08E6F922EBF68D
:1013B00008EAF608E9F622E2FB08E2FA08E2F92276
:1013C000EBF208EAF208E9F222F0902CAAE0FFF42E
:1013D00022902CAAE020E01712052C7F3D12061364
:1013E0007F2A1206137F801206137FA61207B122EE
:1013F0007A2C79AF7F03D12E7A2C79B87D017F08C2
:10140000120B467A2C79B57F09B1A97A2C79B37F72
:101410000BB1A9902CB3E0FEA3E0FF4E6006BEFF27
:1014200016BFFF13B1B050028004B1B98009902CEF
:10143000B3E4F0A37440F0B1B050028008902CB037
:101440007403F08006902CB07402F0902CAFE07121
:1014500034146D04147814148015148817149E30F5
:1014600014A63414AE3614B6370000149375FF0179
:101470005330EF8530FD804775FF015331EF800E0B
:1014800075FF015331DF800675FF0153317F8531D0
:10149000C9802C75FF015332DF8532CA802175FF68
:1014A000015333FE801675FF015333EF800E75FF35
:1014B000015333BF800675FF0153337F8533CB1251
:1014C00006E67F31B198E4FFB1C312058F902CADD1
:1014D0007402F0902CB1E0247F6009047015B1A172
:1014E000740A800671D1B1A17458F0902CB07403C5
:1014F000F0B1B9902CB2E0F46002A195902CB5E067
:10150000FEA3E0FF64104E7006902CB2740EF0EF54
:1015100064204E7006902CB2740FF0EF64404E7051
:1015200006902CB27410F0EF64804E7006902CB2CE
:101530007411F0E4B5070AEEB40106902CB27412EF
:10154000F0E4B5070AEEB40206902CB27413F0E48E
:10155000B5070AEEB40406902CB27414F0E4B50793
:101560000AEEB40806902CB27415F0E4B5070AEE42
:10157000B41006902CB27416F0E4B5070AEEB4204D
:1015800006902CB27417F0E4B5070AEEB44006904A
:101590002CB27418F00207C975FF02EF4440F58FB2
:1015A000227F30B198902CAD227B017D02020B4648
:1015B000902CB8E024FE24FD22902CB37401F0A3FB
:1015C000E4F022902FAAEFF0E4A3F0902CB8E0FF13
:1015D000B40209740FD12674B9F0800CEF64047062
:1015E00044743DD1267479F012052C902FAAE06046
:1015F00007902CB7E0FF80027FAB1206131206E6BD
:10160000902FAAE0902CB7F07016902FABE0D394F7
:1016100000400D7FFF120613902FABE014F080EA1C
:10162000E4FF1207B722902FABF0902CB7227B017A
:101630007D01120B467B012271F0120B19120BC8AF
:10164000120B5A9003B6E064017002C1F17FFF12E1
:10165000089490075851277E007F15F168BF540DFC
:101660007E007F16F168BFA5047F0180027F009095
:1016700003B4EFF064017050900758511EAE02F1B0
:10168000AE7402F1B790075EE0FEA3E0FF9007584A
:10169000511EF1C5E92407F9E43AFA90075B512796
:1016A000E92408F9E43AFEF1AE902E567402F012E5
:1016B000201C90075EE064067004A3E064016008EB
:1016C0001208999003B4EFF09003B4E070237E0009
:1016D0007F10C006C374269410FE74389400902DB9
:1016E000E6F0A3CEF0F1BED006F1CDE4FFFE120885
:1016F0009E120A33120984120902306305755001E3
:10170000802F124942120862124AD8FE4FFDA3E010
:10171000FC4DFDA3E0FB4D600BEE5FFFEC5FFFEBCC
:101720005FF470031226C09003BBE065509003AFD6
:10173000F0E4902DEEF0902DECF0A3F00200127F7B
:10174000011207B7D2481205307F0612061312069F
:10175000E6120530902CADE0FF120613902CB0E09D
:1017600064022235F0FEAF01E4FCFD902E9F31D5DE
:1017700012204C12063EEF600512205B80F5120528
:101780002C7F03F159600A902E9F31AD781012061C
:101790000F902E9F12060A902E9F1207F612062F08
:1017A000902EA3EFF01207B3902EA3E0FF22AF011B
:1017B0007B017A07795E22902E56F002201C7B0076
:1017C0007A00790022C3E99FF9EA9EFA22F1D774E0
:1017D000FFFDFC227405F0902DE35127E4FCFDC0D1
:1017E00007902DE3511E902DE6124991D007805DA0
:0317F000AF4222E3
:031800000202F1F0
:101808007FB8EFF4045FFF2186902CC6E0FF110A31
:06181800EFC43354E0228E
:0318230002477801
:10182B000235BB902CACE0120E81902CB1E09000F5
:0E183B0001120E93902CB2E0900002020E9368
:10184B0081D6902CB91211D5902CBD121227902C49
:10185B00B91211AD902CB4E024FFFD902CB3E03401
:10186B00FF5EFEED5FFF902CC2EEF0A3EFF04E603B
:10187B0066902CC21240E8902CB4E09FFF902CB3E2
:10188B00E09EFE902CC2F0A3EFF0902CC071209F35
:10189B00EC9E5006A3ECF0A3EDF051FEF060285146
:1018AB0024C004C005C006C007317E4A6005111173
:1018BB00FF80027F007E00317E7139F0D007D006A9
:1018CB00D005D00412067E31574A60057127FF8080
:1018DB006E7E007F008068902CC0E0FEA3E0FF4E80
:1018EB006068902CB37120EF9DEE9C400A902CC247
:1018FB00ECF0A3EDF0800D902CC0E0FFA3E0A3CFA4
:10190B00F0A3EFF051FEF060285124C004C005C0D5
:10191B0006C007317E4A60051111FF80027F007EF1
:10192B0000317E7139F0D007D006D005D0041206F5
:10193B007E31574A60057127FF80047E007F00903F
:10194B002CBEEE8FF0120F52808DD322902CC2E062
:10195B00FEA3E0FFC3902CC1E09FF0902CC0E09E53
:10196B00F0902CB91211C9E4FCFD121000902CB9A7
:10197B001211D5902CBD12121EE922E4FEEF70035A
:10198B007FFF22EFD3940F4009EFC4540FFFEE44B7
:10199B0004FEEFD39403400AEF1313543FFFEE44BE
:1019AB0002FEEF30E1010EAF0622AB07AA06EB24D5
:1019BB001FFFE43AFEEF7805CEC313CE13D8F9F927
:1019CB00EB541F902FDBF0AF051116FCAF053186E2
:1019DB00AE01EE14C39FC43354E0F9AF04C3EB9FC5
:1019EB00FFEA9400FEE9FDC3EF9DFFEE9400FEEDD0
:1019FB00600FE0FD6007C374209DFD80067D0080B5
:101A0B00027D007C00EF2DFFEC3EFE22AB05E4FCDB
:101A1B00FD902EA8EBF0020764902CC2E0FEA3E031
:101A2B00FF902CC6E0FD31B5902CC4EEF0A3EFF087
:101A3B00A3E0FF110AEF75F020A4FFAEF0E4FCFD6C
:101A4B00902CB91211C9021000712F121227E490B9
:101A5B002CDEF0A304F0902CDBE0FEA3E0FF4E7035
:101A6B000241F8D3EF9420EE940040047F208006CF
:101A7B00902CDBA3E0FF902CDDEFF0902CD8121212
:101A8B001E902CDDE0FF902BC3E4F0A3EFF0902C25
:101A9B00D41211AD714D400E902CDEE0FFA3E0FE91
:101AAB00EF4E902CDEF0902CDDE0FFC3902CDCE0B1
:101ABB009FF0902CDBE09400F0902CD41211C99085
:101ACB002CDDE4FCFDFE121000712F12121EE94AF0
:101ADB006007902CDDE0FF80027F00902CD9E48F13
:101AEB00F0120F52902CDFE025E0F04161902CDEDC
:101AFB00E0FF22902CBD12121E902CC2E0FFA3E03F
:101B0B00902CDBCFF0A3EFF0902CB91211AD515408
:101B1B00902CC6EF22E0FCA3E0FDD322902CC2E078
:101B2B00FEA3E022902CD41211D5902CD8222FF9A1
:101B3B00EE3AFA902CC4E0FFA3E0902D6ACFF0A30D
:101B4B00EF22902BBC1211D5902BC0121227E490D0
:101B5B002BE5F0D3902BC4E09420902BC3E09400A2
:101B6B004001227B017A2B79C5902BC31249E0905F
:101B7B002BBC1211AD9173902BC012121EE94A604F
:101B8B000B902BE5E0F58271C8FF80027F00902B54
:101B9B00E5E024C5F582E4342BF583E06F6002C3E6
:101BAB0022902BE5E004FFF0D3902BC4E09F902B09
:101BBB00C3E0940050C12212121E1E8E8275830048
:101BCB00020DFF902E999147E58F20E0FB914E750A
:101BDB00FF01E4FF902E9912121E8F8271C8F593AC
:101BEB000FEFB410EFE4FF902E9C12121E8F827138
:101BFB00C8F5940FEFB410EF22902D909147E58F1D
:101C0B0020E0FB914E75FF017E10902D9371C2F574
:101C1B0093EE70F67E10902D9071C2F594EE70F6E7
:101C2B007F01915B12491BEF70FA7E10902D96127B
:101C3B00121E1E8E821248E9EE70F12212122775C7
:101C4B00FF012275FF01538F0675FF01538FF022A1
:101C5B00EFB401081248F84401F58F2275FF01E536
:101C6B008F54F04406F58F22902D6C1211D5902DC8
:101C7B007012122712204C12063EEF600512205BE9
:101C8B0080F512052C7F03121759600B902D6C12E7
:101C9B0011AD781012060F902D6C12060A902D6C58
:101CAB001207F6902D731249A8601112062F902D72
:101CBB007012496E902D71E491D080E71206E6E424
:101CCB00FF0207B7E475F001020F52C0E0C0F0C08D
:101CDB0083C082C0D075D008C0FF75FF01E5D53039
:101CEB00E6047F028009E5D57F0030E7027F018F94
:101CFB0018E51864026002A1B0E5141213341D221A
:101D0B00011D35021D9D081D40091D4B0A1D590B58
:101D1B001D770C00001EF575FF0175C355151AE5EF
:101D2B001A6002C1F5751402C1F575FF0175C3F098
:101D3B00751409C1F575FF0175C35575140AC1F505
:101D4B0075FF019006D3E0F5C375140BC1F575FF54
:101D5B00019006C0E0F5C3751401751A149006E1E5
:101D6B0012499E6002C1F575140CC1F5AB1CAA1D7E
:101D7B00A91E124836AD16AF1F12485E1223E97525
:101D8B00FF00124A7143FA0475FF00F19B751408AA
:101D9B00C1F5C2EB751400431504123BFB4002C1A5
:101DAB00F591CFC1F5E51864016002C1F5F1F7407B
:101DBB0002C1F5E5107068F1E9E5D9120E81F1DD8C
:101DCB00E09007D8F012470E123BB99006BFEFF028
:101DDB009007D8E0FFD394095002C17A9006BFE078
:101DEB00D39402400CEFD394AA7F0040027F018072
:101DFB000D9007D8E0D394407F0040027F01EF6045
:101E0B0002806C9007D8E0F51612470390121AEF78
:101E1B00F075FF009007D8E0F5D9751003C1F5E513
:101E2B001064036002C1F5F1E9123B75E5D9120E9E
:101E3B008175FF009006BFE0C39403E5D3500554B2
:101E4B0002FF80035401FFEF602930E111C39006BC
:101E5B00CDE094FF9006CCE094FF5013800FC3901D
:101E6B0006CFE094FF9006CEE094FF500291CFF1A5
:101E7B006C8077C256F11075FF00F1D4E5D120E0EC
:101E8B00FBC2EB431502F109A3E0FF9003BAE0FE9E
:101E9B00EF6EF108E09003B9F102A3A3E09003BB4E
:101EAB00F102A3A3A3E0FE9003BCE0FDEE6D4F6037
:101EBB0011C39006D1E094FF9006D0E094FF50023E
:101ECB0091CFC39006CBE094FF9006CAE094FF50ED
:101EDB000291CF7510009006BFE0B403071516F101
:101EEB00DDE516F09003B8E516F0D0FFD0D0D08228
:101EFB00D083D0F0D0E032FEE0FDEE6D4FFF8512C7
:101F0B008285118322902FDDE5F4F0E0547FF5F408
:101F1B007F827E00F1A2F165F1545005E5FC20E6CD
:101F2B00F7305608902FDDE04480F5F4F15FF15463
:101F3B005005E5FC20E6F775FF01E5D520E702C368
:101F4B0022E5F4D330E601C32275FF03E591C330DC
:101F5B00E701D3227FE87E03F1A275FF0343918053
:101F6B0022C256F110F1D1E5D120E0FBE4F5FF756B
:101F7B00D9089006BFE07F00B403027F01F192D233
:101F8B0056F110E4F5102212275043FA04E4F5FF42
:101F9B0053D1FD43D10122902EEC124A7A7A2E793D
:101FAB00EE122FA25014902EEEE0FEA3E0FF902E27
:101FBB00EDE09F902EECE09E400B902EECE0FEA30C
:101FCB00E0FF122F8522E4F5FFE5D154FE4402F524
:101FDB00D122E5122407F582E43511F5832275FF32
:101FEB0001F5EA75EAFF9006C302121EE5F754C02D
:101FFB0024FF22902F4DE075F005A42411F9742BCA
:10200B0035F0FEAF017B017A2B79EC902E567405DF
:10201B00F0902E53121227E4FCFDC007902E5312A2
:10202B00121E902E56E0FF902D73E4F0A3EFF0D02C
:10203B0007021C73114C12063EEF6004115B80F615
:10204B002275FF02E5E430E10675E40675E4032230
:10205B00E51530E20EE51520E509E51530E0047FC6
:10206B000111E3229007DCEFF0E543C39420400419
:10207B00115B80F5E53FC394204003E4F53FC2AC10
:10208B0011C1EF700EE543700A9007DCE0FF120000
:10209B002080129007DCE0FFAE3F053F74662E11E7
:1020AB00C7EFF00543D2AC7F0122902CAEE0FF22AC
:1020BB00E4902CAEF022E5ED5401FF22F582E434DE
:1020CB0006F58322C2AC11C1EF7004E54360047FB7
:1020DB000180027F00D2AC22EF6010122B08FA7B3A
:1020EB0001AF82AE83E4FD91D28010302F037F00CD
:1020FB0022120B37122C51E433FF227F012290075F
:10210B008D121227D24CC2EBE51460026184E515E7
:10211B0030E202C322718D24E3F9E43AFAE4120EA1
:10212B0081123C6490078D71DC5407FF9006C1F05F
:10213B00123B11900790EFF0E51520E06E91C14036
:10214B00047F0111E3900790E0FF7B017A077991FF
:10215B00123E45E4337004D2EB6164900790E024A7
:10216B009A124AA2E0FF900791E0D39F403DD2EB39
:10217B00123C09A23A92ED9006D2E06010718D24C8
:10218B00E3F1F2120E8143150491ABD3229006E0DA
:10219B00E070167B017A0679E07C377DF6902E2570
:1021AB007464F0E4A3F01208C6C32291C15005C2B7
:1021BB0056121F10121FD1E5D120E0FBE4F5109051
:1021CB00078D71DC5407C39403E49400502E718D7A
:1021DB0024B171D5718C24D871D52FFFE433FED384
:1021EB00EF9440EE648094804012718D24E3F1E40F
:1021FB00120E81431504A23A92EDD322718D24085D
:10220B00F9E43ACFE9CFF5118F12718D24B171D565
:10221B00F516AE11124842718D24B2F9E43A8B1CBB
:10222B00F51D891E718D24D871D5F51F90078D7101
:10223B00DCFDACF05460602F718D24D971D5FF1289
:10224B003BCDC24C71C5FB7A009006E1124A9A7DD8
:10225B0018120EB5EF2BFFEA3EFEEF2414FBE43E03
:10226B00FA7D027F01615190078D71DC5407900656
:10227B00C1F0751408718D24B2F9E43AFA1248369C
:10228B00718D24D871D5FFAD1612485E9006C1E052
:10229B00640370247B01FD7195D391225005740169
:1022AB00120E2CE4F5FF124A71120DE62428FBE402
:1022BB0033FA7D03E4FF61519006C1E06402702A9A
:1022CB007198D39122400574FF120E2CE4F5FFE5B3
:1022DB00D25480440AF5D2120DE62414FBE433FAEF
:1022EB007D027F01912B71E9805EE4FB7D0171958D
:1022FB00D39122400574FF120E2CE4F5FF90078D4D
:10230B0071DC441045F07F0560027F0AEF547FFFBC
:10231B00E5D254804FF5D2E4F5FF43D28071C5FD71
:10232B007C0090078D71DC441045F07E0060047FCB
:10233B000A80027F05EF25E0FFEE33FEEF2DFBEE6B
:10234B003CFA7D017F01912B90078D71DCFFAEF084
:10235B00A24C924B123A704006A23A92EDC32291D4
:10236B00AB900790E0718C24E5F9E43AFAEF120E8A
:10237B0081A23A92EDD2EBD322A23A92EDD2EBC3E9
:10238B0022FF90078D12121EE922FF71EE90078D2E
:10239B0012121EE924B1F9E43AFA120DE6FF900786
:1023AB008D12121EE924D8F9E43AFA120DE62FFF2A
:1023BB00E433FEEF2401FFE43EFE90078D12121E64
:1023CB00E924B2F9E43AFAE92407F9E43AFA020DFE
:1023DB00E612121EE92404F9E43AFA020F7EE4FB3A
:1023EB007D01FFE4F5FF75D102E5D120E0FBE4F5BB
:1023FB00FFF5D1EF6008E4F5FF43D2808006E4F5EA
:10240B00FF53D27FEB6006E4F5FF43D104ED60068A
:10241B00E4F5FF43D108229FEE6480F87480982284
:10242B009007BCEFF0ED24FE6019146026240270B7
:10243B003BEB2402FFE43AFE7C007D50120EB57D8F
:10244B0060801E91A0C333CE33CED8F9FF7C007DC4
:10245B0028800E91A0C333CE33CED8F9FF7C007DFC
:10246B0064120EC79007BDEEF0A3EFF09007BCE02F
:10247B00123C56C083C0821211C99007BEE02401E2
:10248B00FF9007BDE03400FEE4FCFD121000D0828B
:10249B00D0830211D5EB2401FFE43AFEEF7803223F
:1024AB00E49006D2F07B017A0679E00208C1C2EB18
:1024BB00A2ED923AC2EDE5F4C330E701D322FA7BE9
:1024CB0001AF82AE837D01900775EEF0A3F1D8E5E5
:1024DB0014707991B95005C256121F10900775E010
:1024EB00FEA3E08E11F512A312121E9006C3121258
:1024FB0027AE11AF127DAA12480CE4F5FF75D9086F
:10250B00F510E5155421602BE51530E504E4FFF1DA
:10251B0050E490077AF090077AE004F0122EA2EFC5
:10252B00600990077AE0C3941040EB7F02120CEA2B
:10253B005315DE9006BFE07F00B403027F01121F2C
:10254B0092D256121F10D2EBA23A92ED22902D107E
:10255B00123EED902D161211E100000001902D1A84
:10256B007401F0F5FFE5D554C0700491C15002C35E
:10257B0022E4F5FF53967F75FF0175D5047F3FFE6F
:10258B00122F7775FF0143D508E4F5FF5394FBF544
:10259B00FF53847FF5FF7598FF902D14E5F4F075CC
:1025AB00F49C75FF01A3E5E4F075E4257B017A2D1E
:1025BB00791A123F2C902D1AE064016002C185F547
:1025CB00FF902D137414F0902D16D1B5FF780112D6
:1025DB001180902D161211D5E5A730E1FB43A70210
:1025EB00902D16D1B5FFE5A730E005E47B01800205
:1025FB00E4FBFAF9F8EF4BFFEE4AFEED49FDEC4830
:10260B00FC902D161211D5902D13E014F070B8908C
:10261B002D16D1B5FF781012116D7B6D7A4E79C6E0
:10262B00784112101BEF2439FFEE343012364BFC7D
:10263B00E4FBFA7901F81210A6EE547FFEE4FDFCE0
:10264B00123B04902D16D1B5FFEB6FFFEA6EFEE83F
:10265B00CDEFCDCCEECCECFF902D10F1CFEF120ED9
:10266B0081902D10F1CF900001ED120E9390120F6F
:10267B00E030E606E4F5FF75968075FF01E4F5D5CD
:10268B00902D14E0F5F475FF01A3E0F5E41244C8B6
:10269B00902D1AE0B40103D38001C322EB25E02572
:1026AB00E02401F582E43412F583E0FCA3E0FDA302
:1026BB00E0FEA3E022E4FF11E3EF603D7B017A0330
:1026CB0079B9B1585005124AD040F17B017A0379A0
:1026DB00BBB158500F124AD85FFFA3E05FFFA3E0D6
:1026EB005FF460E77F0111E37550017E007F087B8B
:1026FB00017A0379B9F1EBF1DE22900792121227DE
:10270B00900795EDF0E4A3F0ED54FE900795F06083
:10271B002AE4FF11E3BF012390079212121EB15856
:10272B005019900793124AC9900796E02402F09033
:10273B000796E0FF900795E06F70DD7F0111E39046
:10274B000796E0FF2275FF01E5D530E602C322E4D0
:10275B00F5FF439A80EF1237EEE4F5FF539A7FD3E0
:10276B0022902EE4121227123407F1C6120DE690B6
:10277B002EE7F0F1C6902E0F1212277B0112341D9B
:10278B00902EE7E0B40118F1C6E9240171D5902C25
:10279B008FF074FE120E81902C8E7405F0801690C3
:1027AB002EE7E0FF64066004EFB4070E902C8EE07A
:1027BB006003123290F1C6120CD622902EE4021254
:1027CB001E902EFDE0FBA3E0FAA3E0F922EFF0A3AD
:1027DB000212277404F00217D7F9E43AFA740222B2
:1027EB00902DE6E4F0A322F9E43AFA740122E4FD19
:1027FB007C0CAB050DEB900508938F828E83F00F4D
:10280B00BF00010EDCEC0200368F828E83E4F07485
:10281B0006113674021136A3A3E4F0EF2404F582FB
:10282B00E43EF583E4F0A37456F022A3F08F828E7E
:10283B0083A322AD07901215E054FCF0E0FFED549A
:10284B00307E0060027E02EF4E901215F0E0FFED3D
:10285B007E0030E0027E01EF4E901215F0229003C5
:10286B00C17402F09003B4E0FF120CD1113E90033F
:10287B00C17405F02275FF0275E404E4F5E475FFFD
:10288B0002E5E630E011901215E0540C600971512D
:10289B00901215E054F7F01203D8912C9003B6EF79
:1028AB00F0901200E0B47A14901214E0B49C0D90E6
:1028BB0003B6E0FF64056004EFB4032EE49003C09D
:1028CB00F09003C0E0FFC394805013E42FF582E433
:1028DB003412F583E4F09003C0E004F080E390122F
:1028EB0000747AF0901214749CF0120B5040031287
:1028FB000B4B7A1279107F0171C67A1279117F21F5
:10290B0012162E7A1279127D017F22120B467A1241
:10291B00791D7F0271C690121DE0B401057F011273
:10292B004732120AFB912C120AF69003B6EFF01203
:10293B000BCD120AF19003B6E0FF120CCCEF24FF83
:10294B00B3926375FF0253E6BF123598120B051253
:10295B00163820630B11697B017A28797A12099852
:10296B007F011220E3D2AF20630221F6120B551226
:10297B0008A3120CC7120B4140F29003B5E0603E66
:10298B00120B28EF700491194034E51470FCE51517
:10299B0020E502915112085DEF70FA712B50047112
:1029AB003D50057F011215C39003B5E0B40204E45A
:1029BB00FF80099003B5E0B403047F0171A2120BF1
:1029CB0023E51530E1A671DE4002E4F0E51520E5C4
:1029DB000571081224C971FCAF82AE83EFC0E071A0
:1029EB001671F3D0E0FF120BC3808112353D7123BA
:1029FB00EF70069003B5E0604C201C0320094612D3
:102A0B000B28EF70049119403CE51470FCE5152080
:102A1B00E502915112085DEF70FA712B5004713D74
:102A2B0050057F011215C39003B5E070117123EFB0
:102A3B00600C123019901215E04408F080079003D7
:102A4B00B5E0FF91929003B5E0600C201C093009B2
:102A5B0006200203120970120B551208A3D12AF19A
:102A6B00FA123008EF701E71CDEF60047151803394
:102A7B007123EF702E91AAEF70299186EF6401708C
:102A8B0022F1F3801E901215E020E21771CDEF605A
:102A9B000D712B5004713D5005E4FF1215C3E490EA
:102AAB0003BFF0203005120B2380221208B79003CE
:102ABB00AEE0FEEFC39E4005EF9EFF80089003AE95
:102ACB00E0F4042FFF7406D39F5002C230E515309B
:102ADB00E12371DE4002E4F0E51520E505710812F3
:102AEB0024C971FCAF82AE83EFC0E0711671F3D0D5
:102AFB00E0FF120BC3120AC912356421F69003B71B
:102B0B00E0FD75F0AA9003C5121212ED75F002A448
:102B1B0024B0F9740335F022917FB401027F0122B6
:102B2B00900001740193B40007E493B41802C3221C
:102B3B00D3227F017E009017FCE4935EFE74019319
:102B4B005F4E24FFB322910A700790121CE07001B4
:102B5B0022910A60237FFF12003E9012161211ADD4
:102B6B00EF24FFFFEE34FFFEED34FFFDEC34FFFCF2
:102B7B009012161211D5800D90121CE0FF12003E20
:102B8B00E490121CF0901235E0FD7F01123D409055
:102B9B00123412350A7F0143FB1075FF0243E640E6
:102BAB00EF600D75FF02E5E120E7FB43FB0D8003B2
:102BBB0043FB0E80FE75FF028FE3227B017D01023A
:102BCB000B46917FB402027F0122C2AFEFF4521584
:102BDB00D2AF227F0271D59003B7E09003C0F09083
:102BEB0003B704F0C3940222FA7B019003B8E0FD13
:102BFB00229003C0E0FD75F0AA9003C5021212E407
:102C0B00FFFEFDFC9012161211C9C302115C90035A
:102C1B00C2E0FEA3E0FF1208BCD3EF94C8EE940011
:102C2B002275FF02E5E630E2037F0322E5E630E39F
:102C3B00037F0022E5E630E1037F0422E5E67F0512
:102C4B0030E0027F0122E51470281224B95005C22E
:102C5B0056121F1091C57F08120CEA121FD1E5D135
:102C6B0020E0FB4315205315FEE4F510A23A92ED3C
:102C7B00D322C3229003BFE07F0022200D06123027
:102C8B003F7F01227F0022902FDCEFF0BF0204E494
:102C9B00FF8009902FDCE0B403047F0171A2229026
:102CAB002C8EE0B4040E902C93E0600812343CEFB1
:102CBB007002FF22902C8EE0FF22E5FA30E1FB75CB
:102CCB00FC8075FF0153D5EFE4F5FC75FC40D19BFF
:102CDB00E5FC20E6FB22902DFD12418DEBF0902EB2
:102CEB00037401F0C255121F5F121F545005E5FC0F
:102CFB0020E6F6B1FABF0108E4F5FC75FC4080074D
:102D0B00B1FABF0202D32275FF0153D8EF902DFE0B
:102D1B00E0FF1246D975FF0153D5DF53FAFB902D17
:102D2B00FDE0FF122750902DFEE0902DFDB4080C16
:102D3B00E01226A82452123648FC8005E01226A881
:102D4B00FF123F5F902DFFE0FFF1ED75FF0175FF67
:102D5B0003759B04121F5F75FC42E5FC20E1051215
:102D6B001F5440F3902E00E0F075FF03E59B20E726
:102D7B0005121F5440F3E59B20E70C75FF03759B71
:102D8B001F91C5D255804EB1F3123F2C902DFEE012
:102D9B00FD90120FE05D701D902DFDE0FFB1F31261
:102DAB0038E090120FE0FF902DFEE0FEEF4E9012F8
:102DBB000FF012379FF1C47B017A2E7901F1A250EB
:102DCB000FC3902E02E09420902E01E0940340E775
:102DDB00B1F3123F9FF17C30550281E9902E03E055
:102DEB00B40103D38001C3227B017A2E7903227FA6
:102DFB00FA7E00F185121F65E5FC30E605121F54C3
:102E0B0040F6E5FC30E6037F032275FF01E5D53084
:102E1B00E6037F0222E5D57F0030E7027F0122B176
:102E2B00FAEF64017069124703902FACEFF0D39463
:102E3B0002505C902DEEE0FF902FACE06F705012C3
:102E4B003F05902FADEFF07B017A2F79AD7D01120D
:102E5B000BBE902FACE024EAF582E4342DF583EF22
:102E6B00F0902DEEE0045401F07024902DECE07006
:102E7B0002A3E0601A7B017A2D79E8123CD07B012A
:102E8B007A2D79E8902DEC1249B28E8312135E22C3
:102E9B0075FF03E4F59122E4902EF4F0A304F0E423
:102EAB00902EF7F0E5FA30E1FB75FF01E5D530E741
:102EBB00037F0022E4F5FF75E50875FF0153D8EF9A
:102ECB00E5D530E61A75FF01902EF6E5DAF0E4F55C
:102EDB00DA75FF01E5D630E3FB902EF77401F07540
:102EEB00FF03759B0475FC4175FF03E59B30E7FB06
:102EFB00E4FB75FF038B951226A7FF123F5F0BEBCD
:102F0B00B403EF75FF03759580E4F5FF758EC8F17B
:102F1B00C475FF0153D5FBD19BF17375FF0143D5ED
:102F2B0004902EF7E07006D19B7FC8F1757B017A78
:102F3B002E79F5123F9F902EF5E0902EF47006E05F
:102F4B004404FF8002E0FF902EF4EFF090120EE0AD
:102F5B00B4010675FF0143D81075FF01902EF6E002
:102F6B00F5DA902EF4E0FF227F147E00F185121F1C
:102F7B006575FF03E59120E7FB2275FF03D3EF9403
:102F8B0002EE9400400874FE2FFF74FF3EFEEFF537
:102F9B0092EE540FF59122F1B8AD94EF4D123EE540
:102FAB008FF0120FE1E591C330E701D32275FF03D8
:102FBB00AF93EF75F010A4FF22E4F5FF75C2E17F2C
:102FCB001EF1DF30E707E4F5FF75C2A122E4F5FF40
:102FDB0075C28122FE123E0590120FE022E4F51419
:102FEB00815175FF018FDA229003BF7401F022909B
:102FFB0003BFE0FF120CC29003C4EFF0229003C496
:10300B00E07F0070027F0122E49003BFF022900367
:10301B00BF7402F022122C7F70027F012275FF0217
:10302B0075E40475E40175E4022275FF0275E4048E
:10303B00E4F5E422D2091208B79003C2EEF0A3EF35
:10304B00F0229156EF70087FA07E0FFDFC01EC91F2
:10305B0026902C89EFF07406D39F4067E0605A31BD
:10306B00627E00902C89E014FDE5F0A80508800530
:10307B00C333CE33CED8F9FF315B314D902C8A124E
:10308B0011C9C000C001C002C003902C89E014FF1D
:10309B0074107E00A807088005C333CE33CED8F951
:1030AB00FFEE3395E0FDFC315312101BD003D00221
:1030BB00D001D00012100080283162AFF07E0031B9
:1030CB005B801E902C91E0FF600FE4FCFDFEFB7A11
:1030DB00F47901F812101B80087F007ED07D077CED
:1030EB0000314D31757E317FE5C006C0073145712A
:1030FB00FBD007D00671D3913CEF703D3145315376
:10310B00D312115C4007E47F01FEFD802431453171
:10311B00531210A6314D3145E47B0171E55014314A
:10312B0045C3EF9401FFEE9400FEED9400FDEC948B
:10313B0000314C314531A1113F22902C8A0211AD47
:10314B00FDFC902C8A0211D5E47BE87A03F9F82276
:10315B007C007D64021360316AEF75F0A0842290CD
:10316B0003AFE064AA2411FFF02271F3EF600FE4C8
:10317B007FA07E0F314B901215E054E7F022901296
:10318B0015E0FF74E0D39F4005E02410F022EF64BC
:10319B0010901215F022902EE81211D531DFE47B3E
:1031AB00FF71E5501CE431DE1210A69012161211BD
:1031BB00D5E47BFFFAF931DE1210A690121CEBF06E
:1031CB00229012161211E10000000031DF90121C48
:1031DB00EFF022F8902EE80211AD9107902C8EE0C3
:1031EB00B4020A71EC902C8E7403F04193902C8EE8
:1031FB00E064037079902C90E06056902C92E0B4D0
:10320B000105120AE7800A902C92E0B40203120A1D
:10321B00EC902C90E014F0E0601F316AEF75F046F3
:10322B0084E5F075F064A4FFEF24A0FFE5F0340F04
:10323B00FEE433FDE433FC8007E47FA07E0FFDFC4E
:10324B00902DAB1211D57E317FE5E4902DAFF0615F
:10325B00D3902C8E7401F05193902C9574FDF090BB
:10326B002C947407F07B017A2C7994020CD6902C59
:10327B008EE0B4040F71F3EF60071217BEE4FF0189
:10328B004D120AE7227401F0902C8EE0640270203C
:10329B007C277D6C7F011209A77E317FE5C006C0BC
:1032AB0007E47FD07E07FDFC71FBD007D00661D30E
:1032BB00902C8EE064037017FFFE314B902C92E044
:1032CB007C277D6CB402047F0380117F02800D90FC
:1032DB002C8EE0B4040B7C277D6C7F041209A72194
:1032EB00E5902C8EE0B4010B71EC910751FFE4904B
:1032FB002C8EF022901215E05403F022902DEFEF5C
:10330B00F0C24F120A7EEF542364206027902C8E5C
:10331B00E060217B017A2D79F0902E0F121227910C
:10332B001D902DF07406F0A3E550F07B017A2D79FA
:10333B00F0120CD6902DEFE0607D71DCE060025155
:10334B0090902DEFE0FFB40107902C92740180094F
:10335B00EFB40310902C927402F051FF902C9074E8
:10336B0004F0804BEF64047038120A7EEF5423FF95
:10337B00BF2013D24F9130EF700451FF9115902C59
:10338B008E7404F08035120A7EEF5432FFBF020CAC
:10339B009003B6E0B40505E4F0120AE251FF7F009A
:1033AB0022902DEFE0B40213E4902C90F051FF909B
:1033BB002C8E7402F0800471DC04F05193902C8EEF
:1033CB00E07F0060027F01221208B2902C93EFF095
:1033DB0022E4902C92F0902C8E22FAF9F8C3021171
:1033EB005CE4FDFCFF0209A7901215E05408FF22D4
:1033FB00902DAB1211D5E4902DAFF022902C93E0D1
:10340B00FF1208ADE4902C93F022901215E04404C7
:10341B00F0227A2C79947F06020885901215E0C46D
:10342B00135407FF22901215E07F0030E2027F0158
:10343B0022901215E07F0030E0027F0122AE0731AF
:10344B006AEE04FEEF8EF084AFF022901215E0547A
:10345B0014FFBF14047F0180027F0022902EAE1256
:10346B0011D5902EB2E05402901234F0902EAE1281
:10347B0011AD21A1E53864066006E5386407702FAD
:10348B00902C88E06003F47026E4FDFC7F01120AA7
:10349B00BA7E347FBBC006C0077F587E807D047C1C
:1034AB000071FBD007D0061208B2902C88EFF022E7
:1034BB0091BF80C0902C88E0FF1208ADE4902C885F
:1034CB00F0229007C8EFF0A3EDF05402901234F005
:1034DB00122C86EF7002C3229007C8E0B40411A32C
:1034EB00E0FB7D017F01B1109007C87403F08005EC
:1034FB009007C9B10A9007C8E09003B5F0D322E05A
:10350B00FB7D01E4FFEB600875FF0153CDFD8006E9
:10351B0075FF0143CD02ED600553FBDF800343FBD9
:10352B0020EF600775FF0243E1402275FF0253E174
:10353B00BF2230310D12092AEF6007C25C12091647
:10354B00C231229003BDE0FCA3E04C700A9003BD96
:10355B00EEF0A3EFF0D322C3229003BDE0FEA3E075
:10356B00FF4E6009CAEECAC9EFC912135A22EFB453
:10357B000103D2EF22C2EF22E5C85440FF75C840C9
:10358B0022E5C85480FF22E5C85420FF22D2ADD2D9
:10359B00BD75FF02758E7175510975FF02E58E546D
:1035AB006F4480F58E902EE01211E1000000002296
:1035BB00C0E0C0F0C083C082C0D075D008C0FF751A
:1035CB00FF02E58E30E43A75FF02E58E54EF4410AE
:1035DB00F58E902EE01211ADD145FC902EE012111C
:1035EB00D5900000121CCFE55130E0020539E551B2
:1035FB00700D755109054DE54D7002054C80021596
:10360B005175FF02E58530E40875FF02438510050F
:10361B0055D0FFD0D0D082D083D0F0D0E032FF7E17
:10362B0004FDFCE0F8A3E0F9A3E0FAA3E0FB121021
:10363B001BE47B7DFAF9F81210A6EF2401FFE43EA0
:10364B00FEE43DFDE43C22902C0E1211D575FF02D9
:10365B0043E180122CC51245F9902C231211E10085
:10366B002DC6C0E4F5FFF5A490120EF0A3F0902C3C
:10367B001E7402F0F1CDFFF595EF14601414601E6B
:10368B002402702A902C0E1226B5F1C0902C1A80B1
:10369B0018902C121226B5F1C0902C1B800B902C7D
:1036AB00161226B5F1C0902C1CE0902C27F0124678
:1036BB001D902C27E0700FF5FFF59675FF0175D760
:1036CB000975F418805F90120EE004F0902C1EE048
:1036DB00F1EE902C231226B5FF902C1F1246CDC372
:1036EB0012115C500B902C1F1226B5FFA31211D593
:1036FB00902C27E0FF12447A902C1DE0FFA3E0FDF5
:10370B00A25492521245A7A31226B5FF902EB412C3
:10371B0011D5902C1EE0FF12462A902C1EE012268B
:10372B00A8FF123F5FF1D56002C17F7402F0F1CDAB
:10373B00F595E5F45407701B902C23D129F1C79014
:10374B002C1EE0FB1246C1F5831211D51226A7FFE2
:10375B00123F5FF1D570D775FF03759580F1E64089
:10376B000343F420A25492531244D9902C231226D3
:10377B00B52420FFEE344ED14BFCE4FB7A04F9F870
:10378B00D139F1C7C251123FF7E4F5FFE5BD54F84B
:10379B004404F5BD9012137401F07E127F01E4FD19
:1037AB008F828E83EF2DF1DEFC901213E02CF00D47
:1037BB00EDB412EC22FF902C1F0211D5FC78010204
:1037CB00116D75FF03902C1EE022902C1EE0FF1450
:1037DB00F0EF22F582E43EF583E02290120EE0D367
:1037EB0094012233333354F8F5F422E49006E0F0DD
:1037FB009006D204F0221224C1500712380F500247
:10380B008001C322E5F754E024FF22AF14EFC3601D
:10381B0001D322EFC3940E50059006C2EFF022E5C0
:10382B0017540FFF22E517C394F0501F5317F011D5
:10383B0059FE740FC39F4005EE940E400543170DC0
:10384B008003EF4217E517540FFF227F0022E51785
:10385B00C4540FFEEF9004B9932E221159FFC39459
:10386B000E40027F0DEF90049B93FF22EF30E3039A
:10387B00AF1322AD1B203B04EE30E00BE517C394D6
:10388B00F0502011B18018E5196006FDE4F51980A0
:10389B0012E517C394F0500BE517540FFF6004119A
:1038AB0066AD07AF05229006C2E0FDFFC3740E1193
:1038BB00D9EFC4F8540FC868FFEEC454F048FEE5C6
:1038CB001754F0C31224227F005002AF05229FFF32
:1038DB00E49400FE22902EF8EDF0901211E0F460CB
:1038EB0005A3E0B4FF0C902EFA7418F0A37413F038
:1038FB008010901211E0902EFAF0901212E0902EA0
:10390B00FBF0120DE664016002414A902EF8E0FED6
:10391B0064086004EEB40408902EF97428F0800655
:10392B00902EF9743AF0EF1226A8FF121138E451D9
:10393B004BEF24D8FFEE343FFEED3493FDEC341601
:10394B00FC7B007A80790378001203947104902E2B
:10395B00FBE0FF902EFAE0C311D9E4FCFD12101B23
:10396B00ECC0E0EDC0E0EEC0E0EFC0E0902EFBE07D
:10397B00FFE4FCFDFE514BD0E0FBD0E0FAD0E0F9C8
:10398B00D0E0F8EB2FFBEA3EFAE93DF9E83CF89082
:10399B002EF9E0FFE4FCFDFE12101BEF2454FFEEAA
:1039AB00340B12364BFCE47BA87A16F9F81203940D
:1039BB00CBEFCB902EF8E014605D14601B24FE60FF
:1039CB000C24FC707AE4F5FF75CE318006E4F5FF2C
:1039DB0075CE21F5FF8BCF22E4FAE4F5FFEA244004
:1039EB00F5CEE4F5FFEAFFC3740711D9741C2FF56C
:1039FB008274053EF583E45153C39DF5CFE4F5FF87
:103A0B00EA2448F5CEE4F5FFEA90051C51532DF559
:103A1B00CF0AEAB408C422E4F5FF75CE01F5FF8B9B
:103A2B00CFF5FF75CE0EF5FFEB25E0F5CFE4F5FFF7
:103A3B0075CE0FF5FFCFEBCFEB75F003A4F5CF22CF
:103A4B007B64FAF9F802101B9325E0FDE433FCEBE1
:103A5B0075F010A4FFAEF0120EC7CDEFCDEBFFE467
:103A6B00C313EF13224315015315DF117751B140E7
:103A7B0004E4F5142243FA045315FB304B05121FD3
:103A8B0098800A7F55519A7F55519AD2EBD3227564
:103A9B00FF01E5D520E602C322E5FA540360FA756F
:103AAB00FF018FC3D3229007BAEFF09006C1E0FF5E
:103ABB0071119007BBEFF09006C1E024FD60130479
:103ACB0070089007B97404F0800E9007B97408F071
:103ADB0080069007B97402F07F01120CEA9007BBC5
:103AEB00E09007B951FDE4902E00F0122CE150ED5F
:103AFB00D322FFE0FDA3E0FB22C8ECC8C9EDC9CA85
:103B0B00EECACBEFCB22EF24FD600680007E018056
:103B1B0002E4FEAF06229003C1E0B4020D8F1B90AE
:103B2B000772E0F513120B00D322C3229007B612D3
:103B3B001227716FE51B716C7175716BE924027142
:103B4B0067E92403F9E43AFAE513716CE92404718B
:103B5B0067E92405F9E43AFAE4020E81F9E43AFA4A
:103B6B00E4120E819007B602121EE92401F9E43A21
:103B7B00FA22E51754F0C4540F2FFFC394104002E0
:103B8B007F0FEF9004A993FF227E10EE60091EEECB
:103B9B009004A993B507F4EEC3940E40027E0DEE8C
:103BAB0090049B93FF22C2AFEF4215D2AF22EF24BA
:103BBB00FE600C24FE600580007F01227F02227FC5
:103BCB000322751401751A139006D3EFF09006C1FA
:103BDB007402F0ED9006E130E507E4F0A3743AF0DF
:103BEB0022E4F0A374E6F02271FB5003121CCF22E7
:103BFB00C39006C7E094FF9006C6E094FF22C390E3
:103C0B0006C9E094FF9006C8E094FF5003121CCF46
:103C1B00229006E1E0A3E0FF227D02122705EFC30D
:103C2B006001D322E49006D491449006D89144FFCE
:103C3B00FEFDFC9006DC0211D5FFFEFDFC1211D53A
:103C4B00E422EF91561211AD02119325E025E024E9
:103C5B00D4F582E43406F583229003B9E0F4FFA394
:103C6B00E06FFFA3E06FFFA3E06FFF64556009EF08
:103C7B00644A6004EFB40A010F9006C0EFF022A271
:103C8B00EB924DC2EB7A0679C67B017D0CE4FF12F9
:103C9B000858A24D92EB22A2EB924EC2EBEBC0E086
:103CAB00EAC0E0E9C0E07B017A0679C6902E0F12DC
:103CBB001227D0E0F9D0E0FAD0E0FB7F0C12088598
:103CCB00A24E92EB22C003C002C0017B017A2D7978
:103CDB00EA902E0F121227D001D002D0037F0202DE
:103CEB000885902DECEEF0A3EFF0229027F6E07014
:103CFB00087B017A2779EEB1189027F6E044C0F0E3
:103D0B009027F9B11F9027FDE054FEF0227D107F24
:103D1B0023020B46E054FEF0A3E044C0F0227405EE
:103D2B00D39F500B7463C39F4005902C91EFF09081
:103D3B002C91E0FF22EF7011ED600775FF0143AE90
:103D4B00012275FF0153AEFE22EFB4011490123520
:103D5B00EDF0600775FF0143AE022275FF0153AE14
:103D6B00FD22EF600775FF0253E6BF2275FF02438A
:103D7B00E64022EF14600F146014240270188B803D
:103D8B0075FF018DFD228B9075FF018DC9228BA0D4
:103D9B0075FF018DCA22AF038FB075FF01AF058F81
:103DAB00CB22902DF7121227EF14601114601824F8
:103DBB0002701EB1E7E580B1EDE5FD801CB1E7E5D2
:103DCB0090B1EDE5C98012B1E7E5A0B1EDE5CA8090
:103DDB0008B1E7E5B0B1EDE5CB020E81902DFA020B
:103DEB00121E120E8175FF01902DF702121EE4F5C3
:103DFB00FFAF9122E4F5FFAF9222CDEFCDCCEECC0D
:103E0B00122FB8AB94EF4BD1E5CBEFCBFAE591305A
:103E1B00E719122FBBA994E9F582EF4582FFEBD18D
:103E2B00DDC3EF9582E5F0958340E2E59120E7094C
:103E3B00CEECCECFEDCF122F7722902EFCEFF0A34E
:103E4B00D1ED75FF01122DFAEF64016002C322E57B
:103E5B00F430E602C3227FE87E03122F85121F6522
:103E6B00D1C6400122C256121F10902EFCE0FF1249
:103E7B00275053F4DFD256121F107F787E00D105E6
:103E8B0075FF0153E4BFE5E430E7FBD1F67F8A12FF
:103E9B002FDF30E6061227CCE4800875FF011227CE
:103EAB00CCE5D9120E8175FF0143E4401237E64091
:103EBB000343F420D1C6400122D322E5F730E510AD
:103ECB00E5F754C07005121F5440F0122E9BC3220D
:103EDB00D3222DF582EA3CF5832224FBFFE5F03457
:103EEB00FF22EBF0A3EAF0A3E9F02275FF01E4F562
:103EFB00EA75EAFF22D1F6AFD922E4FFE5F754C009
:103F0B00600280F175FF01E5D530E30DF12550F42A
:103F1B00F100EF60EFF12550EB2275FF01E5E43383
:103F2B0022902F44D1ED7F017C127D01E4FE8D8226
:103F3B008C83ED2EF582E43CF583E02FFF0EEEB47F
:103F4B0012EC901213E06F600A902F441227CFE40B
:103F5B00120E8122902EF01211D575FF01902EF0CA
:103F6B00A3E0FDA3A3E4FFF18F8FE1902EF0A3A3B9
:103F7B00E0FEA3E4FFF1978FE2902EF0A3A3A3E062
:103F8B00FF8FE322FEE4FC781002116DE4FDFC7858
:103F9B000802116DC25075FF03759B1F75FF0390CF
:103FAB00120FE020E71BE59A540FC394024012E076
:103FBB004480F0E4F5FF75C2A143FC0475FF03D206
:103FCB0050E5FC30E609E59A540FC3940540CDE566
:103FDB00FC30E611E4120E8175FC80F5FC75FC409B
:103FEB00E5FC20E6FB30500312379F22902C721217
:103FFB0011D5E4F5FF75BB0575BB8575FF0175D54F
:10400B00022051097F3FFE122F77122FC475FF013B
:10401B0043D52030510201BAE4F5FF538EF7438E9E
:10402B00077D04E4F5FF8DBCF5FF43B102E5B1302C
:10403B00E2FBE4F5FFAFDFEFFEACDEECFBEBFFEDFD
:10404B0025E02470F582E4342CF58311E1F5FFF5BE
:10405B00FF53B1FD0DEDB40CCA902C721226B5FFB7
:10406B00780912116DA311E1FDED25E0247AF5829B
:10407B00E4342CF583E0C313FAA3E013FB11D41142
:10408B00EF2BFFEE3AFE11D4EEF0A3EFF0ED24048C
:10409B0090120DF0EDC394075015CFEDCF0DEF112E
:1040AB00D511E8902C77E09F902C76E09E50BAE4E7
:1040BB00F5FF758EC8F5FF90120DE0F5BCE4F5FF2A
:1040CB0075BB8075FF01F5D522ED25E02478F582CF
:1040DB00E4342CF58322EEF0A3EFF0E422E0FEA310
:1040EB00E0FFC322E0C313FEA3E01322902F0031A5
:1040FB008AEBF03173AC00AD01AE02AF03C006C06A
:10410B0007902F0011EFFBAA06E4F9F8D007D006B1
:10411B00D31211467E0050047F0180027F00C0063F
:10412B00C0073173D0E02FFFD0E03E902F00F0A3FB
:10413B00EFF053ECFC902F00E0FCA3E0FDEC5403FC
:10414B0042EC75FF02EDF5AF75ED0275ED04A3E0E2
:10415B00600543EC08800353ECF7902F03E06004F9
:10416B0043EC042253ECFB22902F00E0FEA3E0FB78
:10417B00AA06E4F9F87F807E387D01FC020394EEF9
:10418B00F0A3EFF0A3EDF0A322902CF8318DEBF020
:10419B007F02120B1E902D01121227EA494B606110
:1041AB00902CF9E0FF510F7190EF120E81E4900605
:1041BB009FF0718A514FEF6010902CF8E04442F061
:1041CB00510F24D95117120E81902CFAE0FF30E1D8
:1041DB001E510F24BA5117120E81EF54FC902CFA7A
:1041EB00F0FE902D5BE054FDF0511E7D01800C9094
:1041FB002CFAE054FEF0FE511E7D02120B8C7F0157
:10420B00227F0022902D0112121EE922F9E43AFAC4
:10421B0074FF22902CF8E0FF902CFEE0900718F032
:10422B00A3EEF0902CFFE0FDA3E090071ACDF0A3D6
:10423B00EDF0902D0112121E90071C121227902CDC
:10424B00FB02121E902EDB121227E4902EDEF0A33F
:10425B00F0902EDEE0FF902EDB12121E1208D5908E
:10426B002EDEEFF0600B5186EF6006902EDFE00440
:10427B00F0902EDEE070DAA3E0FF22E0FFC26102D5
:10428B000A2E902D05121227902D04EFF0FE902D83
:10429B000F7403F0902D0CE05437F0E0FF54209096
:1042AB002D5DF0902D5CEEF0902D0DE0FDA3E090D8
:1042BB002D59CDF0A3EDF0902D0812121E902D600C
:1042CB00121227902D0BE0902D5EF0902D051212FF
:1042DB001E90068E121227EF4420902D5BF0E49077
:1042EB002D5FF0C233F549902D0512121EAF491206
:1042FB0008D58F49EF602A7D03120AA640E9902D5D
:10430B000BE0D3941940037F0022AF49120AA1504E
:10431B0008902D0F7401F08008902D0F7402F0801F
:10432B00C6902D0BE0FED3948240037F0022902D8C
:10433B000CE0FB902D0F30E0107176C003717E9076
:10434B002CFEEE7197D00380207176717E902D0B31
:10435B00E0902CFEF0902D59E0FBA3E0902CFFCBCE
:10436B00F0A3EBF0902D0CE0FB2194E0FF902D04DB
:10437B00E0FD22902D0812121E902CFB02122790AA
:10438B00068E02121E24B6F9E43AFA22F0A3744305
:10439B00F0A374A1F022EF6004902D5FF090069FC4
:1043AB00E0FF718A1208D590069FEFF0605620331C
:1043BB0053902D5DE0C330E501D39236902D5CE038
:1043CB00FD902D6012121E900708121227902D5E81
:1043DB00E090070BF0902D5BE090070CF0A374803E
:1043EB00719790069FE0FBE4FF120B96EF70219004
:1043FB002D5F7402F0902D59E0FEA3E0F5828E83C1
:10440B007F028009902D5FE0902D59911C12135E55
:10441B0022FFE0FCA3E0FDF5828C8322C2ACE4F525
:10442B0043F542F541F53FF540F53E7B017D01112A
:10443B00F7D2AC22C003C002C001902D5212121E43
:10444B00902D08121227902D55E0902D0BF0902DEA
:10445B0056E0902D0CF0902D57E0FFA3E0902D0D22
:10446B00CFF0A3EFF0D001D002D003AF50418DEFCE
:10447B0030E00E43F401E4F5FF43A404F5FF759619
:10448B0024EF30E10E43F401E4F5FF43A408F5FFFC
:10449B00759624EF30E20943F402E4F5FF75961E9E
:1044AB00EF30E30943F404E4F5FF75961075FF0153
:1044BB00EF5403600475D7122275D72D22E4F5FF54
:1044CB007584E6F5FF439404F5FF75981422E4F523
:1044DB00FF75933F75FF03759A4091C8E4F5FF751F
:1044EB009C93F5FF75A1A3F5FF758531F5FF7586D7
:1044FB0028E5FA54304480F5FA75FF0175E74A75E3
:10450B00FF0275DF4975FF0143D30475FF0153D3D8
:10451B0067E4F5FF53E6BF75FF0175D825F5FF7509
:10452B00B503F5FF75B215F5FF75BA02F5FF75AF5B
:10453B00B3F5FF75CD0AF5FF75CB08F5FF75CA12FC
:10454B00F5FF75BF0EF5FF75CC96F5FFF5BDF5FFC5
:10455B0075C281F5FF75AEE1F5FF75DA55F5FF759F
:10456B00F580F5FF75E903F5FF75E933F5FF7597F1
:10457B002A75FF01759B42759CA4759D29759E48F4
:10458B00759F2475A11275A312759AF820530CF51B
:10459B00FF43968090120FE04440F022CCEFCCCF3B
:1045AB00EDCF74017E00C8EFC8088005C333CE334E
:1045BB00CED8F9FFCDECCDEF5D601B30521875FFF7
:1045CB000175DCAD75FF0175DDCDE4F5FF759A74F2
:1045DB00F5FF7594842275FF0175DC5375FF01752A
:1045EB00DD33E4F5FF759A14F5FF75940422D113AE
:1045FB0053DB7F75FF0175D502122F73D11343DB8C
:10460B008075FF01E4F5D52275FF01438E1075FF10
:10461B00012275FF0175E46575FF0175D647229080
:10462B002EB3EFF0E4A31236291237C7902EB3E066
:10463B00FBD1C1F5831211D5901210E06480607527
:10464B00E0C3947F503BEBD1C1F583C083C0821292
:10465B0026B5FFEEC0E0EFC0E0901210E075F0045D
:10466B00A4AEF0FBCAEECAEA3395E0F9F8D0E0FF4E
:10467B00D0E0FEC3EF9BFFEE9AFEED99FDEC988028
:10468B002C902EB3E0D1C1F583C083C082D1CD90E5
:10469B001210E0F40475F004A4FFAEF0EE3395E0D5
:1046AB00FDFCEB2FFFEA3EFEE93DFDE83CFCD08232
:1046BB00D0831211D52225E025E02401F582E434C4
:1046CB001222E0F8A3E0F9A3E0FAA3E0FB2275FFC6
:1046DB0001E5D530E602C32253FACFEFB408054308
:1046EB00FA308012EFB4040543FA208009EFB402CC
:1046FB000543FA108000D322E5F454181313135416
:10470B001FFF22E5F75406FFBF06037F0822E5F7DC
:10471B005406FFBF04037F0422E5F75406FFBF02D4
:10472B00037F02227F0122EF600775FF0243E61031
:10473B002275FF0253E6EF22E5ED30E2FB75ED0447
:10474B00AFEF22E5ED20E0FB8FEF22EF600443ECAF
:10475B00042253ECFB22EF600443EC082253ECF7EA
:10476B0022E5ED5402FF22E5ED5404FF22C0E0C028
:10477B00F0C083C082C0D075D000C000C001C002A1
:10478B00C003C004C005C006C007C0FFF172EF60D4
:10479B002A1200661204FBE53EC394204003753ECB
:1047AB0000E542C394205010AE3E053E74462E12D7
:1047BB0048BEEFF005428003754220F16CEF602498
:1047CB0012006EE543D39400401AE5419420400358
:1047DB00754100AF41054174662F1220C7E0FF12EF
:1047EB0000201543D0FFD007D006D005D004D0034E
:1047FB00D002D001D000D0D0D082D083D0F0D0E086
:10480B0032E4F5FF75D102E5D120E0FBE4F5D1F5FB
:10481B00FFEF112DEE540F42D6E4F5FFCFEDCF8F06
:10482B00D422F5D7E4F5FF53D6F022E4F5FFE911D6
:10483B002DEA540F42D622E4F5FFEFF5D8E4F5FF4D
:10484B0053D60FEE540FC4F854F0C8E4C4540F48B9
:10485B0042D622E4F5FF8FD4F5FFCFEDCF8FD522D3
:10486B00E4F5FF8FD422E4F5FFE5D1540133333364
:10487B0054F8FFE4F5FFE5D354074FFF22E4FF3074
:10488B002F037402FF22200005D2160209DEC32279
:10489B00E540C394204003E4F540AF400540744627
:1048AB002F11BEE0FFC2ACE542D39400400215428B
:1048BB00D2AC22F582E43406F58322C2ACC3742059
:1048CB009543FFD2AC22902FA7121C47E4FF902FE9
:1048DB00A712121E8F8211E90FEFB410F12275830C
:1048EB0000E593020E9311F84408F58F2275FF0132
:1048FB00E58F54F62275FF01E58F5408FF22EFB4C4
:10490B00010775FF0143AE202275FF0153AEDF2275
:10491B0075FF01E58F5401FF22EFB4010775FF010D
:10492B004391202275FF015391DF22121227902C05
:10493B0069E0540F22C20A7B007A007950902E5AFC
:10494B001212270B7A0379B922F9E43AFAEE8FF0B7
:10495B00020FE1E9240BF9E43AFA22FFE5F08FF0BC
:10496B00020FE112121EEF020E8112121EE924BD7C
:10497B00F9E43AFA2275F005A424F3F9740035F042
:10498B00FEAF017B0122E0FFA3E0902CC0CFF0A390
:10499B00EFF02274FFF5F0120F5245F02274FFF581
:1049AB00F0120F6845F022E0FEA3E0FFF58222E94A
:1049BB002402F9E43AFA02123CD2357B017A0679E9
:1049CB008822E924FFF9EA34FFFA020DE6F07B01B5
:1049DB007A28797E22E0FFA3E0902D73CFF0A3EF2E
:1049EB00F0227A0679BB7F042290074DF0A3EF22C9
:1049FB00E0FFA302121EE9242DF9E43AFA7D04E448
:104A0B00FF227B017A2E79A97F030208857B017A2D
:104A1B002E79AC7F02020885F0A3EDF0E4A3F0221F
:104A2B008D828C8302135EE92420F9E43AFA22F09A
:104A3B009029647401F022E92408F9E43A22240C49
:104A4B00F9E43AFA227405F0E4A3F0222FF9EA3ED6
:104A5B00FA020DE6902E79ECF0A3EDF0227B017DAE
:104A6B001D1208D0EF22E5D254804414F5D222EE69
:104A7B00F0A3EFF07B0122FFAEF05407640322E9B1
:104A8B00242CF9E43AFA227438F0A37426F022E0CD
:104A9B00FEA3E0FF7C0022F582E43406F58322FFBF
:104AAB0054F0C4540FFE227401F0AE04AF0522AAD9
:104ABB0006A90702135AAF03EAF0A3EFF022E4753D
:104ACB00F002020F529003B9E0C394C0229003B9D5
:0D4ADB00E0FFA3E022902FD8E014F0E022CD
:107F7E000200022B162FD0020602022FD23006006C
:107F8E003904060102300B380D08070506010238C8
:087F9E001238200013FF060158
:107FB000FFFF1F1F1FFFFFFF7FC600000000000024
:067FC000000003080000B0
:108000007B01E4FFAE051DEE6009EF120E8112CF79
:108010004B80F122902F241227D8915531054AC365
:108020006001D34002210312F2CB501AE0FF940406
:10803000500280027F04310512497912A5C47B01E8
:108040007A2C795171B2902C421223DC5467902C17
:1080500055310424DF5127902C50310424E6512758
:10806000902C56310424E75127902C57310424E8F2
:108070005127902C58310424E45127902C4E310480
:1080800024E55127902C4F310424E91223E212CF2A
:1080900001F0902C4212121E9178E4902C4531048C
:1080A00024DC1223E245F06051902F24E0602CA3E1
:1080B00012121E12A5C47A2C794912F3969169C046
:1080C00003C002C001310524DC1223E2F58285F0F1
:1080D00083D001D002D003E4FF801C9169C003C0AB
:1080E00002C001310524DC1223E2F58285F083D041
:1080F00001D002D0037F0112135E12A669902C42B8
:1081000012122722F0902C4212121EE9229007BF71
:108110001212279007BFB122540F120E819007BF91
:1081200012121EE924E61227F2020E2C902C4212A3
:108130001227E924E351276017E4902C59310412E7
:108140003B767401120E817E0B7F0AFD7C00807CE1
:10815000310524015127D39401403B120B87902C09
:1081600059EFF07E0B7F0A310524B7512730E7190C
:10817000310524BB512720E010310524BC512712C2
:10818000F4CEB504047D078009310524B1512712CE
:10819000F50B7C008036E4902C59F07E0B7F0A3181
:1081A0000524B7512730E719310524BB512720E0BA
:1081B00010310524BC512712F4CEB504047D07808C
:1081C00009310524B1512712F50B7C00020B82E026
:1081D000FF902964E0FD902FCCEFF0ED24FE6021AC
:1081E00014602C14602E2403703012BEDB543864EB
:1081F00010600A902FCCE0FF12CC8D5002D322C326
:108200002212BEDB5438FFBF1003D38001C32212F9
:10821000DAFA132212DAFAA2E122C322C219902C4E
:10822000C712121EE92402F9E43AFA020DE63105FA
:108230004AC36001D350793105123B7674FF120EA8
:108240002C120DE6FFD394014007EF9403500280F7
:108250004F3105240151276401704D902C421223A7
:10826000DC124A82703A310524B6512765507030CD
:10827000310524B7512720E727310524B95127D3E9
:108280009440501C200D19310512F36BEF54F84443
:1082900002FF124958310524B751274410120E81AC
:1082A000902C4212121E210DE4902C45F0120B9BD3
:1082B00022902F28121227E94AC36001D34002619D
:1082C00092902F28512130E016719424B7512754F1
:1082D0000FFFBF0503D38001C340049170212C918F
:1082E00055917012F2CB501AE0FF940450028002B4
:1082F0007F04719412497912A5C47B017A2C7951BB
:1083000071B2902F281223DC5467902C557193245E
:10831000DF5127902C50719324E65127902C5671F1
:108320009324E75127902C57719324E85127902CE0
:1083300058719324E45127902C4E719324E55127D2
:10834000902C4F719324E91223E212CF01719324F0
:10835000E35127902F2B7003F080037401F0719488
:1083600024DC1223E245F06025902F2BE0FF916979
:10837000C003C002C001719424DC1223E2FDACF002
:10838000F58285F083D001D002D00312135E917084
:10839000917822F0902F2812121EE922AE058E53FA
:1083A00012C4D5AD5312BE8CEF24FF227A0379B9E3
:1083B0007F04902E0C121227AE071FEE601E902E27
:1083C0000FB122FE902E0C12121EEE120E81902E74
:1083D0000D121CCF902E10121CCF80DC2202063E04
:1083E0007D01AF48300C53ED6017E4FE9148E0B5D5
:1083F00007099148E4F0913BE4F0220EEEB405EC5D
:1084000022902787E0FDE4FCFE9148E0B5070E913D
:108410003BE0C394FF5023913BE004F022913BE00A
:10842000FBEDD39B4004AD03AC060EEEB405DAECD5
:108430009149EFF0EC913C7401F022EE25E02487A5
:10844000F582E43427F58322EE25E02486F582E4E4
:108450003427F5832291697D13E4FF11047B017AAF
:108460002C79497D057F7F01047B017A2C79462296
:10847000902F2802121E210DE4020E81902C59E04B
:10848000600314F022120B7D412E902E57121227FA
:108490007E007F14121768902E5A12496E902E5A41
:1084A000B122701004120E81B171E94A60177E008A
:1084B0007F08800AB171E94A600B7E007F10B171BC
:1084C00074041217B722C240227B017A0379B9AD36
:1084D00050902F471212277E007F14121A177E0029
:1084E0007F10902F4712121E12B6361227DE7F0120
:1084F00022902E13121227AE071FEE601F902E1629
:10850000B122FE902E13B1226E60037F0122902EC5
:1085100014121CCF902E17121CCF80DB7F002290EC
:108520002F8312121E020DE6902F80121227902F19
:1085300080B122FF64226005EF6423703330051A96
:10854000E92401512712C4D412F439600DD21390DA
:108550002F8012F37A512712DE37902F8012F37A90
:108560005127FF7D0212991012B21CE49027FEF0F1
:1085700022902E5702121EE53B6002C13B12A489D5
:10858000E92404512730E61912A48912A5FCE475E8
:10859000F064120FE112A4897406120E81C23480B5
:1085A0004912A489E9240551274420FF12A489E92E
:1085B000242912A32712A489124A8A744012A4867D
:1085C000124A01110412A489740512A486E9240434
:1085D000512730E3067E037FE880047E077FD012B8
:1085E000A489E92407124954D2349005D95121FFB6
:1085F0009005D912A3165127FD12A489124A32C040
:1086000003C002C00112A489E9240651279007255E
:10861000F012A489E92404512754F7900726F0A307
:10862000740AF0A374C4F0D001D002D003120B91ED
:10863000EF700812A4897407120E8122902CC712C1
:108640001227902CCAEDF07401C39D40030296E1FD
:10865000902CCBB122902CCEF0E924015127902C04
:10866000D0F0902CCB5121902CCFF012381640FB3B
:1086700012205B902CC7B122FFC394204031EFD36E
:1086800094FF502B902CCAE0FD949F5022902CCE4A
:10869000E030E7030296E15124902C6CF0902CCB53
:1086A00012121E902E4012122712B9B2020CDB9049
:1086B0002CC7B122640160030296E1902CCEE03019
:1086C000E6030296E1E92401512712133488A80138
:1086D0008E5E028E6F03900C0490A6058CC7068BED
:1086E000E5078EF1088F44098F9F0A8FB40B910F15
:1086F0000D92BE0E8FFF0F94E610935C11946712DB
:1087000093CB139549158728169675198FC01A872C
:10871000D61F88412096DA22889C2388682688956F
:108720002788A828000096E1E5476550706912E5A2
:10873000ECEF70030296E1902861740BF0511EFF7C
:108740007B017A2879B812C323D205511EFF12D7B4
:1087500054511EFF9028D612E93E12A2699028DAE1
:108760007405F090285F740AF0A37401F09027FE5E
:108770007402F0511EFF902CD0E0B5070CAD5012E2
:10878000C63212A669E4FF804A511E12F45A12C67C
:108790003212EEBF02B77E902872E020E00302960C
:1087A000E1E54770030296E1511E9028D612B0838E
:1087B0007416F09028D6E090287C12AF0912B08C85
:1087C000740AF0A3741012B1E760030296E1FBFA99
:1087D000F97F0202B1F312B0847420F0511E70537D
:1087E00090287CF0A304F012A3135127FF333333F6
:1087F00054F8902CD1F012B9B212F36A902CD11225
:10880000BE867025902CD112AEF0601D902CD1E068
:10881000FF12A66912B57B902CD1E0FD12A669E487
:10882000902E98F07F20120CE5902CD1E014F0707F
:10883000C58005E490287DF012AF0A12F3D10296AC
:10884000C9902861E070030296E112BEF712A313EB
:10885000128227B4010B12DDE512DDF9AD44121AC4
:10886000177D02AF48029672902CCAE0FF7406D3BF
:108870009F40030296E1902CCEE054DFFF12B9B284
:10888000E9240112A327902CD0E0FD902E987405C6
:10889000F07F86617CE5386406600D22E53864046B
:1088A0006006E49028ABF022902CCAE0C39406E462
:1088B000940050030296E19028ABE0FF60209027DF
:1088C000FEE0B40314902CCEE030E7030296E19072
:1088D0002CD0E0FEEF6E600622E49028ABF012820E
:1088E0001E5407C39403500A12B9B212F36AE41279
:1088F0000E811249396401701830231512A3131226
:1089000082275406FFBF020912F4FAC221C2234192
:10891000D7300E02617F9028D5E06002617F12B9E6
:10892000AA12E946902CD0E0FC9028D7F0902CCEEB
:10893000E09028DBF07F1030E4027F00EF4401FF7D
:10894000902CCEE0FE54024F9028DAF012F4A07082
:108950004912B9B2E92401128227B4230EEE7F0036
:1089600070027F01EF30E4030296E120120A9028A2
:1089700003E030E1030296E120080A902803E0209A
:10898000E1030296E1E49028D6F0902803E07F000E
:1089900030E102AF04902C6D416812B9B2E92401B4
:1089A000128227B4230122E53864067002610C129A
:1089B000F4D76007EF64026002610C30171812E907
:1089C000106001227B017A2879E212A5C47A067927
:1089D000887F041283B2A21750028001C3401A207C
:1089E000120A902803E030E1030296E120080A9081
:1089F0002803E020E1030296E1902791E020E00CBB
:108A00001249C412A5C41249ED1283B2902CD0E0D1
:108A1000FF700241DF300B0A902803E020E10302DF
:108A200096E1902CCEE020E7679027FEE0B40204A8
:108A3000C212803712F4C450251249396401702BD8
:108A4000902803E030E124202305EF64EF701C3010
:108A500023047FEF800312D6D49028D6800A902C6E
:108A6000D0E0B4EF0612D6CEEF806612F52BF0FD03
:108A700012DB24FB12ED8F60119028D57402F012E6
:108A8000A669E4FF12AABBD21F22E49028D5F022E7
:108A9000124939640160030296E1902803E020E165
:108AA000030296E130230D12F4C45008902CD174C7
:108AB000EFF080139028D6E0700512F4DF80089064
:108AC00028D6E0902CD1F0902CD1E0FF60069028C1
:108AD000D6F0803012F4FA12A6697F01020BEB90F7
:108AE0002803E030E1030296E19028D6E0FF600918
:108AF00012AED8EF6008200B0512D6CEEFF090280A
:108B0000D6E0600302ED12E4FBFDC15A12B9B2E9EE
:108B100024011282276427704D902CCEE030E54668
:108B20007B017A0679BB12A5C47A2779977F041254
:108B300083B29028D8E0FE24F890279BF0EE24FB27
:108B4000FF7B017A28790512A5C47A27799C1283C4
:108B5000B212F5037A27799790279BE02408902E8C
:108B600098F07F858016902CCEE030E7030296E1E6
:108B7000902CD012DB1C902E98F07F84020CE59094
:108B800028D5E0640D60030296E1902CD0E0FF90C0
:108B90002785E06F60030296E112B9AA12E94690B8
:108BA00028DA7421F012F52B12AEF612BEFD12B3C4
:108BB000F7E490282BF0D213902785E0FF9028D877
:108BC000E024F8FB7D0112DE3C7F0112DC67EF60E0
:108BD000030296E112DB1912DB39120CE5E490284E
:108BE000D5F002B30C9028D5E0FF64036004EFB425
:108BF000080302D808902C69E0FF30E53212821E8B
:108C0000FE902C6CE06E60030296E1300E0F902C0B
:108C1000D0E0FE9028D6E06E60030296E1EF54DFCC
:108C2000902C69F030E7030296E1E4FF020BFFE5C8
:108C300047655060030296E1902CD0E065486003E0
:108C40000296E13001030296E1902861E0FF64079B
:108C50006005EF640A703C12821E64027035D20116
:108C6000902796E0701BFE7467254812DDF91217F5
:108C700068EF543F04FD12DDE512DDF9121A17808A
:108C800034902796E004F012AEF0702912DDEC402B
:108C9000F0802212F5236008EF640960030296E178
:108CA00012821EFF6401600DEF64036008EF64052B
:108CB00060030296E112F5236008EF640760030287
:108CC00096E1C25D0295239028D5E0FF6404600818
:108CD000EF640960030296E112D7EC12821EFD24B4
:108CE00003F545902CCAE0C395455002C157300E9C
:108CF0000F12A313F9E43AFA12CF30EF6002C21553
:108D00009028D5E0B40911902CD0E0FF12B9B2AC94
:108D100002AD0112C5358018902CD012BEDE30E7AE
:108D20000F902CD0E0FF12B9B2AC02AD0112C5C950
:108D3000E4F54512821EFFE545C39F502874ED25DA
:108D400045F582E43428F583C083C082E012A31283
:108D5000F9E43AFAE54512F360FEEF4ED082D08393
:108D6000F0054580CE12821EFF902965E0FEEFD30C
:108D70009E4002EFF0E4FF12DC67EF600122300E4C
:108D80000320153312F5037A2879ED7F1D12D7469B
:108D90008F45EF7022902CD012D800600B300C0859
:108DA000902CD0E0FF12AE9E7F22300E027F231265
:108DB000F49012D1F1C20EE49028D5F012F4F13003
:108DC0000C2DE54765506027E5476023902CD0E0E7
:108DD00090287CF0902965E0FF90287DF07B017A57
:108DE0002879ED12A5C47A28797E1283B2802430C6
:108DF0000519C205902CD0E012C4D412F4396013C6
:108E0000D213902CD0E012DE378008902CD0E0FFF7
:108E100012EAAA300E0830150512F490803C902C0E
:108E2000D0E0FF12D8799028D57410F0E547601F84
:108E3000902CD0E0FF12E1A2BF0414902CD0E0FFF0
:108E40007C0A7D4712EB9850030296E102D980120A
:108E5000A669E4FF02AABB12F4907F23E1FC902CE8
:108E6000D0E0FF12F33B4405FDE4FBFA02C0D590CD
:108E70002CCAE0C394074003D38001C34003029689
:108E8000E1902C69E020E4030296E12006030296BB
:108E9000E1300A15C20A7B007A007950902E5A12EE
:108EA00012277A00790012848A12821E7007FBFA58
:108EB000F9AF50800512A6697F0112B57BC2061278
:108EC000F31012821EF55012A313F9E43AFA12A518
:108ED000C47B011283AC1284C912F456120C18E53B
:108EE0005060030296E112C0CA12C0CE7F0102B5E3
:108EF0007B902C69E020E4030296E12006030296B1
:108F0000E13014030296E1902CCAE0FFC3940350B1
:108F100006201B030296E1EFC39403402112821E38
:108F2000FF30E01AE538B40107EF30E1030296E1C3
:108F3000E538B40207EF30E2030296E1D21E12F4E4
:108F400056020C1DC20612A313128227FFE4FD1263
:108F5000EEF312B9B2E9240512822730E12C12A3F4
:108F600013128227FF902CD0E0FEB50708EE12DD29
:108F7000F5AD44801212A31312822712DDF5E547E6
:108F80007DFFB55002AD44121A17124939640660CC
:108F9000030296E1902CCAE0FF12B9B2020C221231
:108FA0004939640660030296E1902CCAE0FF12B9C9
:108FB000B2020C27902CD0E0FF12821EFD02BB678C
