:020000040000FA
:1000000002180002180308F308F80002180B0B0A84
:0A0010000B14220218130AC40AD8C8
:10001B0002181B46257F0122021823A248922F2289
:10002B0002182B021987D322021833A249923222CB
:06003B0002183B023AC866
:0700430002184375ED0422D1
:07004B0002184B75ED0222C3
:06005300021853AFEF227A
:06005B0002185B8FEF228A
:07006300021863E4FFE1DB7A
:07006B0002186B75C80122A9
:100073000218734103B500C12FC1324103B400E03C
:10008300020200003826E0020200022FD0E0040240
:10009300000446524545E00102001554E001020008
:1000A30016A5E0E8022568FEFEFEFEFEFEFEFEFE4D
:1000B300FEFEFEFEFEFEFEFEFEFEFEFEFEFEFEFE5D
:1000C300FEFEFEFEFEFEFEFEFEFEFEFEFEFEFEFE4D
:1000D300FEFEFEFEFEFEFEFEFEFEFEFEFEFEFEFE3D
:1000E300FEFEFEFEFEFEFEFEFEFEFEFEFEFEFEFE2D
:1000F300FEFEFEFEFEFEFEFEFEFEFEFEFEFEFEFE1D
:10010300FEFEFEFEFEFEFEFEFEFEFEFEFEFEFEFE0C
:10011300FEFEFEFEFEFEFEFEFEFEFEFEFEFEFEFEFC
:10012300FEFEFEFEFEFEFEFEFEFEFEFEFEFEFEFEEC
:10013300FEFEFEFEFEFEFEFEFEFEFEFEFEFEFEFEDC
:10014300FEFEFEFEFEFEFEFEFEFEFEFEFEFEFEFECC
:10015300FEFEFEFEFEFEFEFEFEFEFEFEFEFEFEFEBC
:10016300FEFEFEFEFEFEFEFEFEFEFEFEFEFEFEFEAC
:10017300FEFEFEFEFEFEFEFEFEFEFEFEFEFEFEFE9C
:10018300FEFEFEFEFEFEFEFEFEFEFEFEFEFEFEE0AA
:1001930001022650FFE00102268B28E001022F9E78
:1001A300FFE001022FCC00E005022FCD2FD0020685
:1001B300024106C2060114004106C1014106BF0106
:1001C300C13B011900011700C14E412C9200412C83
:1001D3008700412C9000412C9100412C8EFF412C33
:1001E300B6004129C400412965055D2BF0000000DC
:1001F30000000000000000000000000000000000FC
:1002030000000000000000000000C141412865001B
:10021300C111C129013800C125C126C127412F21A0
:1002230005412FF100C163432C41000000412C40E4
:1002330000412C4400C137C139C142412C6800013F
:100243005600C123C121412C5A00412C670060286C
:10025300274A0601000000030008FE877F88CF7F3E
:10026300C04FFBDFFDE067000080008086000100D7
:10027300E87300800F000060000041216400412109
:100283007600412167004121610141216902412139
:10029300620141244400C146C1474129D596412901
:1002A300D10FE002022FD20039E0050230060039F7
:1002B300040601E00202300B0807E00502380D08CE
:1002C30007050601E0020238120013E00C0238149D
:1002D300000003080003000806010602E0050238D7
:1002E300200013FF0601E00202382500000075819B
:1002F3009075FF03759E02120820021AC102040EB4
:10030300900076E47E019360F4A3FF543F30E50947
:10031300541FFEE493A360010ECF54E0B4E00EEF4C
:10032300FAEEF9A3A3A3A3DAFDD9FB80D654C02523
:10033300E0604B5026E493A3F85407240CC8C3335E
:10034300C4540F4420C8834004F456800146F6DFAA
:10035300E480B00102040810204080E493A3FAE48F
:1003630093A3F8E493A3C8C582C8CAC583CAF0A3FC
:10037300C8C582C8CAC583CADFE9DEE78085E493BE
:10038300A3F8E493A34003F68001F208DFF4020329
:1003930006C2D5E830E70FB2D5E4C39BFBE49AFA73
:1003A300E499F9E498F8EC30E717B2D51203CA12CE
:1003B30010A1E4C39BFBE49AFAE499F9E498F8806A
:1003C300031210A130D50DE4C39FFFE49EFEE49D0C
:1003D300FDE49CFC227890E4F6D8FD9000007F00B9
:1003E3007E10E4F0A3DFFCDEFA902FF8A3E583C3CD
:1003F30094204011FEAF829020000E0FE48002F0A3
:10040300A3DFFCDEFA1208200203032232EF90047A
:100413001993900800730A20364CE557FF22EFF535
:100423005722092F09340939093E09430948094D5F
:1004330009520957095C09610966096B097A097F41
:100443000989099309ED09F209F709FC0A010A066A
:100453000A0B0A100A1F0A290A3D0A420A470A56CA
:100463000A5B0A920A970A9C0C540C590C5E0C63A3
:100473000C680C6D0C720C770C7C0C810C860C8B4D
:100483000C900C950C9A0C9F0CA40CA90CAE0CB3FD
:100493000CB80000000000003F241E16110E0B09CB
:1004A300070504030201F0C8A79177676046383552
:1004B3003230242220140001010202030304040544
:1004C3000506060707000DFA20000DDC700000008A
:1004D30000020C00013F3F3F0404043535350000A2
:1004E30000000BD70BE10BE60BEB0BF00BF50BFF4F
:0B04F3000C090C0E0C2C0C310208EE62
:100508005A2D5761766520362E3032003848188AC1
:1005180039173A3A822D1C16131110100B6E0B9BCB
:100528000BA00BA5E4FD7C0CAB050DEB9005089327
:100538008F828E83F00FBF00010EDCEC01208F82CA
:100548008E83E4F07406B1687402B168A3A3E4F082
:10055800EF2404F582E43EF583E4F0A37456F02218
:10056800A3F08F828E83A322AD07901215E054FC6E
:10057800F0E0FFED54307E0060027E02EF4E9012F4
:1005880015F0E0FFED7E0030E0027E01EF4E9012A4
:1005980015F0229003C17402F09003B4E0FF120C2E
:1005A800CCB1709003C17405F0229003BFE0FF1234
:1005B8000CBD9003C4EFF0229003C4E07F007002EA
:1005C8007F0122E49003BFF0229003BF7401F02260
:1005D8009003BF7402F022B1E670027F01229003FB
:1005E800BFE07F0022B1E6B401027F0122B1E6B488
:1005F80002027F0122124025120B19120BC3120BA3
:10060800559003B6E064017002C1C17FFF120894DF
:100618009007581212227E007F15F120BF540D7EDC
:10062800007F16F120BFA5047F0180027F009003A0
:10063800B4EFF064017057900758121219AE021205
:100648004ACB74021244A990075EE0FEA3E0FF9033
:100658000758121219124A17E92407F9E43AFA90CE
:10066800075B121222E92408F9E43AFE124ACB90F9
:100678002E557402F012428A90075EE064067004F8
:10068800A3E0640160081208999003B4EFF09003A6
:10069800B4E070257E007F10C006C374269410FE57
:1006A80074389400902E01F0A3CEF01239E2D006EF
:1006B800122FE4E4FFFE12089E120A331209841274
:1006C8000902306305755001802F124955120862DE
:1006D800124B2BFE4FFDA3E0FC4DFDA3E0FB4D604C
:1006E8000BEE5FFFEC5FFFEB5FF4700312281F90C7
:1006F80003BBE065509003AFF0E4902DE6F0902D39
:10070800E4F0A3F0011275FF0275E40475E40175C5
:10071800E4022235F0FEAF01E4FCFD902EAD12118B
:10072800D012178EF192EF600512179D80F6121302
:10073800C47F0312161B600A902EAD1211A8781000
:10074800F168902EADF163902EADF1E7F186902E11
:10075800B1EFF0F1D6902EB1E0FF221211A878087F
:10076800121168E4E5C820E2FB8FEB221213C97F5F
:10077800D7F16C7FFFF16CF18A902CA9EFF07FFF25
:10078800F16CE5C820E2FBAFEB227F01F1DB3056CC
:1007980015F1EDF186902FDBEFF01214AE902FDB00
:1007A800E020E002C256305619F174902CAAEF12DC
:1007B8004B13600BA3E0F46006EF30E702C2561259
:1007C80014AEE4FFF1DBA256E433FF22F16C1214FD
:1007D800AEE4FFEFB4010443FE202253FEDF2212F1
:1007E80011A8E4E16C1213C97F05E16CEFF4045F12
:0407F800FF02172BBA
:10080000C0577408C0E0C082C08375570AE5FF5422
:10081000CF4490F5FF22C0577408C0E0C082C08367
:10082000755720E5FF54CF4490F5FF22C057740858
:10083000C0E0C082C083755736E5FF54CF44A0F5B1
:10084000FF22C0577408C0E0C082C08375574CE5D2
:10085000FF54CF44B0F5FF2290800401169083E648
:10086000011690847D01169084C501169084E501DF
:100870001690858D01169097E0011690A72301161A
:1008800090A72601169083B2011690980201169047
:10089000B7FF011690B349011690B062011690B4EB
:1008A000A5011690B8CB011690BFF9011690BA1E9B
:1008B000011690C032011690C0EE011690C52401B9
:1008C0001690C817011690AF1C011690B7EC0116D0
:1008D00090CFED011690D011011690D043011690E3
:1008E000C253011690ACEB011690A3D9011690C12A
:1008F000E7011690C676011690839C011690D943A5
:10090000011690D056011690E023011690DC5C0190
:100910001690B711011690A717011690A71401168B
:1009200090DCEF011690DD61011690E1FC0116905C
:10093000E3B3011690E3C2011690CD75011690E362
:10094000D0011690E3D7011690E42D011690CDD872
:10095000011690E466011690E47C011690E51801FA
:100960001690E677011690CE0F011690E22201163E
:1009700090ABD2011690AB3C011690ACC40116901E
:10098000D16A011690C9A9011690CE5B011690D7C5
:10099000DD011690CFD6011690E747011690CBBD2A
:1009A000011690E799011690E7A10116909A82012D
:1009B00016909A88011690DFCC011690DFBC0116C4
:1009C00090A4A1011690A326011690E6800116902E
:1009D000E5F5011690E66C011690E5B4011690E677
:1009E00095011690CC35011690CC3B011690C83974
:1009F000011690CFDD011690E844011690E88501BC
:100A00001690E897011690D30F011690E8F401169E
:100A100090CE87011690D0C2011690859401169051
:100A2000AB75011690BD47011690BFBF0116909A95
:100A300000011690E992011690E257011690CDCA76
:100A4000011690CEB2011690A777011690AD9801CD
:100A5000169083ED0116909A49011690AE37011653
:100A600090E9B0011690AF65011690E9C4011690A7
:100A7000E9DB011690EABF011690CAC1011690EA9F
:100A8000C2011690EB0A011690EB0D011690CFC330
:100A9000011690D379011690D2FF011690D3490127
:100AA0001690EB3701169081D6011690BC310116D5
:100AB00090DE54011690DE0C011690EBD9011690D1
:100AC000A24D011690EB750116909703011690EF59
:100AD0004A0116909BB1011690F003011690F01197
:100AE000011690EC42011690EC85011690EC150170
:100AF0001690F04E011690F093011690F0C7011673
:100B000090F162011690F11B011690846B01169012
:100B1000801401169082B1011690F1D801169098B8
:100B20003801169098AC011690F1EC01169084797A
:100B3000011690810C011690F21E011690B11C0155
:100B40004290B462014290B574014290B70B0142E9
:100B500090B7B7014290B8140142909AC6014290F2
:100B6000B9A10142909B410142909B80014290BA01
:100B700045014290BA46014290909B0142908D19E6
:100B8000014290BAE10142908B9B014290A914016D
:100B90004290AD2B0142908000014290BBEA01429D
:100BA00090BC020142908591014290BC03014290A9
:100BB000B7CF014290BC1B014290AAA8014290A06D
:100BC00085014290BC79014290BC86014290AFB150
:100BD000014290BC92014290AFB7014290AFD50163
:100BE0004290B79B014290AFE6014290B41001429F
:100BF00090B2BC014290ADA7014290B77F014290F4
:100C0000BC9E014290AE36014290B389014290BC35
:100C1000CA014290BD2C014290BD60014290B4B720
:100C2000014290BDBF014290B6AE014290BE20018C
:100C30004290AB90014290AEBD014290B3E90142B7
:100C400090B43F014290B760014290B63B014290A0
:100C5000B64E0142909F8D012C909DBE012C909F1D
:100C600096012C909FB0012C90A08C012C90A09EFE
:100C7000012C90A0E0012C909CD0012C90A0A90107
:100C80002C909E19012C909E7E012C90A0B4012CDA
:100C900090A101012C90A0BF012C90A0CA012C9022
:100CA000A181012C90A0D5012C90A1E7012C909955
:100CB000B5012C9099F4012C909A52012C90838CC0
:100CC000012C90A3EE012C90A3EF012C9080A101A8
:100CD0002C90A42D012C909AF4012C909917012CA2
:100CE00090975B012C90A46F012C00E709F608DFB8
:100CF000FA8046E709F208DFFA803E88828C83E7B3
:100D000009F0A3DFFA8032E309F608DFFA8078E31E
:100D100009F208DFFA807088828C83E309F0A3DF90
:100D2000FA806489828A83E0A3F608DFFA80588912
:100D3000828A83E0A3F208DFFA804C80D280FA80B6
:100D4000C680D4806980F28033801080A680EA80DB
:100D50009A80A880DA80E280CA803389828A83EC14
:100D6000FAE493A3C8C582C8CCC583CCF0A3C8C598
:100D700082C8CCC583CCDFE9DEE7800D89828A8317
:100D8000E493A3F608DFF9ECFAA9F0EDFB228982DF
:100D90008A83ECFAE0A3C8C582C8CCC583CCF0A393
:100DA000C8C582C8CCC583CCDFEADEE880DB898297
:100DB0008A83E493A3F208DFF980CC88F0EF600126
:100DC0000E4E60C388F0ED2402B4040050B9F582E1
:100DD000EB2402B4040050AF2323458223900D3B43
:100DE00073BB010689828A83E0225002E722BBFEA0
:100DF00002E32289828A83E49322BB010CE58229E3
:100E0000F582E5833AF583E0225006E92582F8E68B
:100E100022BBFE06E92582F8E222E58229F582E579
:100E2000833AF583E49322BB010989828A83F8E03F
:100E300028F022500327F722BBFE05F8E328F3220F
:100E40008A838982F8E4932822BB010FF8E582297E
:100E5000F582E5833AF583E028F0225009C582291E
:100E6000F8E58226F622BBFE09C58229F8E2258232
:100E7000F222F8EA2583F583E9932822BB0106894B
:100E8000828A83F0225002F722BBFE01F322F8BBD4
:100E9000010DE58229F582E5833AF583E8F02250D9
:100EA00006E92582C8F622BBFE05E92582C8F222A2
:100EB000EF8DF0A4A8F0CF8CF0A428CE8DF0A42E56
:100EC000FE22BC000BBE0029EF8DF084FFADF022A6
:100ED000E4CCF875F008EF2FFFEE33FEEC33FCEEB8
:100EE0009DEC984005FCEE9DFE0FD5F0E9E4CEFDAB
:100EF00022EDF8F5F0EE8420D21CFEADF075F0087E
:100F0000EF2FFFED33FD4007985006D5F0F222C3D6
:100F100098FD0FD5F0EA22C2D5EC30E709B2D5E44E
:100F2000C39DFDE49CFCEE30E715B2D5E4C39FFF02
:100F3000E49EFE120EC2C3E49DFDE49CFC800312FD
:100F40000EC230D507C3E49FFFE49EFE22C5F0F831
:100F5000A3E028F0C5F0F8E582158270021583E061
:100F600038F022A3F8E0C5F025F0F0E58215827094
:100F7000021583E0C838F0E822BB010A89828A831F
:100F8000E0F5F0A3E022500687F009E71922BBFE46
:100F900007E3F5F009E3192289828A83E493F5F0E7
:100FA00074019322BB010789828A83020F4D500B83
:100FB00009C5F027F7C5F01937F722BBFE0D09F870
:100FC000E325F0F3C5F019E338F322F889828A8328
:100FD00074019325F0C5F0F8E4933822BB010A8927
:100FE000828A83F0E5F0A3F0225006F709A7F019F2
:100FF00022BBFE06F3E5F009F31922EF2BFFEE3AD0
:10100000FEED39FDEC38FC22C3EF9BFFEE9AFEEDBE
:1010100099FDEC98FC22E88FF0A4CC8BF0A42CFC7A
:10102000E98EF0A42CFC8AF0EDA42CFCEA8EF0A44E
:10103000CDA8F08BF0A42DCC3825F0FDE98FF0A4DD
:101040002CCD35F0FCEB8EF0A4FEA9F0EB8FF0A4D4
:10105000CFC5F02ECD39FEE43CFCEAA42DCE35F010
:10106000FDE43CFC2275F008758200EF2FFFEE33A3
:10107000FECD33CDCC33CCC58233C5829BED9AEC0B
:1010800099E58298400CF582EE9BFEED9AFDEC9975
:10109000FC0FD5F0D6E4CEFBE4CDFAE4CCF9A8827F
:1010A00022B800C1B90059BA002DEC8BF084CFCE24
:1010B000CDFCE5F0CBF97818EF2FFFEE33FEED33E2
:1010C000FDEC33FCEB33FB10D703994004EB99FBA9
:1010D0000FD8E5E4F9FA227818EF2FFFEE33FEED92
:1010E00033FDEC33FCC933C910D7059BE99A40079F
:1010F000EC9BFCE99AF90FD8E0E4C9FAE4CCFB22B6
:1011000075F010EF2FFFEE33FEED33FDCC33CCC87E
:1011100033C810D7079BEC9AE899400AED9BFDEC89
:101120009AFCE899F80FD5F0DAE4CDFBE4CCFAE4C8
:10113000C8F922C3E49FFFE49EFEE49DFDE49CFC0D
:1011400022EB9FF5F0EA9E42F0E99D42F0EC6480CC
:10115000C864809845F022EB9FF5F0EA9E42F0E9E2
:101160009D42F0E89C45F022E8600FECC313FCEDD3
:1011700013FDEE13FEEF13FFD8F122E8600FEFC36B
:1011800033FFEE33FEED33FDEC33FCD8F122BB012F
:101190000789828A830211D05005E9F8021388BBBF
:1011A000FE05E9F802139422E0FCA3E0FDA3E0FEB3
:1011B000A3E0FF22E493FC740193FD740293FE7498
:1011C0000393FF22E0F8A3E0F9A3E0FAA3E0FB22F7
:1011D000ECF0A3EDF0A3EEF0A3EFF022A88285835C
:1011E000F0D083D0821211F31211F31211F3121105
:1011F000F3E473E493A3C583C5F0C583C8C582C86F
:10120000F0A3C583C5F0C583C8C582C822A42582C2
:10121000F582E5F03583F58322E0FBA3E0FAA3E055
:10122000F922EBF0A3EAF0A3E9F022E493FB7401C6
:1012300093FA740293F922BB010789828A8302120E
:10124000195005E9F80213A0BBFE05E9F80213B234
:1012500089828A8302122BBB011A89828A83D0F089
:10126000D0E0F8D0E0F9D0E0FAD0E0FBE8C0E0C090
:10127000F00212225016E9F8D083D082D0E0F9D0E3
:10128000E0FAD0E0FBC082C0830213A9BBFE16E9DE
:10129000F8D083D082D0E0F9D0E0FAD0E0FBC08271
:1012A000C0830213BB22BB010DE58229F582E583D1
:1012B0003AF5830212195007E92582F80213A0BB00
:1012C000FE07E92582F80213B2E58229F582E5835B
:1012D0003AF58302122BBB0120E58229F582E583D2
:1012E0003AF583D0F0D0E0F8D0E0F9D0E0FAD0E0E1
:1012F000FBE8C0E0C0F00212225018E92582F8D0C5
:1013000083D082D0E0F9D0E0FAD0E0FBC082C08385
:101310000213A9BBFE18E92582F8D083D082D0E061
:10132000F9D0E0FAD0E0FBC082C0830213BB22D028
:1013300083D082F8E4937012740193700DA3A39389
:10134000F8740193F5828883E4737402936860EF04
:10135000A3A3A380DF8A838982E473EC8EF0A4CCFC
:10136000C5F0CCCDF8EFA4CEC5F02DFDE43CFCE8F3
:10137000A42EC8C5F03DFDE43CFCEFA4FFE5F02839
:10138000FEE43DFDE43CFC22ECF608EDF608EEF64A
:1013900008EFF622ECF208EDF208EEF208EFF22286
:1013A000E6FB08E6FA08E6F922EBF608EAF608E9B1
:1013B000F622E2FB08E2FA08E2F922EBF208EAF28E
:1013C00008E9F2227F011207DB902CAEE0712F13A7
:1013D000EB0413F31413F81513FD17140D30141246
:1013E00034141736141C37000014055334EF8534B9
:1013F00080802F5335EF80085335DF800353357FCE
:10140000853590801D5336DF8536A080155337FE15
:10141000800D5337EF80085337BF800353377F85E4
:1014200037B07F0CDFFE227F011207DB902FDA74CA
:1014300001F0902FDAE060321207ED120786902F4C
:10144000DAEFF091AE120774902CAAEFF091AE9003
:101450002FDAE05401124B1360D8A3E0F460D3EF0D
:1014600030E7CFE4902FDAF080C871C97F9F120770
:101470006C120786902CAB120784902CB012078454
:10148000902CB1EFF01207D6902CA9E0F4601BA3CA
:10149000E0F46016902CB0E0FD541F240FA3F0ED93
:1014A000C41354074480902CB0F02212076CF1F062
:1014B000EF70FB902CB0E0F4600A902FD97406F026
:1014C000F18670FC902CAEE0712F14E60414EE143B
:1014D00014F31514F817150830150D3415123615B8
:1014E000173700001500433410853480802F4335B2
:1014F0001080084335208003433580853590801D5A
:101500004336208536A08015433701800D433710C0
:10151000800843374080034337808537B0902FD908
:10152000740CF0F18670FC22F18E120792EF6004C9
:10153000F19D80F67F011207DBD25671C97F0691BB
:10154000AB71C97F0112076C7F0391ABE4FF020707
:10155000DB902EB231D0902EB231A8120723902EFC
:10156000B6E06F6036F18E120792EF6004F19D8055
:10157000F6D104600A902EB231A878101207689054
:101580002EB2120763902EB21207E7902EB6E0FF3C
:101590001207D4902CAD7401F0D322C322902D6297
:1015A00031D0902D665122F18E120792EF6004F136
:1015B0009D80F6D104600A902D6231A87810120740
:1015C00068902D62120763902D6231A8E480269006
:1015D0002D691244E66023902D665119E94A601383
:1015E000120DE1FF12076C902D67E475F001120FE8
:1015F0004D80DCE4FF12076C80D51207D6902CAD2D
:101600007401F0227F011207DBD25671C97F0612E6
:10161000076C91AE71C9902CACE0FF12076C902C56
:10162000AFE0640222902CB831D0902CBC512290B3
:101630002CB831A8902CB3E024FFFD902CB2E034FC
:10164000FF5EFEED5FFF902CC1EEF0A3EFF04E6069
:1016500064902CC1122FBF902CB3E09FFF902CB24E
:10166000E09EFE902CC1F0A3EFF0902CBFF1B29F52
:10167000EC9E5003124A7B1243E1F0602812456051
:10168000C004C005C006C007F17F4A6005F1C1FF74
:1016900080027F007E00F17FF1DCF0D007D006D021
:1016A00005D004B19DF15A4A6005F1B9FF806F7E03
:1016B000007F008069902CBFE0FEA3E0FF4E6069D0
:1016C000902CB2F1B2EF9DEE9C400A902CC1ECF050
:1016D000A3EDF0800D902CBFE0FFA3E0A3CFF0A31B
:1016E000EFF01243E1F06028124560C004C005C06D
:1016F00006C007F17F4A6005F1C1FF80027F007ECE
:1017000000F17FF1DCF0D007D006D005D004B19D08
:10171000F15A4A6005F1B9FF80047E007F00902CE9
:10172000BDEE8FF0120F4D808CD322E4FEEF7003DC
:101730007FFF22EFD3940F4009EFC4540FFFEE4414
:1017400004FEEFD39403400AEF1313543FFFEE441B
:1017500002FEEF30E1010EAF0622902CC1E0FEA3A5
:10176000E0FFC3902CC0E09FF0902CBFE09EF09073
:101770002CB831C4E4FCFD120FFB902CB831D09092
:101780002CBC5119E922902FD9E014F0E02275FF0A
:1017900002E5E430E10675E40675E40322E5153060
:1017A000E20FE51520E50AE51530E0057F01122876
:1017B0008922E0FCA3E0FDD322902CC1E0FEA3E04F
:1017C00022902CC5E0FF1207F4EFC43354E022F15D
:1017D0008E120792EF6004F19D80F6222FF9EE3A07
:1017E000FA902CC3E0FFA3E0902D69CFF0A3EF2285
:0A17F000E5C85404FF2212489E22AF
:061800000202F1AF4222DA
:101808007FB875FF0275E404E4F5E422D2091208F2
:0A181800B79003C2EEF0A3EFF02238
:0318230002480276
:10182B000230B9200D0511147F01227F0022902C6C
:0C183B00890211A8FDFC902C890211D03C
:10184B000220089007C8EFF0A3EDF0540290123479
:10185B00F0112EEF7002C3229007C8E0B40411A35D
:10186B00E0FB7D017F0131E29007C87403F0800536
:10187B009007C931DC9007C8E09003B5F0D3221272
:10188B003807EF70087FA07E0FFDFC212B12383E2E
:10189B00902C88EFF07406D39F4067E0605A319C20
:1018AB007E00902C88E014FDE5F0A805088005C3A8
:1018BB0033CE33CED8F9FF31951141902C891211CB
:1018CB00C4C000C001C002C003902C88E014FF7498
:1018DB00107E00A807088005C333CE33CED8F9FF9E
:1018EB00EE3395E0FDFC318D121016D003D002D0F3
:1018FB0001D000120FFB8028319CAFF07E00319598
:10190B00801E902C90E0FF600FE4FCFDFEFB7AF450
:10191B007901F812101680087F007ED07D077C00BD
:10192B00114131AF7E397F17C006C007113912390B
:10193B00F2D007D0061239D9123818EF703D113991
:10194B00318DD31211574007E47F01FEFD80241126
:10195B0039318D1210A111411139E47B01F1EC5099
:10196B00141139C3EF9401FFEE9400FEED9400FDCA
:10197B00EC940011401139510F11142275FF028F95
:10198B00E322E47BE87A03F9F8227C007D640213FE
:10199B005B31A4EF75F0A084229003AFE064AA241E
:1019AB0011FFF0221237F3EF600FE47FA07E0F11CF
:1019BB003F901215E054E7F022901215E0FF74E00F
:1019CB00D39F4005E02410F022EF6410901215F025
:1019DB0022E0FB7D01E4FFEB600875FF0153CDFDB9
:1019EB00800675FF0143CD02ED600553FBDF8003DD
:1019FB0043FB20EF600775FF0243E1402275FF02B6
:101A0B0053E1BF22902EE71211D0514DE47BFFF131
:101A1B00EC501CE4514C1210A19012161211D0E490
:101A2B007BFFFAF9514C1210A190121CEBF0229093
:101A3B0012161211DC00000000514D90121CEFF039
:101A4B0022F8902EE70211A8F12B700790121CE0E0
:101A5B00700122F12B60237FFF12002E90121612C1
:101A6B0011A8EF24FFFFEE34FFFEED34FFFDEC3445
:101A7B00FFFC9012161211D0800D90121CE0FF1279
:101A8B00002EE490121CF0901235E0FD7F01123A0B
:101A9B00C890123431DC7F0143FB1075FF0243E623
:101AAB0040EF600D75FF02E5E120E7FB43FB0D8086
:101ABB000343FB0E80FE75FF0275E404E4F5E47549
:101ACB00FF02E5E630E011901215E0540C6009516D
:101ADB0053901215E054F7F01203D8123AF5900315
:101AEB00B6EFF0901200E0B47A14901214E0B49CAC
:101AFB000D9003B6E0FF64056004EFB4032EE49091
:101B0B0003C0F09003C0E0FFC394805013E42FF5A3
:101B1B0082E43412F583E4F09003C0E004F080E338
:101B2B00901200747AF0901214749CF0120B4B40CC
:101B3B0003120B467B017A1279107D017F01120B88
:101B4B00417B017A1279117D017F21120B417B01BF
:101B5B007A1279127D017F22120B417A12791D7F45
:101B6B00021241FA90121DE0B401057F01123F8B66
:101B7B00120AFB123AF5120AF69003B6EFF0120BAB
:101B8B00C8120AF19003B6E0FF120CC7EF24FFB3A3
:101B9B00926375FF0253E6BF123096120B051205C6
:101BAB00FD20630C12059B7B017A28797912099829
:101BBB007F01122889D2AF2063028149120B501288
:101BCB0008A3120CC2120B3C40F29003B5E0603F2D
:101BDB00120B28EF70051249D44034E51470FCE564
:101BEB001520E5031228FA12085DEF70FAB1E550E3
:101BFB0004B1F750047F01B1829003B5E0B4020445
:101C0B00E4FF80099003B5E0B403047F0151A312F4
:101C1B000B23E51530E1A51234F84002E4F0E5158D
:101C2B0020E504B167D10B124979AF82AE83EFC0C7
:101C3B00E0B175124AB9D0E0FF120BBE61C712308A
:101C4B005A1205EDEF70069003B5E0604F201C03B0
:101C5B00200949120B28EF70051249D4403EE514B8
:101C6B0070FCE51520E5031228FA12085DEF70FAF7
:101C7B00B1E55004B1F750047F01B1829003B5E098
:101C8B0070121205EDEF600C1205D8901215E0449E
:101C9B0008F080089003B5E0FF123A969003B5E088
:101CAB00600C201C09300906200203120970120B6C
:101CBB00501208A31236491205B21205C0EF70225A
:101CCB001205F5EF6004515380361205EDEF7030BD
:101CDB00123824EF702A112EEF640170231205D1F4
:101CEB00801E901215E020E2171205F5EF600CB183
:101CFB00E55004B1F75004E4FFB182E49003BFF068
:101D0B00203005120B2380221208B79003AEE0FEA1
:101D1B00EFC39E4005EF9EFF80089003AEE0F404F6
:101D2B002FFF7406D39F5002C230E51530E1251208
:101D3B0034F84002E4F0E51520E504B167D10B124D
:101D4B004979AF82AE83EFC0E0B175124AB9D0E0EA
:101D5B00FF120BBE120AC912308181499003B7E002
:101D6B00FD75F0AA9003C512120DED75F002A424B7
:101D7B00B0F9740335F022902FABEFF0E4A3F090A1
:101D8B002CB7E0FFB40209740FD1DC74B9F0800CEE
:101D9B00EF64047044743DD1DC7479F01213C49079
:101DAB002FABE06007902CB6E0FF80027FAB1207F1
:101DBB006C1214AE902FABE0902CB6F07016902FE7
:101DCB00ACE0D39400400D7FFF12076C902FACE07A
:101DDB0014F080EAE4FF1207DB22900001740193F8
:101DEB00B40007E493B41802C322D3227F017E0010
:101DFB009017FCE4935EFE7401935F4E24FFB322B5
:101E0B00FA7B01AF82AE837D01900775EEF0A3F1F3
:101E1B00F3E51470771226425004C255D1989007FF
:101E2B0075E0FEA3E08E11F512A31212199006C3F2
:101E3B00121222AE11AF127DAA12459DE4F5FF7569
:101E4B00D908F510E5155421602BE51530E504E4B0
:101E5B00FFF13AE490077AF090077AE004F0122E43
:101E6B0026EF600990077AE0C3941040EB7F0212D3
:101E7B000CE55315DE9006BFE07F00B403027F0133
:101E8B00F1F9D255D198D2EBA23A92ED22902FD8FC
:101E9B00E5F4F0E0547FF5F47F827E00D1FCD1F5C0
:101EAB00D1E45005E5FC20E6F7305508902FD8E03B
:101EBB004480F5F4D1EFD1E45005E5FC20E6F7754D
:101ECB00FF01E5D520E702C322E5F4D330E601C3D9
:101EDB0022902FACF0902CB62275FF03E591C33006
:101EEB00E701D3227FE87E03D1FC75FF034391808A
:101EFB0022902EEB1249CC7A2E79ED122F605014D2
:101F0B00902EEDE0FEA3E0FF902EECE09F902EEBE9
:101F1B00E09E400B902EEBE0FEA3E0FF122E092279
:101F2B00E4FFFEFDFC9012161211C4C3021157758B
:101F3B00FF01E5D530E602C322E4F5FF439A80EFBB
:101F4B00124B23E4F5FF539A7FD322902EFBEFF035
:101F5B00A3123BE575FF01122A59EF64016002C31E
:101F6B0022E5F430E602C3227FE87E03122E09D16C
:101F7B00F5F1D6400122C255D198902EFBE0FFF12E
:101F8B003A53F4DFD255D1987F787E00122F177514
:101F9B00FF0153E4BFE5E430E7FB1236EB7F8A1217
:101FAB002FA030E6061227C3E4800875FF01122725
:101FBB00C3E5D9120E7C75FF0143E440124B1B4065
:101FCB000343F420F1D6400122D322E5F730E50F8D
:101FDB00E5F754C07004D1E440F1122EF5C322D3BF
:101FEB0022FAF9F8C3021157EFF0A3021222F13AC9
:101FFB0043FA04E4F5FF53D1FD43D10122C0E0C005
:10200B00F0C083C082C0D075D008C0FF75FF01E55A
:10201B00D530E6047F028009E5D57F0030E7027FEB
:10202B00018F18E5186402600201E3E51412132F07
:10203B0020540120670220CB08207209207D0A2042
:10204B008B0B20A90C0000223D75FF0175C35515A4
:10205B001AE51A6002413D751402413D75FF017589
:10206B00C3F0751409413D75FF0175C35575140A0D
:10207B00413D75FF019006D3E0F5C375140B413D4F
:10208B0075FF019006C0E0F5C3751401751A149025
:10209B0006E11249B86002413D75140C413DAB1C81
:1020AB00AA1DA91E5178AD16AF1FF1DBB17675FFD6
:1020BB0000F1BA43FA0475FF001101751408413D94
:1020CB00C2EB7514004315041235534002413DE435
:1020DB0075F001120F4D413DE51864016002413D61
:1020EB00F1E84002413DE510706B516C121219E59D
:1020FB00D9120E7C5160E09007D8F0123DA4123536
:10210B000D9006BFEFF09007D8E0FFD39409500273
:10211B0021B79006BFE0D39402400CEFD394AA7F73
:10212B000040027F01800D9007D8E0D394407F00E0
:10213B0040027F01EF600280739007D8E0F5161222
:10214B0036F590121AEFF075FF009007D8E0F5D92D
:10215B00751003413DE51064036002413D516C1263
:10216B0012195158E5D9120E7C75FF009006BFE08D
:10217B00C39403E5D350055402FF80035401FFEFD2
:10218B00602E30E111C39006CDE094FF9006CCE0B9
:10219B0094FF5018800FC39006CFE094FF9006CEAB
:1021AB00E094FF5007E475F001120F4DF1F6413D3D
:1021BB00C255121E9875FF00F1D2E5D120E0FBC28B
:1021CB00EB4315025151A3E0FF9003BAE0FEEF6E13
:1021DB005150E09003B9514AA3A3E09003BB514A7D
:1021EB00A3A3A3E0FE9003BCE0FDEE6D4F6016C30E
:1021FB009006D1E094FF9006D0E094FF5007E47571
:10220B00F001120F4DC39006CBE094FF9006CAE08D
:10221B0094FF5007E475F001120F4D7510009006F6
:10222B00BFE0B4030715165160E516F09003B8E54F
:10223B0016F0D0FFD0D0D082D083D0F0D0E032FED9
:10224B00E0FDEE6D4FFF85128285118322E924019B
:10225B00F9E43AFA22E5122407F582E43511F58305
:10226B002275FF01F5EA75EAFF9006C322E4F5FF3C
:10227B00E91245BEEA540F42D62290078D12122264
:10228B00D24BC2EBE5146002A111E51530E202C39B
:10229B0022B11A24E3F9E43AFAE4120E7C1235C0A7
:1022AB0090078DB1695407FF9006C1F01234489026
:1022BB000790EFF0E51520E074D14A40057F01123D
:1022CB002889900790E0FF7B017A077991121F56BE
:1022DB00E4337004D2EB81EC900790E0249A124A1D
:1022EB00ECE0FF900791E0D39F4042D2EB123561B7
:1022FB00A23A92ED9006D2E06015B11A24E3F1EF09
:10230B00120E7C431504D12D79E01208C1D3229013
:10231B0006E0E070167B017A0679E07C317D2C902B
:10232B002E247464F0E4A3F01208C6C322D14A50E1
:10233B0005C255121E98F1CFE5D120E0FBE4F51054
:10234B0090078DB1695407C39403E494005032B1E4
:10235B001A24B1B162B11924D8B1622FFFE433FE54
:10236B00D3EF9440EE648094804016B11A24E3F9C5
:10237B00E43AFA7402120E7C431504A23A92EDD39E
:10238B0022B11A2408F9E43ACFE9CFF5118F12B133
:10239B001A24B1B162F516AE111245C7B11A24B2A7
:1023AB00F9E43A8B1CF51D891EB11A24D8B162F5DC
:1023BB001F90078DB169FDACF05460602FB11A24EA
:1023CB00D9B162FF123521C24BB152FB7A00900694
:1023DB00E1124AE47D18120EB0EF2BFFEA3EFEEF3E
:1023EB002414FBE43EFA7D027F0181D990078DB165
:1023FB006954079006C1F0751408B11A24B2F9E4B8
:10240B003AFA5178B11A24D8B162FFAD16F1DB90CC
:10241B0006C1E0640370257B01FDB122D39FEEB1B1
:10242B00B150057401120E27E4F5FFF1BA120DE15C
:10243B002428FBE433FA7D03E4FF81D99006C1E045
:10244B006402702CB125D39FEEB1B1400574FF121D
:10245B000E27E4F5FFE5D25480440AF5D2120DE1C4
:10246B002414FBE433FA7D027F01B1B8B1768060AE
:10247B00E4FB7D01B122D39FEEB1B1400574FF1295
:10248B000E27E4F5FF90078DB169441045F07F05E9
:10249B0060027F0AEF547FFFE5D254804FF5D2E400
:1024AB00F5FF43D280B152FD7C0090078DB169449A
:1024BB001045F07E0060047F0A80027F05EF25E067
:1024CB00FFEE33FEEF2DFBEE3CFA7D017F01B1B841
:1024DB0090078DB169FFAEF0A24B924A1233A74021
:1024EB0006A23A92EDC322D12D79E01208C19007D2
:1024FB0090E0B11924E5F9E43AFAEF120E7CA23A16
:10250B0092EDD2EBD322A23A92EDD2EBC322FF9003
:10251B00078D121219E922FFB17B90078D12121948
:10252B00E924B1F9E43AFA120DE1FF90078D12128A
:10253B0019E924D8F9E43AFA120DE12FFFE433FE3E
:10254B00EF2401FFE43EFE90078D121219E924B22D
:10255B00F9E43AFAE92407F9E43AFA020DE1121226
:10256B0019E92404F9E43AFA020F79E4FB7D01FF3F
:10257B00E4F5FF75D102E5D120E0FBE4F5FFF5D1E1
:10258B00EF6008E4F5FF43D2808006E4F5FF53D2F9
:10259B007FEB6006E4F5FF43D104ED6006E4F5FF45
:1025AB0043D108229DEC6480F8748098229007BC7C
:1025BB00EFF0ED24FE60191460262402703BEB242F
:1025CB0002FFE43AFE7C007D50120EB07D60801E4F
:1025DB00D137C333CE33CED8F9FF7C007D28800EA4
:1025EB00D137C333CE33CED8F9FF7C007D64120EC6
:1025FB00C29007BDEEF0A3EFF09007BCE01235B22E
:10260B00C083C0821211C49007BEE02401FF900763
:10261B00BDE03400FEE4FCFD120FFBD082D0830240
:10262B0011D0E49006D2F07B017A0622EB2401FF55
:10263B00E43AFEEF780322C2EBA2ED923AC2EDE54B
:10264B00F4C330E701D322902D0F123BE5902D15EB
:10265B001211DC00000001902D197401F0F5FFE55B
:10266B00D554C07004D14A5002C322E4F5FF5396EF
:10267B007F75FF0175D5047F3FFE122DFB75FF01A2
:10268B0043D508E4F5FF5394FBF5FF53847FF5FF27
:10269B007598FF902D13E5F4F075F49C75FF01A36D
:1026AB00E5E4F075E4257B017A2D7919123BB290A4
:1026BB002D19E064016002E17FF5FF902D12741477
:1026CB00F0902D15F1AFFF780112117B902D1512A3
:1026DB0011D0E5A730E1FB43A702902D15F1AFFF19
:1026EB00E5A730E005E47B018002E4FBFAF9F8EFA3
:1026FB004BFFEE4AFEED49FDEC48FC902D151211F7
:10270B00D0902D12E014F070B8902D15F1AFFF782A
:10271B00101211687B6D7A4E79C67841121016EF44
:10272B002439FFEE3430122C13FCE4FBFA7901F858
:10273B001210A1EE547FFEE4FDFC12343B902D15DC
:10274B00F1AFFFEB6FFFEA6EFEE8CDEFCDCCEECC39
:10275B00ECFF902D0FF1C6EF120E7C902D0FF1C6F2
:10276B00900001ED120E8E90120FE030E606E4F5AC
:10277B00FF75968075FF01E4F5D5902D13E0F5F408
:10278B0075FF01A3E0F5E4123C3C902D19E0B40178
:10279B0003D38001C322EB25E025E02401F582E47D
:1027AB003412F583E0FCA3E0FDA3E0FEA3E022E5F9
:1027BB00D254804414F5D222902EFCE0FBA3E0FA15
:1027CB00A3E0F922E4F5FFE5D154FE4402F5D12252
:1027DB00E4F5FF8FD4F5FFCFEDCF8FD522E5F7547E
:1027EB00C024FF22F9E43AFA740122C255121E9852
:1027FB00F1CFE5D120E0FBE4F5FF75D9089006BFDA
:10280B00E07F00B403027F01121FF9D255121E980C
:10281B00E4F51022E4FF1189EF603E7B017A037926
:10282B00B91226525004F1DC40F17B017A0379BBDB
:10283B00122652500F124B2B5FFFA3E05FFFA3E05A
:10284B005FF460E67F0111897550017E007F087B84
:10285B00017A0379B9F1C61165227404F08003740F
:10286B0005F0902DFE121222E4FCFDC007902DFE08
:10287B00121219902E011249ABD007021625EF60E8
:10288B0011121D67FA7B01AF82AE83E4FD121E1499
:10289B00800F302F037F0022120B3711FAE433FF26
:1028AB00227F0122900792121222900795EDF0E4FD
:1028BB00A3F0ED54FE900795F0602AE4FF1189BF59
:1028CB000123900792121219122652501890079357
:1028DB00F1CD900796E02402F0900796E0FF900769
:1028EB0095E06F70DD7F011189900796E0FF22E57F
:1028FB001470281226425005C255121E9831287F9B
:10290B0008120CE51227CFE5D120E0FB431520532D
:10291B0015FEE4F510A23A92EDD322C322E5FA306C
:10292B00E1FB75FC8075FF0153D5EFE4F5FC75FCFD
:10293B0040D1F5E5FC20E6FB22902DF5123E66EB2F
:10294B00F0902DFB7401F0C254121EEF121EE450D6
:10295B0005E5FC20E6F65159BF0108E4F5FC75FCD2
:10296B004080075159BF0202D32275FF0153D8EFA4
:10297B00902DF6E0FF123D7A75FF0153D5DF53FA28
:10298B00FB902DF5E0FF121F3A902DF6E0902DF500
:10299B00B4080BE01227A224529110FC8005E01220
:1029AB0027A2FF9121902DF7E0FFF1B975FF01757B
:1029BB00FF03759B04121EEF75FC42E5FC20E1053D
:1029CB00121EE440F3902DF8E0F075FF03E59B2019
:1029DB00E705121EE440F3E59B20E70C75FF03753A
:1029EB009B1F3128D254804C5152123BB2902DF682
:1029FB00E0FD90120FE05D701C902DF5E0FF515241
:102A0B0012321790120FE0FF902DF6E0FEEF4E9072
:102A1B00120FF071D0D1FC7B017A2D79F9F1605056
:102A2B000FC3902DFAE09420902DF9E0940340E72A
:102A3B005152F1F3D100305402214C902DFBE0B4F4
:102A4B000103D38001C3227B017A2D79FB227FFA0C
:102A5B007E00D109121EF5E5FC30E605121EE4409E
:102A6B00F6E5FC30E6037F032275FF01E5D530E682
:102A7B00037F0222E5D57F0030E7027F0122902CF5
:102A8B000D1211D075FF0243E1803128F175902CA6
:102A9B00221211DC002DC6C0E4F5FFF5A490120E36
:102AAB00F0A3F0902C1D7402F091F6FFF595EF1446
:102ABB00601414601E2402702A902C0D1227AF9103
:102ACB001A902C198018902C111227AF911A902C58
:102ADB001A800B902C151227AF911A902C1BE0909B
:102AEB002C26F0123D6D902C26E0700FF5FFF5961D
:102AFB0075FF0175D70975F418805D90120EE0040F
:102B0B00F0902C1DE0124B23902C221227AFFF903C
:102B1B002C1EF1A8C3121157500B902C1E1227AF6D
:102B2B00FFA31211D0902C26E0FF123BEE902C1C31
:102B3B00E0FFA3E0FDA2539251123D1BA31227AF5E
:102B4B00FF902EA91211D0902C1DE0FF914F902CCD
:102B5B001DE01227A2FF912191FE600241B4740285
:102B6B00F091F6F595E5F454077019902C2271F15C
:102B7B0091F0902C1DE0FB91E4F5831211D01227FC
:102B8B00A1FF912191FE70D975FF03759580124BB2
:102B9B001B400343F420A2539252123C4D902C2223
:102BAB001227AF2420FFEE344E9113FCE4FB7A0482
:102BBB00F9F8910191F0C250B107E4F5FFE5BD546E
:102BCB00F84404F5BD9012137401F07E127F01E4FA
:102BDB00FD8F828E83EF2DF1EBFC901213E02CF026
:102BEB000DEDB412EC22FF7E04FDFCE0F8A3E0F93E
:102BFB00A3E0FAA3E0FB121016E47B7DFAF9F812BE
:102C0B0010A1EF2401FFE43EFEE43DFDE43C22FF76
:102C1B00902C1E0211D0902EEF1211D075FF019047
:102C2B002EEFA3E0FDA3A3124A698FE1902EEFA331
:102C3B00A3E0FEA3124A5F8FE2902EEFA3A3A3E0C3
:102C4B00FF8FE322902EA8EFF0E4A371F191F090A7
:102C5B002EA8E0FB91E4F5831211D0901210E064E2
:102C6B00806075E0C3947F503BEB91E4F583C083A8
:102C7B00C0821227AFFFEEC0E0EFC0E0901210E071
:102C8B0075F004A4AEF0FBCAEECAEA3395E0F9F88E
:102C9B00D0E0FFD0E0FEC3EF9BFFEE9AFEED99FD77
:102CAB00EC98802C902EA8E091E4F583C083C08231
:102CBB00F1A8901210E0F40475F004A4FFAEF0EE4E
:102CCB003395E0FDFCEB2FFFEA3EFEE93DFDE83CD2
:102CDB00FCD082D0831211D02225E025E02401F50F
:102CEB0082E4341222FC780102116875FF03902CE8
:102CFB001DE022902C1DE0FF14F0EF22902C71129E
:102D0B0011D0E4F5FF75BB0575BB8575FF0175D556
:102D1B00022050077F3FFEB1FBD1FC75FF0143D56D
:102D2B0020305002A1C9E4F5FF538EF7438E077D87
:102D3B0004E4F5FF8DBCF5FF43B102E5B130E2FBD6
:102D4B00E4F5FFAFDFEFFEACDEECFBEBFFED25E0D8
:102D5B00246FF582E4342CF583B1F0F5FFF5FF53C6
:102D6B00B1FD0DEDB40CCA902C711227AFFF780991
:102D7B00121168A3B1F0FDED25E02479F582E4345E
:102D8B002CF583E0C313FAA3E013FBB1E3123E5B14
:102D9B002BFFEE3AFEB1E3EEF0A3EFF0ED2404903F
:102DAB00120DF0EDC394075015CFEDCF0DEFB1E43D
:102DBB00F1BF902C76E09F902C75E09E50B9E4F516
:102DCB00FF758EC8F5FF90120DE0F5BCE4F5FF75AD
:102DDB00BB8075FF01F5D522ED25E02477F582E464
:102DEB00342CF58322EEF0A3EFF0E4227F147E0067
:102DFB00D109121EF575FF03E59120E7FB2275FF44
:102E0B0003D3EF9402EE9400400874FE2FFF74FF7F
:102E1B003EFEEFF592EE540FF59122E4902EF3F077
:102E2B00A304F0E4902EF6F0E5FA30E1FB75FF0118
:102E3B00E5D530E7037F0022E4F5FF75E50875FF64
:102E4B000153D8EFE5D530E61A75FF01902EF5E565
:102E5B00DAF0E4F5DA75FF01E5D630E3FB902EF6F8
:102E6B007401F075FF03759B0475FC4175FF03E559
:102E7B009B30E7FBE4FB75FF038B951227A1FF91BA
:102E8B00210BEBB403F075FF03759580E4F5FF752B
:102E9B008EC8D1FC75FF0153D5FBD1F5B1F775FF8A
:102EAB000143D504902EF6E07006D1F57FC8B1F939
:102EBB007B017A2E79F4F1F3902EF4E0902EF370DF
:102ECB0006E04404FF8002E0FF902EF3EFF0901237
:102EDB000EE0B4010675FF0143D81075FF01902E6B
:102EEB00F5E0F5DA902EF3E0FF2275FF03E4F591A0
:102EFB0022E4F5FF75C2E17F1EF1A030E707E4F590
:102F0B00FF75C2A122E4F5FF75C28122CDEFCDCCB6
:102F1B00EECCF154AB94EF4BF198CBEFCBFAE591B0
:102F2B0030E718F157A994E9F582EF4582FFEBF1F1
:102F3B00D4C3EF9582E5F0958340E3E59120E70854
:102F4B00CEECCECFEDCFB1FB2275FF03AF93EF7578
:102F5B00F010A4FF22F154AD94EF4DF1988FF012C5
:102F6B000FDCE591C330E701D322F18E53DB7F7584
:102F7B00FF0175D502B1F7F18E43DB8075FF01E4DC
:102F8B00F5D52275FF01438E1075FF012224FBFF3F
:102F9B00E5F034FF22FEF11790120FE022E0F8A3C8
:102FAB00E0F9A3E0FAA3E0FB22E4F51401FA75FFC4
:102FBB00018FDA22E0FEA3E0FFC322902E01E4F0A2
:102FCB00A322E475F002020F4D2DF582EA3CF58346
:102FDB00229003B9E0C394C022116D74FFFDFC2253
:102FEB00F582E43EF583E022C24F75FF03759B1F0C
:102FFB0075FF0390120FE020E71BE59A540FC39463
:10300B00024012E04480F0E4F5FF75C2A143FC04DA
:10301B0075FF03D24FE5FC30E609E59A540FC394D4
:10302B000540CDE5FC30E611E4120E7C75FC80F515
:10303B00FC75FC40E5FC20E6FB304F03122BD02245
:10304B00AE071219A4EE04FEEF8EF084AFF022301F
:10305B00310D12092AEF6007C25C120916C2312228
:10306B009003BDE0FCA3E04C700A9003BDEEF0A30F
:10307B00EFF0D322C3229003BDE0FEA3E0FF4E602E
:10308B0009CAEECAC9EFC912135522D2ADD2BD750A
:10309B00FF02758E7175510975FF02E58E546F44F1
:1030AB0080F58E902EDF1211DC0000000022C0E0B4
:1030BB00C0F0C083C082C0D075D008C0FF75FF02BE
:1030CB00E58E30E43F75FF02E58E54EF4410F58E2C
:1030DB00902EDF1211A8122C0DFC902EDF1211D0A6
:1030EB00900000E475F001120F4DE55130E0020540
:1030FB0039E551700D755109054DE54D7002054CC3
:10310B008002155175FF02E58530E40875FF024317
:10311B0085100555D0FFD0D0D082D083D0F0D0E031
:10312B0032E49006E0F09006D204F02212264A50C8
:10313B0006314450028001C322E5F754E024FF22FC
:10314B00AF14EFC36001D322EFC3940E500590066A
:10315B00C2EFF022E517540FFF22E517C394F0508E
:10316B001F5317F0318EFE740FC39F4005EE940E64
:10317B00400543170D8003EF4217E517540FFF224D
:10318B007F0022E517C4540FFEEF9004B9932E2253
:10319B00318EFFC3940E40027F0DEF90049B93FF83
:1031AB0022EF30E303AF1322AD1B203B04EE30E0E4
:1031BB000BE517C394F0502031E68018E519600633
:1031CB00FDE4F5198012E517C394F0500BE5175485
:1031DB000FFF6004319BAD07AF05229006C2E0FDE7
:1031EB00FFC3740E5110EFC4F8540FC868FFEEC440
:1031FB0054F048FEE51754F0C39FEE1225B17F0043
:10320B005002AF05229FFFE49400FE22902EF7EDB3
:10321B00F0901211E0F46005A3E0B4FF0C902EF9CE
:10322B007418F0A37413F08010901211E0902EF923
:10323B00F0901212E0902EFAF0120DE16401600290
:10324B006181902EF7E0FE64086004EEB4040890F0
:10325B002EF87428F08006902EF8743AF0EF1227AF
:10326B00A2FF121133E47182EF24D8FFEE343FFE3C
:10327B00ED3493FDEC3416FC7B007A8079037800F7
:10328B00120394913B902EFAE0FF902EF9E0C3517C
:10329B0010E4FCFD121016ECC0E0EDC0E0EEC0E057
:1032AB00EFC0E0902EFAE0FFE4FCFDFE7182D0E06F
:1032BB00FBD0E0FAD0E0F9D0E0F8EB2FFBEA3EFAD6
:1032CB00E93DF9E83CF8902EF8E0FFE4FCFDFE1236
:1032DB001016EF2454FFEE340B122C13FCE47BA8D6
:1032EB007A16F9F8120394CBEFCB902EF7E014601B
:1032FB005D14601B24FE600C24FC707AE4F5FF75F2
:10330B00CE318006E4F5FF75CE21F5FF8BCF22E49D
:10331B00FAE4F5FFEA2440F5CEE4F5FFEAFFC374C7
:10332B00075110741C2FF58274053EF583E4718AE6
:10333B00C39DF5CFE4F5FFEA2448F5CEE4F5FFEAAB
:10334B0090051C718A2DF5CF0AEAB408C422E4F566
:10335B00FF75CE01F5FF8BCFF5FF75CE0EF5FFEBAD
:10336B0025E0F5CFE4F5FF75CE0FF5FFCFEBCFEBF7
:10337B0075F003A4F5CF227B64FAF9F802101693CB
:10338B0025E0FDE433FCEB75F010A4FFAEF0120E5C
:10339B00C2CDEFCDEBFFE4C313EF13224315015363
:1033AB0015DF31AC71E84004E4F5142243FA045301
:1033BB0015FB304A05121FFE800A7F5571D17F55D0
:1033CB0071D1D2EBD32275FF01E5D520E602C322E2
:1033DB00E5FA540360FA75FF018FC3D3229007BA45
:1033EB00EFF09006C1E0FF91489007BBEFF090061D
:1033FB00C1E024FD60130470089007B97404F080D9
:10340B000E9007B97408F080069007B97402F07F2C
:10341B0001120CE59007BBE09007B99134E4902DB5
:10342B00F8F012294450EDD322FFE0FDA3E0FB227C
:10343B00C8ECC8C9EDC9CAEECACBEFCB22EF24FD4D
:10344B00600680007E018002E4FEAF06229003C17D
:10345B00E0B4020D8F1B900772E0F513120B00D333
:10346B0022C3229007B6121222919FE51B919C1248
:10347B002258919BE924029197E991ACE513919C19
:10348B00E924049197E991A5E4020E7CF9E43AFA58
:10349B00E4120E7C9007B60212192405F9E43AFAED
:1034AB00222403F9E43AFA22E51754F0C4540F2FFF
:1034BB00FFC3941040027F0FEF9004A993FF227E6D
:1034CB0010EE60091EEE9004A993B507F4EEC394B9
:1034DB000E40027E0DEE90049B93FF22C2AFEF4293
:1034EB0015D2AF22C2AFEFF45215D2AF227F0291A9
:1034FB00EF9003B7E09003C0F09003B704F0C394D0
:10350B000222EF24FE600C24FE600580007F012266
:10351B007F02227F0322751401751A139006D3EFD5
:10352B00F09006C17402F0ED9006E130E507E4F08F
:10353B00A3743AF022E4F0A374E6F022B1535007DF
:10354B00E475F001120F4D22C39006C7E094FF9073
:10355B0006C6E094FF22C39006C9E094FF9006C80C
:10356B00E094FF5007E475F001120F4D229006E135
:10357B00E0A3E0FF227D021228AFEFC36001D3224C
:10358B00E49006D4B1A09006D8B1A0FFFEFDFC904C
:10359B0006DC0211D0FFFEFDFC1211D0E422EFB1CC
:1035AB00B21211A802118E25E025E024D4F582E495
:1035BB003406F583229003B9E0F4FFA3E06FFFA379
:1035CB00E06FFFA3E06FFF64556009EF644A60048E
:1035DB00EFB40A010F9006C0EFF022A2EB924CC29F
:1035EB00EB7A0679C67B017D0CE4FF120858A24CDE
:1035FB0092EB22A2EB924DC2EBEBC0E0EAC0E0E90A
:10360B00C0E07B017A0679C6902E0E121222D0E012
:10361B00F9D0E0FAD0E0FB7F0C120885A24D92EBBB
:10362B0022C003C002C0017B017A2D79E2902E0EDD
:10363B00121222D001D002D0037F02020885122A77
:10364B0059EF64017065D1F5902FA9EFF0D3940277
:10365B005059902DE6E0FF902FA9E06F704DD1B738
:10366B00902FAAEFF07B017A2F79AA7D01120BB96B
:10367B00902FA9E024E2F582E4342DF583EFF0904E
:10368B002DE6E0045401F07022902DE4E07002A3CB
:10369B00E060187B017A2D79E0D12C7B017A2D79B2
:1036AB00E0902DE4D1E38E8312135922E4FFE5F76A
:1036BB0054C06002801675FF01E5D530E30DD1DCF7
:1036CB0050F4D1D7EF60EFD1DC50EB22D1EBAFD977
:1036DB002275FF01E5E43322E0FEA3E0FFF5822231
:1036EB0075FF01E4F5EA75EAFF22E5F454181313AC
:1036FB0013541FFF22902DE4EEF0A3EFF022901253
:10370B0015E05403F022902DE7EFF0C24E120A7E23
:10371B00EF542364206028902C8DE060227B017A8B
:10372B002D79E8902E0E1212221239E9902DE874A1
:10373B0006F0A3E550F07B017A2D79E8120CD190BD
:10374B002DE7E07002E1D0F1E2E060031238A690C1
:10375B002DE7E0FFB40107902C9174018009EFB4C1
:10376B000310902C917402F0F109902C8F7404F0DB
:10377B00804BEF64047038120A7EEF5423FFBF2096
:10378B0013D24EF1FBEF7004F109F1EB902C8D7419
:10379B0004F08035120A7EEF5432FFBF020C900307
:1037AB00B6E0B40505E4F0120AE2F1097F002290BD
:1037BB002DE7E0B40213E4902C8FF0F109902C8DDF
:1037CB007402F08004F1E204F01238A9902C8DE021
:1037DB007F0060027F0122E4902C91F0902C8D22CF
:1037EB00901215E04404F022901215E05408FF22C9
:1037FB00901215E07F0030E2027F0122901215E05B
:10380B005414FFBF14047F0180027F002290121515
:10381B00E07F0030E0027F0122902C8DE0B4040D9C
:10382B00902C92E060071118EF7002FF22902C8D04
:10383B00E0FF22901215E0C4135407FF22902EE3F1
:10384B0012122231C411A0120DE1902EE6F011A03C
:10385B00902E0E1212227B0131E9902EE6E0B4017C
:10386B001911A0E92401122562902C8EF074FE121E
:10387B000E7C902C8D7405F08015902EE6E0FF6485
:10388B00066004EFB4070D902C8DE0600211A611B9
:10389B00A0120CD122902EE30212197401F0902C7D
:1038AB008DE0640270207C387D487F011209A77E71
:1038BB00397F17C006C007E47FD07E07FDFC31F2CD
:1038CB00D007D00621D9902C8DE064037018FFFE31
:1038DB0012183F902C91E07C387D48B402047F0392
:1038EB0080117F02800D902C8DE0B4040B7C387D11
:1038FB00487F041209A78014902C8DE0B4010C3181
:10390B00D231C4123709E4902C8DF02231C4902CA3
:10391B008DE0B4020A31D2902C8D7403F001A99082
:10392B002C8DE06403707A902C8FE06057902C9173
:10393B00E0B40105120AE7800A902C91E0B402036F
:10394B00120AEC902C8FE014F0E060201219A4EF17
:10395B0075F04684E5F075F064A4FFEF24A0FFE555
:10396B00F0340FFEE433FDE433FC8007E47FA07EEC
:10397B000FFDFC902DAA1211D07E397F17E4902DEC
:10398B00AEF0804A902C8D7401F011A9902C947498
:10399B00FDF0902C937407F07B017A2C7993020C39
:1039AB00D1902C8DE0B404101237F3EF600731E2A5
:1039BB00E4FF02188A120AE722902C92E0FF120809
:1039CB00ADE4902C92F022E4FDFCFF0209A7120853
:1039DB00B2902C92EFF0227B007A007900227A2CA5
:1039EB0079937F06020885902DAA1211D0E4902DB1
:1039FB00AEF022E53864066006E5386407702F9058
:103A0B002C87E06003F47026E4FDFC7F01120ABAF8
:103A1B007E3A7F3AC006C0077F587E807D047C00CB
:103A2B0031F2D007D0061208B2902C87EFF022515A
:103A3B003E80C0902C87E0FF1208ADE4902C87F0FD
:103A4B00229027F5E070087B017A2779ED516E9073
:103A5B0027F5E044C0F09027F851759027FCE0540F
:103A6B00FEF0227D107F23020B41E054FEF0A3E019
:103A7B0044C0F0227405D39F500B7463C39F400561
:103A8B00902C90EFF0902C90E0FF22902FD7EFF03E
:103A9B00BF0204E4FF8009902FD7E0B403057F0138
:103AAB00121AA322902EA31211D0902EA7E054022B
:103ABB00901234F0902EA31211A8021A0FEF70116E
:103ACB00ED600775FF0143AE012275FF0153AEFE9A
:103ADB0022EFB40114901235EDF0600775FF01432E
:103AEB00AE022275FF0153AEFD2275FF02E5E630F3
:103AFB00E2037F0322E5E630E3037F0022E5E630B5
:103B0B00E1037F0422E5E67F0530E0027F0122EF2F
:103B1B00600775FF0253E6BF2275FF0243E64022A2
:103B2B00EF14600F146014240270188B8075FF0162
:103B3B008DFD228B9075FF018DC9228BA075FF0126
:103B4B008DCA22AF038FB075FF01AF058FCB2290CB
:103B5B002DEF121222EF1460111460182402701E44
:103B6B007194E580719AE5FD801C7194E590719AD2
:103B7B00E5C980127194E5A0719AE5CA8008719429
:103B8B00E5B0719AE5CB020E7C902DF20212191260
:103B9B000E7C75FF01902DEF021219E4F5FFAF912A
:103BAB0022E4F5FFAF9222902F4371E57F017C1247
:103BBB007D01E4FE8D828C83ED2EF582E43CF58352
:103BCB00E02FFF0EEEB412EC901213E06F600A9030
:103BDB002F431227C6E4120E7C22EBF0A3EAF0A3CC
:103BEB00E9F022EF30E00E43F401E4F5FF43A404C7
:103BFB00F5FF759624EF30E10E43F401E4F5FF4336
:103C0B00A408F5FF759624EF30E20943F402E4F5BE
:103C1B00FF75961EEF30E30943F404E4F5FF759648
:103C2B001075FF01EF5403600475D7122275D72D61
:103C3B0022E4F5FF7584E6F5FF439404F5FF7598D0
:103C4B001422E4F5FF75933F75FF03759A40913C81
:103C5B00E4F5FF759C93F5FF75A1A3F5FF75853111
:103C6B00F5FF758628E5FA54304480F5FA75FF01A7
:103C7B0075E74A75FF0275DF4975FF0143D304757C
:103C8B00FF0153D367E4F5FF53E6BF75FF0175D80A
:103C9B0025F5FF75B503F5FF75B215F5FF75BA027E
:103CAB00F5FF75AFB3F5FF75CD0AF5FF75CB08F5CD
:103CBB00FF75CA12F5FF75BF0EF5FF75CC96F5FFB4
:103CCB00F5BDF5FF75C281F5FF75AEE1F5FF75DA50
:103CDB0055F5FF75F580F5FF75E903F5FF75E933CC
:103CEB00F5FF75972A75FF01759B42759CA4759D11
:103CFB0029759E48759F2475A11275A312759AF8A4
:103D0B0020520CF5FF43968090120FE04440F022B6
:103D1B00CCEFCCCFEDCF74017E00C8EFC808800587
:103D2B00C333CE33CED8F9FFCDECCDEF5D601B3076
:103D3B00511875FF0175DCAD75FF0175DDCDE4F52F
:103D4B00FF759A74F5FF7594842275FF0175DC532A
:103D5B0075FF0175DD33E4F5FF759A14F5FF759466
:103D6B00042275FF0175E46575FF0175D647227551
:103D7B00FF01E5D530E602C32253FACFEFB40805B5
:103D8B0043FA308012EFB4040543FA208009EFB4F4
:103D9B00020543FA108000D322E5F75406FFBF0655
:103DAB00037F0822E5F75406FFBF04037F0422E5D7
:103DBB00F75406FFBF02037F02227F0122902EFFE2
:103DCB00D163EBF0D144AC00AD01AE02AF03C00642
:103DDB00C007902EFFD15BFBAA06E4F9F8D007D001
:103DEB0006D31211417E0050047F0180027F00C078
:103DFB0006C007D144D0E02FFFD0E03E902EFFF05D
:103E0B00A3EFF053ECFC902EFFE0FCA3E0FDEC5491
:103E1B000342EC75FF02EDF5AF75ED0275ED04A3F2
:103E2B00E0600543EC08800353ECF7902F02E06051
:103E3B000443EC042253ECFB22902EFFE0FEA3E0A4
:103E4B00FBAA06E4F9F87F807E387D01FC0203941F
:103E5B00E0C313FEA3E01322EEF0A3EFF0A3EDF00B
:103E6B00A322902CF7D166EBF07F02120B1E902D44
:103E7B0000121222EA494B6061902CF8E0FFD1E866
:103E8B00F16CEF120E7CE490069FF0F15FF128EFDE
:103E9B006010902CF7E04442F0D1E824D9D1F01215
:103EAB000E7C902CF9E0FF30E11ED1E824BAD1F062
:103EBB00120E7CEF54FC902CF9F0FE902D5AE0542E
:103ECB00FDF0D1F77D01800C902CF9E054FEF0FE53
:103EDB00D1F77D02120B877F01227F0022902D00EC
:103EEB00121219E922F9E43AFA74FF22902CF7E046
:103EFB00FF902CFDE0900718F0A3EEF0902CFEE065
:103F0B00FDA3E090071ACDF0A3EDF0902D00121257
:103F1B001990071C121222902CFA021219902EDA09
:103F2B00121222E4902EDDF0A3F0902EDDE0FF9034
:103F3B002EDA1212191208D5902EDDEFF0600BF16C
:103F4B0065EF6006902EDEE004F0902EDDE070DA77
:103F5B00A3E0FF2290068E021219E0FFC261020A53
:103F6B002E24B6F9E43AFA22C2ACE4F543F542F555
:103F7B0041F53FF540F53E7B017D01B1C8D2AC2246
:103F8B00EF600775FF0243E6102275FF0253E6EF61
:103F9B0022E5ED30E2FB75ED04AFEF22E5ED20E01D
:103FAB00FB8FEF22EF600443EC042253ECFB22EF78
:103FBB00600443EC082253ECF722E5ED5402FF2298
:103FCB00E5ED5404FF22E5ED5401FF22C2ACF1D123
:103FDB00EF7004E54360047F0180027F00D2AC22C6
:103FEB00902CA9E020E0171213C47F3D12076C7FC1
:103FFB002A12076C7F8012076C7FA61207D42290BF
:10400B002CABE0120E7C902CB0E0900001120E8EC7
:10401B00902CB1E0900002020E8E7B017A2C79AECF
:10402B007D017F03120B417A2C79B77F0831FA7A25
:10403B002C79B47F0931E07A2C79B27F0B31E09087
:10404B002CB2E0FEA3E0FF4E6006BEFF16BFFF13CF
:10405B0031E75002800431F08009902CB2E4F0A3D8
:10406B007440F031E750028008902CAF7403F0805D
:10407B0006902CAF7402F0902CAEE012132F40A5DB
:10408B000440B01440B81540C01740D63040DE3461
:10409B0040E63640EE37000040CB75FF015330EF62
:1040AB008530FD804775FF015331EF800E75FF01A1
:1040BB005331DF800675FF0153317F8531C9802C69
:1040CB0075FF015332DF8532CA802175FF015333EF
:1040DB00FE801675FF015333EF800E75FF015333CE
:1040EB00BF800675FF0153337F8533CB1214AE7F30
:1040FB001131D2E4FF121D82121427902CAC7402E2
:10410B00F0902CB0E0247F600904701631D8740A4B
:10411B008007123FEB31D87458F0902CAF7403F03A
:10412B0031F0902CB1E0F4600221CF902CB4E0FE82
:10413B00A3E0FF64104E7006902CB1740EF0EF6488
:10414B00204E7006902CB1740FF0EF64404E700649
:10415B00902CB17410F0EF64804E7006902CB174FB
:10416B0011F0E4B5070AEEB40106902CB17412F00D
:10417B00E4B5070AEEB40206902CB17413F0E4B563
:10418B00070AEEB40406902CB17414F0E4B5070AD8
:10419B00EEB40806902CB17415F0E4B5070AEEB432
:1041AB001006902CB17416F0E4B5070AEEB4200695
:1041BB00902CB17417F0E4B5070AEEB44006902CBE
:1041CB00B17418F0021528EF4420F5FE227F103150
:1041DB00D2902CAC227B017D02020B41902CB7E0DC
:1041EB0024FE24FD22902CB27401F0A3E4F0227B78
:1041FB00017D01020B41AB05E4FCFD902EB6EBF00B
:10420B00021551902D6B1211D0902D6F121222129C
:10421B00178E120792EF600512179D80F51213C4CB
:10422B007F0312161B600B902D6B1211A8781012C6
:10423B000768902D6B120763902D6B1207E7902D7B
:10424B007291E66014120786902D6F91A2902D70DB
:10425B00E475F001120F4D80E51214AEE4FF020776
:10426B00DB902F4CE075F005A42411F9742B35F07D
:10427B00FEAF017B017A2B79EB902E557405F090F4
:10428B002E52121222E4FCFDC007902E521212196C
:10429B00902E55E0FF902D72E4F0A3EFF0D0074184
:1042AB000E902BBB1211D0902BBF121222E4902B2D
:1042BB00E4F0D3902BC3E09420902BC2E094004009
:1042CB0001227B017A2B79C4902BC291F0F0902BB9
:1042DB00BB1211A8510E902BBF121219E94A600B99
:1042EB00902BE4E0F58271DBFF80027F00902BE4E2
:1042FB00E024C4F582E4342BF583E06F6002C32223
:10430B00902BE4E004FFF0D3902BC3E09F902BC2E3
:10431B00E0940050C12271CB121222E4902CDDF0FC
:10432B00A304F0902CDAE0FEA3E0FF4E700261C50F
:10433B00D3EF9420EE940040047F208006902CDA7B
:10434B00A3E0FF902CDCEFF0902CD7121219902CDD
:10435B00DCE0FF902BC2E4F0A3EFF0902CD3121112
:10436B00A851AC400E902CDDE0FFA3E0FEEF4E9089
:10437B002CDDF0902CDCE0FFC3902CDBE09FF09069
:10438B002CDAE09400F0902CD31211C4902CDCE4C6
:10439B00FCFDFE120FFB71CB121219E94A6007905C
:1043AB002CDCE0FF80027F00902CD8E48FF0120F02
:1043BB004D902CDEE025E0F0612E902CDDE0FF220D
:1043CB00902CD31211D0902CD7221212191E8E8240
:1043DB00758300020DFA902CBC121219902CC1E0BF
:1043EB00FFA3E0902CDACFF0A3EFF0902CB81211D2
:1043FB00A87121902CC5EF22902E989174E58F20F7
:10440B00E0FB917BE4FF902E981212198F8271DBE7
:10441B00F5930FEFB410EFE4FF902E9B1212198F50
:10442B008271DBF5940FEFB410EF22902D8F917406
:10443B00E58F20E0FB917B7E10902D9271D5F5934B
:10444B00EE70F67E10902D8F71D5F594EE70F67F91
:10445B0001918B91DDEF70FB7E10902D951212194F
:10446B001E8E8291AFEE70F22212122275FF012284
:10447B0075FF01538F0675FF01538FF075FF0122F6
:10448B00EFB4010791CE4401F58F2275FF01E58F43
:10449B0054F04406F58F22121219EF020E7C902E67
:1044AB0055F0418A758300E593020E8E902FA691ED
:1044BB0074E4FF902FA61212198F8291AF0FEFB4F5
:1044CB0010F12275FF01E58F54F62291CE4408F5C9
:1044DB008F2275FF01E58F5401FF2274FFF5F01257
:1044EB000F6345F022E0FFA3E0902D72CFF0A3EF16
:1044FB0022AB07AA06EB241FFFE43AFEEF7805CEAA
:10450B00C313CE13D8F9F9EB541F902FDCF0AF0582
:10451B001217C6FCAF0512172BAE01EE14C39FC4C6
:10452B003354E0F9AF04C3EB9FFFEA9400FEE9FDBF
:10453B00C3EF9DFFEE9400FEED600FE0FD6007C33F
:10454B0074209DFD80067D0080027D007C00EF2D98
:10455B00FFEC3EFE22902CC1E0FEA3E0FF902CC5A9
:10456B00E0FD91FC902CC3EEF0A3EFF0A3E0FF1263
:10457B0007F4EF75F020A4FFAEF0E4FCFD902CB82F
:10458B001211C4020FFB902CADE0FF22E4902CAD76
:10459B00F022E4F5FF75D102E5D120E0FBE4F5D183
:1045AB00F5FFEFB1BEEE540F42D6E4F5FFCFEDCFE2
:1045BB008FD422F5D7E4F5FF53D6F022E4F5FFEFC5
:1045CB00F5D8E4F5FF53D60FEE540FC4F854F0C8EA
:1045DB00E4C4540F4842D622E4F5FF8FD422E4F50D
:1045EB00FFE5D1540133333354F8FFE4F5FFE5D342
:1045FB0054074FFF22EFB40109D2AD75FF0143AE53
:10460B004022C2AD75FF0153AEBF22E5C85402FF75
:10461B0075C80222E5C85401FF22EF6004902D5E9D
:10462B00F090069FE0FF123F5F1208D590069FEFB8
:10463B00F06056203353902D5CE0C330E501D392EC
:10464B0036902D5BE0FD902D5F121219900708122A
:10465B001222902D5DE090070BF0902D5AE0900701
:10466B000CF0A37480D1A190069FE0FBE4FF120B2A
:10467B0091EF7021902D5E7402F0902D58E0FEA307
:10468B00E0F5828E837F028009902D5EE0902D589D
:10469B00F1A912135922F0A37446F0A37425F0224A
:1046AB00902D04121222902D03EFF0FE902D0E741C
:1046BB0003F0902D0BE05437F0E0FF5420902D5C6D
:1046CB00F0902D5BEEF0902D0CE0FDA3E0902D58BB
:1046DB00CDF0A3EDF0902D07121219902D5F121251
:1046EB0022902D0AE0902D5DF0902D04121219905E
:1046FB00068E121222EF4420902D5AF0E4902D5E7C
:10470B00F0C233F549902D04121219AF491208D596
:10471B008F49EF602A7D03120AA640E9902D0AE02B
:10472B00D3941940037F0022AF49120AA15008907D
:10473B002D0E7401F08008902D0E7402F080C6903F
:10474B002D0AE0FED3948240037F0022902D0BE0D4
:10475B00FB902D0E30E010F195C003F19D902CFDD8
:10476B00EED1A1D0038020F195F19D902D0AE09020
:10477B002CFDF0902D58E0FBA3E0902CFECBF0A38A
:10478B00EBF0902D0BE0FB023E6DE0FF902D03E074
:10479B00FD22902D07121219902CFA021222FFE023
:1047AB00FCA3E0FDF5828C8322C003C002C0019004
:1047BB002D51121219902D07121222902D54E090A8
:1047CB002D0AF0902D55E0902D0BF0902D56E0FF1B
:1047DB00A3E0902D0CCFF0A3EFF0D001D002D003CB
:1047EB00AF50C1ABE4FF302F037402FF2220000552
:1047FB00D2160209DEC322C0E0C0F0C083C082C063
:10480B00D075D000C000C001C002C003C004C005F9
:10481B00C006C007C0FF123FCBEF60291200461243
:10482B000056E53EC394204003753E00E542C39419
:10483B0020500FAE3E053E74462E3109EFF0054277
:10484B008003754220123FC5EF602312004EE543F3
:10485B00D394004019E54194204003754100AF41CA
:10486B00054174662F1196E0FF12005E1543D0FFD1
:10487B00D007D006D005D004D003D002D001D00091
:10488B00D0D0D082D083D0F0D0E032F582E43406A1
:10489B00F583229007DCEFF0E543C394204005122B
:1048AB00179D80F4E53FC394204003E4F53FC2AC71
:1048BB00123FD1EF700EE543700A9007DCE0FF1258
:1048CB00005E80129007DCE0FFAE3F053F74662E62
:1048DB001196EFF00543D2AC7F0122E540C3942043
:1048EB004003E4F540AF40054074462F3109E0FF2B
:1048FB00C2ACE542D3940040021542D2AC22F58201
:10490B00E43406F58322C2ACC374209543FFD2ACCA
:10491B002275FF01E58F5408FF22EFB4010775FFE5
:10492B000143AE202275FF0153AEDF22EFB4010726
:10493B0075FF014391202275FF015391DF22121263
:10494B0022902C68E0540F22C20A7B007A00795027
:10495B00902E591212220B7A0379B922F9E43AFA02
:10496B00EE8FF0020FDCE9240BF9E43AFA22900304
:10497B00C0E0FD75F0AA9003C502120DFFE5F08FA4
:10498B00F0020FDC121219E924BDF9E43AFA227590
:10499B00F005A424F3F9740035F0FEAF017B01227E
:1049AB00E0FFA3E0902CBFCFF0A3EFF02274FFF554
:1049BB00F0120F4D45F022E92402F9E43AFA021203
:1049CB0037EEF0A3EFF07B01229003C2E0FEA3E0F1
:1049DB00FF1208BCD3EF94C8EE940022D2357B01B2
:1049EB007A06798822E924FFF9EA34FFFA020DE10D
:1049FB00F07B017A28797D22F0A3F0A3F0A3227A31
:104A0B000679BB7F0422E0FFA3021219C3E99FF9C9
:104A1B00EA9EFA2290074DF0A3EFF0227B017A2E4B
:104A2B00799E7F030208857B017A2E79A17F020292
:104A3B000885F0A3EDF0E4A3F0228D828C830213A2
:104A4B0059E9242DF9E43AFA7D04E422E92420F90A
:104A5B00E43AFA22E4FFE4FDFC7808021168E4FF73
:104A6B00FEE4FC7810021168F09029637401F022C7
:104A7B00A3ECF0A3EDF022AF05F0A3EFF022E924B5
:104A8B002CF9E43AFA744022E92408F9E43A222496
:104A9B000CF9E43AFA227405F0E4A3F0222FF9EAB8
:104AAB003EFA020DE1902E24F0A374FFF022FA7B64
:104ABB00019003B8E0FD22902E78ECF0A3EDF022EC
:104ACB00AF017B017A07795E22FFAEF054076403D6
:104ADB00227438F0A37426F022E0FEA3E0FF7C00E2
:104AEB0022F582E43406F58322FF54F0C4540FFE02
:104AFB00227401F0AE04AF0522AA06A907021355D2
:104B0B00AF03EAF0A3EFF022F0902CA9E0FFF42220
:104B1B0090120EE0D394012233333354F8F5F42280
:084B2B009003B9E0FFA3E022B2
:107F7E000200022B162FD0020602022FD23006006C
:107F8E003904060102300B380D08070506010238C8
:087F9E001238200013FF060158
:107FB000FFFFFFFFFFFFFFFF7FC600000000000084
:067FC000000003080000B0
:108000007B01E4FFAE051DEE6009EF120E7C12D07D
:108010000980F122902F23121FF312F1C131044A7B
:10802000C36001D34002210212F1B65019E0FF945F
:1080300004500280027F043104124993B1857B0110
:108040007A2C795071B2902C411225695467902C8A
:1080500054310324DF5127902C4F310324E651275C
:10806000902C55310324E75127902C56310324E8F6
:108070005127902C57310324E45127902C4D310384
:1080800024E55127902C4E310324E912256F12F379
:10809000ACF0902C411212199179E4902C443103E8
:1080A00024DC12256F45F06050902F23E0602BA355
:1080B000121219B1857A2C794812F2E59164C00345
:1080C000C002C001310424DC12256FF58285F083E3
:1080D000D001D002D003E4FF801C9164C003C00231
:1080E000C001310424DC12256FF58285F083D001B4
:1080F000D002D0037F0112135912962B902C4112FB
:10810000122222F0902C41121219E9229007BF127C
:1081100012229007BF129A43540F120E7C9007BF91
:10812000121219E924E61227EF020E27902C4112B1
:108130001222E924E351276017E4902C58310312EE
:1081400022597401120E7C7E0B7F0AFD7C00807C1C
:10815000310424015127D39401403B120B82902C0F
:1081600058EFF07E0B7F0A310424B7512730E7190E
:10817000310424BB512720E010310424BC512712C4
:10818000F432B504047D078009310424B15127126B
:10819000F46E7C008036E4902C58F07E0B7F0A3120
:1081A0000424B7512730E719310424BB512720E0BC
:1081B00010310424BC512712F432B504047D078029
:1081C00009310424B1512712F46E7C00020B7DE0CA
:1081D000FF902963E0FD902FCBEFF0ED24FE6021AE
:1081E00014602C14602E2403703012BD5654386471
:1081F00010600A902FCBE0FF12EB375002D322C35E
:108200002212BD565438FFBF1003D38001C322127F
:10821000E977132212E977A2E122C322C219902C36
:10822000C6121219E92402F9E43AFA020DE1310406
:108230004AC36001D35079310412225974FF120EDF
:1082400027120DE1FFD394014007EF940350028001
:108250004F3104240151276401704D902C411225A7
:1082600069124AD4703A310424B6512765507030EF
:10827000310424B7512720E727310424B95127D3EB
:108280009440501C200D19310412F2C2EF54F844EE
:1082900002FF12496B310424B751274410120E7C9F
:1082A000902C41121219210CE4902C44F0120B96E0
:1082B00022902F27121222E94AC36001D3400261A3
:1082C00092902F27512130E016719424B7512754F2
:1082D0000FFFBF0503D38001C34004915E212C1220
:1082E000F1C1915E12F1B65019E0FF940450028082
:1082F000027F047194124993B1857B017A2C7950E5
:1083000071B2902F271225695467902C54719324D1
:10831000DF5127902C4F719324E65127902C5571F3
:108320009324E75127902C56719324E85127902CE1
:1083300057719324E45127902C4D719324E55127D4
:10834000902C4E719324E912256F12F3AC71932493
:10835000E35127902F2A7003F080037401F0719489
:1083600024DC12256F45F06025902F2AE0FF9164F0
:10837000C003C002C001719424DC12256FFDACF073
:10838000F58285F083D001D002D003121359915E9B
:10839000917922F0902F27121219E922AE058E53FF
:1083A00012C1D3AD5312C23AEF24FF227A0379B936
:1083B0007F04902E0B121222AE071FEE6027902E24
:1083C0000E129A43FE902E0B121219EE120E7C9092
:1083D0002E0CE475F001120F4D902E0FE475F00194
:1083E000120F4D80D3220207927D01AF48300C530B
:1083F000ED6017E4FE9151E0B507099151E4F09169
:1084000044E4F0220EEEB405EC22902786E0FDE471
:10841000FCFE9151E0B5070E9144E0C394FF502358
:108420009144E004F0229144E0FBEDD39B4004AD85
:1084300003AC060EEEB405DAEC9152EFF0EC914588
:108440007401F022EE25E02486F582E43427F583DA
:1084500022EE25E02485F582E43427F58322902F4F
:10846000270212197B017A2C794522902C58E06062
:108470000314F022120B78412EE4020E7C902E564B
:108480001212227E007F14120720902E591244A24D
:10849000902E59129A43701104120E7C12A3D3E944
:1084A0004A60197E007F08800B12A3D3E94A600C52
:1084B0007E007F1012A3D374041244A9227B017A98
:1084C0000379B9AD50902F461212227E007F14120C
:1084D00042017E007F10902F4612121912B05B12DB
:1084E00028657F0122020720902F701212227D2B17
:1084F000E4FF1104B17B12E747B17BE91234A574A4
:1085000002B1787401B1781222587401120E7C9075
:108510002871E0FF7E0030E0027E80EE4453FEB121
:108520007B12B5BBFAEE120E7CEF7F0030E1027FCA
:1085300080EF4416FF902F7012A23FB17B12F2C160
:108540007401120E7C9028B2E0D39423400374236C
:10855000F09028B2E0FE2408A3F0AF06B17B124AE7
:1085600093FAC003C002C0019027E5121219B18529
:10857000D001D002D00361B2120E7C902F70021293
:10858000197A287979902E0E021222210C124201BA
:10859000E433FF22902CC6121222902CC9EDF07405
:1085A00001C39D4003029625902CCA129A43902C39
:1085B000CDF0E924015127902CCFF0902CCA512105
:1085C000902CCEF012314B40FB12179D902CC6120E
:1085D0009A43FFC394204031EFD394FF502B902C4B
:1085E000C9E0FD949F5022902CCDE030E703029625
:1085F000255124902C6BF0902CCA121219902E3F0A
:108600001212221297DA020CD6902CC6129A4364E8
:10861000016003029625902CCDE030E603029625FA
:10862000E92401512712132F87FE018DB3028DC457
:10863000038F61049000058C1C068B3A078E460858
:108640008E99098EF40A8F090B906C0D92150E8F7E
:10865000540F942A1092AE1193AC12931A13948D66
:108660001586831695B9198F151A872C1F879720A1
:10867000961E2287F22387BD2687EB2787FE2800D8
:10868000009625E5476550706912E1FCEF70030222
:108690009625902860740BF0511EFF7B017A287993
:1086A000B712C24ED205511EFF12C8B3511EFF9021
:1086B00028D512E2B912A3269028D97405F0902883
:1086C0005E740AF0A37401F09027FD7402F0511E4D
:1086D000FF902CCFE0B5070CAD5012C68F12962B31
:1086E000E4FF8045511E12F3CC12C68F12E8FF0240
:1086F000B82A902871E020E003029625E547700330
:10870000029625511E9028D512A6FC741612D7EA9F
:1087100012A70712AF56740AF0A3741012AD1160BD
:1087200003029625FBFAF97F0202CE8712A6FD749A
:1087300020F0511E705390287BF0A304F012963362
:108740005127FF33333354F8902CD0F01297DA12BC
:10875000F2C1902CD012C2347025902CD012BFE1FF
:10876000601D902CD0E0FF12962B12AD98902CD06B
:10877000E0FD12962BE4902E97F07F20120CE090F3
:108780002CD0E014F070C58005E490287CF012A78E
:108790000812F2B802960D902860E0700302962548
:1087A00012C8111296335127B4010B12CFCF12CD3C
:1087B000C2AD441242017D02AF480295B6902CC969
:1087C000E0FF7406D39F4003029625902CCDE05421
:1087D000DFFF1297DAE9240112A245902CCFE0FDC9
:1087E000902E977405F07F86028AD1E53864066082
:1087F0000D22E53864046006E49028AAF022902C4B
:10880000C9E0C39406E4940050030296259028AA78
:10881000E0FF60209027FDE0B40314902CCDE03001
:10882000E703029625902CCFE0FEEF6E600622E46F
:108830009028AAF012821E5407C39403500A12977C
:10884000DA12F2C1E4120E7C12494C640170183045
:1088500023151296331282275406FFBF020912F421
:108860005DC221C223412C300E0241D49028D4E0B5
:10887000600241D41297D212E2C1902CCFE0FC905A
:1088800028D6F0902CCDE09028DAF07F1030E4026A
:108890007F00EF4401FF902CCDE0FE54024F902862
:1088A000D9F012F40F70491297DAE92401128227E5
:1088B000B4230EEE7F0070027F01EF30E4030296D6
:1088C0002520120A902802E030E1030296252008B4
:1088D0000A902802E020E103029625E49028D5F0D2
:1088E000902802E07F0030E102AF04902C6C21BEA2
:1088F0001297DAE92401128227B4230122E53864B1
:10890000067002416112F4436007EF6402600241A5
:108910006130171812F2A16001227B017A2879E1F7
:108920001285857A0679887F041283B2A2175002D5
:108930008001C3401A20120A902802E030E10302AD
:10894000962520080A902802E020E103029625904F
:108950002790E020E00C1249E7128585124A0A129E
:1089600083B2902CCFE0FF70024134300B0A902884
:1089700002E020E103029625902CCDE020E76690EE
:1089800027FDE0B40204C212803712F428502512E9
:10899000494C6401702B902802E030E1242023052B
:1089A000EF64EF701C3023047FEF800312D44190FA
:1089B00028D5800A902CCFE0B4EF0612D43BEF808C
:1089C0006512F49EF012D18FFB12D4B06011902882
:1089D000D47402F012962BE4FF12A777D21F22E480
:1089E0009028D4F02212494C64016003029625902D
:1089F0002802E020E10302962530230D12F42850CE
:108A000008902CD074EFF080139028D5E0700512F8
:108A1000D4A880089028D5E0902CD0F0902CD0E0FD
:108A2000FF60069028D5F0803012F45D12962B7FFF
:108A300001020BE6902802E030E10302962590281F
:108A4000D5E0FF600912AB75EF6008200B0512D46A
:108A50003BEFF09028D5E0600302D4B9E4FBFDA120
:108A6000AF1297DAE924011282276427704A902C0A
:108A7000CDE030E5437B017A0679BB1285857A2704
:108A800079967F041283B29028D7E0FE24F89027CD
:108A90009AF0EE24FBFF12D2F81285857A27799B93
:108AA0001283B212F4667A27799690279AE0240806
:108AB000902E97F07F858019902CCDE030E703024F
:108AC0009625902CCF12D2F612D190902E97F07F4F
:108AD00084020CE09028D4E0640D60030296259097
:108AE0002CCFE0FF902784E06F6003029625129759
:108AF000D212E2C19028D97421F012F49E12ACBCBB
:108B000012C81712AB8DE490282AF0D21390278454
:108B1000E0FF9028D7E024F8FB7D0112CC467F01CE
:108B200012D3F5EF600302962512D2F312D1901200
:108B3000D496E49028D4F002ABD29028D4E0FF641D
:108B4000036004EFB4080302C8E4902C68E0FF302F
:108B5000E53212821EFE902C6BE06E6003029625B9
:108B6000300E0F902CCFE0FE9028D5E06E6003020F
:108B70009625EF54DF902C68F030E703029625E449
:108B8000FF020BFAE54765506003029625902CCF53
:108B9000E06548600302962530010302962590287F
:108BA00060E0FF64076005EF640A703C12821E6497
:108BB000027035D201902795E0701BFE746725483E
:108BC00012CDC2120720EF543F04FD12CFCF12CDB9
:108BD000C21242018034902795E004F012BFE17088
:108BE0002912F49640F0802212F48E6008EF640996
:108BF000600302962512821EFF6401600DEF64037C
:108C00006008EF6405600302962512F48E6008EF99
:108C100064076003029625C25D0294679028D4E041
:108C2000FF64046008EF6409600302962512C831EE
:108C300012821EFD2403F545902CC9E0C3954550D2
:108C400002A1AC300E0F129633F9E43AFA12CFEDCE
:108C5000EF6002C2159028D4E0B40911902CCFE047
:108C6000FF1297DAAC02AD0112C3408018902CCFEE
:108C700012BD5930E70F902CCFE0FF1297DAAC020B
:108C8000AD0112C60DE4F54512821EFFE545C39FF6
:108C9000502874EC2545F582E43428F583C083C060
:108CA00082E0129632F9E43AFAE54512E77DFEEFEA
:108CB0004ED082D083F0054580CE12821EFF9029CF
:108CC00064E0FEEFD39E4002EFF0E4FF12D3F5EF35
:108CD000600122300E0320153312F4667A2879ECF5
:108CE0007F1D12D8158F45EF7022902CCF12C8AC83
:108CF000600B300C08902CCFE0FF12AB3C7F223091
:108D00000E027F2312F3F212D26EC20EE49028D428
:108D1000F012F454300C2DE54765506027E54760AC
:108D200023902CCFE090287BF0902964E0FF9028DE
:108D30007CF07B017A2879EC1285857A28797D127E
:108D400083B28024300519C205902CCFE012C1D225
:108D500012E8E36013D213902CCFE012CC418008CC
:108D6000902CCFE0FF12CD3C300E0830150512F3E9
:108D7000F2803C902CCFE0FF12C9549028D474109C
:108D8000F0E547601F902CCFE0FF12E920BF0414EC
:108D9000902CCFE0FF7C0A7D4712E5B45003029689
:108DA0002502CFDD12962BE4FF02A77712F3F27FA4
:108DB00023E151902CCFE0FF12F3DF4405FDE4FBEB
:108DC000FA02CBBD902CC9E0C394074003D38001C5
:108DD000C34003029625902C68E020E40302962508
:108DE000200603029625300A15C20A7B007A007914
:108DF00050902E591212227A00790012847D12822C
:108E00001E7007FBFAF9AF50800512962B7F0112F6
:108E1000AD98C20612A71C12821EF550129633F9A5
:108E2000E43AFA1285857B011283AC1284BD12F3F9
:108E3000C8120C13E550600302962512CBB112CB79
:108E4000B67F0102AD98902C68E020E403029625DD
:108E5000200603029625301403029625902CC9E0C3
:108E6000FFC394035006201B03029625EFC394030F
:108E7000402112821EFF30E01AE538B40107EF30BE
:108E8000E103029625E538B40207EF30E2030296CB
:108E900025D21E12F3C8020C18C206129633128293
:108EA00027FFE4FD12E9971297DAE92405128227D9
:108EB00030E12C129633128227FF902CCFE0FEB5C2
:108EC0000708EE12CDBEAD448012129633128227EF
:108ED00012CDBEE5477DFFB55002AD4412420112EE
:108EE000494C64066003029625902CC9E0FF129756
:108EF000DA020C1D12494C64066003029625902C80
:108F0000C9E0FF1297DA020C22902CCFE0FF128208
:108F10001EFD02D0C212D48E6008EF6414600302FA
:108F2000962512821E540F602312963312822790C8
:108F300028D5F0FD7E267F8D1242019028D4E06472
:108F4000146003029625F07F0102D329E4FBFD7F24
:108F50002402D26E902C68E020E403029625D223EE
:108F600022300E0302962512494C640170030296CA
