S01200006E63702D756172742D73772E733337A1
S31500004000201C00202947010025A2000029A200004B
S31500004010A70A0A010041000004180FAC3062CC0068
S31500004020000000000000000000000000000000008A
S3150000403000000000400E0300000000000000000029
S315000040400000000000000000FFFFFFFFFFFFFFFF72
S31500004050FFFFFFFF007003000000000000000400E7
S31500004060FFFFFFFFFFFFFFFF110000000000000041
S31500004070000000000000000000000000000000003A
S31500004080643400206434002064340020643400204A
S31500004090201C00204C3803006A0B0300C0120020CD
S311000040A08F120020000004006434002091
S31500004100201C00202947010025A2000029A200004A
S3150000411031A200002DA2000035A2000088A30000F5
S3150000412088A3000088A3000088A3000088A30000DD
S3150000413039A2000088A3000088A30000DF4A01001E
S315000041403556000009F902001DA60000B5F402006C
S3150000415075F9020015F902002DF902000DF90200A9
S31500004160D94D0000A54E000089670000CDB40000BF
S3150000417088A3000088A300004542000088A3000031
S3150000418088A30000C94E000088A3000088A3000091
S3150000419088A3000088A3000088A3000088A300006D
S315000041A088A3000088A3000088A3000079F9020014
S315000041B011F90200AD530000B9F9020088A300000E
S315000041C09DE4020088A3000088A3000088A30000E5
S315000041D088A3000088A3000088A3000088A300002D
S315000041E070B5144C034688002218204492781509AD
S315000041F0062D98BF104E02F00F0294BF755DFF2585
S31500004200062A1D719ABF0D4DAA5CFF225A71FF3A0C
S3150000421018BF0122C2709A7114F82120084C5A70F6
S3150000422042789A701946204602F01CFB0123A360CF
S3150000423070BD00BFC8200020670D0300600D03009D
S315000042400020004030B585B000210C2201A82CF0DA
S315000042507CFC214A2148FF238DF809300378546CF1
S31500004260916B2140C907DBB233D5022B31D8916C53
S315000042701B4A02EB83028CB2D5781A4A2DB10D0483
S3150000428003D5002122F8131001E022F81340164945
S31500004290012202FA03F30A7813430B70134B1A78C0
S315000042A0AAB100221C78114DD440E407D1B20AD538
S315000042B001702878012393404340DBB201A82B709C
S315000042C0FFF78EFF05E00132032AEBD101E003235D
S315000042D0037005B030BD00BF00200040D62000208E
S315000042E0C8200020D8200020D5200020D42000207F
S315000042F000207047002814BF0220002070470120CC
S315000043007047000010B5104C1049A16103232361CA
S3150000431063610F4BE3611022002321660D49A362FE
S315000043206362E3622367E366636722626166A2668D
S315000043300949E01D2CF011FC204608492CF00DFC23
S315000043402023A37110BD00BF002C00206E0D0300BA
S31500004350EE200020DE200020770D03007B0D0300F9
S315000043602DE9F84F214B17461A7882468B46994617
S315000043700AB9FFF7C7FF4FF0180808FB0A98D8F8E4
S315000043807050D8F86C60B54215D9D8F86840D8F89E
S315000043906410641BBC4228BF3C465846294422464A
S315000043A02CF0C8FBD8F868302544A3443F1B9D4237
S315000043B008BF002500E00024761BBE4228BF3E460B
S315000043C056B1182303FB0A935846596E32462944C0
S315000043D02CF0B0FB3444354424B1182303FB0A996E
S315000043E0C9F870502046BDE8F88F00BF002C0020A9
S315000043F0F8B507460E46144602F0AFFE22460546BD
S3150000440031463846FFF7ACFF0446284602F0ABFEBD
S315000044102046F8BD2DE9F843134D1E462B788146FC
S31500004420884617460BB9FFF76DFF02F096FE6969DD
S315000044300024182303FB04535A6E1AB101348C422C
S31500004440F7DB0AE08C4208DAC3F86090C3F86480B0
S315000044509F661A67DA665E6701E04FF0FF3402F086
S3150000446082FE2046BDE8F883002C0020FFF74ABFF5
S3150000447001210A4608B5042002F0FAFC154B1A6819
S3150000448042F001021A60DA6842F08072DA604FF098
S315000044906043114AC3F8B02F104A00210220C3F826
S315000044A0001EC3F8801EC2F8F00015201061C3F884
S315000044B0401E0B490B4808600B49C3F8801E4FF499
S315000044C08071C2F80413D3F8002E0A43C3F8002EF5
S315000044D008BD00BFF0ED00E055CEACC5000004E01D
S315000044E0001000E0FF0300400D00010010B501219F
S315000044F0104802F077FA104B01241C60002003F0EC
S3150000450039FA234602210422052003F08BFA2046BD
S3150000451008F0E6FCFFF7ACFF08F0E8FCFFF7A6FFA3
S315000045202346064906484022FFF774FF054B1860EC
S31500004530C00F10BD0025080010881442FE20002080
S31500004540820D0300201C0020024B1868003018BFA3
S3150000455001207047F0ED00E0054A4170D123037059
S315000045601378C370090A8170591C117004207047B2
S315000045703E2100202DE9F047324B1A688146105C37
S31500004580032898465BD90530C5B210F058FA4FF6A5
S31500004590FF77824600242C4B1B6823B9601B18BF8B
S315000045A00120BDE8F087AC42F8D210F048FACAEB19
S315000045B0000080B2B0F5FA7FF0D854B3012C05D1D3
S315000045C0D8F80030022413F8096026E0EB1E9C425E
S315000045D0A5F1020301D1FEB205E09C4205F1FF33CD
S315000045E003D1C7F30726DCB217E09C4202D1ECB236
S315000045F05D2612E0AC420FD0A11EC9B248461AF0A1
S315000046005DF83946064605F0A1FD01340746E4B2D9
S3150000461003E05B26012400E000264FF06043D3F858
S31500004620802ED207B7D5D3F8003EDB05B3D54FF0C1
S3150000463060431A6A002AFAD083F82060ABE70120AB
S31500004640BDE8F087CC1C0020F0ED00E010B50B4B68
S3150000465090B0694618684022FFF7CAFE014658B175
S31500004660C9B2684619F0B2FF0446214612200BF083
S3150000467069FB204619F058FE10B010BD201C002022
S31500004680104430B5044662B101F00F030A2B34BF63
S31500004690302537252B44013A090904F8013DD2B2E9
S315000046A0F1E730BDF0B559B1002806DA2D23B0F197
S315000046B0004F137003D0404201E0002100E00121C9
S315000046C000231F460C4C54F823600025B042ECB280
S315000046D005F1010501D3801BF8E704B927B14D1C8C
S315000046E0303454540127E9B20133092BEAD1303072
S315000046F05054481CC0B2F0BD940D03002DE9F04F94
S3150000470095B04FF0000A02AC0090894617469846CD
S31500004710554626463A78002A00F00181252A05D01A
S31500004720BAF1000F06D122700134E6E0BAF1000FAB
S3150000473000D101373A78632A6FD01AD8392A0AD8B5
S31500004740302A80F0AF80002A00F0E980252A40F068
S31500004750CF80227066E0582A00F09980622A40F0E5
S31500004760C780D8F800300193D8F804A04FF0000BAA
S3150000477032E0702A58D00AD8642A05D108F1040A12
S31500004780D8F8000001217DE06C2A6ED0B0E0752AD1
S3150000479005D108F1040AD8F80000002172E0782A51
S315000047A075D0732A40F0A4803EE0019B2046022289
S315000047B013F80B10FFF764FF12AA904204460ED2BC
S315000047C00AF1FF3293453EBF20222270013412AA1D
S315000047D0944212D20BF1010BD345E6D11AE0841BA9
S315000047E0E4B2484631462246009B984708B100206D
S315000047F0A1E02544EDB23446E2E7A41BE4B2484604
S3150000480031462246009B98470028F0D12544EDB258
S315000048103446DFE708F108086AE0D8F8002022707D
S3150000482008F10408013463E0A41BE4B248463146AB
S315000048302246009BD8F800A008F1040B98470028F0
S31500004840D5D12C44E4B2C5B201301AF80530002B9C
S31500004850F9D1484651462A46009B98470028C6D1BA
S315000048602544EDB2D846824656E07B78D8F800005B
S31500004870752B08F1040A14BF0121002101D0642B15
S3150000488000D101372246FFF70DFF044408E0204619
S3150000489098F800100222FFF7F3FE08F1040A044616
S315000048A0D04625E0797801F0DF01582923D1322A54
S315000048B007F1010A0AD12046B8F800100422FFF7D2
S315000048C0DFFE08F104070446B84610E0342A12D188
S315000048D0D8F800702046390C0422FFF7D1FEB9B291
S315000048E00422FFF7CDFE08F1040B0446D8465746CE
S315000048F04FF0000A01E04FF0010A12AA94420CD3CD
S31500004900A41BE4B2484631462246009B984700283D
S315000049107FF46DAF2544EDB234460137FAE6A41BA9
S31500004920E4B2484631462246009B984700287FF469
S315000049305EAF2C44E0B215B0BDE8F08F2DE9F04F24
S315000049409B465D4B85B01B78109F9DF844A0129E38
S31500004950054689469046002B00F0A580072A00F2FE
S31500004960A4800E9B002B00F0A0800F9B002B00F074
S315000049709C80B6F5006F00F39880012802D1002FC5
S3150000498000F093804D4B03EB08131B7B002B00F0CC
S315000049908E804B4C68460021102204EB48142CF004
S315000049A0D4F82046B9F1000F12D1494610222CF056
S315000049B0CCF8A37843F01003A370E37843F03003F8
S315000049C0E370BAF1000F12D1DBB243F003030DE03E
S315000049D0002110222CF0B9F81023A3700323E370F2
S315000049E0BAF1000F03D1DBB243F03003E370344A6F
S315000049F0CDF800B04FEA4813013ED15A02EB030E40
S31500004A0066F30E11D1520E9ACEF808200F9ACEF800
S31500004A1004209DF84C109EF80320012D61F38302BB
S31500004A208EF8032024D19EF80C2042F003028EF863
S31500004A300C20DEF80C20042161F39F02CEF80C2036
S31500004A409EE80F000EF1100686E80F00DEF81C2027
S31500004A506FF0030161F39F02B9F1010FCEF81C203C
S31500004A6077600ED10F9BCEF81830CEF8047008E0B0
S31500004A70149B33B92DB99EF8023065F304138EF8F2
S31500004A8002300E4914984FEA08128B1888500026F7
S31500004A90159A5A6040469E605D736946224603F049
S31500004AA045F8304604E0074802E0074800E00748BA
S31500004AB005B0BDE8F08F00BFC021002040210020D6
S31500004AC0C4210020028000F0018000F0078000F081
S31500004AD038B5104B1B780546BBB1C0B102F03DFBA3
S31500004AE000230D4A02EB0312147B3CB92B60012311
S31500004AF01373146002F037FB204638BD0133082BD0
S31500004B00EFD102F030FB054838BD054838BD0548F1
S31500004B1038BD00BFC021002040210020048000F0E5
S31500004B20028000F0018000F038B502F016FB002389
S31500004B3005460A4A1A44147B5CB91033802BF8D117
S31500004B4002F0ACFF064B28461C7002F00CFB204618
S31500004B5038BD284602F007FB024838BD4021002038
S31500004B60C0210020058000F00E4B1B7810B50446CE
S31500004B709BB1072813D802F0F0FA0B4B03EB041392
S31500004B8008331A792AB100241C7102F0ECFA204687
S31500004B9010BD02F0E8FA054810BD054810BD0548ED
S31500004BA010BD00BFC021002040210020068000F07B
S31500004BB0028000F0018000F013B5124B18680190D6
S31500004BC000238DF8043002F0C8FA0F4B1C781CB194
S31500004BD002F0C9FA0D4813E001221A7002F0C3FA76
S31500004BE023460B4A1A4410330024802B1473F8D141
S31500004BF004230DEB03008DF8073002F06BFF20460F
S31500004C0002B010BDB80D0300C0210020038000F0E3
S31500004C104021002030B589B08DE80C009DF8303079
S31500004C2003930D9B04939DF8383005930F9B0693D1
S31500004C300546109B07930C460020029001462A4623
S31500004C402346FFF77BFE09B030BD30B589B08DE84D
S31500004C500C009DF8303003930D9B04939DF838307B
S31500004C6005930F9B06930546109B07930C46002061
S31500004C70029001212A462346FFF760FE09B030BDA7
S31500004C8008B50A4B1B785BB107280BD8084B03EB1A
S31500004C9000131B7B43B1002102F012FF002008BD68
S31500004CA0044808BD044808BD044808BDC0210020CA
S31500004CB040210020028000F0018000F0078000F013
S31500004CC008B50A4B1B785BB107280BD8084B03EBDA
S31500004CD000131B7B43B1012102F0F2FE002008BD48
S31500004CE0044808BD044808BD044808BDC02100208A
S31500004CF040210020028000F0018000F0078000F0D3
S31500004D0008B50A4B1B7853B107280AD8084B03EBA2
S31500004D1000131B7B3BB102F05BFF002008BD05487A
S31500004D2008BD054808BD054808BD00BFC0210020D4
S31500004D3040210020028000F0018000F0078000F092
S31500004D400E4B1B7810B59BB1072813D891B10C4BAD
S31500004D5003EB00131B7B7BB10A4B01221C6A02FA90
S31500004D6000F313EA04001ABF00200A70087010BD91
S31500004D70054810BD054810BD054810BDC0210020DE
S31500004D804021002000200E40028000F0018000F04B
S31500004D90078000F00B4B1B7810B50C4663B1072853
S31500004DA00CD859B1084B03EB00131B7B43B102F03F
S31500004DB025FF2060002010BD044810BD044810BD2A
S31500004DC0044810BDC021002040210020028000F0D0
S31500004DD0018000F0078000F0164AF8B5136ED76E12
S31500004DE01F4000D5FEE7144C012600253E4219D08F
S31500004DF0104B9E6654F8043CA3B1616822680131E9
S31500004E00616028469847637A012B0BD150B90B4B4A
S31500004E1003EB4513197B1A7F60F3410160F34102EE
S31500004E2019731A770135082D4FEA460604F1100466
S31500004E30DCD1F8BD00200E4044210020C421002012
S31500004E4010B5044674B194FAA4F0B0FA80F00123C8
S31500004E50834024EA0304044B53F82030002BF1D09E
S31500004E609847EFE710BD00BFC4220020054B4FF462
S31500004E700032C3F880211A604FF40072C3F8802113
S31500004E801A60704700E100E038B504460D4602F0AE
S31500004E9064F9034B43F82450BDE8384002F063B987
S31500004EA0C4220020074AD2F82804D2F81C3418403D
S31500004EB020F42A5020F02A004004400CC2F82404B2
S31500004EC0FFF7BEBF00A00040074AD2F82804D2F878
S31500004ED01C34184020F4AA4020F055000004000CB1
S31500004EE0C2F82404FFF7ACBF00A000402DE9F84348
S31500004EF0274C064604F1A005002363712379002B95
S31500004F0040D054E906230021994208BF964205D2B3
S31500004F10901B63EB010144E9060133E0E7790FB921
S31500004F2027712BE054E90489B01A61EB030142466C
S31500004F304B462BF031FBB8EB020054F8082C69EB1A
S31500004F400301002A44E9060154F8043C08DD134431
S31500004F50F32B44F8043C11D9013041F1000108E07B
S31500004F609B1AF32B44F8043C08D910F1FF3041F1A9
S31500004F70FF3144E90601F43B44F8043C23680BB1D5
S31500004F80012363712834AC42B6D1BDE8F88300BF73
S31500004F903023002038B5074C0025637F1BB1A36979
S31500004FA0216A284698470135042D04F12804F4D1D6
S31500004FB038BD00BF18230020F0B500214FF0FF32A6
S31500004FC04FF0FF33164C0C44257F3DB1D4E9004524
S31500004FD09D4208BF94423CBF22462B462831A02959
S31500004FE0F0D1104900240C705C1C08BFB2F1FF3FE1
S31500004FF00C4614D000279F420B496FF0640608BF89
S315000050009642086038BF32460849042502440D62BC
S3150000501001234A6523704B6A43F004034B62F0BDDB
S315000050201823002004230020BC2300200020044075
S3150000503038B5054602F091F800230A49282202FBFA
S315000050400312947F24B10133042BF6D1064C05E0FC
S315000050501DB1012191772B6000E0044C02F083F82A
S31500005060204638BD18230020011000F0041000F07F
S31500005070204B70B51C78002C3AD101251E481D70B6
S31500005080294601F0AFFC1D4E1D48032101F06AFFC1
S31500005090032329461B48337101F0A4FC304602F075
S315000050A0A7FE2846184902F089FE184B18485A6A86
S315000050B022F4FF6222F007025A6240F2FF721A627D
S315000050C0144A9C604FF00051C2F8801111605A6A70
S315000050D02A435A622146A0222BF037FD0E4B1C7044
S315000050E00E4B1C700E4B1C600E4B1C600E4B1C6056
S315000050F0002070BD0523002000050800241C0020A8
S3150000510005002000800912002D1C0020002004400C
S315000051101823002000E100E00C23002004230020D7
S31500005120B8230020102300200823002003282DE99F
S31500005130F84F0746894693461E4600F2A48002F0C1
S315000051400CF8524A282404FB07248046A17F924685
S3150000515021B902F008F84E48BDE8F88FBBF1000F00
S3150000516006D1002E00F0898038460A99B04784E0BF
S31500005170484A4FF400434FF47A6000219568A661CF
S31500005180E3FB0B014FF4FA5200232BF005FAB9F1B9
S31500005190010FC4E9020109D14FF47A7303FB0BFB3B
S315000051A0F42303FB10B323617A236361282303FBF3
S315000051B007A301301A4641F10001E2E80601012485
S315000051C0147182F807900A9A1A62334B1B78002BE7
S315000051D053D1324C236801331EBF23680133236049
S315000051E02F4B1A789946B2B92E4B2A4E1D600423CE
S315000051F0336200238B426FF0640208BF824238BFDD
S31500005200104628447065736A43F0040373620123F1
S3150000521089F800302BE02368012B28D1282303FBD3
S3150000522007A300261E771B4ADFF878B0536A23F0DF
S3150000523004035362DBF80000281AFFF757FEFFF756
S31500005240A9FE26B9282303FB07A301221A772846BD
S31500005250FFF7B2FE0F4BDBF800209D685B6DA91AC5
S315000052609B1A99F8002001360AB19942DBD82368C7
S315000052700A4A13B11368013B1360404601F073FFFD
S315000052800020BDE8F88F0848BDE8F88F18230020F5
S31500005290031000F0002004400C230020B823002057
S315000052A004230020BC230020021000F003282DE96F
S315000052B0F04105460C463ED800293FD001F04DFF8F
S315000052C0204B282202FB053505F118039A7922B9ED
S315000052D001F049FF1C48BDE8F0811B7923B901F0B4
S315000052E042FF1A48BDE8F081194BD5E900679D6871
S315000052F0184BD3F8008001F036FF0021C8EB0500FB
S315000053008F4208BF864203D3301A67EB010101E0E2
S31500005310002000214FF4FA55A0FB052312F5804228
S3150000532005FB013343F10003D20B42EA43422260FC
S315000053300020BDE8F0810848BDE8F0810748BDE8D7
S31500005340F08100BF18230020031000F0051000F0C4
S3150000535000200440BC230020021000F0041000F0DE
S3150000536070B5084B08491A688E681C68002500232A
S31500005370AB4208BFA242F4D10020801942F10001DD
S3150000538070BD00BF102300200020044010B54FF46C
S31500005390FA54A0FB042312F5804204FB013343F1C7
S315000053A00003D00B40EA434010BD00002DE9F8434E
S315000053B001F0D3FE1E4B5A6A9C69144024F0050284
S315000053C01A626207064624D51A4AD3F808900121C4
S315000053D011709046164D184F6B6A23F004036B62EA
S315000053E03868C0EB0900FFF781FDFFF7D3FD48469B
S315000053F0FFF7E2FD3A68D5F808906B6DC2EB09013C
S315000054009B1A0E4A12780AB19942E3D8002388F80B
S315000054100030E30706D5064B01221A62084A1368D4
S31500005420013313603046BDE8F84301F09CBE00BF6F
S31500005430002004400C230020BC230020042300206D
S3150000544010230020044B1B6800EB8000A3EBE00058
S3150000545080F30800C0B27047EC23002038B5174B24
S315000054609C68621E54425441402804DD5028B4BF53
S315000054700123022300E000231149124DDA001144F2
S3150000548003C985E803001049104D0A4492E8030059
S3150000549085E803001CB1094A4AF6E8519160012BE0
S315000054A003D0022B01D0002000E0184602F030FAAB
S315000054B014B1024B00229A6038BD00BF00300E4086
S315000054C050240020F0230020C023002020240020A8
S315000054D0FFF7C4BF044B4FF04042DA621A6B22F06A
S315000054E040421A63704700BF00300E4030B528496D
S315000054F0284B0A6803F130001C6844B114682CB1CB
S315000055001D791479A54288BF1A4600E01A46083369
S315000055108342F1D10A6011681F4B59B1D96921F054
S31500005520FF01D961D96912790A43DA611A6B42F02F
S31500005530804202E01A6B22F0804218491A63184B27
S315000055400A6803F130001C6844B114682CB11D7957
S315000055501479A54238BF1A4600E01A46083383423A
S31500005560F1D10A6011680C4B61B1D96921F47F4110
S31500005570D961D969127941EA0222DA611A6B42F0DD
S31500005580004202E01A6B22F000421A6330BD00BFEF
S31500005590D8230020F023002000300E40E82300200E
S315000055A020240020074B084A1B6ADBB26FF0040078
S315000055B0DB0093FBF0F31068184400F3070040B2D9
S315000055C0704700BF00300E40DC23002038B5164B74
S315000055D0196B5A6A0A401C460FD5144B18680568A1
S315000055E03DB1002108222BF0B0FAFFF7DBFF0021C6
S315000055F0A8474FF00043E36211E053000FD50C4B70
S31500005600186804683CB1002108222BF09EFAFFF7C7
S31500005610C9FF0121A047044B4FF08042DA62BDE882
S315000056203840FFF763BF00BF00300E40E82300207C
S31500005630D8230020FFF7CABF2D4BF7B501221A70F9
S31500005640002130222B482BF080FA30222A480021F4
S315000056502BF07BFA294A2A4B13602A4A13602A4BFD
S315000056601A685B6DC2F30742FF2A02D0DBB2FF2B3A
S3150000567001D19023192202EB8201244803EBD101C8
S315000056800160DB000521B3FBF1F31344204A01A8B6
S31500005690136002F0E1FB9DF80530012B1BD1412080
S315000056A0FFF7D0FE1B4E1C4D307139203560FFF7D9
S315000056B0C9FE07465020FFF7C5FE184C3073482038
S315000056C02773A560B560FFF7BDFE25612075FFF75E
S315000056D069FFFFF7C3FEFFF7FDFE114B0122C3F87A
S315000056E080211A60FFF702FF002003B0F0BD00BF63
S315000056F068240020F023002020240020D823002046
S31500005700E0230020E8230020B081E00FEC230020F6
S31500005710DC23002050240020D1540000C0230020A8
S3150000572000E100E00C490D4B0A782AB91A605A606C
S315000057309A60DA6001220A70002253F8221019B921
S3150000574043F82200002070478142F9D00132042A32
S31500005750F3D10348704700BF692400206C24002061
S31500005760027000F038B504460D4601F0F6FCA2883A
S3150000577092B222B92A6001F0F6FC064838BD62886A
S31500005780142392B203FB024308332B6001F0EBFCB7
S31500005790002038BD0B7000F038B504460D4601F008
S315000057A0DCFCA3889BB223B92B6001F0DCFC0D481E
S315000057B038BD6388E18814229BB202FB0343083399
S315000057C02B6063889BB2013393FBF1F201FB12332A
S315000057D09BB26380A388013B9BB2A38001F0C3FC0C
S315000057E0002038BD0B7000F010B5012380F82C3076
S315000057F090F8323086B002460C460BB1012B10D120
S315000058000121136800916168019100210291074905
S31500005810049203911169906822681C33FFF715FA08
S3150000582002E0002380F82C3006B010BD9964000019
S3150000583010B5012280F82D2090F8322086B003465C
S315000058400C4612B90268343208E0012A02D1026815
S31500005850283203E0002280F82D200DE0012100917E
S3150000586061680191002102910449049303915868EB
S31500005870D9682368FFF7CEF906B010BD815800003D
S31500005880F7B5906A01A91446FFF76CFF144B9842CE
S3150000589022D0019B00251D619D6001F05EFC019BED
S315000058A0DE6807461EB1204629460CCBB047A06AE3
S315000058B001A9FFF771FFA06A83889BB23BB101A9DA
S315000058C0FFF750FF20460199FFF7B2FF01E084F889
S315000058D02D30384601F047FC012003B0F0BD00BF73
S315000058E00B7000F090F83130022B01BF427E30235E
S315000058F05343064A01BFD218437F03EBC2039B0002
S3150000590006BF1868C0B20020704700BF1CA0104236
S3150000591013B500231A4A52F82340627F824204D10B
S3150000592094F83130022B29D103E00133042BF1D155
S3150000593024E02046FFF7D6FF637D2075022B1DD19C
S3150000594094F82E3003F0FF02C3B902A9606801F88B
S31500005950012DFFF7F5F9237D13B194F82F3033B1FC
S31500005960002384F82F306068FFF7AAF906E028B90B
S315000059709DF8073013B16068FFF782F902B010BDD9
S315000059806C24002090F832305BB903680122DA609B
S3150000599003681A69D007FCD55A6F42F001025A67AC
S315000059A07047012B0DD103685A6C9107FCD4012274
S315000059B05A6003689A68D207FCD55A6D42F0010214
S315000059C05A65704790F8323043B90268536F23F036
S315000059D00103536703680222DA607047012B0AD17C
S315000059E003685A6C9207FCD45A6D22F001025A657C
S315000059F0036802225A60704738B141B1013AB2F5E4
S31500005A00006F044838BF00207047034870470148BC
S31500005A10704700BF037000F0027000F010B5044636
S31500005A20FFF7CAF80021201DFFF752F8014608B11A
S31500005A30044810BD04F10800FFF74AF80028F7D122
S31500005A4010BD00BF0E7000F0F8B5044616460F46AE
S31500005A5001F083FBA388E2889BB29A42054605D8EB
S31500005A600023336001F07FFB1448F8BD238814221D
S31500005A709BB202FB034339460833BA1851F8040BAC
S31500005A8043F8040B9142F9D12388E18814229BB292
S31500005A9002FB03430833336023889BB2013393FB35
S31500005AA0F1F201FB12339BB22380A38801339BB230
S31500005AB02846A38001F057FB0020F8BD0A7000F0CD
S31500005AC037B504460D46C07DE17E65B30422012349
S31500005AD001F0A8FF0123207E217F022201F0A2FF10
S31500005AE094F83130022B11D1607E617F01220023B0
S31500005AF001F098FFA07EA17F0023042201F092FF0F
S31500005B000123617F607E009301932BE0032B3BD141
S31500005B10607E617F0122002301F084FFA07EA17FC9
S31500005B20042200232EE02A462B4601F07BFF2B465B
S31500005B30207E217F2A4601F075FF94F83130022B32
S31500005B4014D1607E617F2A462B4601F06BFFA07E52
S31500005B50A17F2B462A4601F065FF01238DE8280028
S31500005B60617F607E0A4601F011FF0DE0032B0BD129
S31500005B70607E617F2A462B4601F054FFA07EA17FFE
S31500005B802A462B4601F04EFF002003B030BD90F8A8
S31500005B90323013B9036818697047012B1CD10368AA
S31500005BA09B6803F00200DA0748BF40F0010059077E
S31500005BB048BF40F008001A0748BF40F02000D90649
S31500005BC048BF40F040009A0648BF40F080005B06A0
S31500005BD003D540F40050704700207047F7B50D46D6
S31500005BE0044600287ED001F0B8FA012D064601D100
S31500005BF0A36A10E0022D07D1636A9B889BB26BB142
S31500005C00023D012D69D839E0032DF9D1A36A9B889D
S31500005C109BB23BB9636A9B889BB21BB901F0A3FA9E
S31500005C20324860E06068FFF76BF80023A06A84F8EA
S31500005C302D3083889BB2DBB101A9FFF793FD019953
S31500005C4060680831FFF7A6F8019B294A1A61A06A25
S31500005C5083889BB263B101A9FFF79EFD019BDF68B4
S31500005C60002FF4D09B68224920460022B847EEE771
S31500005C702046FFF78CFF8304FAD5C1E7A068FFF73B
S31500005C803FF80023606A84F82C3083889BB23BB9C6
S31500005C9094F83130032B20D02046FFF793FE1CE00A
S31500005CA06946FFF75FFD0099A0680831FFF772F8B3
S31500005CB0009B0F4A1A61606A83889BB2002BE7D06B
S31500005CC06946FFF769FD009BDD68002DF3D09B68F0
S31500005CD0074920460022A847EDE7304601F043FA7F
S31500005CE0002000E0034803B0F0BD00BF087000F0DC
S31500005CF0097000F0027000F0436A9888C0B27047DD
S31500005D002DE9F3410546406A84889846A4B20023EB
S31500005D100E461746009301933CB16946FFF722FDF4
S31500005D2001A90446A868FFF735F8009949B144B9B6
S31500005D304868019BC01A3860C8F800300B683360A9
S31500005D4004E00021C8F80010396031602846FFF7EA
S31500005D501EFF02B0BDE8F081836A9888C0B2704722
S31500005D602DE9F3410546806A84889846A4B200234B
S31500005D700E461746009301933CB16946FFF7F2FCC5
S31500005D8001A904466868FFF705F8009949B144B9C6
S31500005D904868019BC01A3860C8F800300B68336049
S31500005DA004E00021C8F80010396031602846FFF78A
S31500005DB0EEFE02B0BDE8F081007D7047F8B50546FD
S31500005DC00E461746FFF718FE00287AD1082001F084
S31500005DD0E9F90446AA6A93889BB23BB195F82E303E
S31500005DE023B9002CF7D0FEF7F7FFF3E795F832302A
S31500005DF043B92A68146914F0020422D10421D1603F
S31500005E002A6807E0012B1BD12A68946814F0020463
S31500005E1017D107E011698807FCD5516F41F00201DF
S31500005E2051670EE0516C8907FCD4042151602A6841
S31500005E3091688807FCD5516D41F00201516500E07B
S31500005E400024012285F830207BB93744BE4205D0B4
S31500005E50286816F8011B02F02DF9F7E72A6813697E
S31500005E609906FCD58CB10020F8BD012BFAD1374438
S31500005E70BE4205D0286816F8011B01F006FFF7E7B9
S31500005E802A6893681B07FCD5ECE795F8323043B9CE
S31500005E902A68536F23F0020353672B680822DA60DF
S31500005EA00EE0012B0CD12B685C6C14F00200FBD1C8
S31500005EB05A6D22F002025A652B6808225A60F8BD14
S31500005EC02046F8BD10B5044680B190F82E302BB9A7
S31500005ED0FFF708FD10B96068FEF7D2FE94F82E3081
S31500005EE00133DBB284F82E30002010BD004810BD0F
S31500005EF0027000F010B50446A0B190F82E309BB1A8
S31500005F0090F82E30012B05D1FFF7ECFC10B9606834
S31500005F10FEF7D6FE94F82E30013BDBB284F82E3025
S31500005F20002010BD014810BD014810BD027000F0F0
S31500005F30057000F037B590F83150022D04461CD19B
S31500005F40437D817F827E3BB9012303FA01F1302331
S31500005F505A43154B995024E0012B03D18B40302135
S31500005F604A4308E00123007D8B4030214A4310B9A3
S31500005F700D498B5015E00D49FBE7012D11D1037D2D
S31500005F800BB9112300E013238DF80730FFF79AFFB2
S31500005F9020460DF107012A46FFF710FF2046FFF7BE
S31500005FA0A9FF002003B030BD0CA000440CA00046A1
S31500005FB02DE9F0418E4F04460D460FCF88B001AE55
S31500005FC00FC697E8070086E80700002C00F0D88186
S31500005FD00DB98848D5E12046002134222AF0B5FDC6
S31500005FE02046FFF79FFB002840F0CB812B7C84F8EE
S31500005FF031302B6823602B687F4A84F83200934245
S3150000600006D17E4B23627E4BE3604FF4402308E0CB
S315000060107C4A9342DDD17C4B23627C4BE3604FF498
S315000060205023AA692361EB696262002616805680B6
S31500006030968084F82C60A3621E805E809E806B68CA
S3150000604003936B89ADF81430AB89ADF81230AB7B96
S315000060508DF81030EB7B8DF816306D4884F82D6086
S315000060600523012184F82F608DF8113000F0BAFC69
S315000060706848012100F0B6FC206A012100F0B2FC5C
S3150000608028688DF8046001A901F0D6FF286803236B
S315000060904367816F6F7A21F4F85222F01F02297A42
S315000060A03A4342EA01228267226853498A4202D071
S315000060B054498A428DD12A7A052A10D9911F04297A
S315000060C00FD9A2F10B0105290DD9A2F1110106295B
S315000060D00AD9183A072A94BF0523FF2304E033465A
S315000060E002E0012300E00223E3756B7A042B13D947
S315000060F05A1F042A12D9A3F10A02052A10D9A3F1BC
S315000061001002062A0ED9A3F11702072A0CD91F2B53
S3150000611014BFFF23002308E0002306E0012304E068
S31500006120022302E0032300E0052323762B7A002BCB
S3150000613073D0012B71D0022B6FD0032B6DD0042BA3
S315000061406BD0052B69D0062B3CD0072B3CD0082BF7
S315000061503CD0092B3CD00A2B3CD00B2B5CD00C2B13
S3150000616028D00D2B28D00E2B28D00F2B28D0102B63
S3150000617028D0112B22D0122B22D0132B22D0142B55
S3150000618022D0152B22D0162B22D0172B22D0182B3B
S3150000619022D0192B22D01A2B22D01B2B22D01C2B1B
S315000061A022D01D2B22D01E2B36D01F2B0CBF07232F
S315000061B0FF2332E0072330E008232EE009232CE0FA
S315000061C00A232AE00B2328E00C2326E00D2324E0F3
S315000061D00E2322E00F2320E000231EE001231CE013
S315000061E002231AE0032318E0042316E0052314E033
S315000061F0BC0D0300037000F0000001400022040003
S3150000620001000C00000401400032040001000D00F2
S3150000621040410500002508000623E3766B7A002B33
S3150000622052D0012B52D0022B52D0032B52D0042B2A
S3150000623052D0052B3CD0062B3CD0072B3CD0082B4C
S315000062403CD0092B3CD00A2B48D00B2B48D00C2B2A
S3150000625028D00D2B28D00E2B28D00F2B28D0102B72
S3150000626022D0112B22D0122B22D0132B22D0142B6A
S3150000627022D0152B22D0162B22D0172B22D0182B4A
S3150000628022D0192B22D01A2B22D01B2B22D01C2B2A
S3150000629022D01D2B22D01E2B22D01F2B14BFFF2352
S315000062A000231EE008231CE009231AE00A2318E055
S315000062B00B2316E00C2314E00D2312E00E2310E04E
S315000062C00F230EE000230CE001230AE0022308E07E
S315000062D0032306E0042304E0052302E0062300E08E
S315000062E0072323776B7C6376AB7C6377EB7CA376A3
S315000062F02B7DA37720460121FFF7E2FB0646002807
S315000063003FD100F02AFF2F7C032F804610D12B6847
S315000063105A6F42F030025A675A6E42F004025A66C9
S3150000632095F8211095F8202042EA0122DA670DE05F
S31500006330022F0BD1FEF79AFD607F1349FEF7A4FDED
S31500006340A675267567752046FFF7F4FD28684FF099
S31500006350FF3383642B7C032B0CBF0521042101F042
S3150000636041FE2B684FF44062DA60FEF725FC2046BA
S31500006370FFF754FB0446404600F0F5FE204600E0D9
S31500006380024808B0BDE8F08111590000027000F023
S3150000639090F83130032B05D00229417518BF0175DD
S315000063A0FFF7C8BD00487047057000F010B50446F9
S315000063B000283DD00321FFF711FC00212046FFF7FE
S315000063C0E7FF20460021FFF77BFB94F8323033B914
S315000063D023680222DA6023680822DA600AE0012BC9
S315000063E008D1206801F03DFC23685A6C9207FCD462
S315000063F00A225A60206A002100F0F4FA94F831303B
S31500006400032B03D0607F0021FEF73EFD6068FEF798
S31500006410ABFBA068FEF7A8FBFEF786FB636A0020CD
S31500006420188058809880A36A18805880988010BD7C
S31500006430004810BD027000F0F0B587B005460F4663
S3150000644014461E46FFF7D8FA10BB124B686A01972E
S3150000645001A96A460294039404960593FFF7F4FA99
S31500006460B0B995F82C3003F0FF040BB100200FE013
S315000064702846FFF787FA28460099FFF7B5F995F8F9
S315000064803130032BF2D02C752846FFF753FD2046FA
S3150000649007B0F0BD017000F0F7B5506A01A91446C7
S315000064A0FFF760F9344B984263D094F83210019BA1
S315000064B059B92068026C12F4007214D02F4A1A617E
S315000064C0996023684FF4007216E0012920D12168F3
S315000064D0CA6A12F0800211D0284A1A6100229A6014
S315000064E02368802212E0016CC80511D524499A6000
S315000064F0196123684FF480729A640CE0C96A4906F0
S3150000650006D51F499A601961236840225A6302E042
S3150000651000221A619A6000F020FE019AD5680646AC
S3150000652035B193685768116912682046FB1AA84767
S31500006530606A01A9FFF730F9606A8588ADB23DB19E
S3150000654001A9FFF70FF920460199FFF74DF90DE074
S31500006550012323752046FFF7EDFC94F8313084F8CB
S315000065602C50032B02D02046FFF72CFA304600F0C1
S31500006570FAFD012003B0F0BD0B7000F00D7000F0C5
S315000065800C7000F090F83120012A10B503460FD1A7
S3150000659002290DD0827D8A4208D0997511B9FFF77C
S315000065A0A9FC03E0012901D1FFF78CFC002010BDF6
S315000065B0004810BD057000F0F0B587B004460F46E0
S315000065C015461E46FFF718FA00BB114BA06A019745
S315000065D001A96A460295039504960593FFF734FAD6
S315000065E0A0B994F82D308BB900F0B7FDA36A9B884B
S315000065F09BB2054633B120460099FFF719F90123EE
S3150000660084F83030284600F0AEFD002007B0F0BD1B
S31500006610017000F010B588B000210D2204A82AF000
S3150000662094FA01240B22002101A88DF810402AF0CB
S315000066308CFA022323488DF80A30214600F0D2F95D
S3150000664021484FF6FF73C361002101AA01F064FCE3
S3150000665000238DF812301C4804A901F017FC1B48D2
S3150000666000F0E2FA9DF81230194AD8400133DBB245
S315000066700A2B10608DF81230144602D8154B98423A
S31500006680E9D8154800F0D0FA2268144BB3FBF0F3B2
S3150000669013480021E2FB0301124A002329F07CFF84
S315000066A0114B094A1860114B00201870936923F0AA
S315000066B0100393610E4B4FF48062C3F880211A6079
S315000066C008B010BD000204000080014040410500F2
S315000066D08024002080841E005000020000B0710B50
S315000066E020A1070040420F007C24002084240020C3
S315000066F000E100E01F4B204A13B519680023E1FBB7
S315000067000023104619461D4A002329F045FF0023A1
S315000067104FF6E8528B4208BF824215D2184B5A6A8E
S3150000672092B2174B5B6A9BB2ADF80430BDF80430E9
S315000067309B1A9BB24FF6E754A342F2D9114A4FF087
S31500006740FF3380185941E2E750EA01030ED00C4BA3
S315000067505A6A92B20A4B5B6A9BB2ADF80630BDF834
S3150000676006309B1A9BB284B2A342F3D3002002B038
S3150000677010BD00BF8024002020A1070040420F006A
S31500006780008001401802FFFF054BDA68D20641BFC0
S3150000679010225A61034B012248BF1A70704700BF8E
S315000067A00080014084240020284B002A70B5284D23
S315000067B0446B08BF1D46274B14BF1026002698427F
S315000067C043D102292ED004D859B1012937D1224B01
S315000067D013E006291ED0812924D003292FD11F4B6F
S315000067E00BE01D480168026801F4FE4302F00F0247
S315000067F01A43036803F0F0031FE019681A681B6860
S31500006800C3F30353C1F306611B0143EA0123C2F339
S31500006810034212E0124B1A681B6802F00F0203F0E3
S31500006820F0030AE00D490A680B6803F00F0002F452
S31500006830FE430A68034302F0F002134300E000231C
S31500006840B3402C40034A2343536370BD0080FFFFCF
S31500006850FFFF0080002000401082E00F1482E00F4E
S315000068601882E00F38B50D4602238360897800222E
S315000068700446FFF799FF687829796A79030643EA9F
S31500006880012343EA0243EA7843EAC203EA790AB1FA
S3150000689043F000532A7A0AB143F00403AA790AB1F5
S315000068A043F002036A7A0AB143F00103F329AA7896
S315000068B006D12AB903289CBF23F0706343F0806396
S315000068C050B20028ACBF43EA421343F0E003236111
S315000068D06369002823F4F21323F00703BCBF22F0F8
S315000068E0800213432A7843EA4243EA7A0AB143F420
S315000068F0804363616301303403F184436401AA7AFF
S315000069009A60F32904F184440CBF01230023236415
S3150000691038BD00000A490B4B88425A6805D90A4916
S31500006920884204D902F0407102E0002100E0012112
S315000069305A6822F0407242EA01625A60704700BF0C
S3150000694040787D0100000E40005A620238B5064CC0
S3150000695041F67133256C236401F0BEFBFFF7DAFFC5
S315000069600DB10023236438BD00000E40044BD3F85C
S315000069704421D20703D4D3F840211042FBD17047FB
S3150000698000400E400C4B984205D90C4B984204D956
S315000069900222012303E0002200E0012213460849F7
S315000069A00B600849D1F8003123F0807343EA026393
S315000069B0C1F80031704700BF0048E8010090D003DD
S315000069C04000C84300400E4038B5054C41F67133CF
S315000069D0256C2364FFF79EFF0DB10023236438BDA9
S315000069E000000E40C0F30322013A70B503460E467E
S315000069F0092A26D8DFE802F018082525050B0E25FA
S31500006A00111500200F4C11E000200F4C0EE0012064
S31500006A100E4C0BE010200E4C08E04FF480300D4C6D
S31500006A2004E000200C4C01E00C4C0020C3F30435BC
S31500006A3008B1FFF79BFF04F1047405EBC404A4003E
S31500006A40266070BDB0400E40C0400E40E0400E4093
S31500006A50E8400E40F0400E4050410E4000400E40CF
S31500006A60C0F30313013B062B34D8DFE803F0040818
S31500006A700E14181E2700184BD3F8000102E0164B1F
S31500006A80D3F81401C0F304207047134BD3F8000168
S31500006A90C0F300607047104BD3F80C0102E00E4BB8
S31500006AA0D3F80801C0F3082070470C4B984211D167
S31500006AB0094BD3F8203103F00F0307E0084B984247
S31500006AC008D1054BD3F8283103F003030120984081
S31500006AD0013870470020704700400E4060061400E1
S31500006AE07007160000F00F000138072848D8DFE8C5
S31500006AF000F0040E1847232D4735244BD3F8943065
S31500006B0003F00703023B022B3CD8214A12E01F4B3D
S31500006B10D3F8803003F00703013B032B34D81D4A1A
S31500006B2008E01A4BD3F8843003F00703013B032B2C
S31500006B302AD8194AD05C7047144BD3F8883003F032
S31500006B400703013B032B1FD8144AF3E70F4B1B6FB8
S31500006B5013F0010F14BF0920072070470B4BD3F821
S31500006B605C3103F03003202B06D0302B06D0102BDF
S31500006B700CBF07200120704704207047082070478B
S31500006B8000207047052070470120704700400E40E6
S31500006B90E80D0300EB0D0300EF0D0300F30D0300FA
S31500006BA010B50446FFF79EFF1B4B9C4209D01B4BBA
S31500006BB09C420AD01A4B9C420CD11A4BD3F8800047
S31500006BC006E0184BD3F8840002E0164BD3F8880091
S31500006BD000F00700013803281CD8DFE800F00206A1
S31500006BE00E0ABDE8104001F0E9BABDE8104001F018
S31500006BF0EBBABDE8104001F0E4BA01F095FA094B92
S31500006C00D3F80021C2F30062013201239340B0FBA6
S31500006C10F3F010BD002010BD03001C00050020008D
S31500006C2002001A0000400E4000F47810B0F5602F04
S31500006C3008B577D017D8B0F5802F2DD00AD8002800
S31500006C405FD0B0F5003F7AD101F04AFA3D4BD3F858
S31500006C50083126E0B0F5202F26D0B0F5402F49D0D8
S31500006C60B0F5002F4CE0B0F5D01F26D009D8B0F50E
S31500006C70A01F29D0B0F5B01F2FD0B0F5901F5ED160
S31500006C801DE0B0F5001F1AD0B0F5381F3DD0B0F5A5
S31500006C90E01F54D12C4813E001F022FA294BD3F817
S31500006CA00C31C3F3082306E001F01AFA254BD3F89A
S31500006CB01431C3F30423013319E0244800E02448C7
S31500006CC0BDE80840FFF76CBF2048FFF769FF1D4B82
S31500006CD0D3F8202102F00F0207E01B48FFF760FF00
S31500006CE0184BD3F8282102F0030201239340B0FB8E
S31500006CF0F3F008BD1748FFF7F5FE072812D009285C
S31500006D001DD1BDE8084001F0EBB91348FFF7EAFED4
S31500006D10072807D0082808D0042810D1BDE8084065
S31500006D2001F014BA0D4B186808BD01F0D9F9054BEE
S31500006D30D3F80031C3F3042303FB000008BD002091
S31500006D4008BD00BF00400E4003001C0002001A00F0
S31500006D500500200006000C0098002E00341C0020C0
S31500006D600138032842D8DFE800F0022B111EC1F3D8
S31500006D7008011F4B1B68002BFBD11E4A136A23F424
S31500006D80FF7323F0010319431162704701F07F017D
S31500006D90194B1B68002BFBD1164A136923F07F039E
S31500006DA019431161704701F07F01144B1B68002BDA
S31500006DB0FBD1104A936923F07F0319439161704711
S31500006DC00C4AD2F89030536A23F0300343F0100394
S31500006DD05362106B0A4B03400B43C1F3C3110331DB
S31500006DE00F2928BF0F2143EA01711163704700BFC5
S31500006DF06828C84300400E406028C8436428C8433A
S31500006E0000F8FF0F0F4B5A6A12F0300F1A4606D0E1
S31500006E10202907D0302902D009B10B4B04E04FF4EA
S31500006E20400301E04FF40003D2F890101940994254
S31500006E30FAD15B0243BF034BD3F8A000C0F3802016
S31500006E400120704700400E40FF03E10702280AD1E7
S31500006E5029B1064B4FF48060C3F8A800596612B1F9
S31500006E600220FFF7CFBF0120704700BF00400E4051
S31500006E70F8B5042871D8DFE800F008030F296B0085
S31500006E80802640240623072524E04FF400764FF49D
S31500006E908074082309251DE000294ED02F494B6A2E
S31500006EA013F0300F09D14B6ADB070AD54B6A23F082
S31500006EB0300343F010034B6203E00424022303254E
S31500006EC00AE0042402230325012606E00124022603
S31500006ED000232546002932D0002620490C66204989
S31500006EE0194489000B68002BFCD0002A35D01C4BB6
S31500006EF02B449F003B68002BFCD002282DD166B3A3
S31500006F00164D696A11F0010104D020210122FFF714
S31500006F109DFF01E0FFF776FFD5F89C600220002177
S31500006F200122FFF7A5FF0220C6F30A01FFF718FFAB
S31500006F302C663B68002BFCD0F8BD08260223074AC6
S31500006F401666074A1A4492001368002BFCD1F8BD56
S31500006F502026102404230525BCE7F8BD00400E407A
S31500006F608004F21000F00F00013810B5072800F277
S31500006F708D80DFE800F00487318B89588B630239F6
S31500006F80032900F28380DFE801F01102050B0120DE
S31500006F9003240DE03E48FFF7F5FC0220044607E017
S31500006FA03B48FFF7EFFC0124032001E00020042406
S31500006FB001210A46FFF75CFFFFF7C8FC354B364850
S31500006FC05C67FFF731FEFFF7DDFC01F0ADF800214D
S31500006FD0BDE81040FFF7F8BC304C0139092955D8F7
S31500006FE0DFE801F01E070E545415545454050423CB
S31500006FF017E0012100200A46FFF73AFF022310E0BE
S31500007000012001460246FFF733FF012309E001F0A4
S315000070108BF8FFF7B7FC224B01221A60032300E02E
S315000070200023236010BD072902D0092902D010BD14
S31500007030002200E00122174B1A6710BD013907290B
S3150000704024D8DFE801F01423230D232306040322AA
S315000070500EE001210A460420FFF70AFF012207E09D
S3150000706001210A460220FFF703FF022200E0002268
S315000070700849D1F85C3123F0300343EA0213C1F822
S315000070805C3110BD074CA8E7074CA6E710BD00BF52
S315000070900148E80100400E400005080084400E400B
S315000070A00016C84380400E4088400E4038B504465E
S315000070B01120FFF717FD022000210122FFF7D8FE5D
S315000070C01A49227C4B6A23F00103022A08BF43F0C7
S315000070D001034B62164B22781A608B6AE27A23F020
S315000070E0070313438B62A288637A43EAC223CB6207
S315000070F00A6BA37A257A02F07F621A43E388E81CBA
S3150000710042EAC3220F2842EAC51328BF0F2043EAEA
S3150000711000730B63A37B627B1B0143EA0233E27BB2
S315000071201343227B43EA02434B6338BD00400E40C3
S31500007130A004C84372B6704762B67047EFF310807A
S3150000714072B6704700B962B67047602383F3118840
S315000071507047002383F311887047EFF31180602393
S3150000716083F31188704780F311887047EFF310831B
S31500007170DB0706D4EFF311805F2894BF00200120BF
S3150000718070470120704700004109054A00F01F03BF
S3150000719052F82100D84000F0010080F0010070474D
S315000071A000E100E010B50446EFF31083DB0732D4AC
S315000071B0FFF7EAFF00282FD1002CADBF04F1604491
S315000071C004F00F04154B04F56144B4BF1A5D94F83E
S315000071D000235209EFF3118313B1B2EB531F1AD2F6
S315000071E00F4B5B68C3F30803B3B1103BDBB259B274
S315000071F00029ADBF01F1604303F00F03074903F512
S315000072006143B4BFC85C93F800034009824234BFAF
S315000072100020012010BD012010BD00BF14ED00E0CC
S3150000722000ED00E01848194BC26C1B88C2F303221C
S315000072302833013202EB820103EB5303B3FBF1F374
S31500007240C16C013B072B21F0EE6128BF072341F4F7
S31500007250801141EA0363C3640D4BB3F90030002B80
S3150000726010DB2833510001EB520203EB5303B3FB4F
S31500007270F2F3026D072B28BF072322F0700242EAC1
S3150000728003130365704700BF00300E4090240020B2
S315000072908C240020084B1A78013A012A0BD8074A99
S315000072A0126C02F00302012A03D1054A1268D203C6
S315000072B0FBD503221A7070479824002000300E4038
S315000072C07C300E40054A064BD16C1960D36C23F412
S315000072D07F4343F4EE43D364FFF7A4BF00300E4070
S315000072E09424002008B5054BD3F89020044B1120B8
S315000072F01A60FFF7F7FB034B187008BD00400E40FD
S31500007300882400208E24002038B518B9BDE83840FE
S31500007310FFF7E8BF114A45F60E03D2F88051C2F8CE
S3150000732080310F4B186840F25511014011660D4A25
S315000073301178052905F001051C4602D01120FFF73A
S3150000734011FE2368DB075EBF044B02221A661DB1DD
S31500007350024B0022C3F8802138BD00BF00400E401A
S31500007360882400208E24002010B5044608B1FFF7BB
S31500007370B9FF0D4A136943F004031361FFF7A2FF37
S31500007380FFF788FF30BF094B1A68094BDA64FFF72D
S3150000739049FF24B10120BDE81040FFF7B5BFBDE8A5
S315000073A0104000F0C1BE00BF00ED00E094240020B4
S315000073B000300E4010B5044608B1FFF793FF154B99
S315000073C0D3F8802145F60E01D207C3F8801148BFD5
S315000073D000224FF42071196648BFC3F880210E4A77
S315000073E0136943F004031361FFF76CFFFFF752FFC5
S315000073F030BF0A4B1A680A4BDA64FFF713FF24B151
S315000074000120BDE81040FFF77FBFBDE8104000F047
S315000074108BBE00BF00400E4000ED00E0942400202B
S3150000742000300E400378002B437870B50E4E14BF23
S3150000743004250025002B8378B26914BF022400249A
S31500007440002B037922F03F0242EA0302C37814BFFD
S3150000745008210021012B14BF134642F001032B43E0
S3150000746023430B43B36170BD00300E40134B9A6F3C
S31500007470D207FBD41B6C13F003031EBF104A012175
S315000074801160834201D1B8B914E023B9012802BFC3
S315000074900C4B02221A70094B9A6FD107FBD41A6C57
S315000074A022F0030202431A649A6FD207FCD400301A
S315000074B018BF0120024B1860704700BF00300E4015
S315000074C0B40AC643982400201D4B4AF6E85270B50C
S315000074D09C699E699A60986924F4403410F0010012
S315000074E044F4003446F440361D4607D11B6C03F0C5
S315000074F00303013B012B01D8FFF7B8FFAB69DB079C
S315000075000FD572B60F4B4AF6E8521A600E4A136848
S3150000751043F080031360A2F58872136843F4807306
S315000075201360FFF7CFFEFFF7B5FE054B9C619E612A
S315000075309C619E619C619E619C619E619C6170BD27
S3150000754000300E4090310E4098310E40A0F5E163B8
S31500007550B3F5966F2DE9F04302D90020BDE8F0831C
S31500007560B0F5E16F94BF002701275C4C002F40F077
S31500007570A980D4F868614FF41678C6F307294FF44A
S31500007580966CF6B2564BDB6CC3F3017E47EA0E23CC
S3150000759040F20115AB4223D0B3F5817F08D2012B0F
S315000075A01BD023D3B3F5807F2CD1D4F86C3125E0E2
S315000075B040F20125AB4216D005D8B3F5007F21D1A4
S315000075C0D4F8703114E0B3F5407F15D040F20135A0
S315000075D0AB4217D1D4F8783110E0D4F8743107E013
S315000075E0D4F874310AE0D4F8783101E0D4F86C317B
S315000075F0C3F30725DBB207E0D4F870311D0EC3F3E1
S31500007600074301E000252B46CCEB0000C6EB090C36
S3150000761000FB0CFCBCFBF8FCB444CC459DD8B4453F
S315000076209BD3EE1A7043B0FBF8F01844A84294D8E6
S31500007630984292D352B12A4DEB6D23F4FE4222F0CA
S31500007640020242EA0C2242EA4702EA65002936D0E3
S31500007650236D224ADBB2032B03D8D2F87C316FB1FB
S315000076600EE05FFA8EFEBEF1020FD2F880310AD02C
S31500007670BEF1030F0AD0BEF1010F01D0DBB206E066
S31500007680C3F3072303E0C3F3074300E01B0E1B030A
S3150000769013F4702F7FF461AF1149CA6E22F4704261
S315000076A01343CB664A6E22F4FF73E72823F00103E7
S315000076B043EA070328BFE72043EA40004866012063
S315000076C0BDE8F083D4F868614FF496684FEA16690E
S315000076D04FF4E16CC6F3074654E700BFB081E00FF4
S315000076E000300E40194B1A6FD96CC90702F0070219
S315000076F006D5012A04D9132818D91438132811E0FD
S31500007700DB6CD90706D4012A04D809280ED90A3811
S31500007710092807E00D4BDB6C13F0010309D0012AA1
S3150000772006D827288CBF1023082302E0042300E094
S3150000773000230648013BC26C190341EA032322F4E5
S315000077407F421343C364FFF76DBD00BF00300E4098
S31500007750054A064B1B68136F23F007031843044BB7
S3150000776010671888FFF7BEBF00300E408009C64379
S3150000777086240020534B022273B59A639B6B03F059
S315000077800F039342054601D0002497E04E4BD3F8F1
S315000077906C3101331DD04D4B1A68043B1B681A60CF
S315000077A04B4B1A68043B1B681A604A4B1A68043B29
S315000077B01B681A60484B1A68043B1B681A60474BE3
S315000077C01A68043B1B681A60454B1A68043B1B6821
S315000077D01A60EB884A2B0BD9B3F5FA7F0AD340F629
S315000077E0C312934294BF4FF000524FF0405203E051
S315000077F0002201E04FF08052324BB5F90C40D86CB4
S3150000780020F0405121F00101002CA8BF41F00101F8
S315000078100A43DA64DA6E42F08072DA66314A106838
S315000078201C4600B10420FFF793FF236E254E23F07C
S31500007830C0432366E36C43F0060301A8E36400F04B
S315000078400BFB9DF80500012812D19DF80430022B90
S315000078500ED825490B785BB9244A136843F0010317
S315000078601360336E224A1A40224B13433366087064
S31500007870214B29891980214BAA891A80204BA88877
S315000078801880FFF72FFFAB7B1BB1012B04D11D4ADC
S3150000789000E01D4A0B4B9A65012168880A46FFF7EE
S315000078A055FE044600283FF46FAFAB7A174A687856
S315000078B0003318BF01231360FFF7D8FD204602B03E
S315000078C070BD00BF00300E40B081E00F3C80E00F7D
S315000078D04480E00F4C80E00F5480E00F5C80E00FA6
S315000078E06480E00F8009C6439824002044300E408F
S315000078F0000F0EF0B4C0400B902400208C24002012
S3150000790086240020372110B7774020579407C643B6
S31500007910144B1A6830B5002814BF02250025012A29
S3150000792006BF4AF6E8511960002202280E4804688C
S315000079300CBF24F0740444F0740404600B4804681B
S3150000794044F0080404600A4C216821F4406141EACD
S3150000795085212160016821F0080101600AB1002239
S315000079601A6030BD90310E4064310E409C310E409D
S315000079703C400E40044AD2F8443423F00303184333
S31500007980C2F84404704700BF00A00040072A70B543
S3150000799001F003014FF00F050DD89400174EA540D6
S315000079A03560174DA04028600320A040A140154C2B
S315000079B0206015480EE0A2F10804A400134EA5406D
S315000079C03560134DA04028600320A040A140114C13
S315000079D02060114801601149114489000B609DF82F
S315000079E01030C1F88030012393400D4AC2F8243488
S315000079F09DF81430C1F8003370BD00BF00A40044E8
S31500007A0000A4004608A4004408A4004604A40044B8
S31500007A1004A400460CA400440CA400468020851053
S31500007A2000A00040F0B542B1012430258C4045430A
S31500007A300BB1184E00E0184E74513024444304F143
S31500007A408044072904F520440CD867684FEA810E64
S31500007A500F2505FA0EF527EA050602FA0EF5354357
S31500007A6065600CE001F18045083DA768AD000F2672
S31500007A70AE4027EA060602FA05F53543A56042B987
S31500007A80012230248A4044430BB1024B00E0024BF2
S31500007A901A51F0BD0CA000460CA00044054B064848
S31500007AA04FF48072C3F88020044B0021D966196216
S31500007AB0FEF798BF00E100E00045080000200E40F8
S31500007AC0034B03449B0081F001011960704700BF1E
S31500007AD0A001F11010B5044601211148FEF782FFFE
S31500007AE0637822781B0243EA0263A2781A430D4B9D
S31500007AF01A6000221A62DA625A634FF00042DA66AE
S31500007B004FF0FF329A66084A4FF48071C2F880112E
S31500007B10E3785B01DBB282F80833116010BD00BF69
S31500007B200045080000200E4000E100E0F8B5C3B2B1
S31500007B3001269E403023584300F1804000F5622024
S31500007B400C460968C0F88010637BC0F88830A37AB9
S31500007B50E17A1D4D1B0443EA0153217B22F0030207
S31500007B6043EA4153C0F88430C0F89820AE66FFF768
S31500007B70F4FAEB6E227A3343EB662B4612B16A6B4C
S31500007B8032436A63627A12B1DA6A3243DA6222797E
S31500007B901B6822B1D243120262F47F42134062791B
S31500007BA00AB143EA0223A2790AB123EA0203E2797F
S31500007BB002B11343044A1360044B1E60D663BDE84A
S31500007BC0F840FFF7D0BA00BF00200E4028200E4430
S31500007BD010B5C0B201248440FFF7BFFA054AD36E40
S31500007BE023EA0403D366044B1C60BDE81040FFF78C
S31500007BF0BABA00BF00200E4020200E44F8B5C3B22A
S31500007C00012504469D40FFF7A8FA0A4B1E6E9F6A9F
S31500007C10302303FB04F2084B9C58FFF7A4FA3D42BD
S31500007C2006D1C4F30A1008B9354202D10130F8BDB5
S31500007C300020F8BD00200E408C200E40036CDB07B0
S31500007C4002D4436C1942FCD1704738B5CC43054683
S31500007C5004F0050441EA44040221FFF7EFFF6C60DB
S31500007C6038BD436C002BFCD101220264EA2242603B
S31500007C7040F2F9720360C360036143618363426348
S31500007C80C363436583650364704738B504460D4690
S31500007C90A368DB06FCD520464021FFF7CFFFA5628F
S31500007CA038BD0000124A1368437893600378DBB14D
S31500007CB04368D360437A817A1B0643EA0173C17B2A
S31500007CC043F0010343EAC143C17A43EA8143017B9E
S31500007CD043EA4143417B43EA0143817B43EA012373
S31500007CE0017A43EA410300E0D3601361704700BFA5
S31500007CF090ED00E0044B41F671321A649A6822F066
S31500007D0001029A60704700BF00000E40034B9A685C
S31500007D1022F001029A6000221A64704700000E40A9
S31500007D2010B590FAA0F2B2FA82F2044C23689140A0
S31500007D3023EA00000143216010BD00BF00500E4041
S31500007D40014B01229A60704700500E40174B30B528
S31500007D505D68002318461649164C0968E21849075B
S31500007D6052680FD4E158B1F5806F09D002D8B1F549
S31500007D70007F04E0B1F5006F02D0B1F5803F01D17C
S31500007D8042F480720C490968C905E15848BF22F0DF
S31500007D901C02294202D02A4208BF08430833482B56
S31500007DA0D9D1C30348BF20F01C0030BD00500E409F
S31500007DB0E841E00FF80D030088300E408B784A78D2
S31500007DC09B0143EA82030A781343CA7843EA021303
S31500007DD00A7943EAC2234A7943EA02338A790430AC
S31500007DE043EA42430001014A135070470020044011
S31500007DF0437842790178002B837870B514BF042646
S31500007E000026002BC37814BF10250025002B03790C
S31500007E104FEA023242EA0322837914BF2024002467
S31500007E20002BC37942EA010242EA034343EA06030E
S31500007E30027A43EA050314BF4FF4004100212343AD
S31500007E40002A14BF4FF4003200220B431343014AA9
S31500007E50136070BD002004400B4A536903F00F0104
S31500007E601369C3F3811343EA81038370136903F033
S31500007E703F034370936903F0F001D369C3F303131F
S31500007E800B430370704700BFD0FF0FE030B50C788E
S31500007E900CB90223436000234362CB788A781B0423
S31500007EA043EA02630A7A13438A7943EA8223CA7948
S31500007EB043EA02234A78002A14BF402200221343D1
S31500007EC04A7A002A14BF8022002213438A7A002AA3
S31500007ED014BF202200221343CA7A002A14BF10229C
S31500007EE0002213430A79002A4A7914BF4FF4005539
S31500007EF00025002A43EA050314BF4FF080520022F2
S31500007F001A430B7B002B14BF082300231343036083
S31500007F100CB10123436030BD537810B514781B06AD
S31500007F2043EA846394792343947843EA0443D478F8
S31500007F3043EA0433147943EA8423547943EA042355
S31500007F40D479002C14BF4FF0804400242343147AC4
S31500007F50002C14BF4FF0005400242343547A927A25
S31500007F60002C14BF102400240631002A43EA04031F
S31500007F7014BF0422002209011343435010BD000020
S31500007F8070B5044616461D4619B91448FEF74CFE50
S31500007F900146202D07D001D85DB170BD402D04D01B
S31500007FA0602D04D070BD082204E0062202E00422FF
S31500007FB000E01022236823F0600323607243490126
S31500007FC0236801EB5201B1FBF2F20549203AD200D7
S31500007FD011401D432560616170BD00BF4041050031
S31500007FE0F8FF7F00CB4303F005035B00C360C1606D
S31500007FF07047000040F6AA63C36041F20502002301
S31500008000036042600A4A83604361C3648264094A2A
S3150000801043679042836702F58062C36701D090424E
S3150000802000D103659042836504BF0023C365704792
S31500008030F9FF01000000014038B50C460546FFF780
S31500008040D9FFA37C1BB12B6843F080432B60E37CF4
S315000080501BB1237D43F08003AB65637B228A616895
S315000080601A43E38913436B60A268237B2846FFF714
S3150000807087FFE37D1B0503F4E002A37D1B0703F0E6
S31500008080E04313432B66637D1BB12B6843F48033B7
S315000080902B606B6F227E23F030036B676B6F13438D
S315000080A06B672378EB6038BD03691B06FCD5C06996
S315000080B0C0B2704703695B06FCD54163704703682D
S315000080C0D90707D583689A0704D48368DB07FCD4ED
S315000080D001234360704700000048704700F04902E2
S315000080E00D4AD2F8943003F00703032B0AD0042B71
S315000080F003D0022B03D1094B02E0094B00E0094BE8
S31500008100186801E04FF40040D2F80031C3F30423AD
S315000081100133B0FBF3F0704700400E403C1C0020DA
S31500008120381C0020441C002008B5FFF7D9FF054B7A
S31500008130D3F80831C3F308230133B0FBF3F0024B45
S31500008140186008BD00400E40401C0020014B186816
S31500008150704700BF3C1C0020054B1860054BD3F848
S31500008160943003F00703022B01D1FFF7DDBF704700
S315000081703C1C002000400E400D4AD2F8883043F4E3
S315000081807003C2F888300B4B5A6D42F400525A65A0
S315000081901A6C22F003021A64074A136823F00103DB
S315000081A0136052F8143C23F0805342F8143C704795
S315000081B000ED00E000300E4074300E404FF40040F9
S315000081C070474FF47A707047014B1868704700BFCC
S315000081D0381C002008B50C4B198A40F6A73291428C
S315000081E00CD040F628031B689B69DB020AD50128E0
S315000081F008D840F202200CF057FB03E01B8B1B0A49
S31500008200012BF4D0012008BD00000000094B198A9B
S3150000821040F6A732914204D040F628031B685889DD
S3150000822070471B8B1B0A012B01D100F005B84FF6D6
S31500008230FF70704700000000054B198A40F6A73210
S3150000824091421DBF40F628031B685889588B70471A
S315000082500000000070B51038C6B0EE2801F27D852A
S31500008260DFE810F0EC08D9087B0D7B0D2A052B09F9
S3150000827048099E08AE087B0D8C097B0D7B0DA40971
S31500008280880608081F085E06BA087B0D7B0D7B0D65
S315000082907B0D7B0D290757070201610121010E01A4
S315000082A0EF004E018E017B0D7B0D410AC10BEE06E0
S315000082B0E50A650A290BA10B550B7B0D7B0D7B0D82
S315000082C07B0D7B0D1B09140B4C0A7B0D7B0D7B0D67
S315000082D07B0D7B0D7B0D7B0D9806DE06C4067B0DA4
S315000082E07B0D7B0D7B0D7B0D7B0D7B0D7B0D7B0D48
S315000082F07B0D7B0D7B0D7B0D580CAF09EF0B080C2E
S31500008300C109D6092C0A130A7B0DFD09420C7B0D07
S31500008310FE0340055A058F04A5045A047B0D7B0D08
S315000083207B0DA2057B0DD5047F05E305D7057504F6
S315000083305F04C6057B0DFC069208A0077B0D7B0D2E
S31500008340160CE8097B0D7B0DB40ABB035803DA0350
S31500008350F203CE03E6037C0392036403A5037003D2
S315000083607B0D7B0D7B0D7B0D7B0D7B0D7B0D7B0DC7
S315000083708C0B7B0D7B0D670954097B0D41067B0D2C
S315000083807B0D9D017B0DD701980213024A02620202
S31500008390FD017B0D000622067B0D7B0D7B0D7B0D03
S315000083A07B0D1D042E024E04CD0C040D630D350D00
S315000083B07B0D7B0D7B0D990C830C7B0DC10CFC0C8E
S315000083C08E0C260D0103D807F007FC077B0D7B0DED
S315000083D0B3027B0DEA0211037B0D7B0D7B0D7B0D3A
S315000083E00505460D7A09CC077B0D73062A0DB60CDA
S315000083F0AB0CE60CF10C7B0D7B0D7B0D7B0D7B0D29
S315000084007B0D7B0D7B0D7B0D7B0D7B0D7B0D7B0D26
S315000084107B0D7B0D56027B0DBA017B0D7302840228
S31500008420EA017B0D7B0D7B0D7B0D7B0D7B0D7B0DA3
S315000084307B0DCD085B087F0845082B087B0D6D0773
S31500008440710CD04912AA01200EF0DCF99DF8480003
S315000084501DF0FCF946AACB4902F8880D00200EF063
S31500008460D1F9012001F07ABC05F05EF846AAC549AB
S3150000847002F8880D00200EF0C5F9012001F06EBC4F
S31500008480C04912AA01200EF0BDF99DF848000CF073
S31500008490F6FC46AABB4902F8880D00200EF0B2F998
S315000084A0012001F05BBC0CAA0120B6490EF0AAF926
S315000084B024A99DF8300004F04BFE46AAB14902F803
S315000084C0D00D00200EF09EF99DF890000DF09CFF57
S315000084D09DF891000DF098FFBDF892000DF0A4FFF5
S315000084E09DF894000DF090FF08200DF195010DF018
S315000084F0C3FF9DF89D000DF087FF012001F02EBC03
S31500008500A04912AA01200EF07DF99DF8480004F05A
S3150000851017FE46AA9C4922F8880D00200EF072F933
S31500008520012001F01BBC0CAA964901200EF06AF945
S315000085300DF054FF8DF890000DF050FF8DF891006E
S315000085400DF07CFFADF892000DF048FF0DF195019E
S315000085508DF8940008200DF049FF0DF03FFF24A987
S315000085608DF89D009DF830000CF06EFC46AA8549FA
S3150000857002F8D00D00200EF045F9012001F0EEBB07
S315000085800120824912AA24AB0EF03CF99DF848005E
S31500008590BDF8901004F00EFE012001F0DFBB0BAA1F
S315000085A0012078490EF02EF9302024A90DF01EFF87
S315000085B0162012A90DF01AFF24A912AA9DF82C0064
S315000085C007F098FF46AA6F4902F8E80D00200EF062
S315000085D019F9012001F0C2BB0BAA012069490EF06E
S315000085E011F94A2024A90DF001FF252012A90DF04A
S315000085F0FDFE24A912AA9DF82C0004F065FC46AAEB
S31500008600604902F8E80D00200EF0FCF8012001F0A8
S31500008610A5BB5C4912AA01200EF0F4F89DF84800AB
S3150000862007F071FF46AA574902F8880D00200EF0A0
S31500008630E9F8012001F092BB524912AA01200EF07E
S31500008640E1F89DF8480004F048FC46AA4D4902F8B6
S31500008650880D00200EF0D6F8012001F07FBB0CAA91
S31500008660009224AB01204A490EF0CCF824999DF8DB
S31500008670300007F097FE46AA424902F8D00D0020C6
S315000086800EF0C0F8012001F069BB10200CA90DF016
S31500008690ADFE302024A90DF0A9FE2A2012A90DF066
S315000086A0A5FE24A912AA0CA810F0EBF946AA354992
S315000086B002F8EC0D00200EF0A5F8012001F04EBBEB
S315000086C010200CA90DF092FE4A2024A90DF08EFE72
S315000086D048200DEB00010DF089FE24A912AA0CA872
S315000086E010F03FF846AA274902F8EC0D00200EF0DC
S315000086F089F8012001F032BB07F0FEFE46AA2149A7
S3150000870002F8880D00200EF07DF8012001F026BB4E
S3150000871004F0DCFB46AA1B4902F8880D00200EF087
S3150000872071F8012001F01ABB24A807F0EAFE46AA58
S31500008730144902F8D00D00200EF064F8302024A968
S315000087400DF09AFE012001F009BB24A804F0C1FB3C
S3150000875046AA0C4902F8D00D00200EF053F84A2024
S3150000876024A90DF089FE012001F0F8BA07F036FEC3
S3150000877046AA044902F8880D00200EF043F80120AD
S3150000878001F0ECBA890E0300990E03007B0E03007C
S31500008790C40E0300162012A90DF028FE302024A9CD
S315000087A00DF024FE15200CA90DF020FE24A90CAA1C
S315000087B012A807F0A4FE46AAC64902F8EC0D00204E
S315000087C00EF020F8012001F0C9BAC3490DF12102CB
S315000087D00DF1220301200EF015F824A80DF06BFF11
S315000087E00DF1260312AA8DE80C000AAA02920CAA21
S315000087F003920120B94909AA0EF004F89DF8262033
S315000088000092129A01929DF828200292BDF830201B
S315000088109DF822109DF8243003929DF8210024AA89
S315000088200AF068FE46AAAB4902F8EC0D00200DF0EE
S31500008830E9FF012001F092BA0CAA0120A5490DF02A
S31500008840E1FF24A99DF830000BF060FA46AAA14981
S3150000885002F8D00D00200DF0D5FF24A80DF072FF10
S31500008860012001F07BBA24A80DF025FF24A80BF007
S31500008870A7FA46AA974902F8D00D00200DF0C2FFCC
S31500008880012001F06BBA082395498DF81F300AAA1A
S3150000889001200DF0B7FF12A80DF00DFF09AB0093F4
S315000088A00DF1260301930CAD0DF11F030DF11E0210
S315000088B0039301200DF122038A49029524AC0DF0A1
S315000088C0A1FF102021460DF091FD012086490BAA3B
S315000088D008AB0DF097FFBDF824100091BDF82610E7
S315000088E001910B9904919DF820109DF81E20BDF86A
S315000088F022300591029512A903940A980BF07AFD8D
S3150000890046AA744902F8F70D00200DF07BFF0120FE
S3150000891001F024BA07F0E8FA46AA6E4902F8880D73
S3150000892000200DF06FFF012001F018BA07F0BCFB24
S3150000893046AA684902F8880D00200DF063FF012061
S3150000894001F00CBA07F0CAFB46AA684902F8880D7E
S3150000895000200DF057FF012001F000BA0CAA00928A
S3150000896024AB012062490DF04DFF24999DF830009B
S315000089700FF0BEFE46AA574902F8D00D00200DF0B2
S3150000898041FF012001F0EAB9524912AA01200DF077
S3150000899039FF9DF8480007F077FB46AA4D4902F8D3
S315000089A0880D00200DF02EFF012001F0D7B924AA72
S315000089B00CAB01204F490DF025FF9DF93010BDF895
S315000089C0900007F073FB46AA424902F8D00D00203A
S315000089D00DF018FF012001F0C1B93E4912AA01208D
S315000089E00DF010FF9DF848000FF07AFE46AA3949AF
S315000089F002F8880D00200DF005FF012001F0AEB948
S31500008A0007F0EEFA46AA334902F8880D00200DF069
S31500008A10F9FE012001F0A2B907F0C2FA46AA2D49D3
S31500008A2002F8880D00200DF0EDFE012001F096B948
S31500008A3007F0E6FA46AA274902F8880D00200DF04D
S31500008A40E1FE012001F08AB907F0BAFA46AA2149E7
S31500008A5002F8880D00200DF0D5FE012001F07EB948
S31500008A6008238DF828300BAB12AA009301200AAB1D
S31500008A7021490DF0C7FE102024A90DF0B7FC9DF882
S31500008A802C1024AA12A821F01EFC46AA114902F8AD
S31500008A90E80D00200DF0B6FE012001F05FB90823B5
S31500008AA012AA8DF82C3001200BAB14490DF0AAFE4A
S31500008AB0102024A90DF09AFC24A912A80FF06BFE31
S31500008AC046AA044902F8E80D00200DF09BFE01209D
S31500008AD001F044B9890E0300AD0E0300780E0300C1
S31500008AE0950E03007E0E0300B10E0300C21E0300A6
S31500008AF0C40E0300840E0300880E03005117030002
S31500008B0021F042FC46AAD14902F8880D00200DF05A
S31500008B1079FE012001F022B90AF08EF8012001F059
S31500008B201DB90120C94912AA0DF06CFE0022134698
S31500008B309DF84810012021F04FFB46AAC34902F8D0
S31500008B40880D00200DF05EFE012001F007B9082314
S31500008B508DF82C300CAB24AA009301200BABBC493A
S31500008B600DF050FE9DF8301024A821F02FFB46AAE8
S31500008B70B64902F8D00D00200DF044FE012001F0A8
S31500008B80EDB824A807F0F6FC46AAB04902F8D00DC5
S31500008B9000200DF037FEBDF890000DF045FC0820D2
S31500008BA00DF192010DF068FC012001F0D7B80CAA76
S31500008BB00120A6490DF026FE24A99DF8300008F0F4
S31500008BC07DFC46AAA14902F8D00D00200DF01AFE40
S31500008BD0BDF890000DF028FC9DF892000DF014FCF5
S31500008BE00DF1930110200DF047FC29980DF030FC93
S31500008BF02A980DF02DFC9DF8AC000DF005FC082020
S31500008C000DF1AD010DF038FC012001F0A7B80CAA5A
S31500008C1001208E490DF0F6FD24A99DF8300021F0C3
S31500008C20CBFA46AA894902F8D00D00200DF0EAFDDC
S31500008C30BDF890000DF0F8FB9DF892000DF0E4FBF6
S31500008C400DF1930110200DF017FC29980DF000FC92
S31500008C502A980DF0FDFB9DF8AC000DF0D5FB082021
S31500008C600DF1AD010DF008FC012001F077B80BAB5A
S31500008C7012AA0824012077498DF82C400DF0C2FD78
S31500008C8024A912A80FF08CFD46AA704902F8E80D37
S31500008C9000200DF0B7FD204624A90DF0EDFB26A916
S31500008CA010200DF0E9FB2A980DF0D2FB2B980DF061
S31500008CB0CFFB012001F052B8082366498DF8303009
S31500008CC024AA0CAB01200DF09DFD24A808F066FD3A
S31500008CD046AA5E4902F8D00D00200DF093FD012052
S31500008CE001F03CB808238DF82C300BAB12AA009388
S31500008CF0012024AB58490DF085FD24A9BDF8480094
S31500008D0009F08AFE46AA514902F8E80D00200DF046
S31500008D1079FD012001F022B80DF090FB46AC0DF173
S31500008D20920124F8880D10200DF060FB0DF1A201D0
S31500008D3010200DF05BFB0DF051FB0DF1B3018DF82A
S31500008D40B20008200DF052FB204607F00DFD46AAA2
S31500008D503E4902F8D00D00200DF054FD012000F030
S31500008D60FDBF08238DF828300AAB00930BAB0DF13D
S31500008D7026020193012012AB38490DF043FD102065
S31500008D8024A90DF033FB9DF8261012AA24AB00206F
S31500008D9021F022FA46AA2D4902F8E80D00200DF02E
S31500008DA031FD012000F0DABF12A80DF0E7FB0AAB97
S31500008DB00CAA8DE80C00012029490DF1260224ACED
S31500008DC00DF020FD0C9B9DF826109DF828200094A0
S31500008DD012A80FF0C8FC46AA1C4902F8EC0D0020A8
S31500008DE00DF010FD20460DF0BEFB012000F0B6BFD1
S31500008DF024A910200DF0FAFA24A809F029FE46AAA3
S31500008E00124902F8D00D00200DF0FCFC012000F004
S31500008E10A5BF09F0EFFA46AA0C4902F8880D002012
S31500008E200DF0F0FC012000F099BF24A910200DF0F0
S31500008E30DDFA24A809F0D4FA46AA044902F8D00DAE
S31500008E4000200DF0DFFC012000F088BF890E030032
S31500008E50880E030051170300810E0300870E0300DE
S31500008E60C30E030008238DF826308DF828300DF147
S31500008E702603009324AC0AAB0293012012ABC0492F
S31500008E8001940CAA0DF0BEFC12A92246BDF83000D2
S31500008E9009F004FA46AABB4902F8EC0D00200DF0D1
S31500008EA0B1FC012000F05ABF08238DF828300AAB28
S31500008EB00CAA0093012012ABB3490DF0A3FC1020BD
S31500008EC024A90DF093FA12A924AABDF8300009F0DE
S31500008ED021FA46AAAB4902F8EC0D00200DF092FCEF
S31500008EE0012000F03BBF0AAB009312AB01930120B7
S31500008EF0A6490CAA24AB0DF085FC24999DF82820E0
S31500008F00BDF84830BDF830001DF0FCF846AA9D4972
S31500008F1002F8EC0D00200DF075FC012000F01EBFDC
S31500008F200CAA24AB01209A490DF06CFC24999DF8FB
S31500008F30300005F083FF46AA924902F8D00D0020C2
S31500008F400DF060FC012000F009BF24AA0CAB012043
S31500008F5090490DF057FC9DF83010249814F0C4FC8D
S31500008F6046AA884902F8D00D00200DF04BFC0120DE
S31500008F7000F0F4BE24A80DF095FA24A817F0F4F832
S31500008F8046AA804902F8D00D00200DF03BFC0120D6
S31500008F9000F0E4BE0CAA01207A490DF033FC24A9A6
S31500008FA09DF8300005F048FF46AA764902F8D00D34
S31500008FB000200DF027FC24A908200DF05DFA9DF88D
S31500008FC098000DF021FABDF89A000DF02DFA9DF8E3
S31500008FD09C000DF019FA9DF89D000DF015FA9DF80C
S31500008FE09E000DF011FA012000F0B8BE86230BAAF0
S31500008FF0012064498DF848300DF004FC24A99DF841
S315000090002C0005F01EFF46AA12AB02F8E80D6249D5
S315000090100093002024AB0DF0F5FB012000F09EBE6E
S3150000902024A81DF0FDFC46AA564902F8D00D0020E2
S315000090300DF0E8FB24A80DF0ADFB012000F08EBE7C
S3150000904024A81DF0E9FC46AA544902F8D00D24AB29
S3150000905000200DF0D7FB012000F080BE0CAA0120F5
S3150000906048490DF0CFFB24A99DF830001EF068FF9B
S3150000907046AA444902F8D00D00200DF0C3FBBDF806
S3150000908090000DF0D1F99DF892000DF0BDF99DF814
S3150000909093000DF0B9F99DF894000DF0B5F99DF81F
S315000090A095000DF0B1F908200DF196010DF0E4F9E7
S315000090B0012000F053BE24A912A805F085FE46AA99
S315000090C012AB02F8E80D354900200DF09BFB24A9F0
S315000090D008200DF0D1F9BDF898000DF0A5F99DF81E
S315000090E09A000DF091F99DF89B000DF08DF99DF811
S315000090F09C000DF089F9BDF89E000DF095F99DF8DC
S31500009100A0000DF081F929980DF0A2F9012000F0D8
S3150000911025BE12AC0823214624A88DF8303005F070
S3150000912079FE46AA0CAB02F8EC0D1D498DE8180035
S31500009130002024AB0DF066FB012000F00FBE0CAA48
S31500009140012010490DF05EFB24A99DF8300014F0B3
S3150000915077FC46AA0B4902F8D00D00200DF052FB11
S315000091609DF890000DF050F99DF891000DF04CF926
S315000091709DF892000DF048F9012000F0EFBD00BF08
S315000091808B0E0300890E0300810E03008F0E030071
S31500009190940E0300B10E0300CB180300AD0E0300BE
S315000091A0970E03000CAA0120CA490DF02BFB24A937
S315000091B09DF830001DF0B8FE46AAC64902F8D00D4B
S315000091C000200DF01FFBBDF890000DF02DF9BDF845
S315000091D092000DF029F99DF894000DF015F99DF80F
S315000091E095000DF011F99DF896000DF00DF99DF81A
S315000091F097000DF009F9012000F0B0BD05F088FDDB
S3150000920046AAB44902F8880D00200DF0FBFA0120A9
S3150000921000F0A4BD0120AF490BAA12AC0DF0F2FA82
S3150000922024A922469DF82C0005F074FD46AAAA49F9
S3150000923002F8E80D24AB002000940DF0E3FA0120BB
S3150000924000F08CBD05F06AFD46AAA24902F8880D19
S3150000925000200DF0D7FA012000F080BD05F05CFD7E
S3150000926046AA9C4902F8880D00200DF0CBFA012091
S3150000927000F074BD0CAA974901200DF0C3FA24A88A
S315000092800DF010F924A99DF8300017F099F846AAB8
S31500009290904902F8D00D00200DF0B4FA012000F03C
S315000092A05DBD17F0ABFE46AA8A4902F8880D00207C
S315000092B00DF0A8FA012000F051BD12AB0093012079
S315000092C00CAB86490BAA0DF09DFA9DF830109DF85F
S315000092D048209DF82C0020F0ABFD46AA7D4902F8F7
S315000092E0880D00200DF08EFA012000F037BD0CAA83
S315000092F012AB01207A490DF085FA9DF948109DF8C8
S31500009300300020F093FD46AA724902F8880D00202D
S315000093100DF078FA012000F021BD0BAB00930CABE9
S31500009320019312AB029301206E490DF126020AAB9E
S315000093300DF068FA9DF848409DF828109DF82C20FD
S315000093409DF930309DF82600009420F06BFD46AA6A
S31500009350604902F8880D00200DF054FA012000F053
S31500009360FDBC5C4912AA01200DF04CFA9DF848009C
S3150000937020F05AFD46AA574902F8880D00200DF044
S3150000938041FA012000F0EABC1EF0CEFD46AA514982
S3150000939002F8880D00200DF035FA012000F0DEBC41
S315000093A024A80DF0F5F824A817F05AF846AA49495A
S315000093B002F8D00D00200DF025FA012000F0CEBCF9
S315000093C014F006FB46AA434902F8880D00200DF06A
S315000093D019FA012000F0C2BC3E4912AA01200DF084
S315000093E011FA9DF8480016F0B3F946AA394902F871
S315000093F0880D00200DF006FA012000F0AFBC0FF03A
S315000094003AF946AA334902F8880D00200DF0FAF918
S31500009410012000F0A3BC2F4912AA01200DF0F2F999
S315000094209DF8480006F0E3F846AA2A4902F8880D96
S3150000943000200DF0E7F9012000F090BC12AB00937C
S3150000944024AB019309AB02930DF1260303930AABF8
S315000094500493012024490DF122020CAB0DF0D2F940
S315000094609DF8244000949DF8264001949DF82840DC
S31500009470BDF83010BDF84820BDF890309DF82200A8
S31500009480029404F0E3FF46AA124902F8EC0D00200C
S315000094900DF0B8F9012000F061BC24A80DF087F9A1
S315000094A024A81DF0BBFA46AA0A4902F8D00D0020EE
S315000094B00DF0A8F9012000F051BC012024AA0B49A7
S315000094C00DF0A0F90A4BBDF890201A80012000F09B
S315000094D045BC00BF890E03009B0E0300AC0E0300C3
S315000094E09F0E0300A20E0300A80E0300990E0300B0
S315000094F090200020012024AAA9490DF083F9A94B48
S31500009500BDF890201A80012000F028BCA64912AAB6
S3150000951001200DF077F99DF8480016F037FA46AAB3
S31500009520A14902F8880D00200DF06CF9012000F029
S3150000953015BC9E4912AA01200DF064F99DF9480058
S3150000954014F0C2FA46AA984902F8880D00200DF0D8
S3150000955059F9012000F002BC934912AA01200DF02E
