S01200006E63702D756172742D68772E733337AC
S3150000400028650020ADDA02004DA7000011D8020095
S31500004010A70A0A010042000004180FAC3062CC0067
S31500004020000000000000000000000000000000008A
S3150000403000000000A8F202000000000000000000DE
S315000040400000000000000000FFFFFFFFFFFFFFFF72
S31500004050FFFFFFFF007003000000000000000000EB
S31500004060FFFFFFFFFFFFFFFF110000000000000041
S31500004070000000000000000000000000000000003A
S315000040800000000000000000FB7D0020FB7D0020FA
S31500004090286500201CFE02004ADD0200C85B0020E5
S311000040A090120020000004000000000048
S3150000420028650020ADDA02004DA7000011D8020093
S3150000421019D8020015D802001DD8020029D80200BC
S3150000422029D8020029D8020029D8020029D802007C
S3150000423021D8020029D8020029D80200357A0000C8
S31500004240B9DA0000BD890200156E0000058602007D
S31500004250118A0200C3890200C5890200BF890200D3
S31500004260AF2E01000D31010077AF0000E37E0000A4
S3150000427029D8020029D80200FFD9020029D8020055
S3150000428029D802001B31010029D8020029D80200D2
S3150000429029D8020029D8020029D8020029D802000C
S315000042A029D8020029D8020029D80200138A020060
S315000042B0C18902002FAC0000478A020029D80200FB
S315000042C019DD020029D8020029D8020029D80200E7
S315000042D029D8020029D8020029D8020029D80200CC
S315000042E010B57549754A01E021B1491E1369DC070D
S315000042F0FAD411B96FF0020010BD506001201060B1
S31500004300106910F0060F09D0410702D54FF0FF30B3
S3150000431010BD800702D56FF0010010BD002010BD52
S31500004320F0B5044610460B460022002B36D06249F3
S31500004330624D90B900269E4230D254F8040BE860D4
S315000043400827761C2F60084601E028B3401E2F6917
S31500004350FF07FAD40028EED11EE0EFF3108072B604
S3150000436000260EE02F6907F01907102F08BF2F60EF
S315000043702F693F07F6D554F8047BEF60761C1027AB
S315000043802F609E42F4D318B962B601E021B1491EEE
S315000043902869C307FAD409B96FF002021046F0BDC6
S315000043A02DE9F84F464D0C4629680646002041F097
S315000043B0010129604FEA92088146A2469B4613E016
S315000043C0C7F30A07C7F50067BF08A8EB0900B8429C
S315000043D038BF07465A4639465046FFF7A1FF010047
S315000043E00CD1B9440AEB870AC14507D206EB890707
S315000043F03846FFF775FF0100E2D011E03168226808
S31500004400914209D03046FFF76BFF010004D15A46AE
S3150000441001212046FFF784FF2968490849002960E1
S31500004420BDE8F28F264A136843F001031360014684
S3150000443091600121516053691F48590706D51068DC
S315000044404008400010604FF0FF30704751698B07FD
S3150000445006D510684008400010606FF001007047F4
S315000044600221516001E020B1401E5169CB07FAD408
S3150000447030B910684008400010606FF002007047C5
S31500004480106840084000106000207047002387E74E
S315000044900B48016841F00101016046F21A32C2641C
S315000044A04FF4807141604169CA07FCD40021C164A0
S315000044B00020704700000000809698000C000E4017
S315000044C008000E402DE9F84F8046DFF87C90202248
S315000044D0FF21484600F08FF8DFF870B04FF4917274
S315000044E0FF21584600F087F819481A4F1A4C0090D9
S315000044F04FF0200A0026A25D1849BD5D885D521C5A
S3150000450002EBD272521000B11932154830F816106B
S315000045100098D21C6A4300F096F8012D1CBF2BF8B8
S3150000452016A0AA44761C202EE5DB20234FF48052E9
S3150000453040F2BA510B4800F086F849464046BDE8BD
S31500004540F44F00F0F3BB00BF086F0020E46D0020BD
S315000045501CED0200D0EF0200B0EF020090EF020067
S3150000456050EF020038ED020070B5814224D21044AB
S315000045701144401E491E10E011F8013900F80139B6
S31500004580121F11F8014900F8014911F8015900F804
S31500004590015911F8016900F8016993B2042BEBDAAD
S315000045A093B2002B1EBF11F8013900F80139521ED3
S315000045B0F6D170BD00F00DF893B2042BFADA93B27F
S315000045C0002B1EBF11F8013B00F8013B521EF6D12D
S315000045D070BD11F8013B00F8013B121F11F8014BA9
S315000045E000F8014B11F8015B00F8015B11F8016B53
S315000045F000F8016B7047130003D00A46194601F014
S3150000460015BA704710B5034600E0521E90B218B1B5
S3150000461000F00FF8F9D0001B10BD10B5034600E0FE
S31500004620521E90B220B100F004F8F9D0001B40B23F
S3150000463010BD13F8010B11F8014BA04270470000A2
S315000046402F49087070470EB430B504462C480078E0
S3150000465020B301F070FA08B301F0AEFB012001F0BF
S31500004660B8FB0546FF2D19D001F0A8FB022101F089
S3150000467068FA0146284601F0A7FB03AB2246294605
S31500004680204801F088FF30B1284601F0C8FA10B181
S31500004690042000F00BF8284601F006FC30BC5DF85B
S315000046A010FB0C2200211848FFF7A5BF164931F868
S315000046B01020521C21F8102070470CB480B502AAB5
S315000046C002F0C0F801BC5DF80CFB0D490978A1B9F0
S315000046D0010018BF012810D0042818BF05280CD0E7
S315000046E0312818BF332808D037281EBF3B284FF67D
S315000046F0FF71884201D001207047002070470000FA
S31500004700D27D0020C9600000DC730020302818BF6D
S31500004710322806D034281CBF3628382801D000207D
S31500004720704701207047000010B5DFF8304CDFF805
S31500004730303C2488001B03EB4000002304E030F8E3
S31500004740134021F813405B1C9342F8DB002010BD98
S31500004750DFF8082CDFF8081C1288801A01EB4001EC
S31500004760022002F095B9F8B504460F461546DFF863
S31500004770F06BE8B200B34FF6FF70ADF80000002012
S3150000478017F8011B0DF80010401C6D1EC0B2022860
S3150000479002DAE9B20029F3D1DFF8C00B0088A4B22F
S315000047A0201A0122694606EB400002F0ADF9641CAE
S315000047B00100DED000F0FABB0120F2BD70B582B078
S315000047C004460D461646F0B278B101F013F8641CA3
S315000047D000201DF8001005F8011B401C761EC0B213
S315000047E00228F0DAF1B20029F3D173BDDFF8741BA9
S315000047F0DFF8742B095C125CDFF8C03C185C10B162
S3150000480002F5997292B241EAC21080B27047DFF89F
S31500004810543BDFF8AC2C1B5C012B1CBF32F810009C
S31500004820081802EB4000704730B591B004460D46BB
S3150000483004E0401C80B220280BDB2034A1B28D425C
S3150000484010D320226946A0B2FFF76EFF00204FF674
S31500004850FF723DF810109142EBD0A0B2FFF778FF3F
S31500004860203CEAE711B030BD10B5044661882088C7
S31500004870FFF7DAFF0120A071DFF8481C20880978CD
S315000048804018DFF8F41C098800EB4100801DA08069
S3150000489010BD10B5DFF8304C00F088F800F04EF986
S315000048A000F049F904F10801DFF8D00C816044609A
S315000048B004F11001C16010BD2DE9F04301F044F888
S315000048C085B00578A846B8F1070F03DB40F2D3217F
S315000048D000F024FB0020A0716A1C208892B201A976
S315000048E0FFF722FFBDF804004FF6FF76B04218BF6F
S315000048F0002856D00DF10409301A39F818108142F3
S315000049004FD1012704E0BDF80410884249D17F1C2D
S31500004910474514DA39F817000100F4D1DFF8601CB6
S315000049200A88208812FB072141187A43711810184B
S3150000493089B280B2FFF778FF0220A071E7E7A0797D
S31500004940022830D020882818C01C00F0F8FFBDF8D7
S315000049500000000B404524D120882818401D00F097
S31500004960EEFFBDF80010BDF80000711A000A01F054
S31500004970FF01884215D10320A07101222088281842
S31500004980401C0DF1020180B2FFF7CEFEBDF8020019
S31500004990FF2802D10420A07105E0B04218BF00280C
S315000049A001D000F003F805B0BDE8F08320465BE7D0
S315000049B070B5DFF8144BDFF8C45BDFF8A46900209C
S315000049C0A071A073A07582B004F10800A8606C60A5
S315000049D004F11000E8602046FFF76EFF04F10800BE
S315000049E0FFF76AFF04F11000FFF766FFA179A07BCD
S315000049F0042908D100210428ADF800102CD1FFF7B6
S31500004A0048FF012076BDA17D042812D1002004298B
S31500004A10ADF80000F3D0FFF7C9FF00F08CF8DFF81F
S31500004A20A43A208900F08DF8060026D10320A07351
S31500004A3034E0042929D10020ADF80000FFF7B6FFC5
S31500004A4000F07CF8DFF87C3A208A00F07AF806005D
S31500004A5013D10320A07518E0A07D0428CFD000F064
S31500004A606DF800F068F8DFF85C3A208800F069F825
S31500004A70060002D10320A0710AE0304602F075F864
S31500004A801EB140F2C73100F049FAA079032805D1DA
S31500004A90A07B012804BFA07D012843D0A07903286C
S31500004AA001BFA17B0329A17D01293BD0022801BFBB
S31500004AB0A17B0329A17D01290DD0012801BFA17B7E
S31500004AC00329A17D012906D0012801BFA17B032965
S31500004AD0A17D032904D104F1080004F1100125E0A9
S31500004AE0012801BFA17B0229A17D03290DD0012840
S31500004AF001BFA17B0129A17D032906D0032801BF9F
S31500004B00A17B0129A17D032904D104F110002146CE
S31500004B1008340BE0032801BFA07B0128A07D0228F2
S31500004B207FF46DAF204604F1080110346860EC6034
S31500004B30A960002076BD04F1100095E604F1080096
S31500004B4092E61B781818DFF814381B88401CC01A28
S31500004B500122694606EB400001F0D6BF2DE9F04F71
S31500004B6000F0F2FEDFF81C9A0078DFF8C8AC85B0DA
S31500004B700D46ADF80C0001222088BDF80C1008186F
S31500004B80461D0DF10201B0B2FFF7CEFDBDF80200E1
S31500004B90000AADF80200761CDFF8DC09B0F80080E8
S31500004BA0BDF8020040451CBF0120287000271BE00D
S31500004BB0401CC1B2414515D2C0B283463AF81B101B
S31500004BC0BDF80A209142F3D1FFF710FE4FF680712F
S31500004BD00840BDF808104FF680721140884208BFA1
S31500004BE009F80B707F1CBFB2BDF80200874207DAD6
S31500004BF0022202A9B0B2FFF797FDB61C0020D8E743
S31500004C00002101E0491C89B2414509DA19F8010081
S31500004C108842F7D00120287002E022F81760064685
S31500004C206088C01EB6B2B0424FF6FF7A6BDB012237
S31500004C3069463046FFF778FDBDF80000FF2750456E
S31500004C4061D0701C01220DF1060180B2FFF76CFDE8
S31500004C50BDF80010BDF80600AAEB0101884261D13B
S31500004C60BDF80010BDF8000001F07F0ABDF8021083
S31500004C70F61C000A884255DA002100E0491C41452D
S31500004C8004DA19F801208242F8D1CFB22388BDF8A0
S31500004C900CC0634403EB4000801D00F05EFDBDF8D0
S31500004CA004006188C0F3C710401C00EBD07006EB0F
S31500004CB0600082B2914235D3FF2FB0D0DFF8A41640
S31500004CC0C95DBAF17F0F0CBF002252468A4208DA4C
S31500004CD0BDF80020DFF8E437DB5D1206D20F9A42FA
S31500004CE002D0012129709AE70129DFF8EC2C94D033
S31500004CF0BAF17F0F32F8171008BF4FF0000A51447F
S31500004D0022F811608BE7A6806088B1B288420BD387
S31500004D1001226946B0B2FFF707FDBDF80000761C18
S31500004D205045F1D00120287000F00EBD2DE9F0416C
S31500004D3082B0DFF8F81BDFF88C37DFF840488DF8D3
S31500004D400000DFF818060288DFF87C070280098871
S31500004D504180DFF824181D780E88DFF8F43BAA1886
S31500004D6002EB4602921D828000228271DFF8042C3B
S31500004D7012880281AA1802EB4602921D1B888281C4
S31500004D80438100228273DFF8F03BDFF8F02B1288B4
S31500004D900282AA1802EB4601891D1B888182438282
S31500004DA00021817501F030FF00284DD1FFF700FE8C
S31500004DB09DF8001008438DF8000001226068008805
S31500004DC02818801CA11C80B2FFF7AEFC9DF80000DD
S31500004DD000283CD16068DFF8E8866946FFF7BEFE2A
S31500004DE0DFF8F80B0788A0688179032921D1694685
S31500004DF0FFF7B4FE6168DFF86C2500200FE0B042D3
S31500004E0002DA135C012B09D138F81030B1F800E052
S31500004E10734524BFB1F802C09C450AD2401CB84273
S31500004E20EDDB02208871A16860686160E168A160BD
S31500004E30E06000204FF6FF7200E0401CB84206DA40
S31500004E4038F810109142F8D101208DF800006078F2
S31500004E5028B101208DF800000020607013E09DF855
S31500004E60000068B960680088281800F0BCFCBDF82E
S31500004E700200C0F30310012808BF8DF8000002D01D
S31500004E809DF80000B8B14D2001F06FFE6088401C0F
S31500004E906080E068FFF7E8FC9DF8000000F053F83A
S31500004EA038B100F087F820B19DF8000000F064FAF0
S31500004EB008B9012000E00020BDE8F681F8B50D46EE
S31500004EC0DFF8B416098817467F2F08BF00278D42E2
S31500004ED03EBFDFF89014495D8F4204461E4605D258
S31500004EE0DFF88414495D8E4200D11CB940F253614B
S31500004EF000F014F839462846FFF789FCDFF8301A27
S31500004F000088495D29B10146284600F078FC2060FA
S31500004F10F1BD32462146BDE8F8404FE40FF6F420D5
S31500004F2001F07ABE10B5044608461146FFF76FFC3D
S31500004F30DFF8282400881288DFF8A41A801A01EB0B
S31500004F404000206010BDF8B5DFF83016DFF81044D9
S31500004F50DFF8E058002814BFC8688868DFF86415D1
S31500004F60008809784018861DB6B2002702E0B61CF4
S31500004F70B6B27F1C00F09FFA874215DAF8B2FFF747
S31500004F8035FCADF80000022235F81700DFF8543A78
S31500004F901B88ADF802006946F01A04EB400001F0E8
S31500004FA0B3FD0100E3D001E00120F2BD01F0DDFD1B
S31500004FB00020F2BD2DE9FF47DFF8BC05DFF8041538
S31500004FC000880978DFF89883ADF80A000025DFF835
S31500004FD0AC05C06800884018BDF80A1000EB410017
S31500004FE0861DB6B200E06D1CBDF80A00854280F24F
S31500004FF0AC80DFF8C804405D8DF808004FF0000A69
S3150000500063E0ADF802004FF6FF70BDF80210401ADB
S31500005010ADF806004FF6FF72D048BDF800100488C0
S31500005020301B761C914208EB4000B6B216D100F058
S315000050309EF801001CD100F09FF8010018D1B61CA3
S31500005040B6B2C9483E80425DDFF89C0950F825108B
S315000050503046FFF788FB002830D17FE0C249495D22
S31500005060491C01EBD1714FEAC15900F080F80100EB
S3150000507071D100F081F801006DD1B61CB6B23E8048
S315000050809DF80800002841D000200390DFF8EC04CA
S31500005090007828B103AA6946A8B201F0B9FD05E077
S315000050A0BDF80010E8B200F0AAFB0390301B4FEAEF
S315000050B0196203A900F00AFA01004CD1DFF82C09A5
S315000050C0405D3618B6B20AF1010AA648445D5FFA99
S315000050D08AF0A04287D25FFA8AF1E8B2FFF797FB1F
S315000050E007463888ADF800009DF80800C00140EA80
S315000050F00520ADF80200012CBDF802000EBF40F0FD
S315000051007F005FFA8AFA4AEA00007AE700270CE095
S3150000511000F027F8FFF708FBB819001B012201A9C8
S3150000512000F0D4F9010016D17F1CFFB2B7EB196F5E
S31500005130C4DADFF8480400780028BDF80000E7D09C
S3150000514000F00FF801F062FDE6E7DFF83004C06812
S315000051508680012002E001F008FD002004B0BDE8D1
S31500005160F087411CADF80010012201A97047012209
S315000051700DF1020101F0C8BC301B01220DF1060140
S3150000518008EB400001F0C0BC2DE9F64F8046DFF881
S315000051906038DFF858081B680C2685B0415CDFF8DC
S315000051A054080288500892FBF6F63618B3424FF0C0
S315000051B00009019128BF481808D2182692FBF6F27A
S315000051C0801A834203D301EB510080B2019000267E
S315000051D0DFF8A87300E0761C00F06DF9864280F2D5
S315000051E0AE80002441E001220DF102011FFA8BF08E
S315000051F0FFF79AFABB68DFF864C19B88BCF800C069
S315000052005748EB18A3EB0C03012200F0AFF801009E
S315000052100BF1010B16D16D1C0498EDB28542E2DB51
S31500005220BDF80010BB684FF6FF70401AADF80200DB
S3150000523001224A489B88058849489B1E5B1B00F053
S3150000524095F8010073D1BB6845489B88DB1E5B1B44
S31500005250012200F06FFB010069D1B868039A8188CA
S315000052601180818851448180641C3E48855DE0B28E
S31500005270A842B0D2E1B2F0B2FFF7C9FA0390B0F893
S3150000528000B03948805D401C00EBD070C005000EB0
S315000052900490BDF81400864202BF9DF81810E0B2D3
S315000052A08842E1D078680288934524BF40885845F3
S315000052B0DAD301981FFA88F880454CDADFF82C0714
S315000052C010F806A0B868828841885244D21C9142E0
S315000052D003DA01207870452029E07849895DCA0102
S315000052E042EA0622ADF80020012DBDF800200EBFCF
S315000052F042F07F02E4B22243ADF80020D044828817
S31500005300D21C4FF001098280B9B15946F0B200F0C3
S3150000531076FABB68114D049A02909B882D88104836
S315000053205B1B02A900F024F801003FF479AF01F0FD
S315000053301CFC002007B0BDE8F08F00256CE7B9F132
S31500005340000F08D1796802208871B9687868796099
S31500005350F968B960F8600120ECE7000086F4020005
S3150000536000700300D0EF0200B0EF02000DF1020161
S3150000537000EB430001F0C8BB2DE9FE4F5FEA000BCE
S315000053807E4DDFF85C8614BFE868A86801220088B5
S31500005390019000F090F8C0F1FF0101F0FF0141EA31
S315000053A00020ADF802000DF102014648047801988C
S315000053B00619DFF830060788701DC01B00F086F856
S315000053C0010053D140F6227040EA0430ADF80200E5
S315000053D00122F01CC01B0DF1020100F077F801005C
S315000053E044D1B01CC01B0122A91C08EB400001F0EF
S315000053F08BFB01003AD1701CC01B08EB40095FEA29
S315000054000B004FF6FE7A05D0FF2000F063F801008E
S315000054102CD109E06868008801226946FFF784F903
S31500005420BDF80000012802D1ADF800A002E0401E40
S31500005430ADF800004FF6FF70BDF80010401AADF849
S3150000544008000122F01B02A900F040F801000DD16E
S315000054502046441E80B270B1019810FA84F0C01B39
S315000054600122694600F032F80100F1D001F07DFB1F
S315000054700020BDE8FE8FBBF1000F17D0E9680320BE
S3150000548088716868FFF7F0F9A868FFF7EDF9EA6830
S315000054906868A968AA60A8606960E8606A60002018
S315000054A0E96000F017F80100E0D102E0A9680320E6
S315000054B088710120DDE730480088704790EF0200D0
S315000054C0E46D002015F902000469002008EB400095
S315000054D001F01ABBADF8020001220DF102014846A7
S315000054E001F012BBF8B50446DFF8000582B0455C52
S315000054F0A088134662882E18F61CB24204DA1F49A9
S3150000550001204870452033E0C01CDFF8EC24A08061
S3150000551080B2525C1946FFF726F960B3DFF8C4047F
S31500005520DFF8BC740688A088C01E801B012202A971
S3150000553007EB400001F0E8FA010019D1BDF80810A8
S315000055404FF6FF70401AADF800000122A088801EB9
S31500005550801B694607EB400001F0D6FA010007D12F
S315000055600899A0880880A0884019A0800120FEBD67
S3150000557001F0FBFA0020FEBDE8F80200E873002007
S3150000558082F40200086F00202DE9F84F84B004462B
S315000055908846914601F059FCFFF78DFFADF80600ED
S315000055A00127B9F17F0F08BF4FF0000984423EBFC3
S315000055B0DFF84814095D894509D2DFF83C149DF8E7
S315000055C01000095D884202D1B8F1000F03D140F600
S315000055D0C401FFF7A3FC49462046FFF718F9012549
S315000055E00646DFF81C048179B6F800A002291FBF21
S315000055F0817B0229807D022802D1432001F0B5FA81
S31500005600CB48005D80B35146204600F0F8F8D8F844
S315000056100010814256D0AAF1030000F09EF8DFF890
S31500005620E453DFF8C833686842881B5D8188D21E60
S31500005630D21A8A4207DB31B1A9680A889245A4BF0B
S315000056404988514575DBE8688079D5F808A00228B5
S3150000565039D1442001F089FAE8688079012832D0EE
S31500005660452001F082FA55E09DF8100002904FF0B7
S31500005670000B22E00BEBDB700AEB600000F05FF939
S3150000568008EB0B0018F80B10407801EB002002998C
S31500005690491E8B4580B207D1BDF8001001F0FF010D
S315000056A000F0FF00ADF80010BDF8001088420BF1C5
S315000056B0020018BF00255FFA80FB02988345D9DBFC
S315000056C0002DA8D040E0A8688179012914D10020D6
S315000056D0FFF739FC002837D00020FFF74DFE0028E1
S315000056E032D0C948BDF80630007800EB4300C01D33
S315000056F04A46214680B204E0032911D14A46214692
S315000057000020FFF741FD28B100F021F85046FFF7D1
S31500005710E9FEC8B93846471EC0B2002812D113E0C8
S3150000572002290CBF40F6B31140F6B511FFF7F6FBA0
S315000057300AE000F00CF8FFF7D5FE28B93846471EF8
S31500005740C0B200287FF447AF05B0BDE8F08F0096E1
S315000057504246BDF8043021467047012201A980B2B5
S31500005760FEF7E2BF70B50446A648A74B40681B7813
S3150000577082B00088C01800F036F8BDF80200002597
S31500005780C0F3031001281AD1192600F033F8BDF82A
S315000057900000641C30B14FF47F41401A06D0FF3838
S315000057A01CD005E0AD1C761EEFD117E06D1C15E090
S315000057B0BDF80000C0B200B96D1CED430EE019261D
S315000057C000F018F8BDF80000641C20B14FF6FF7118
S315000057D0884203D004E06D1C761EF1D168B276BD16
S315000057E0E84340B276BDC01C01220DF1020180B231
S315000057F0FEF79ABF01226946A0B2FEF795BF38B5FB
S315000058000C46002100917C490D5C2A4669462046DB
S31500005810FEF7D4FF681C00EBD07004EB600080B28A
S31500005820FFF7A0FF0028009948BFC04341FA80F067
S3150000583032BD000050EF0200F0B5744909880446F5
S31500005840654883B0264630F816508C4202D2384856
S31500005850805D18B940F66A21FFF760FB6648865DF1
S31500005860701C00EBD07005EB6007B8B2FFF77AFF4B
S3150000587019280FD210FA87F05A4F594B3F8800214A
S31500005880ADF80410C01B012201A903EB400001F092
S315000058903BF960B129462046FFF7B1FF0090334639
S315000058A0401C00907F2269462046FFF76DFEF7BD3B
S315000058B070B500F049F8067882B0354629464D1E87
S315000058C0C9B22088022922DB50FA85F000F037F8A9
S315000058D0BDF800000028F1D04D4920880988EDB2B6
S315000058E06943081880B2FEF733FF0020ADF80000C8
S315000058F0012223883B4C3A482488EB181B1B00F0F6
S3150000590019F8010018BF01F030F9284676BDFEF7F8
S315000059101FFF0120A0713D4920880988801900EBEE
S315000059204100801DA080E8B276BD00008AF4020026
S3150000593090EF0200694600EB430001F0E5B8012252
S31500005940694680B2FEF7F0BE04462F487047000055
S31500005950E2F802002A488179022908D0817B0229CF
S3150000596008BF083003D0817D022901D110309FE79E
S3150000597000207047E0F80200E6F80200E4F80200B2
S3150000598070B5FFF7E1FF067882B000250CE02088AD
S3150000599050FA86F0FFF7D3FFBDF8000000281EBFBF
S315000059A04FF6FF7188426D1C3046461EC0B2002875
S315000059B0EDD1E8B276BD12488179022908D0817B03
S315000059C0022908BF083003D0817D022901D1103099
S315000059D0D6E7002070470000E46D0020EAF80200D8
S315000059E00070030086F4020020F202006CED020053
S315000059F068ED02007EF40200B0EF0200D0EF020074
S31500005A0004690020E873002015F90200E8F8020096
S31500005A1082F4020073696D2D656570726F6D322DAB
S31500005A20696E7465726E616C2E63000062F30F22FC
S31500005A3062F31F42401810F0030308D0C91A1FD39F
S31500005A40DB0748BF00F8012D28BF20F8022D130000
S31500005A5030B414461546103928BF20E93C00FAD860
S31500005A60490728BF20E90C0048BF40F8042D8900EB
S31500005A7028BF20F8022D48BF00F8012D30BC704722
S31500005A80C91818BF00F8012DCB0728BF00F8012D53
S31500005A907047000080B50121724801F0A3FA7248F0
S31500005AA001210160002001F026FE012304220221CB
S31500005AB0052001F064FE0120FEF7C2FD00F00EF89D
S31500005AC0FEF7EFFD01F053FF0123402267496848C6
S31500005AD001F018FF67490860C00F02BD70B50122CA
S31500005AE00121042001F09CFC6348644D016841F0EB
S31500005AF0010101600023C268614942F08072C26000
S31500005B0000226048086002245F48026015265F4A4A
S31500005B1013602C6000245E4B5E4D1E6004640D65B0
S31500005B205D495E4B11604FF480721A60046844F45C
S31500005B308074046070BD5048006800B10120C0B296
S31500005B407047D12202704170090A817054490A785F
S31500005B50C2700420521C0A7070472DE9F14FDFF81D
S31500005B6044A1DFF844910446DAF8000082B0065DED
S31500005B7001F008FF761DF6B2002700904FF6FF7879
S31500005B8042E0B91E9DF80800C9B200F034FB054694
S31500005B90414601F05BFF804627E0B54239DA01F065
S31500005BA0F1FE0099401A80B240F2F512904230DAC6
S31500005BB0F8B210B95B25012718E0012804D1DAF8FC
S31500005BC00000055D022711E0F01E854207F1010B7A
S31500005BD008BF454609D0B11E8D4208BF4FEA1825B9
S31500005BE003D0701E8542CCD15D255F4627480168EB
S31500005BF0CA0709D524480168CA0505D5D9F80000A1
S31500005C000028FBD089F800501B4908680028FDB21F
S31500005C10C3D1B5420CBF00200120BDE8FE8F10B5F0
S31500005C2020490A68145C042C01DA012010BDBDE885
S31500005C30104092E710B50F4B186890B040226946A5
S31500005C4001F049FE58B1C1B2684600F0B0F9044609
S31500005C502146122000F0A1FE204600F025F910B0E2
S31500005C6010BD00000025080010881442687300204B
S31500005C709CF3020000690020F0ED00E0F00004E073
S31500005C80B00F00E055CEACC5000E00E0800E00E07F
S31500005C90100004E0FF0300400D000100040304E0CF
S31500005CA0CD7D002010680020200000E02DE9F8419D
S31500005CB004460125012C18BF202C93B00F469046B0
S31500005CC01E4623D10AA83949242201F0E1FE68467E
S31500005CD00AA9242201F0DCFE1020012C18BF202C7A
S31500005CE0ADF82400ADF8260008D0022C18BF212CF0
S31500005CF004D0032C1CBF222C232C14D1012E019777
S31500005D00ADF80C8004D14FF4805005E001200BE083
S31500005D10022E03D14FF44050ADF80A0069462046E2
S31500005D2002F05AF90546E8B214B0BDE8F08180B534
S31500005D3002F0F5F9C0B202BD80B502F053FAC0B266
S31500005D4002BD2DE9F84380460F4614461D46184EFF
S31500005D5002E03068C75D203CE0B22028F9DAE8B2FC
S31500005D60B0B1C4F120005FFA85F9C0B2814588BFA1
S31500005D708146384600F022F8E4B201194A46404608
S31500005D80FFF7DAFF3068C75DA5EB09050024E6E7F3
S31500005D90BDE8F2830CB480B50A46014602AB05485D
S31500005DA000F0F9FB02BC00205DF80CFB8CED020054
S31500005DB0186800209182000070470000DFF81C1769
S31500005DC0096801EB40107047DFF814271268115478
S31500005DD070472DE9F041040035D002F0C8FADFF82B
S31500005DE00417DFF804370E78FF228046FE2EDFF810
S31500005DF0FC061BD100260E70DFF8F4C6DFF8F46649
S31500005E0037781F70002708E007F1010E05F807E054
S31500005E10DCF80050EA555FFA8EF796F800E0056860
S31500005E207745F1DB05EB0E0606F8012C1E78A64237
S31500005E300BD2404602F0A1FA0520FEF737FC0021FE
S31500005E401B2002F0DFFCFF201EE0361B1E70DFF871
S31500005E50A8360E780F78D3F800E001250EF8075023
S31500005E60641E056815F807E081F800E05FFA84FE15
S31500005E70BEF1000FEED1EA5500213046FFF7A4FF30
S31500005E80404602F07AFA3046BDE8F08110B5044685
S31500005E9002F06DFADFF8601609680A5D521C0A55B1
S31500005EA0BDE8104002F069BA2DE9F041054600F060
S31500005EB031F8044602F05BFADFF82826DFF82836C8
S31500005EC0DFF82866DFF83086FF2D1FD0D8F80010DF
S31500005ED04F5D7F1E4F557F27D8F800E01EF805104E
S31500005EE0394213D13168495D00270EF805701F78D5
S31500005EF07F1C1F70FF29376892F800E007F805E05D
S31500005F00157006BF2546FF240D46DDE7BDE8F041C6
S31500005F1002F033BA80B5DFF8E0150968095C0906B6
S31500005F2003D5FFF74BFF007802BDFF2002BDB0B5D9
S31500005F3004460D46FFF7EEFFFF2818BFFFF7B4FF34
S31500005F40FF2DDFF8B47504D13868015D01F07F01DB
S31500005F5006E02846FFF79AFF3868015D41F08001A8
S31500005F6001552046FFF72AFF0570B0BD0EB478B57F
S31500005F7004460120FFF72DFF0546FFF71FFF0646E3
S31500005F80FF2D08BFFF200FD0E1B22846FFF71CFF08
S31500005F9005A8002104E050F8042B06F8012B491C43
S31500005FA0C9B2A142F7D3284672BC5DF810FB70B5A2
S31500005FB004460D4605F11F000004400D82B0C0B234
S31500005FC0FFF707FF0646FF2E0CD02946FFF7FCFE1B
S31500005FD03CB1012000902B4600223146204600F0BD
S31500005FE002F8304676BD73B500F0D0F8405C154631
S31500005FF01E467119884203DA40F2651100F0EBF88B
S3150000600030000CD0294601A800F0E9F802460698AF
S315000060109DF8041000903346204600F001F873BD49
S315000060202DE9F843089CDFF8C484054689461646E0
S315000060301F460BE06A5C4254491CB142FADBD8F8B1
S315000060400000BF1BAD1910F809900026F8B2D0B1B8
S315000060504846FFF7B3FE801956FA87F12029B9BFE3
S31500006060FFB23E46C6F12006F6B22100324604D102
S3150000607001462846FEF778FAE1E7012C08BF2946D3
S31500006080F8D00021D9E7BDE8F1832DE9F04100F011
S315000060907DF882B0055D884616467119C9B2A942D7
S315000060A01F4605DB30000CD0204600F05DF808B135
S315000060B0182007E0009733462A4621464046FFF758
S315000060C092FF0020BDE8F6810123DEE70A4600E0E4
S315000060D0521C1378002BFBD1521A0223D2B2D4E7FA
S315000060E02DE9F041054601F11F00C70402F11F002A
S315000060F0C0043F0E000E07B9012700B901208742F0
S315000061002CD0DFF8E8431BDAC01BC0B2FFF761FEF4
S315000061108046B8F1FF0F08BF002020D07F1E00F098
S3150000612020F82668305CFF2804D000F01AF8305CAE
S31500006130FFF7BAFE00F015F8216801F800800DE0BF
S315000061408A420BD2411EC9B200F00CF805462068FF
S31500006150405DFFF7A9FE2168FF2048550120BDE8F4
S31500006160F081F9B2284616E038B500F00FF80D4672
S31500006170015D2A462046FFF7B3FF28B1294620468F
S31500006180FFF722FE002032BD182032BD0446DFF89C
S3150000619050030068704704E0DFF850231268105C73
S315000061A0491ECAB2002AF7D1704711B50C46DFF86E
S315000061B03013096881B0095C8C4203D340F2012197
S315000061C000F009F8214601A800F009F8044600F09D
S315000061D033F9204416BD0FF2343000F01DBD38B53A
S315000061E004460D46E9042078090EFFF7D4FF207017
S315000061F005F01F0032BD80B5FFF7D7FF007802BD5E
S3150000620010B51446FFF7D1FF047010BDB0B5FFF707
S31500006210BDFF82B0055DFF2C03D140F22121FFF7BF
S31500006220DAFF05F11F000004400DC0B2FFF7D1FDF3
S315000062300746FF2F0AD02946FFF7C6FD0095002323
S3150000624022460021384600F0C6F83846B6BDF8B5F5
S3150000625004460D4616460120FFF7BBFD0746FFF72D
S31500006260ADFDFF2F01D1FF20F2BD33462A46202186
S31500006270204400F020F82118C9B23846FFF7A4FDE3
S315000062803846F2BD10B582B004AC009400F001F8B7
S3150000629016BD10B514461A46029B2044091BBDE8DC
S315000062A01040C9B207E00CB480B502AAFFF7CFFFD1
S315000062B002BC5DF80CFB2DE9F047814614469A4670
S315000062C04F46002588460AE032463846FEF74CF926
S315000062D07019BF19451EEDB26D1C641CEDB2454523
S315000062E03BDA2078010038D0312818BF32280ED189
S315000062F05AF8041B07F8011B3228EDD16D1CEDB2CC
S31500006300A845A4BF081207F8010BE5DA25E03428F2
S315000063100ED1291D5AF8040B88451EDB3870010A78
S315000063207970ED1C010C000EB970F8703F1DD2E7B4
S31500006330A0F133025AF8041B072A38BFA0F1300631
S3150000634007D3A0F14102072A34BFA0F137065AF855
S31500006350046BF6B270194045B6DBA7EB0900C0B274
S31500006360BDE8F0875F49FE200870704770B500F001
S3150000637027F800F003F8301880B270BD06022946EF
S31500006380204638E700B583B002238DF80420120AB0
S315000063908DF805200122009217E0F8B500F010F8FC
S315000063A0FFF7ECFF8619E91CC9B2FFF7E9FF070200
S315000063B0A91CC9B2FFF7E4FFC01906EB0040F2BD05
S315000063C00D46691C0446C9B215E70A46014601A8EE
S315000063D0FFF709FE07BD2DE9FC4405B40A9C200021
S315000063E01F4627D089B26846FFF7F9FE0646B9B2BE
S315000063F001A8FFF7F4FE0746BE42A8BF3046A4B286
S31500006400C0F120002546C0B2A842B8BF054600F03C
S3150000641013F882469DF80000FFF7D0FC2A460AEBE7
S3150000642007013044FEF7A0F8641BA919EF19A0B2C2
S315000064300028D7D1BDE8FF849DF80400BEE470B5FE
S3150000644004460D4601F093FF294B21781B68FF296E
S3150000645008BF5D5503D019440E785E550D70257042
S31500006460BDE8704001F089BF38B5044601F07FFFF2
S315000064702178FF22FF2908BFFF2507D01C4B1B6888
S315000064805D5C8D420EBF22705A5D5A5401F075FF55
S31500006490284632BDF8B504460D4601F068FF21785E
S315000064A00026FF2915D0124B1B680A46012602E07A
S315000064B0761C3A46F6B29F5CAF4208D1DF5D9F5428
S315000064C0A94206D18A4208BFFF22227001E08F420C
S315000064D0EED101F052FF3046F2BD00000C680020FC
S315000064E010680020CF6B0020B16B002018680020D8
S315000064F01C680020B06B0020146800200078FF287C
S3150000650001D1012070470020704700007061636B65
S3150000651065742D6275666665722E630070B51346E6
S315000065201044DCB264B101F00F060909451E0A2EBB
S31500006530ACBF37243024A41928462C705B1EF0E724
S31500006540104470BDF0B5002341B1002806D52D23B7
S3150000655013700123B0F1004F18BF40420021002400
S315000065608A4D002601E0C01B761C55F82470B842FF
S31500006570F9D2F7B20FB90F0004D0D9B2303656545B
S315000065805B1C0121641C092CEBDBD9B23030505462
S315000065905B1CD8B2F0BD2DE9F84F824696B04FF09D
S315000065A0000914A8884617461D4604ACCB46019040
S315000065B012E04FF0010B074600E0044601988442C2
S315000065C009D39DF80020A41A00F0D4F8002851D170
S315000065D059FA84F904AC7F1C04A88DF800009DF8D4
S315000065E000003978201A00290FD0252905D05FEA46
S315000065F00B0208BF04F8011BE0D05FEA0B0114BFD1
S315000066004FF0000B7F1C39780A0000F0A680B1F12C
S31500006610250216D00B3A092A40F28080283A75D016
S315000066200A3A12D0521E3CD0521E57D0083A55D0C4
S31500006630121F39D0D21E37D0921E4FD0D21E65D02F
S31500006640BCE7252004F8010BB8E729686A680391BE
S315000066502046083502920024029A9442ADD203994C
S31500006660095D0222FFF75AFF0199884206D300F01E
S3150000667085F800287AD159FA86F904A80299491EA4
S315000066808C423CBF202200F8012B0199884206D398
S3150000669000F074F8002869D159FA86F904A8641C38
S315000066A0DAE755F8040BCDE755F8046B044600F01D
S315000066B061F800285AD159FA84F9314604AC0646E5
S315000066C000E0761CF0B2085C0028FAD1F2B240462F
S315000066D0D04700284AD159FA86F96FE76C290AD1C2
S315000066E07A7855F8040B752A0EBF00210121642A19
S315000066F007D17F1C05E0752955F8040B0CBF002156
S3150000670001212246FFF71EFF241857E755F8041B00
S315000067100222C9B22046FFF701FF4EE778787828B3
S3150000672018BF58284FF0010BEFD17F1C781E322975
S315000067304FF0000B04D155F8040B81B20422E9E7AF
S3150000674034297FF436AF55F8046B0422310C204609
S31500006750FFF7E4FE0422B1B2DDE70546EAB200F037
S315000067600AF818B9A9445FFA89F000E0002017B0CA
S31500006770BDE8F08FE2B204A9404650479DF80020DC
S31500006780861AF2B204A940465047000078F3020088
S3150000679070B5FFF74FFAAA4C2046FFF7AFFED8B9FF
S315000067A02046FFF761FEFF28044615D0A549096873
S315000067B0085C851EE9B22046FFF7D8FD0646E9B219
S315000067C02046FFF7D1FC2146304600F0E6F8204689
S315000067D0BDE87040FFF768BB70BD03460A4697A147
S315000067E00420FFE70CB480B502AA00F02BF801BC28
S315000067F05DF80CFB00B587B002F0D6F900210591D3
S3150000680002463021049100236221039101200021D8
S31500006810029101918C4900910FF23C21FFF7E2FFB2
S315000068208A488179C37882780391018802914179F7
S3150000683001910179009142200FF22821FFF7D2FF42
S3150000684007B000BD2DE9F04F85B005460C469046D1
S31500006850FDF73BFF0026F8B9FFF76DF9E0B101201F
S31500006860FFF7B7FA8246BAF1FF0F15D00021FFF7FE
S31500006870ABFA294601A8FFF764F905469CB900F072
S3150000688087F830B95046FFF7CAF910B10420FDF772
S315000068900DFF5046FFF708FB05B0BDE8F08F8DF8F9
S315000068A004200125641C20780100E8D0A0F1300105
S315000068B00A2905D20A2101FB0600A0F13006F1E7FC
S315000068C000F066F80028E4D122780025422A01A8C3
S315000068D00ED0442A1AD0462A25D0572A0DD0622A2D
S315000068E03AD0662A2AD06C2A25D0702A26D0D6E736
S315000068F058F8040B8DF80400D3E758F8041B8DF8FC
S31500006900041002250904090E4170CBE758F8041B50
S315000069108DF804100A0A427004250A0C8270080ECB
S315000069208DF80700BEE758F8041B5046FFF7CEFB6C
S315000069300028B7D0ADE758F8046BB3E7012358F841
S31500006940041B662A08BF0223F2B25046FFF79DFBDE
S31500006950002808BF0026ECE73A4858F8047B006890
S3150000696010F80A90FFB2FF2F9CD010F807B00BEB7F
S315000069700901C9B25046FFF7F7FB002889D1CDF8C7
S3150000698000B000233A4649465046FFF724FD89E702
S315000069902A4601A95046FFF797BB2DE9F043122876
S315000069A085B080460D4609D03A281FD04FF6FE71B5
S315000069B0884204BF284600F0D0F836E02148244F2C
S315000069C00068465D0BE02846FFF7F8F901462246C7
S315000069D0002001F0C3FA3868455D203EF6B2FF2D6F
S315000069E023D0212EACBF20243446ECE702F072F906
S315000069F0814602F0C9FF064602F04DFB074602F04B
S31500006A0046FB044602F0BCFF02460F480FF25C014B
S31500006A100390CDF8109023460E48006840880290F7
S31500006A20019600973B20FFF7DDFE2946404605B05C
S31500006A30BDE8F043FDF76ABE0000000057460000BF
S31500006A402869002010680020587700208CF4020086
S31500006A501868002044770020424238704242424281
S31500006A605742420042424242574200005742425772
S31500006A705738704200000000DFF800F0D9660020A9
S31500006A80DFF800F06D660020DFF800F0D566002024
S31500006A9038B504460D4603F03FFB012C02D1FFF743
S31500006AA0EBFF02E02846FFF7EBFF18B103F03DFBD2
S31500006AB0012032BD03F039FB002032BD10B5C207FC
S31500006AC082B01BD402884FF6FF739A4201D00A00A7
S31500006AD014D18408A400800722684EBFC2EA014090
S31500006AE0100C41EA0040009003F016FB04226946B0
S31500006AF02046FFF7C9FF18B103F017FB012016BDAA
S31500006B0003F013FB002016BD70B504460D4616466D
S31500006B1004E003F00AFB241D2D1DB61EB6B1012E9E
S31500006B2001D0A00706D535F8021B2046FFF7C6FFA1
S31500006B30A41C761E022EF1D303F0EEFA0422294697
S31500006B402046FFF7A1FF0028E3D001E0002070BD3A
S31500006B5003F0EBFA012070BD70477047019870474B
S31500006B6070477047702003F004BB70B50446433885
S31500006B701E4D08D0401E012809D9801E01280ED9B5
S31500006B80C01F31D029E0BDE87040FEF7E3BEFEF736
S31500006B9012FF20B1FEF7DEFE0028FBD170BD144EB9
S31500006BA0307808BB01213170FDF78CFC442C11D0E4
S31500006BB00CD3462C05D00DD3472C07D140F6010047
S31500006BC001E040F6020003F0F9FC03E0EE2128465E
S31500006BD000F022F80020307070BD2846BDE87040F5
S31500006BE04FF4807100F018B870BD000024F4020064
S31500006BF0D17D002070470020704770477047002005
S31500006C007047704702F0B1B9002070470120704705
S31500006C107047000042DE704738B504460D4602F064
S31500006C200DFC00F012F903F08DFD29462046FFF712
S31500006C30D4FD2B4622466D490120FFF7ABF82946C5
S31500006C402046BDE83440E5E769482DE9F843694E3A
S31500006C500168B1654FF42068026A6749F2650B68FE
S31500006C60336649687166426AB266816AF166C26ACB
S31500006C703267016B7167806B96F83810B06748070A
S31500006C804CBF346CF46B03F030FD00223265844255
S31500006C90DFF868E1014624BFAEF12007A742A1460E
S31500006CA0716506F19002564BDFF858C118D3A069FA
S31500006CB07064E469B464B56DC5F30805062D13D197
S31500006CC0604511D398420FD200884DF64264A04227
S31500006CD00AD17068B4685060946040F2017803E0AD
S31500006CE000247464B46481464748814238BF014633
S31500006CF0084670456AD20C68B4F1CD3F08BF091D3D
S31500006D00F6D063E0062C09D1C4B2002C0CBF0520D6
S31500006D10401E06F17C04C5B244F82510F14520D288
S31500006D205EF8041D6145F9D39942F7D2CC07F5D533
S31500006D30002406F17C0555F824708F42E2D0641CCD
S31500006D40062CF8D3DEE7F16F002306F17C0506EB8F
S31500006D508304D4F8804045F823405B1C042BF6D905
S31500006D6011600146481EC9B20029ECD1B06DC0F3CE
S31500006D700800032810D0042811D0052812D00628B0
S31500006D8013D00C2817D0122818D120480268910772
S31500006D9019D540F2025816E040F6012813E040F6F5
S31500006DA0022810E040F603280DE0B8F5206F0AD15E
S31500006DB040F6042807E040F6052804E018B132281A
S31500006DC038BF40F607284046BDE8F2831049081A46
S31500006DD0F0640021002006F17C04C5B2401CC7B255
S31500006DE044F82510062FF8D3002097E7F4ED0200AB
S31500006DF004ED00E00000002000E300E0286500202C
S31500006E004ADD0200C44400009C0000201C2005400E
S31500006E102865002003F09ABC10B50121154800F042
S31500006E20E1F80421072003F093FC13481349144B9F
S31500006E30016004221A600224124A4462042111608D
S31500006E40836A43F00203836210BD0B4803F0D0BC93
S31500006E50A52806D108480068C10702D50A4A0020BD
S31500006E60106070470448016811F0010018BF012046
S31500006E7070470000000508000020054001080300D7
S31500006E8080E200E000E100E00000A442890001EB9E
S31500006E90401101F184410A607047890001EB4011FD
S31500006EA001F18441086870470122DFF8641510B5C6
S31500006EB0884232BF0022DFF85C15884201D21446B0
S31500006EC000E002241021DFF85005FFF7DFFFDFF8AE
S31500006ED01407016821F0807141EA0461016010BD68
S31500006EE0DFF83815DFF82C360A6802F0407298424F
S31500006EF038BF002204D3DFF84037984238BF01225A
S31500006F00086820F0407040EA02600860704738B5B3
S31500006F1000F013F841F67130286003F082FC00217E
S31500006F2005E038B500F009F841F671322A60FFF73E
S31500006F30D7FF0CB10020286031BDDFF820572C6840
S31500006F4004B101247047C01C0F2801D20007704706
S31500006F504FF070407047000038B50446002500F039
S31500006F602BF9DFF88426DFF8EC15944208D0DFF819
S31500006F707C26944206D0DFF87826944204D006E0B8
S31500006F80086802E0486800E0886800F00700401ED4
S31500006F9003281BD8DFE800F002050C0803F084FC88
S31500006FA004E003F087FC01E003F081FC05460DE0F8
S31500006FB003F02AFCDFF8A8160968090E01F00101A2
S31500006FC00122491C02FA01F1B0FBF1F5284632BD57
S31500006FD0DFF890164A68D30702D40A680242FCD149
S31500006FE07047000070B50C460246110A01F00F0109
S31500006FF00020491E0929DFF8785613D8DFE801F08A
S3150000700005131212071518121B1FDFF80C54C2F3D2
S31500007010043608B1FFF7DCFF224631462846BDE8B4
S31500007020704033E770BD1035F1E730350120EEE7EB
S3150000703038351020EBE740354FF48030E7E7DFF8CE
S315000070403456E4E770B50246DFF81C06DFF89815FB
S315000070500668DFF89805DFF88C45012512F47812EA
S3150000706059D0B2F5003F28D0B2F5802F21D0B2F525
S31500007070002F50D0B2F5202F25D0B2F5402F42D0A8
S31500007080B2F5602F62D0B2F5901F37D0B2F5A01FCF
S3150000709024D0B2F5B01F28D0B2F5D01F1CD0B2F55F
S315000070A0E01F2DD0B2F5001F28D0B2F5381F35D01D
S315000070B04BE003F0B8FBE16802E003F0B4FBA16823
S315000070C0C1F3082104E003F0AEFB6169C1F30421BA
S315000070D0491CB0FBF1F639E0084611E00846FFF717
S315000070E03BFF216A01F00F0104E0FFF735FFA16ABB
S315000070F001F003018D40B0FBF5F627E0DFF8F00460
S31500007100FFF72AFF1FE0DFF8700500F055F80728A3
S315000071101CD0092819D103F086FB14E0DFF85C05C2
S3150000712000F04AF804280CD007280FD008280CD104
S3150000713003F079FB06462068C0F30420401C464352
S3150000714004E003F08CFB064600E00026304670BDE6
S3150000715001460B0903F00F0301205B1E072BDFF826
S31500007160842427D8DFE803F004060A0E10141C2630
S31500007170106800E05069C0F3042070471068C0F33F
S3150000718000607047D06800E09068C0F30820704740
S31500007190DFF8EC3499420DD1116A01F00F0106E0D7
S315000071A0DFF8E034994205D1916A01F00301884085
S315000071B0401E704700207047014601F00F01012074
S315000071C0491E0729DFF8C42449D8DFE801F0040F77
S315000071D01348202E4836506A00F0070002283AD09D
S315000071E002D3042804D01CD30520704711690FE090
S315000071F002207047516901F00701491E03292FD863
S31500007200DFE801F00F020311F2E7062070479169EB
S3150000721001F00701012904D00229E9D0042902D08E
S315000072207047032070470A207047116811F001016A
S315000072300FD0012914D109207047DFF854140A68C9
S3150000724002F03002102A04D0202A04D0302A04D0BA
S3150000725070470720704704207047082070470020B9
S315000072607047000070B500F00F0003250326401E8E
S315000072700728DFF818440ED8DFE800F0042D317631
S315000072802F5976640229624806D003291AD00429A8
S315000072901AD005291DD070BD042500260122012122
S315000072A0304600F0BDF8FFF732FE6560DFF8D80320
S315000072B0FFF7C8FEFFF7F8FD03F0A6FABDE8704039
S315000072C000212EE60126E9E702250226FFF7ECFD5E
S315000072D0E4E70125FAE7103402E0183400E014343C
S315000072E0012929D0022906D003290BD0062910D05E
S315000072F00A291AD070BD01220121002000F090F861
S3150000730002201AE001220121012000F089F8012063
S3150000731013E003F079FAFFF7C7FD01220021DFF839
S315000073205003FFF7B3FD032007E0042005E007291B
S3150000733002D0092903D070BD0020206070BD012154
S31500007340216070BD012906D0042915D007290CD06B
S31500007350082918D070BD0020DFF834130A6822F01F
S31500007360300242EA00120A6070BD012201210420A7
S3150000737000F056F80120EFE701220121022000F07B
S315000073804FF80220E8E70320E6E770B500F03DF885
S3150000739001220021022000F043F8217CDFF8F85298
S315000073A000200229296808BF0120490840EA410057
S315000073B02860082122782846FFF768FD6968E07A88
S315000073C0C90840EAC1016960607AA18840EAC12023
S315000073D0A860EE68207AFFF7B6FDE288A17A06F08B
S315000073E07F6646EAC226227A0E4346EAC21606435C
S315000073F0EE60A17B607B227B090141EA0031E07BE4
S31500007400014341EA0241296170BD04461120D3E6D9
S315000074100148E8010190D00300400E4004000E40F0
S315000074202DE9F84F0428834692466BD8DFE800F032
S315000074304C473D0342000127022001250026002972
S31500007440DFF82882944C5FD0BBF1020F02BF2068A0
S31500007450C0F3011000284FF000090AD12068C107C7
S315000074604FF0010905D5206820F0300040F01000EB
S315000074702060E76300F050F80028FBD0BAF1000F57
S3150000748040D0294600F049F80028FAD0BBF1020F97
S3150000749038D1B9F1000F35D02068C1071BD50122BC
S315000074A02021022000F0CAF819E00427082003254D
S315000074B00226C4E71027202005250426BFE740271B
S315000074C0802007250626BAE74FF480774FF4007030
S315000074D009250826B3E70021022000F08BF80220D8
S315000074E000F01EF80646012200210220FFF798FF51
S315000074F03146022000F030F8E763294600F00DF827
S315000075000028FAD0BDE8F18FE06300F005F8002806
S31500007510FBD1F7E741787D0131464046FFF7BDBC18
S31500007520401E03285B4912D8DFE800F0020C06086B
S315000075300869C0F308007047086800E0886800F032
S315000075407F00704755480068C0F30A007047002066
S315000075507047000080400E40F8B5401E0D460328D7
S3150000756005F07F064B4C3F4F3BD8DFE800F0022882
S31500007570101CC5F308051A213846FFF78EFC0028B3
S31500007580F9D12069400A45EA40252561F1BD182157
S315000075903846FFF782FC0028F9D12068C00946EA80
S315000075A0C0162660F1BD19213846FFF776FC002883
S315000075B0F9D1A068C00946EAC016A660F1BD2B48FD
S315000075C00168626922F0300242F010026261C5F37E
S315000075D0C310FFF7B8FC226A31490A401543054338
S315000075E02562F1BD00410E4002001A0003001C0096
S315000075F005002000284A1068C0F30110002818BFB3
S31500007600002911D0202902D030290DD00FE04FF4E7
S315000076100000D16E01408142FBD1400209D5D06FF6
S31500007620800A00F0010070474FF44000F1E71D4862
S31500007630EFE7012070470000015A620202280BD1D1
S31500007640080004D018484FF4806343640160002AA0
S315000076501CBF0220FFF7CEBF0120704740000E403E
S3150000766000410E4040410E40D868002090400E4038
S31500007670B0400E4050410E4006000C0098002E000F
S3150000768060061400700716000005080070400E40E2
S315000076905C410E4010400E4024400E409C400E407F
S315000076A000F8FF0FFF03E10764400E40890001EB7D
S315000076B0401101F184410A60704700F1806300F1D6
S315000076C0C06019600260704710B500F00DF804F153
S315000076D0806404E010B500F007F804F1C0640123EB
S315000076E003FA01F1216010BD3022404B504318448B
S315000076F000F10C0470473E490A68920840EA82008D
S31500007700086070472DE9F04101F003051646032491
S315000077100F21082E98460CD2B70000FA07F2B9409E
S315000077203448FFF7CAFF05FA07F204FA07F13248B0
S315000077300DE0A6F10802970000FA07F2B9402F48BB
S31500007740FFF7BBFF05FA07F204FA07F12C482D4FA5
S31500007750FFF7B3FF079C069D2B4842463146FFF7CD
S31500007760A5FF2A4631463846FFF7A0FF2246314696
S315000077700120B0403861BDE8F041244896E7F8B5ED
S315000077800546174638000E461C4607D0002C2846EC
S3150000779002D0FFF79FFF01E0FFF796FF2A46302051
S315000077A01249424388180F22082E05D2B3004168B9
S315000077B000F015F8416006E0A6F108039B00816819
S315000077C000F00DF881604FB9002C3146284602D0F2
S315000077D0BDE8F4407EE7BDE8F44075E7F1BD9A40A8
S315000077E021EA020207FA03F11143704700A00040A4
S315000077F044A4004000A4004008A4004004A40040A3
S315000078000CA4004014A4004010A4004028A400408A
S3150000781010B5DFF85C41DFF85C11E16103202061FF
S3150000782060611022DFF85001A06122620021A1628E
S31500007830E16220660022DFF8440162621021606680
S31500007840A1662267E2662EA16267E31D0868DFF87B
S31500007850301118600722204600F01AF92023A37180
S3150000786010BD2DE9F843DFF808510446287888460C
S31500007870914608B9FFF7CCFF18204443281900F1B8
S31500007880600600243769F568BD4212D2B468706894
S31500007890E41B4C4588BF4C46C1192246404600F0C1
S315000078A0E7F8B168E7198F42A044A9EB040908BFBD
S315000078B00027ED1B4D4588BF4D463DB17068C11987
S315000078C02A46404600F0D4F82C19EF1904B1376166
S315000078D02046BDE8F283F8B504460D46164600F08C
S315000078E046FD0746324629462046FFF7BAFFFFE720
S315000078F00446384600F041FD2046F2BD0000000077
S31500007900525454002DE9F84300F02AF808B9FFF75D
S315000079107FFF00F02CFD726901460027182306F14F
S31500007920640C03FB07FE5CF80E0010B17F1C974247
S31500007930F7DB97420BDA7B43F018002204664566B4
S31500007940C0F868800267C266C0F8749001E04FF024
S31500007950FF37FFE7084600F010FD3846BDE8F28322
S31500007960034E044630780D469046994670474FE7D9
S31500007970006C0020A8730020ACF30200B87300204E
S31500007980B8F3020080B503F033F903F03EF980B294
S3150000799002BD80B503F02CF903F037F9FA21B0FBEC
S315000079A0F1F080B202BD80B503F022F9BDE80440D3
S315000079B003F02BB980B503F05CFA1348002141604F
S315000079C0001D02F097FF20B139210FF26C00FFF77E
S315000079D023F9002002BD0C4901200870704770B5DC
S315000079E0044682B02268002502B911E000F002F8D0
S315000079F0012011E0044E054B35700095002170689A
S31500007A0002F0F1BF00000000F8730020D7790000F3
S31500007A1003F0EEFA002076BD03F076FB307828B945
S31500007A207068214603F094F8852501E025603570DD
S31500007A30284676BD00F008B873797374656D2D74A9
S31500007A40696D65722E630000704700000A0A42EAFB
S31500007A5001225040C0F30311484080EA0030410142
S31500007A600206C9B2D20E41EA0221484080B27047EE
S31500007A7062B38B0708D0521E11F8013B00F8013B98
S31500007A8000F024808B07F6D1830740F0208000BFEA
S31500007A90103A07D330B4B1E83810103AA0E83810DD
S31500007AA0F9D230BC530724BFB1E80810A0E808108B
S31500007AB044BF51F8043B40F8043BD20724BF31F8D9
S31500007AC0022B20F8022B44BF0B7803707047121F5D
S31500007AD017D35B0009D151F8043B20F8023B1B0C7D
S31500007AE0121F20F8023BF6D20BE051F8043B00F8D7
S31500007AF0013B1B0A20F8023B1B0C121F00F8013B3E
S31500007B00F3D238BF121D521E24BF11F8013B00F8F4
S31500007B10013BF8D870470000012200F01F01DFF892
S31500007B20A43704E0012200F01F01DFF89C378A40E9
S31500007B30400943F820207047012200F01F01DFF8BA
S31500007B408C37F4E710B5012818BF2028DFF88047E6
S31500007B5005D04FF4BD71DFF87C07FFF75DF82046CE
S31500007B6010BD426893884089411A8B4201DA012090
S31500007B707047002070473EB5012818BF202832D133
S31500007B80012818BF20282ED1FFF7DCFF044600F09D
S31500007B90EEFB0546A06901AB6A4602A904F044FA69
S31500007BA000992289206889B200F027F8284600F05B
S31500007BB0E4FBA06904F0B2FA012814D122682189F5
S31500007BC09088228A091A91420DDBA06990F831103B
S31500007BD0022903D104F026FA022802DA00F008F896
S31500007BE001D100F001F837BDA069002104F06DBA9B
S31500007BF0A06990F831100129704770B504460E4609
S31500007C00154600F0B4FBE288B2420CD221888B1AEA
S31500007C10991991FBF5FC05FB1C152580A388F31823
S31500007C209A1AA280E680BDE8704000F0A6BBF8B5BF
S31500007C30012818BF20280C46154616D1FFF782FFEB
S31500007C400646307B10B101217173F1BD707B18B10E
S31500007C503046BDE8F240B1E00FF2C91700F006F871
S31500007C6018B100F003F80028FBD1F1BDB0693B461E
S31500007C702A46214604F030BB70B505460E46FFF78E
S31500007C8061FF012D18BF202D044640D1A06901686F
S31500007C9090F83200E8B904228A6400F047F9A06936
S31500007CA00068C16C002E07D041F00401C1640B20AE
S31500007CB0FFF732FF052106E021F00401C1640B2025
S31500007CC0FFF730FF0021A0690068BDE8704004F0AE
S31500007CD083BB0420486300F029F9A0690068816B22
S31500007CE0002E07D041F0040181630B20FFF714FF3B
S31500007CF0052106E021F0040181630B20FFF712FF46
S31500007D000021A0690068BDE8704004F0E8BB70BDC2
S31500007D1038B50446DFF8C00581422FD0DFF8B055EC
S31500007D20A869A0422AD12A89286899B2FFF765FF77
S31500007D3028680021C180204604F074F902281DDC61
S31500007D402B68E9896A8A98884A4392B260B1588852
S31500007D501B8889188842B8BF9A4209DB834203D23E
S31500007D608842A8BF9A4203DB284600F008F8E2E7FB
S31500007D702046BDE83440012104F0A7B931BD70B5F5
S31500007D800446DFF85835E089668A2568024670435E
S31500007D902E18A06906F1080104F05AFAA06904F049
S31500007DA041F9012801DDFFF71FFF608AA18A401C07
S31500007DB090FBF1F201FB1200608270BDFEB5044635
S31500007DC0207B68BB60680FF25D064188084400F1BD
S31500007DD00807A0696B4601AA02A904F046F9616882
S31500007DE08A880098019D121A551B4A880888904275
S31500007DF00ED26189A0698A1A3346394604F06CFAB4
S31500007E0070B96268618950886D1A451902F10807D0
S31500007E10A0693346EAB2394604F05EFA00B96073E7
S31500007E20F7BD000070B5DFF8A854A96981421C4669
S31500007E3015D168688188A14238BF848800F097FA16
S31500007E4069684A886B8912FA84F292FBF3F603FB9F
S31500007E5016224A8069688A88141B8C80E3E670BD06
S31500007E6038B50D46FFF76EFE112D044609D1A069FF
S31500007E70002104F037F9002020732046BDE8324087
S31500007E809CE7132D06D1A069012104F02BF90120EE
S31500007E90207331BD206800F1080100880D54206868
S31500007EA0018800F088F901808188491C8180A069D9
S31500007EB004F034F9216822898988511A89B220B9D7
S31500007EC0E2898A42A8BF012105DA012808D1208A61
S31500007ED0814205DB0021A069BDE8344004F0F5B815
S31500007EE031BDDFF8FC0301690A0600D4704780B58E
S31500007EF004F0E2FABDE8044001460120B0E780B58F
S31500007F00DFF8E013086828B10A68DFF8DC030260CE
S31500007F1000230B6000F00AF80B20FFF7FDFDDFF8E9
S31500007F20CC03016841F00401016001BD0B2003E6AA
S31500007F3080B5DFF8BC0304210160426822F0040228
S31500007F404260FFF7F3FF0B20FFF7ECFDDFF8980325
S31500007F50006810B1DFF88C13086001BDF8B50C4657
S31500007F601546FFF7EFFD0646306881883289E8B28C
S31500007F70121A914201DB0120F2BD00270EE000F04B
S31500007F80F6F9316814F8012B01F1080309885A54EF
S31500007F907F1C31680A88338900F018F9AF42EED3A6
S31500007FA00020F2BD10B5012818BF202807D1FFF721
S31500007FB0C9FD0446A06904F00DF8800401D4002030
S31500007FC010BD616888880028F9D1A06904F049F8D5
S31500007FD0401E8041C00F10BDF8B5012818BF2028EB
S31500007FE004460D463AD100F0B2F910B9204600F029
S31500007FF06DF82046FFF7A6FD06462046FFF7A2FDD0
S31500008000012C18BF202C29D1DFF8E812DFF8E8226E
S3150000801001608023012C18BF202C4260038143811C
S3150000802052D1012C16BF202CDFF8D0020020012CE3
S3150000803018BF202CB06111D1DFF8C412DFF8C402DA
S31500008040E961A861A98CF181EB8C33828B4207D25E
S315000080501C21304604F082FA0220F2BD0120F2BD56
S31500008060B26992F8310001280CD0308990FBF1F703
S3150000807001FB1700002802BF93FBF1F001FB103152
S315000080800029E5D12946104603F00EFEE8B9B0698D
S31500008090017F007E01230222FFF771FB287C012865
S315000080A007D101212046FFF7E7FDB069FFF79DFDE7
S315000080B00AE0002070823189F08991FBF0F0B082ED
S315000080C000F042F900F040F90020F2BD58B5012851
S315000080D018BF2028044612D100F039F9E8B9204625
S315000080E000F012F92046FFF72DFD012C18BF202CB9
S315000080F006460ED1B06903F09CFE10B152BD0120B8
S3150000810052BDB069FFF775FD03D100212046FFF788
S31500008110B3FD1C21304604F021FA002052BDF8B50B
S315000081200128054618BF20280F462E460AD1FFF71C
S3150000813009FD04462846FFF71EFD2168888818B900
S315000081402620F2BD0120F2BD00F011F90546206897
S3150000815041880844027A3A702068418800F02BF87A
S31500008160418081884A1E012E18BF202E828002D1AE
S31500008170FFF73EFD19D1284600F0FFF80020F2BDBA
S315000081802268E089618A53881288414389B240187F
S315000081908342B8BF9142EEDB9A4203D28342A8BF24
S315000081A09142E8DB2046FFF7EAFDA06903F03AFFBB
S315000081B00228E5DBDFE72289491C91FBF2F302FB8B
S315000081C01311704741465046FFF731BD521C92FBD2
S315000081D0F3FC03FB1C220A808A88521C8A8000F06A
S315000081E0CCB800002DE9F84F824601281CBF202894
S315000081F001208846914613D1FFF7A4FC04460026C9
S3150000820060680188084400F1080B002732E04E45FB
S3150000821005DAA9EB060082B25946FFF7D4FF002023
S31500008220BDE8F28F00F0A3F861680B8818F8012BFF
S3150000823019440A7261680A886389521C92FBF3FC2E
S3150000824003FB1C220A808A88521C8A8009884D1EDC
S31500008250AD4100F092F8ED0F5DB1FDB26D1CAD1BA6
S31500008260EAB25946FFF7AFFF6068AE19F6B200F101
S31500008270080B7F1CF8B24845C9D200212046FFF7FB
S3150000828070FC0028CED1207B0028F6D02220C7E73C
S31500008290F8B501260746012F18BF202F0C461546B4
S315000082A00DD1FFF74FFC012F18BF202F05D1806994
S315000082B02A46214603F034FF06463046F2BD012029
S315000082C0F2BD000000E100E080E100E080E200E0B5
S315000082D038700020B0ED0200097000F0117D00003A
S315000082E0000001406C200E40887000204C000140C8
S315000082F048000140286F0020B06F00205470002015
S315000083008C6700200C67002070B50546FFF71AFC45
S315000083100646012D346818BF202D0CD1B069FFF731
S3150000832068FC08D0022103F0CBFD0020708200F02B
S315000083300BF800F009F800F01AF80021A18021805E
S315000083406180E180FFF76FBC3046FFF718BD80B54E
S31500008350012818BF202806D1FFF7F4FB00281CBF10
S315000083600068002801D1012002BD002002BDEFF304
S315000083701180602181F31188704780F3118870475E
S315000083802DE9F84FDFF8F446DFF8F4562068DFF8F9
S31500008390F4B6DFF8F496DFF8F4A6E8612862002662
S315000083A04FF6FF7828E02068F6B2482111FB06F167
S315000083B04718482200213846FCF71DF999F80000B5
S315000083C03870A7F80280002038737873761C0B206B
S315000083D0B8731420F8734FF6FE703882A7F812802F
S315000083E004F0D6F8387604F0D3F8787604F0D0F8AE
S315000083F0B8769BF80000F876F0B29AF8001088423A
S31500008400D1D3281DBDE8F84F0222FF21FCF7F3B8AF
S315000084102DE9F041DFF878560FF29468044695F995
S31500008420000010F1010F03DA5C214046FEF7F4FB71
S31500008430DFF8587639788C42264605D3FE2E03D0CF
S315000084405E214046FEF7E8FB2878DFF83416401C2C
S31500008450287040B20844047438788442DFF81C0659
S31500008460006828BF0E78482212FB06F21044C86145
S31500008470BDE8F08110B5DFF8184694F90000002831
S3150000848002D56F2100F0A6F82078DFF8F415401E1B
S31500008490207040B2DFF8F4450A78247800284EBFF1
S315000084A010460818007CA04238BF0246DFF8CC050B
S315000084B0006848235A431044C86110BD10B5002017
S315000084C0DFF8BC1500E0401C00F07EF808D2DFF8AB
S315000084D0AC35C0B21B68CA6900F070F8F3D110BDA4
S315000084E08A2167E0DFF8A80590F9000010F1010F76
S315000084F001D10120704700207047FE2088E7DFF891
S3150000850080050078704738B50446FFF7EBFFDFF8C3
S31500008510705550B9DFF8780590F900002844007CC2
S31500008520FE2802D0A62100F055F8DFF8601509787C
S315000085308C4201D3B12032BDDFF840052C704821B2
S31500008540006811FB04F10844E861002032BD38B52B
S31500008550DFF83C05DFF8285590F900402819007C23
S31500008560FE2807D0FFF7BEFF20B9C32100F032F87E
S31500008570FF2032BD611E00E0491E49B2080004D446
S315000085806818007CFE28F7D032BD287832BD10B5B9
S315000085900020DFF8EC1400E0401C00F015F808D2CB
S315000085A0DFF8D834C0B21B680A6A00F007F8F3D1C6
S315000085B010BDE22100F00EF8FF2010BD482414FB88
S315000085C000F423449A427047DFF8C0341B78C2B2E5
S315000085D09A4270470FF2D840FEF71EBB10B500F066
S315000085E056FDDFF89C44216A897B884203D0084601
S315000085F000F0FCFC50B900F04EFD0146206A90F9EF
S315000086000F00814204D000F055FD08B1012010BDD5
S31500008610206A008A01F0A0F9206A408A01F0BCF9BC
S31500008620206A007B012818BF002001F080F9002095
S3150000863010BDDFF8581410B509788842044603D3F4
S315000086404FF48371FFF7C6FFDFF84804007808B9D6
S31500008650702010BDDFF8240400F06BF8DFF820145A
S315000086600862BDE81040B9E7DFF8281408707047C3
S3150000867010B5DFF824440020207004F052FC20B925
S315000086802046BDE8104004F0B9BC00F058F8DFF809
S31500008690FC130978884206D3FFF710FF044600F062
S315000086A010F818B12046BDE81040C2E710BDDFF84B
S315000086B0D003006A008A7047DFF8C403006A408A64
S315000086C07047DFF8B8130968482250430844407BD6
S315000086D002281CBF1128432801D101207047002021
S315000086E07047DFF898130968482250430844007B16
S315000086F001281CBF0228032801D101207047002051
S31500008700704710B5002400E0641C00F02CF80ED26F
S31500008710FFF7D7FF0028F7D0D848E4B200F009F8F1
S31500008720007B012818BF0228EED1204610BDFF208D
S3150000873010BD0068482111FB04F10844704710B5CC
S31500008740002400E0641C00F00EF80AD2FFF7C9FF0F
S315000087500028F7D0E0B2FFF7B4FF0028F2D0E0B26D
S3150000876010BDFF2010BDC9490978E0B288427047A4
S3150000877070B500240025C54E08E0FFF749FE00F05D
S315000087800FFB00B10124FFF775FE6D1C3178E8B2CE
S315000087908842F2D3204670BD80B5FFF7D0FFFF2890
S315000087A001D0012002BD002002BD38B5BB4C0546F4
S315000087B020680321A94088432060FFF77FFE2168D7
S315000087C0A8400843206031BDB4490968C14001F0A2
S315000087D00300704738B504460D46FE20FFF718FE25
S315000087E02946204604F091FEBDE8314042E610B528
S315000087F00446FE20FFF70CFE204604F0ABFFBDE862
S31500008800104037E682B08DF80010DDE900231146EE
S315000088101A4602B005F000B832B586B004468DF8A7
S31500008820042000F0F7F90546204600F001FA80F032
S3150000883001010D420DD0BDF8180000F0D2FA8DF8F6
S315000088400000FF2804BF00208DF80000CDF808D0F6
S315000088501AE0294308BF06A815D0054214D0BDF872
S31500008860180000F0BEFA8DF80000FF2804BF0020B3
S315000088708DF800009DF800008DF80C00BDF818007A
S31500008880ADF80E0003A80290FE20FFF7C1FDDDE95A
S3150000889001010A460146204604F0BEFFFFF7EAFD45
S315000088A007B030BDF8B5794E754D0446307868701E
S315000088B000270DE0FFF7ACFDE8694169FFB244F817
S315000088C0371004EBC701C07E08717F1CFFF7D2FD8D
S315000088D03178F8B28842EDD3F1BDF8B504460025EB
S315000088E0674E0DE02846FFF793FDF06954F8371000
S315000088F041616D1C04EBC7010979C176FFF7BAFD2A
S315000089006249707809788142EDB238BF08462F4631
S315000089108742E7DBF1BD38B5FFF7D0FD5B4A584B20
S315000089201278002100E0491CCCB294420ED29C7809
S31500008930C9B20C1994FBF2F502FB1544E4B21C44CF
S315000089402579854202D0FF2DEDD1207131BD70B55C
S315000089504B4C4E4EA0783178204405798D4203D396
S3150000896040F22921FFF736FEA0782218FF21117167
S31500008970401C317890FBF1F201FB1200A0702846F2
S3150000898070BD3F48817808440079FF2801D0012056
S3150000899070470020704710B5FFF7FEFE70B1384CE7
S315000089A0E069007B042809D11420FFF7FEFE04F1DC
S315000089B00800BDE81040642104F02ABBBDE8104061
S315000089C004F06EB880B52E49002008721420FFF717
S315000089D0FBFEFFF71DFD04F063F8BDE8014049E525
S315000089E02DE9F8438146FFF769FDB9F1040F0FF24F
S315000089F0C0082B4C224F2B4D2B4E35D8DFE809F003
S31500008A00030A0A1B1B00F86900F128010020086010
S31500008A10886030E0FFF7C0FE20B14FF41871404681
S31500008A20FEF7FAF8F869316840F8281F2168816076
S31500008A30297801711FE02A783568F9690E2313FB3E
S31500008A4002F6354413FB00F32B4441F8283F236814
S31500008A5003EB8202154B1B7802EB830202EB8000CC
S31500008A6088600120087106E04046BDE8F44340F204
S31500008A707121FEF7D1B8BDE8F183000048680020F7
S31500008A8028770020C46B0020BF7D0020B86B002033
S31500008A90E96B0020E86B00204C770020547700201B
S31500008AA050680020B96B00204C680020B36B002092
S31500008AB0656D6265722D6D756C74692D6E65747762
S31500008AC06F726B2E63000000890001EB401101F10B
S31500008AD084410A60704738B5444986B00C686846D8
S31500008AE004F06EFF240E8F2C10DA4148414C0168C9
S31500008AF041F0040202604FF0501300223025554326
S31500008B00521C6351062AF9D3016000E006DC3A489C
S31500008B100168C909C90141F0200101609DF8010001
S31500008B20012804D13548016841F0040101600022A2
S31500008B300D213348FFF7C8FF3249012008600124A0
S31500008B4004F058FF01F0FDFE05F076F82E49684660
S31500008B50D1E90023CDE900238DF8034005F0F1F9B2
S31500008B6002F04AFAFEF726FF02A828491022FEF76D
S31500008B708FFF08208DF8140002A805F07FFC07B0CF
S31500008B8030BD40F2016001F019BD80B50021002022
S31500008B9005F082FCBDE8014000F03AB805F07EBC65
S31500008BA0032005F00EBD000010B505F057FD044684
S31500008BB005F058FDC0B208B9012C07D1072C11D811
S31500008BC0DFE804F004100608080A0C0E002010BDA9
S31500008BD0092010BD022010BD032010BD0B2010BDC2
S31500008BE0062010BD44F0800010BD0000FC81E00F9F
S31500008BF0B0400E4000A000402C400E4064310E40B4
S31500008C0054300E4010300E4078EE020030EF020075
S31500008C107047000000210FF2EC12535C834201D131
S31500008C2001207047491CC9B20829F6D300207047B5
S31500008C3000210FF2D812535C834201D10120704704
S31500008C40491CC9B20829F6D3002070476A48006853
S31500008C504088704768480068001D7047664800688D
S31500008C60C07E704764490968C876704738B5624D5A
S31500008C70624C296848730228614915D12868007B2F
S31500008C8004281CBF084604F0B9F92868007B0328AD
S31500008C901EBF0428204604F0B1F928684069C000C8
S31500008CA054BF9024BC2405E0002008702070912455
S31500008CB005F0FAFC204605F0FFFC50B923461322C6
S31500008CC04CA10320FBF7F9FC2046BDE83240FFF734
S31500008CD08EBD31BD48480068407B00F00F007047EC
S31500008CE045480068407B00F00F00022801D10120B2
S31500008CF070470020704738B50446FFF7F1FF3E4D38
S31500008D0028B92868407B032801D0932032BD06F09D
S31500008D10BBFB20812868C07BA0722868807BE0723C
S31500008D20204607F0D8FF0020207304F1140104F157
S31500008D30100008F0A4F8E081002032BD70B52E4D79
S31500008D402E680C46FFF7CCFF20B9707B032801D0B4
S31500008D50932070BDF07B20702868807B00F000F9BE
S31500008D6060702868807B00F01F00A070002070BD36
S31500008D7010B5002300E05B1CDCB28C4205D210F873
S31500008D80014B9442F7D0002010BD012010BD80B5E4
S31500008D90082100F050F808B1002002BDA52002BD50
S31500008DA015480068407B01281CBF3128332801D1B3
S31500008DB0012070470020704710B5044600F07AF98C
S31500008DC0010002D10C490968CC7310BD0A4800683D
S31500008DD090F90F00704708480068807B70470120B3
S31500008DE0704705480068807B400918BF012070471E
S31500008DF00000000042420000447700202C79002049
S31500008E007C7600200001020304051D2002030405F0
S31500008E1008090A0B80B5002300931346012208F0C7
S31500008E200FFA01BD00F092BE00F090BEDFF8242BD1
S31500008E3010705170704710B54C00014600F027FDC8
S31500008E40224608F0DCF9A04201D0002010BD012026
S31500008E5010BD80B500F01BFD08F05FFA00B10120DF
S31500008E60C0B202BDDFF8280B407D00B1012070477B
S31500008E70DFF81C2B117B01B9704780B50146106ADB
S31500008E8008F0A1FA20B1BDE8044040F27111C7E232
S31500008E9001BD80B500F0FBFC08F0AAF900F0030064
S31500008EA0032801D1012002BD002002BD80B5B0F526
S31500008EB0004F07D100F013FEDFF8D80A00F0D0FC0F
S31500008EC0BDF80000DFF8941BC883002002BD2DE921
S31500008ED0F04F440900F01F050027DFF8848B00E0FF
S31500008EE07F1C98F80660F8B2B04236D2D8F808006F
S31500008EF0FFB250F827004FF0000C01E00CF1010C16
S31500008F00C67E5FFA8CFEB645EAD2D0F81CE05FFA60
S31500008F108CFC142616FB0CF6B6449EF8086006F088
S31500008F200706A642EAD19EF80960B542E6DB9EF83E
S31500008F3001B09EF8009006EB0B0AAAEB090AAA45B7
S31500008F40DCDB11B1AC1B4C440C7012B19EF808105E
S31500008F5011701BB1C3F800E000E00020BDE8F08FFF
S31500008F60400918BF40F01800704710B5DFF8104BE5
S31500008F70206A08F0D2F90246206ABDE810400021B6
S31500008F8008F0E7B90B38102834BFDFF8D80ADFF845
S31500008F90F40A006870473EB56846002100220023A7
S31500008FA00EC0DFF8B00901788DF80010817A0A004A
S31500008FB018BF022914D10079DFF8C45A00F0BBF8B3
S31500008FC0044600F00EF858B1286A0122002108F084
S31500008FD011F900F006F818B140F25B2100F06EFBC3
S31500008FE037BD286A6A46214608F04BB92DE9F0419B
S31500008FF0044604F01F001B2886B034D200200090DF
S315000090006B46002200212046FFF761FF07002AD0A9
S315000090102046FFF7B7FF5FEA000824D0DFF8706943
S31500009020DFF8385AF06B804515D001A84146062274
S31500009030FEF71EFD306AC6F83C8001A908F025FA45
S3150000904088B9306A03A908F02EFAB5F91C10306AFF
S3150000905008F0F6F938B90098B062776200980028EF
S3150000906018BFC06801E08A200EE0F06229798C42C0
S315000090701CBF2C71FFF78FFF96F90D00C101306AF6
S3150000908009B208F0CBFB002006B0BDE8F081DFF89E
S31500009090CC0900797047DFF8C409B0F91C00002834
S315000090A054BF05216FF0040108180A2190FBF1F066
S315000090B040B270470A2110FB01F0FFE7F8B500F552
S315000090C0D77240F277239A4201D38B20F2BDDFF8A4
S315000090D0C048DFF88859A26A0A23002A1EBFAE7F5D
S315000090E006F0C006802E12D0A67B86B992F90260E1
S315000090F016FB03F7B842B8BF16FB03F007DB92F97D
S31500009100032012FB03F68642B8BF12FB03F0217B55
S3150000911061B10146206A08F093F918B140F2B9210D
S3150000912000F0CCFA206A08F09EF901E010FB03F08B
S31500009130A8830020F2BD38B50446FFF723FF90B19F
S315000091400023002200212046FFF7C1FE58B104F09B
S315000091501F051B2D07D22046FFF702FF18B90B2D5E
S3150000916001DB284632BDFF2032BD0FF20C0140085C
S31500009170085C704700000000504030007047C0B2E5
S31500009180704710F1630F01DA0020704710F1240FC9
S3150000919001DBFF20704764300002411100EB916053
S315000091A08004000E704770B5DFF8E447DFF8C05A58
S315000091B000202064687828B108F034FB012818BF25
S315000091C0032801D1002070BDE16ADFF8A83ADFF874
S315000091D08C2800291FBFA66A3669002E022817D1DF
S315000091E02364906900F5FA709061E07C18B1002064
S315000091F00021642203E0E87829794FF4A0722070F8
S31500009200A2806170A878A0708020E080002030E005
S31500009210DFF8645A9069AE4213D1DFF8603A2364EE
S3150000922000F57A709061E07C88B908792070012297
S315000092308B7808799A40101891F903201018401E6F
S315000092400CE0236400F5FA709061E07C18B1002010
S315000092502080642005E0487820708878607008785F
S315000092600001A0804879A07008890001E080C888C4
S315000092700001A06000F039FCE07094F902000100E2
S3150000928048BF4042C0B270BD70B50446DFF8006703
S31500009290257896F9140008B18C2070BDFFF783FF7E
S315000092A0B075DFF8CC29DFF8B4074178017469019D
S315000092B001F5807181619379716C002BB37B1DBFC1
S315000092C0AD1EEDB221F0020141F0020173B9127830
S315000092D062B16278920609D56FF00102327541F0EB
S315000092E00101826902F50872826104E049084FF0C3
S315000092F0FF30490030757164032000F007F96A1CDD
S31500009300306A4FF4807392B2214608F0B4FA691CB1
S31500009310884203DA40F21B4100F0D0F9002070BD0C
S3150000932000000000F8B5DFF8685695F9141000241F
S31500009330091D04290FD8DFE801F0080E10100300FC
S31500009340FFF7A2FF040008D0F2BD2C75286A07F0CB
S3150000935055FF8D20F2BD8C20F2BD08F0A8FAE8B1C9
S31500009360286CDFF81019884218D1A87DB0B1DFF853
S31500009370A00A0068002811D5DFF8D00AC168C160CC
S315000093800122006800F00F0002FA00F0401E0142C0
S3150000939004D100F0F1FB642008F08DFAFEF7E7FF38
S315000093A0064695F9140010F1010F1CBF95F914003B
S315000093B010F1020F29D195F91400DFF8A07640428A
S315000093C02875FEF7DFFA7862296C387949B9FFF714
S315000093D0B2FE01466A6C286A07F1100307F040FFE7
S315000093E00BE0FFF7A8FE07F11001009101466A6C39
S315000093F0286AD5F840C02B46E04760B100202875A2
S315000094008C244FF0FF30786202E0002028758D240E
S31500009410286A07F0F3FE3046FEF7AFFF2046F2BD9E
S31500009420DFF8700AFDF7F8BB2046BDE81040FEF7EE
S31500009430A4BFDFF82806C08B70470000F8B5FEF71A
S3150000944096FFDFF810550446A87A012803D1204676
S31500009450FEF793FFF1BDDFF8401ADFF83465DFF859
S31500009460347A402008600122306A012107F0C2FEEA
S31500009470DFF8281A4FF40010086069460FF28800DA
S3150000948000680090306A08F0BDF920B140F2C7418B
S315000094903846FDF7C1FB02208DF800006946306AA8
S315000094A008F08DF920B140F2C9413846FDF7B4FB0A
S315000094B0306A07F0C1FE0021002008F041FA00F0F2
S315000094C045FB0120A87296F91400001D072810D844
S315000094D0DFE800F0140F0707040B0B0B08F0EDFB99
S315000094E00CE06FF00300307508E0892000F079FB8E
S315000094F004E040F2ED413846FDF78EFB2046FEF7CC
S315000095003CFFFFF742FBF1BD040100002DE9F04DE1
S31500009510DFF840540446A87AA04282B063D00FF226
S31500009520CC01DFF87C690968DFF86889DFF86074C8
S31500009530DFF868A9009103284FF4001B4FD8DFE835
S3150000954000F047023E2BFFF729FB386A694608F010
S3150000955059F918B140F20A5100F04AF802208DF884
S3150000956000006946386A08F02AF918B140F20C5131
S3150000957000F03EF86879002814BF00220222386AFB
S31500009580022108F0FBFB18B140F2115100F030F84F
S315000095900320032CA87218D0CAF800B00220A872C3
S315000095A02879FFF7C8FD0146386A002207F069FEF0
S315000095B018B140F2215100F01BF8022C13D0002CF8
S315000095C018BF032C0FD10020A872C6F800B00AE01D
S315000095D0022C08D1CAF800B00220A87203E040F2BB
S315000095E0375100F005F8BDE8F38D000004020000D5
S315000095F04046FDF711BB002088E7DFF8AC0A807A09
S3150000960070470000032805D8DFE800F003020303D3
S3150000961014E77BE740F2555102E780B500F00FF8FA
S3150000962004D500210175006A07F0E8FDDFF8780A25
S31500009630407A012802D1BDE80140FFE601BDDFF80E
S315000096406C0A90F9141000297047DFF85C0A407A1A
S31500009650704780B5032801DB012002BDDFF8481AF8
