:1000000010570020FD2C0000712D0000712C000005
:10001000712C0000712C0000712C0000712C00006C
:10002000712C0000712C0000712C0000D9290000F7
:10003000712C0000712C000095290000712C00002B
:10004000C12C0000C12C0000C12C0000C12C0000FC
:10005000C12C0000C12C0000C12C0000C12C0000EC
:10006000C12C0000C12C0000C12C0000C12C0000DC
:10007000C12C0000C12C0000C12C0000C12C0000CC
:10008000C12C0000C12C0000C12C0000C12C0000BC
:10009000C12C0000C12C0000C12C0000C12C0000AC
:1000A000C12C0000C12C0000C12C0000C12C00009C
:1000B000C12C0000C12C0000C12C0000C12C00008C
:1000C000C12C0000C12C0000C12C0000C12C00007C
:1000D000C12C0000C12C0000C12C0000C12C00006C
:1000E000C12C0000C12C0000C12C0000C12C00005C
:1000F000C12C0000C12C0000C12C0000C12C00004C
:10010000000000001932000000000000FD2B00007C
:10011000E85F0020BF3C000000000000FD2B000055
:1001200000000000FD2B000000000000FD2B00007F
:10013000000000004138000000000000FD2B00001E
:1001400000000000FD2B000000000000FD2B00005F
:1001500000000000FD2B000000000000FD2B00004F
:1001600000000000FD2B000000000000FD2B00003F
:1001700000000000FD2B000000000000FD2B00002F
:1001800000000000FD2B000000000000053E000004
:1001900000000000FD2B000000000000FD2B00000F
:1001A00000000000FD2B000000000000FD2B0000FF
:1001B00000000000FD2B000000000000FD2B0000EF
:1001C00000000000FD2B000000000000FD2B0000DF
:1001D00000000000FD2B000000000000FD2B0000CF
:1001E00000000000FD2B000000000000FD2B0000BF
:1001F00000000000FD2B000000000000FD2B0000AF
:1002000000000000FD2B000000000000FD2B00009E
:1002100000000000FD2B000000000000FD2B00008E
:1002200000000000FD2B000000000000FD2B00007E
:1002300000000000FD2B000000000000FD2B00006E
:1002400000000000FD2B000000000000FD2B00005E
:1002500000000000FD2B000000000000FD2B00004E
:1002600000000000FD2B000000000000FD2B00003E
:1002700000000000FD2B000000000000FD2B00002E
:1002800053B94AB9002908BF00281CBF4FF0FF31FD
:100290004FF0FF3000F08EB9ADF1080C6DE904CEDF
:1002A00000F01AF8DDF804E0DDE9022304B070473D
:1002B000430803F05533C01A830803F0333300F0CA
:1002C0003330184400EB101000F00F3000EB00202A
:1002D00000EB0040000E70472DE9F0478C460D46BC
:1002E0000446089E002B51D18A4217466DD9B2FAB6
:1002F00082FEBEF1000F0BD0CEF1200C01FA0EF5FC
:1003000020FA0CFC02FA0EF74CEA050C00FA0EF487
:100310004FEA174A250CBCFBFAF81FFA87F90AFBCB
:1003200018CC45EA0C4508FB09F3AB420AD9ED1994
:1003300008F1FF3280F02381AB4240F22081A8F126
:1003400002083D44ED1AA4B2B5FBFAF00AFB1055C1
:1003500044EA054400FB09F9A14509D9E41900F173
:10036000FF3380F00A81A14540F2078102383C4406
:10037000A4EB090440EA08400021002E61D024FAD1
:100380000EF4002334607360BDE8F0878B4207D918
:10039000002E54D0002186E821000846BDE8F087F1
:1003A000B3FA83F1002940F08E80AB4202D382423F
:1003B00000F2FA80841A65EB03050120AC46002E9A
:1003C0003FD086E81010BDE8F08712B90127B7FBCF
:1003D000F2F7B7FA87FEBEF1000F34D1EB1B3A0CEF
:1003E0001FFA87FC0121B3FBF2F8250C02FB18333E
:1003F00045EA03450CFB08F3AB4207D9ED1908F1B8
:10040000FF3002D2AB4200F2D1808046ED1AA3B297
:10041000B5FBF2F002FB105543EA05440CFB00FC6F
:10042000A44507D9E41900F1FF3302D2A44500F234
:10043000B8801846A4EB0C0440EA08409DE731461A
:100440003046BDE8F087CEF1200405FA0EF307FA36
:100450000EF720FA04F83A0C25FA04F448EA0308E7
:10046000B4FBF2F14FEA184502FB11441FFA87FC76
:1004700045EA044501FB0CF3AB4200FA0EF409D93E
:10048000ED1901F1FF3080F08A80AB4240F28780A5
:1004900002393D44EB1A1FFA88F5B3FBF2F002FB78
:1004A000103345EA034500FB0CF3AB4207D9ED19C5
:1004B00000F1FF386FD2AB426DD902383D44EB1AE0
:1004C00040EA01418FE7C1F1200722FA07F88B408B
:1004D00005FA01F448EA030320FA07FE4FEA134C39
:1004E000FD404EEA040EB5FBFCF94FEA1E440CFB3E
:1004F00019551FFA83F844EA054509FB08F4AC4294
:1005000002FA01F200FA01FA08D9ED1809F1FF30F8
:1005100043D2AC4241D9A9F102091D442D1B1FFA57
:100520008EFEB5FBFCF00CFB10554EEA054400FBBB
:1005300008F8A04507D9E41800F1FF3529D2A045F5
:1005400027D902381C4440EA0940A4EB0804A0FB68
:1005500002894C45C6464D4615D312D056B1BAEB6A
:100560000E0364EB050404FA07F7CB401F43CC40AD
:10057000376074600021BDE8F0871846F8E69046C1
:10058000E0E6C245EAD2B8EB020E69EB030501389A
:10059000E4E72846D7E7404691E78146BEE70146B3
:1005A00078E702383C4445E7084608E7A8F1020826
:1005B0003D442BE7704700BFC9B200E0013003782B
:1005C000994201D0002BF9D1994200D17047002007
:1005D000FCE70346002001E0013301301A78002ACD
:1005E000FAD1704701E00130013103780A78934273
:1005F00001D1002BF7D1981A70477AB1531E0FD052
:1006000010B404780A78944203D101300131013BDF
:10061000F7D100780B78C01A10BC704700207047E3
:1006200000780B78C01A7047431A93420ED30346E2
:100630007AB110B411F8014B03F8014B013A002ACA
:10064000F8D110BC7047013A8B5C8354002AFAD170
:100650007047704710B480EA010313F0030F01D014
:10066000034617E0034613F0030F0BD0A2B10C783A
:100670001C70013A01310133F5E70C681C60043A43
:1006800004310433032AF8D804E00C781C70013AD2
:1006900001310133002AF8D110BC704710B4CCB23C
:1006A000034613F0030F04D0A2B11C70013A0133CA
:1006B000F7E7C9B241EA012141EA014102E01960CC
:1006C000043A0433032AFAD802E01C70013A0133D9
:1006D000002AFAD110BC704700E0013003783BB12A
:1006E000A3F16102D2B2192AF7D8203B0370F4E7D4
:1006F0007047034602E0302008700131C81A90426A
:10070000F9DB002201F801298B420AD210B40A78E1
:100710001C7801F8014903F8012B8B42F7D310BC78
:1007200070477047F8B5064605E00024644430344D
:100730003470764665B1B1FBF2F502FB1517294618
:1007400006F1010E5FFA87FC092FEEDD2724EDE7A5
:100750001A467146FFF7CDFFF8BD70B5054682B168
:100760000446302204F8022B7822427010222046E0
:10077000FFF7D8FF0646049B582B04D0601B30447B
:1007800070BD0446F2E72846FFF7A6FFF6E738B546
:1007900072B1451C3022027031B12C1A0822284651
:1007A000FFF7C0FF204438BD00234370012038BD4F
:1007B0000546F2E708B513460A22FFF7B3FF08BD66
:1007C00038B50546002905DB62B9ABB1441C2023CE
:1007D00003700AE0441C2D230370B1F1004F04D0D4
:1007E000494202E0441C2B230370049A2046FFF781
:1007F000E1FF2044401B38BD0446F6E730B4D0E9A1
:10080000002302F0010400255B084FEA32021219AE
:100810006B41C0E9002330BC704700002DE9F04374
:10082000D0E90067023647F100074FF000084FF0AB
:10083000000900212FE01B4B5A5CC2F1200CA2F1F1
:10084000200E26FA02F307FA0CFC43EA0C0327FAFF
:100850000EFE43EA0E03DFF850E0AEFB03E39B0815
:10086000A2F1200CC2F1200E03FA0CF523FA0EFEC1
:1008700045EA0E0503FA02F44FEA850EA2004EEA9D
:10088000947312196B41B61A67EB030718EB04084F
:1008900049EB050901310229CDD9C0E90089BDE83C
:1008A000F08300BF64800000CDCCCCCC0B68002B63
:1008B00015DD30B4013B0B60D0E90045A900A20072
:1008C00041EA947312196B4192185B41190F303150
:1008D00023F07043C0E90023C8B230BC7047302118
:1008E000C8B270472DE9F04F8BB096461946C3F356
:1008F0000A5ACB0243EA5E534FEACE22934623F0D4
:10090000004CCDE906BCCDF800E0019140F2FF7348
:100910009A451ED042EA0A024CEAEA73134337D0E2
:10092000AAF2FE3A5A464CF00043CDE906230123D1
:100930002BB1DDE90023002A73F100032ADB169BAB
:100940006BB3431C00932B23037003904FF0000BF9
:1009500057E05BEA0C0314D1DDE90034002B74F19D
:1009600000030CDB2B230370492343704E23837059
:10097000051D4623C37000232B70281A30E12D2358
:10098000F1E74E23037061224270C51C8370F2E7C9
:100990000023CDE7431C00932D230370D5E7179B5D
:1009A00023B1431C009320230370CEE70090CCE7D3
:1009B00006A8FFF723FF0AF1010ADDE90623002557
:1009C000002D08BFB3F1333FF2D24FEA830E9000FF
:1009D0004EEA927112184B41CDE906230AF1010A41
:1009E0000BF1FF3B05E092185B41CDE906230AF1CC
:1009F000FF3ADDE906230027002F08BFB3F1004FBF
:100A0000F1D31AF1020FD8DB0FE092185B41CDE968
:100A100006230AF1FF3ADDE906234FF00009B9F198
:100A2000000F08BFB3F1004FEFD3BAF1000F0CDD98
:100A300006A8FFF7F3FE0AF1FF3A0BF1010BEAE714
:100A400006A8FFF7DBFE0AF1010ABAF1030FF7DD92
:100A5000189B002B15DB149B672B15D0472B13D04D
:100A60000024149B662B2CD0189B01331022099272
:100A7000934200DD134600204FF00061CDE90401F0
:100A80002CE006231893E6E7159B33B9189B002B3F
:100A900001DD012402E0159C00E000241BF1030F9E
:100AA00003DB189B01339B4508DD149B672B02D0A9
:100AB00045231493D5E765231493D2E76623149353
:100AC000CFE7189B13EB0B03D0D50023CEE704A888
:100AD000FFF7A4FE04A8FFF791FE2B465D1E002B36
:100AE000F5D1DDE90401DDE9062312184B41CDE91A
:100AF000062303F07040002150EA010318D1149B33
:100B0000662B1ED009A906A8FFF7D0FE009D05F8A8
:100B1000010B302801D00BF1FF3B159B13B9189B3B
:100B2000002B60DD009A951C2E235370189B4AE021
:100B300006A8FFF773FE06A8FFF760FE0BF1010B96
:100B4000DDE7BBF1000F19DD009D08E06E1C09A96F
:100B500006A8FFF7ABFE28700BF1FF3B3546BBF153
:100B6000000FF3DC0095159B13B9189B002B0BDDD0
:100B7000009A551C2E231370189B0EE03023009909
:100B80000B704B1C0093EEE7009D189B05E0302393
:100B90002B700BF1010B013533465E1E002B15DD6A
:100BA000BBF1000FF3DB6F1C09A906A8FFF77EFE5F
:100BB00028703D46F0E76F1C09A906A8FFF776FEEE
:100BC000287033463D465E1E002BF4DC74B9149B3E
:100BD000652B14D0452B12D000232B70039BE81AF1
:100BE0000BB0BDE8F08F189BEDE715466A1E15F8AF
:100BF000013C302BF9D02E2BE9D11546E7E79DF8C3
:100C000050302B70BBF1000F22DBAA1C2B236B7022
:100C1000124981FB0B314FEAEB73C3EB611303F114
:100C200030011170642101FB13BB0D4981FB0B31B5
:100C30004FEAEB73C3EBA10303F13001517003EBF7
:100C40008303ABEB430BD51C0BF130039370C3E76D
:100C5000CBF1000BAA1C2D236B70D9E71F85EB513C
:100C60006766666610B401680139002305E003EB8E
:100C700083035C0001311319303B0A78A2F1300480
:100C8000092CF4D90160184610BC70472DE9F04FCB
:100C9000C1B0824607910B920A9300270B9B5A1C06
:100CA0000B921878002800F08C82252814D0079920
:100CB000D047B0F1FF3F00F08A820137EEE7012311
:100CC000089311E04FF001080EE001260CE0A14668
:100CD0000AE04FF0010B07E04FF020094FF0000849
:100CE000CDF82080C34646460B9B5A1C0B921C78BD
:100CF000254621469B48FFF75FFC002866D0302C34
:100D0000F2D801A353F824F0C3110000E90C00004D
:100D1000E90C0000E90C0000E90C0000E90C0000FF
:100D2000E90C0000E90C0000E90C0000E90C0000EF
:100D3000E90C0000E90C0000E90C0000E90C0000DF
:100D4000E90C0000E90C0000E90C0000E90C0000CF
:100D5000E90C0000E90C0000E90C0000E90C0000BF
:100D6000E90C0000E90C0000E90C0000E90C0000AF
:100D7000E90C0000E90C0000E90C0000E90C00009F
:100D8000E90C0000E90C0000C50C0000E90C0000B3
:100D9000E90C0000CB0C0000E90C0000E90C00009D
:100DA000E90C0000E90C0000E90C0000E90C00006F
:100DB000E90C0000BF0C0000E90C0000D30C00009F
:100DC000E90C0000E90C0000CF0C00002A2C00F018
:100DD0009580303C092C40F2A0800024C82C00D91A
:100DE000C8242E2D00F0A2804FF0FF33099329462E
:100DF0005D48FFF7E1FB18B10B9B5A1C0B921D7865
:100E0000782D00F2AC81DFE815F0DC01AA01AA011F
:100E1000AA01AA01AA01AA01AA01AA01AA01AA017A
:100E2000AA01AA01AA01AA01AA01AA01AA01AA016A
:100E3000AA01AA01AA01AA01AA01AA01AA01AA015A
:100E4000AA01AA01AA01AA01AA01AA01AA01AA014A
:100E5000AA01AA01A001AA01AA01AA01AA01AA0144
:100E6000AA01AA01AA01AA01AA01AA01AA01AA012A
:100E7000AA01AA01AA01AA01AA01AA01AA01AA011A
:100E8000AA01AA01AA01AA01AA01AA01AA01AA010A
:100E9000AA01AA01FD00AA01FD00AA01AA01AA0156
:100EA000AA01AA01AA01AA01AA01AA01AA01AA01EA
:100EB000AA01AA01AA01AA01AA018901AA01AA01FB
:100EC000AA01AA01AA01AA01AA01AA01AA01AA01CA
:100ED000B100D800FD00FD00FD00AA01D800AA0164
:100EE000AA01AA01AA0122012A014101AA01AA011B
:100EF0005901AA017401AA01AA0189010A9B1A1DBC
:100F00000A921C68002C04DB0B9B5A1C0B921D7868
:100F100064E764424FF0010BF6E70BA8FFF7A2FE6F
:100F200004460B9B5A1C0B921D7857E70B9B5A1CCF
:100F30000B921B782A2B0ED00BA8FFF793FE09907B
:100F4000099BC82B02DD4FF0FF3309930B9B5A1C02
:100F50000B921D784BE70A9B1A1D0A921B68099396
:100F6000EEE700BF548000005C8000000A9B1A1D61
:100F70000A921B788DF8343000268DF835600123F5
:100F80001D46C82D00F32781002B3FF487AEA542F4
:100F900080F20781BBF1000F40F0F680A4EB05085A
:100FA0006A1C0DA901EB0800FFF73EFBB9F1200F09
:100FB00000F0ED8006EB0802F0E00A9B1A1D0A9291
:100FC0001E68099B00934346089A31460DA8FFF717
:100FD000F7FB0546089B33B9B8F1000F0CD1002E82
:100FE0000CDB464600E00126099BB3F1FF3F07D02A
:100FF0004FF020090123C4E70126F5E70126F3E7B6
:101000000123BEE70A9B073323F0070303F108021D
:101010000A92D3E9002309990491CDF80C8008992C
:101020000291019600950DA8FFF75CFC0546089912
:10103000002940F09780B8F1000F40F096809DF8AD
:1010400034302D2B00F094804646012399E70A9B0B
:101050001A1D0A921B681F600026334691E70A9901
:101060000B1D0A93DDF824804346324609680DA81B
:10107000FFF78DFB0546B8F1FF3F04D000264FF087
:10108000200901237DE7002601237AE70A9B1A1D28
:101090000A92196878230093082301220DA8FFF70C
:1010A0005CFB0546099BB3F1FF3F04D000264FF0DF
:1010B0002009012365E70026012362E70A9B1A1D28
:1010C0000A921968002500E00135C72D02DC4B5D4E
:1010D000002BF9D1099A002A02DB954200DD154662
:1010E000002D48DD2A460DA8FFF7B4FA002601239B
:1010F00047E70A9B1A1D0A92099E324619680DA8F5
:10110000FFF758FB0546B6F1FF3F04D000264FF02D
:101110002009012335E70026012332E70A9B1A1D27
:101120000A9219680095099B32460DA8FFF715FB36
:10113000054606B10226099BB3F1FF3F03D04FF0ED
:10114000200901231DE701231BE707992520D0472C
:10115000B0F1FF3F3DD001370026334611E70026AE
:1011600033460EE7012633460BE70126334608E7F0
:101170000126334605E70026334602E740AB2B4401
:10118000202203F8CC2C0135A542F7DB0AE05E46AD
:1011900010E740AB334403F8CC9C01369642F8DBB1
:1011A00000E02C460DAD564602E0013C013501370A
:1011B000002C0ADD07992878B047B0F1FF3FF4D141
:1011C0000746384641B0BDE8F08FB24666E50746AF
:1011D000F7E70746F5E74FF0FF37F2E74B68012BDB
:1011E00007DD0B6818700B6801330B604B68013B1F
:1011F0004B600020704700000CB400B585B00B4672
:1012000009B90DF103000190029307AB0393069A0D
:1012100001A90548FFF73AFD0022019B1A7005B0AD
:101220005DF804EB02B07047DD11000070B582B0CC
:10123000054601A9007900F06FF8AC68019B1C44D9
:101240002B681D8966194FF02002EFF3118382F39A
:10125000118802F033FE635983F308887368984756
:1012600002B070BD00B585B000F03EF90A4806F046
:1012700061FB0A4B186000B9FEE740F2012003F061
:101280004BFA01A800F0B8FD00B1FEE700F07EF8CF
:1012900001A8FFF7CBFFFEE768800000FC2E0020CE
:1012A00000684B6898420FD310B48C68234498426E
:1012B0000DD208694B6998420ED36FF00B038B6116
:1012C00000231370012005E00120107070470023F7
:1012D0001370012010BC70470020FBE770B582B08E
:1012E00006460C46CD680DF10702FFF7D9FF80B91D
:1012F0002269336861685B1A45F83230236905EB6F
:10130000C30573686B60236901332361012002B058
:1013100070BD9DF80700FAE7642802D1002008603C
:1013200070476FF01500704730B40023022B09D8C6
:1013300003EB830294000C4A22441279824201D0CA
:101340000133F3E7032B0CD0074C9A00D518A80003
:101350002044051D0D60016901310161002030BC90
:1013600070474FF0FF30FAE7105F002020B150F8CF
:10137000041C054A914200D07047C268002AFBD085
:10138000013AC260F8E700BFEFBE0DD0002300E0D5
:101390000133022BFCD9704738B5044C24684068EF
:1013A00065682D6801442046A84738BDFC2E002002
:1013B0002DE9F04105460E46174698460B4C20682D
:1013C0004368DB68002198472068696843685D6866
:1013D00043463A463144A847054620684368DB68DF
:1013E000012198472846BDE8F08100BFFC2E00206F
:1013F000F8B507460D4616460A4C20684368DB6878
:10140000002198472068796843689B6832462944E0
:101410009847054620684368DB68012198472846BD
:10142000F8BD00BFFC2E002008B5007800F05AF887
:1014300008BD01307047431E022B20D802280ED071
:10144000032814D0012802D04FF0FF3070474FF42A
:1014500040430B604FF4D2231360002070474FF4D9
:10146000EA230B604FF4D2231360002070474FF43F
:101470005E230B604FF4F0331360002070474FF091
:10148000FF307047F8B50D4617461E46069C2246AB
:1014900042F8080B211DFFF7CEFF88B9E760002353
:1014A00023612A686261A36122463146064B1868AF
:1014B00002F0E0F8A3690BB923692B60A069F8BDBD
:1014C0004FF0FF30F8BD00BFFC2E002000B58BB000
:1014D00003AB0093024BFFF7D5FF0BB05DF804FBA5
:1014E000DD1200000420704708B54FF4C0510248D7
:1014F00004F034FE08BD00BF0000002010B4114B02
:101500009C6A5B6D802C16D8802B17D89C4201D02A
:10151000002011E00023A3420BD20A4A516AD800EE
:1015200001444968126D024452688A4208D101336D
:10153000F1E7012000E0002010BC70470020FBE72D
:101540000020F9E70018002002EB420301FB02F241
:1015500000FB03207047000010B402460A4B9B6D4D
:101560009C680020002A0ADB074B5B6A03EBC2037E
:101570005B6803449C4202D3013A1846F2E7013209
:101580000A6010BC704700BF0018002038B5074C37
:10159000236A5878FFF7A6FF0546A36D5878FFF732
:1015A000A1FF854200D238BD2846FCE70018002084
:1015B00010B582B002A9802341F8043D124B5A6A4B
:1015C0000120FFF783FF034610B901990E4A91628B
:1015D0001BB10124204602B010BD02A9802341F8AE
:1015E000043D094B1A6D0220FFF770FF044610B945
:1015F000019A054B5A650CB10124EBE7FFF7C6FFD2
:10160000014B83F85C00E5E70018002000B583B0CB
:101610006946012000F032FD01A9032000F02EFDF3
:10162000002309E0134A02EB83029278CAB19DF8C5
:1016300001108A4215D00133032B17D80D4A12F836
:1016400023201AB19DF800108A42F4D1094A02EB16
:1016500083025278002AE5D09DF804108A42EAD12C
:10166000E0E7044A02EB8303D87800E0002003B0EF
:101670005DF804FB9C8100002DE9F04782B006462E
:10168000894600F0BAFC8046304600F0A9FC0746C7
:101690000024A246254607E02DB1BAF1000F02D181
:1016A000A24600E001250134BC4214DA164B93F83F
:1016B0005C1001230DF1070201FB04813046FFF7A6
:1016C0006BFEE0B99DF80730FF2BE5D0002DE9D087
:1016D000BAF1000FE7D09DB1BAF1000F00D0544627
:1016E000013C0A4B83FB0423A3EBE473C9F80030ED
:1016F00003EB4303E21A89F80420002500E00125EA
:10170000284602B0BDE8F087001800205655555510
:1017100030B583B005460C220021FEF7BFFFFFF76E
:1017200075FF012805D0044602280BD038B10724E4
:1017300005E0032001A9FFF7F7FD28B101242046A9
:1017400003B030BD0120F5E729460198FFF794FF6B
:1017500004460198FFF70AFEF1E770B582B00D4626
:101760001646FFF766FE01A9C0B2FFF7DDFD30B1F6
:1017700001240198FFF7FAFD204602B070BD2889C8
:10178000E96804236A4601440198FFF705FE044610
:1017900078B9BDF8002046F607139A4201D0032419
:1017A000E7E72B89EA681344BDF80220134433604D
:1017B000DFE70124DDE700002DE9F04782B00C46A9
:1017C000904699460A9E00230193009301A9C0B256
:1017D000FFF7AAFD68B14FF0010A019808B1FFF7C1
:1017E000C5FD009808B1FFF7C1FD504602B0BDE845
:1017F000F0876946E0B2FFF797FD8246D8B9002529
:1018000010E02346104A05EB08010198FFF7C4FDDC
:10181000A0B923460C4A05EB09010098FFF7C8FD63
:1018200078B92544B542D8D2741BB4F5806FE8D995
:101830004FF48064E5E74FF0010ACEE74FF0010A6C
:10184000CBE74FF0010AC8E76418002010B582B05A
:101850000C46FFF7EEFD01A9C0B2FFF765FD30B100
:1018600001240198FFF782FD204602B010BD20231D
:10187000224600210198FFF78FFD04460028F0D092
:101880000124EEE738B505460024012C0FDC2C219D
:10189000084B01FB04312046FFF7D8FF034608B987
:1018A0000134F2E7002C03DD15B9002300E000232A
:1018B000184638BD0018002008B500F08BFC04283D
:1018C00007D0FF2806D0012801D0052008BD03203D
:1018D00008BD022008BD30B583B00C46154601A9ED
:1018E000C0B2FFF721FD30B101240198FFF73EFDA2
:1018F000204603B030BD2A4621460198FFF778FD07
:1019000004460028F1D00124EFE70000012803D0AD
:10191000022814D001207047002210B52C21094B59
:1019200001FB0232936A013B526A02EBC30452F894
:10193000331013686268C91AFFF7CDFF10BD01228A
:10194000EBE700BF0018002010B582B001A901200C
:10195000FFF7EAFCA8B96946019800F05DFB044670
:1019600068B99DF80230FF2B03D1019800F004FC08
:1019700004460198FFF7FAFC204602B010BD01248E
:10198000F7E70124F8E710B582B001A90120FFF7BD
:10199000CBFC18B10124204602B010BD019800F024
:1019A000E5FB04460198FFF7E1FCF4E700B585B0DC
:1019B00000230293019300934FF48073044A00F0D4
:1019C000B7FC034600B10323184605B05DF804FBDD
:1019D0006424002030B583B01E4A2C2303FB00F39F
:1019E000D518D358B3F1FF3F2CD02B6913F0100F4B
:1019F0002BD10446FFF71DFD01A9C0B2FFF794FCEF
:101A000030BB2C2303FB04F3124AD258124B9A42E8
:101A100005D07CB94FF0FF35284603B030BD0199A1
:101A20002846FFF7C3FF05460028F2D10198FFF7CB
:101A30009DFCF1E7019882680021FFF7D9FC4FF087
:101A4000FF35E9E74FF0FF35E6E74FF0FF35E3E715
:101A50000125E1E7001800203DB8F39610B500F02D
:101A6000B9FB0446831E022B01D9204610BD01207C
:101A7000FFF7B0FF0028F8D00524F6E72DE9F04382
:101A800083B000AF04461E4B1D68EB1D23F0070317
:101A9000ADEB030D6E4643796BB10320391DFFF7A3
:101AA00043FC50B101247868FFF760FC20460C37F6
:101AB000BD46BDE8F0830120F0E7786800F09DFAAC
:101AC0008046104B93F85C2021792068FFF73CFD9D
:101AD00080447B685878FFF705FD81462A46FF2140
:101AE0003046FEF7DBFD237933704B4632464146E4
:101AF0007868FFF75DFC04460028D4D00124D2E7C3
:101B0000AC81000000180020F0B587B00F461446E5
:101B1000794E736A53F830501B68ED1A96F85C00E2
:101B200000F058FAB36A013B7919726A52F83330FF
:101B300012689B1A994206D93E1A23682BB9BE42F5
:101B400004D0012302E03E46F7E7002363712379C6
:101B50003BB12379012B58D02379022B75D007B0E4
:101B6000F0BD3A4600210320FFF7B5FE00960023A2
:101B70002A4603210220FFF71FFE2368BBB96379C1
:101B80002BB303A90320FFF7CFFB02A9022000F02B
:101B900075FA9DF80A30012B15D0A168039800F062
:101BA000F1FA039800F0D0FA0398FFF7DFFB012366
:101BB00023712046FFF762FF0028CAD04F4A1368FE
:101BC00001331360C5E7039800F0D6FAE5E701207A
:101BD000FFF79CFE03A90120FFF7A6FB02A9022044
:101BE00000F04CFA9DF80A30012B0AD0A168039846
:101BF00000F0C8FA039800F0A7FA0398FFF7B6FBC5
:101C0000D5E7039800F0B8FAF0E73A4629460220F3
:101C1000FFF761FE00962B462A4602210120FFF7BE
:101C2000CBFD23680BB963795BB102232371204696
:101C3000FFF724FF00288FD0304A13680133136068
:101C40008AE70220FFF762FEEFE73A4629460120C5
:101C5000FFF741FE00962B46002201210320FFF7EB
:101C6000ABFD637983B923680133236000232371BB
:101C700063712046FFF702FF00283FF470AF1F4A50
:101C80001368013313606AE705A90320FFF74CFBD3
:101C9000059800F0B2F907460598FFF767FB05A91C
:101CA0000120FFF741FB144B93F85C3003EB430337
:101CB000009373193A4601210320FFF77DFD18B107
:101CC0000E4A13680133136004A9032000F0D6F90B
:101CD0009DF81230012B0AD0A168059800F052FA45
:101CE000059800F031FA0598FFF740FBBBE705982F
:101CF00000F042FAF0E700BF001800206018002052
:101D000030B585B004460023019302930368FBB904
:101D10000379EBB9244B1A68244B9A420CD0224B1E
:101D2000DA6A224B9A420DD0029B019A934200D963
:101D30000193019BA36011E001AA1B490020FFF75A
:101D40000CFDECE702AA1A490120FFF706FDEBE7BC
:101D500004F1080000F0ACF9A368019300200290A0
:101D6000114B5B6A03EBC0035B68029A1344029356
:101D7000019A934212D20130F2E7039801380135FB
:101D800000280DDB03A9FFF7E7FB23689D42F4D38E
:101D9000224601460398FFF7B7FEEEE70025EFE77E
:101DA000002005B030BD00BF001800203DB8F396FC
:101DB0002C18002070B584B0054601A8FFF7A8FCD8
:101DC000044658B9019B13B99DF808304BB101A8DE
:101DD000FFF796FFFFF770FD06462E60204604B021
:101DE00070BDFFF73BFE0646831E022BF5D801A807
:101DF000FFF786FFF1E7000070B582B00646444B5E
:101E0000444A5A62444A1A6500240CE02046FFF70F
:101E100010FB2C2303FB04F320333D491944C0B2CB
:101E2000FFF782FA0134012CF0D93C490320FFF777
:101E30007BFAFFF7BDFB054600283ED1FFF722FDE8
:101E40000546002839D1FFF759FB50B9012301930A
:101E5000019B013B042B3ED8DFE803F013353535F9
:101E6000410001A8FFF7A6FF054630BB019B043BDC
:101E7000012BEDD8FFF768FD0028E9D0FF2301937F
:101E8000E6E700231C46019AFF2A2ED02BB1002042
:101E9000FFF7F8FC054680B900240020FFF79AFD03
:101EA000054618BB1A4B1A6A527832711A6A526880
:101EB000B2602C2202FB04343460154B986DFFF79E
:101EC00055FA00241EE0FFF75EFD58B1FF23019391
:101ED00001231C46D7E7FF2301930023D3E7012307
:101EE0000024D0E701231C46CDE7FEE70325E4E705
:101EF000C4F101032C21064A01FB0323186AFFF7F2
:101F000035FA0134012CF3D9284602B070BD00BF68
:101F100000180020641C00206420002058180020B5
:101F200000EB4000203070478068103870478068B0
:101F3000203870478068183870470378032B02D028
:101F400080682838704780682038704770B582B044
:101F50000C46E0B1012821D10846FFF7E8FF05460D
:101F60006078FFF7BFFA06460822FF216846FEF7B1
:101F700095FB01238DF8003033466A4629462046FA
:101F8000FFF716FA034638B9184602B070BD084686
:101F9000FFF7D0FF0546E3E70123F5E70723F3E763
:101FA00010B5044610220A49FEF727FB58B100235A
:101FB000032B06D854F82320B2F1FF3F05D101339B
:101FC000F6E7032010BD012010BD022010BD00BFA8
:101FD000B081000000EB4000C30103F1280070470E
:101FE000037843B1022B03D9032B04D1032070479C
:101FF0004FF4C07070470720704710B50446FFF7D4
:1020000013FA2378032B04D0FFF7E4FFA368181A10
:1020100010BDFFF785FFF9E730B591B004460D46D6
:10202000FFF782FF10236A4601462046FFF7B4F906
:1020300018B10123184611B030BD6846FFF7B0FF54
:1020400028702378032B09D02046FFF770FF012367
:10205000EA1801462046FFF79FF968B92046FFF7C6
:1020600069FF0123AA1C01462046FFF795F90346A4
:102070000028DFD00123DDE70123DBE710B582B0C4
:10208000431E022B03D90724204602B010BD0C4684
:1020900001A9C0B2FFF748F908B10124F4E72146CD
:1020A0000198FFF7B9FF04460198FFF75FF9EBE7E6
:1020B00030B593B0054611A90120FFF735F918B1E5
:1020C0000124204613B030BD119C2046FFF72CFFA1
:1020D000102301AA01462046FFF75EF950BB1022EB
:1020E000184901A8FEF789FAB0B112AC54F8040DF2
:1020F000FFF73CF921460320FFF716F908B1012448
:10210000DFE7119C2046FFF70FFF102301AA0146CD
:102110002046FFF741F990B9119C2046FFF70DFFCB
:1021200004232A4601462046FFF736F9044610B13B
:10213000012400E001241198FFF718F9C1E70124F8
:10214000F9E700BFB081000010B50446FFF7ECFED0
:102150001023054A01462046FFF72AF9034608B92D
:10216000184610BD0123FBE7B081000008B5014609
:102170000120FFF7EBFE08BD08B501460020FFF780
:10218000E5FE08BD70B584B005460191FFF7D5FEA8
:1021900006466878FFF7A6F90446032800D8042409
:1021A0000822FF210DEB0200FEF778FA04220DEB66
:1021B000020102A8FEF74EFA234602AA314628463B
:1021C000FFF7F6F8034610B9184604B070BD0123B6
:1021D000FAE7000000B583B001A90120FFF74EFF28
:1021E00018B1FF2003B05DF804FB69460220FFF739
:1021F00045FF08B1FF20F5E7002306E042789AB1D9
:102200009DF800108A420FD00133022B20D803EB37
:1022100043014A000F4988188A5C002AEED09DF8D5
:1022200004108A42F0D1E9E782781AB19DF80610CD
:102230008A42E9D1C2781AB19DF802108A42E3D1EC
:1022400002791AB19DF805108A42DDD14079C9E7BB
:102250000120C7E7C08100002DE9F0439DB005468D
:10226000894617469846259C01A804F0E7F8002106
:1022700001A804F03BF93CB1269B002B04DD1A4673
:10228000214601A804F059FDEE682B891E44002563
:102290000DE023463A4629464846FFF77DF80346B7
:1022A00088B92246394601A804F047FD2544B542C5
:1022B00004D2741B4445ECD94446EAE7249901A8AA
:1022C00004F0CEFD002318461DB0BDE8F0830000E9
:1022D00070B5A4B006460D460024134B1B689C4203
:1022E0001CDA09A804F0AAF8002109A804F0FEF8F5
:1022F0000E4B03EBC4025268126853F8341009A85D
:1023000004F01BFD01A909A804F0AAFD2A463146E4
:1023100001A8FEF772F918B10134DEE74FF0FF347F
:10232000204624B070BD00BF7C800000808000008B
:102330002DE9F047CEB006460D46579C0294569CB8
:10234000019404AC0094FFF787FF8046002840F01A
:102350009580589B23B1202204A91846FEF77AF9EC
:10236000F46833891C4404234DAA21462846FFF70C
:1023700013F88046002840F08180BDF8342146F6ED
:1023800007139A4276D1BDF836612644043482465A
:1023900081464FF0FF3717E0BDF83231202B71D165
:1023A0000CAA211D2846FEF7F7FF00286DD1202238
:1023B0000CA904A8FEF721F9002868D14FF0010903
:1023C000BDF832311C440434B4424AD204234CAA2E
:1023D00021462846FEF7E0FF00284ED19DF8303117
:1023E000102BD9D0012B20D0202BE9D1002F2DDBB1
:1023F0002F4B1B689F422CDABDF83231B3F5807F3A
:102400004DD10CAA211D2846FEF7C6FF002849D150
:10241000BDF83231FFB200970CAA202104A800F0C9
:1024200035F9C8B14FF0FF37CAE7BDF83231202B7C
:1024300030D80CAA211D2846FEF7AEFF68BB9DF8D8
:1024400032110CA8FFF744FF0746B9E74FF0FF37FA
:10245000B6E74FF0FF37B3E74FF0FF374FF0010A11
:10246000AEE7B9F1000F20D0BAF1000F06D14FF05E
:10247000FF3803E04FF0FF3800E0804640464EB0A2
:10248000BDE8F0874FF0FF38F8E78046F6E74FF0F9
:10249000FF38F3E74FF0FF38F0E78046EEE74FF004
:1024A000FF38EBE74FF0FF38E8E74FF0FF38E5E79C
:1024B0007C800000F0B583B006460D4614463023FC
:1024C00001AA2146284602F0EDF920BB2B68019AAB
:1024D00013449C4222D106F108073A462146284679
:1024E00002F0F3F9F8B906F114022146284602F089
:1024F000ECF9D8B9384602F0D8FC70602B689C42E1
:1025000017D1304603F0F4FE0446A8B9384602F06D
:10251000CCFC706004E04FF0FF3401E06FF0010488
:10252000204603B0F0BD6FF00204F9E76FF002043B
:10253000F6E76FF00304F3E76FF00404F0E7F0B59B
:10254000A5B006460F4600230893DF2407E0254682
:102550002A4669463046FEF77DF82E44641B002C5F
:102560001DDD09A803F06AFF002109A803F0BEFFE2
:102570002022394609A804F0E0FB042208A909A892
:1025800004F0DBFB694609A804F06AFC9DF82330DF
:1025900001338DF823301F2CD9DD2025D8E725B055
:1025A000F0BD000070B5ADF51C7D4468B4F5807FCA
:1025B00055D1202A56D10E4641AA194603F0C6FE2F
:1025C0000546002851D19DF80332BC2B50D10DF2A5
:1025D000E31109A8FFF7B3FF2B4606E041AAD25C3E
:1025E00009A8C45C6240C2540133DE2BF6DD9DF8BD
:1025F000243003F07F038DF82430BD2D05DC09ABBA
:102600005B5D002B37D10135F7E79DF8E230012BF8
:1026100037D181A803F012FF002181A803F066FFE3
:102620000822194981A804F088FB2022314681A89C
:1026300004F083FB20220DF1E30181A804F07DFB6F
:1026400001A981A804F00CFC20220DF2E31101A8DD
:10265000FDF7D3FF034680B14FF0FF330DE04FF09D
:10266000FF330AE04FF0FF3307E04FF0FF3304E0A1
:102670004FF0FF3301E04FF0FF3318460DF51C7D9E
:1026800070BD4FF0FF33F8E7D48100002DE9F04131
:10269000ACB005460E4617461C469DF8C880002281
:1026A000114601A803F015FE124B53F838202CA94F
:1026B00041F8B02D03EBC8035B681B681A4401A8FE
:1026C000FFF7F8FE804610B9029BA34206D001A88E
:1026D00003F07EFE40462CB0BDE8F0813B4632461A
:1026E000294601A8FFF75EFF804601A803F070FEAF
:1026F000F0E700BF80800000064B1B68082B01D06C
:1027000000207047044B1B680BB10020704701206C
:10271000704700BF3001001034010010064B1B68E9
:10272000082B01D000207047044B1B680BB1002020
:1027300070470120704700BF3001001034010010C5
:10274000064B1B68082B01D000207047044B1B6808
:102750000BB1002070470120704700BF300100100E
:1027600034010010064B1B68082B01D00020704775
:10277000044B1B680BB1002070470120704700BF5D
:102780003001001034010010064B1B68082B01D0EB
:1027900000207047044B1B680BB1002070470120DC
:1027A000704700BF3001001034010010064B1B6859
:1027B000082B01D000207047044B1B680BB1002090
:1027C00070470120704700BF300100103401001035
:1027D00008B5FFF791FF40B14FF080430022C3F8E6
:1027E0000C21C3F81021C3F83825FFF797FF10B16B
:1027F000364A374B1A60FFF7A3FF18B1FB22354B5F
:10280000C3F81825FFF7AEFF48B133490B6823F032
:102810000F03324A126802F00F0213430B60FFF7F6
:10282000B3FF18B14FF400722D4B1A60FFF7BEFFD3
:1028300060B14FF08043D3F8003413F0010F05D09E
:102840006FF001024FF08043C3F800244FF01023D3
:10285000D3F80032002B06DB4FF01023D3F80432FC
:10286000002B00DB08BD01221E4BC3F804251D4BC5
:10287000D3F80034002BFAD012224FF01023C3F803
:102880000022184BD3F80034002BFAD012224FF05C
:102890001023C3F80422134BD3F80034002BFAD0D2
:1028A0000022104BC3F804250E4BD3F80034002B44
:1028B000FAD0BFF34F8F0C49CA6802F4E0620B4BA9
:1028C0001343CB60BFF34F8F00BFFDE74881030088
:1028D0008C56004000F00040E40E0040580200100A
:1028E0004096024000E0014000ED00E00400FA05DF
:1028F000014A024B1A6070470090D003905F00209D
:1029000010B54FF02003EFF3118483F31188FFF724
:102910005FFF054B4FF0FF329A62DA62FFF7E8FF84
:1029200084F31188002010BD00ED00E0704700BF67
:1029300000220AE053B2002B0ADB03F1604303F5E7
:102940006143202183F8001301322F2AF2DD704702
:1029500002F00F01024B0B4420211976F4E700BF6F
:10296000FCEC00E0084A9368186608490968596653
:1029700007494B6843F080534B60002383F3118871
:102980009368586E704700BFC82E00207C850000F9
:1029900000ED00E00E498A6828201044EFF3098C0E
:1029A00080E8F01F0B4F4FF00066202080F3118865
:1029B000CA698A603E60106E0023136680F3118836
:1029C00002F1280090E8F01F8CF30988704700009E
:1029D000C82E002004ED00E01EF0040F0CBFEFF342
:1029E0000880EFF30980816931F8021C11F0FF01C2
:1029F00001D0022907D0404080F3118804494FF0EC
:102A000080520A60704700B500F050F900BD000028
:102A100004ED00E0114B9B6A13F0100F1CD10F4B1B
:102A20009B6A13F0080F17D10C4B9B6A13F0020F2F
:102A30000BD00A4B9B6A13F0800F0DD061B1074A8F
:102A4000936A23F0800393627047044B9B6A13F0F0
:102A5000010F01D1014B9B6A704700BF00ED00E000
:102A6000144B9B6A13F4805F23D1124B9B6A13F4BF
:102A7000006F1ED10F4B9B6A13F4007F0DD00D4BDE
:102A80009B6A13F4004F05D021B10A4A936A23F4DC
:102A900000439362074B9B6A7047064B9B6A13F493
:102AA000806F06D1034B9B6A13F4807F01D1014BE9
:102AB0009B6A704700ED00E0064B9A6A9A6A9A6A30
:102AC0009A6A9A6A9A6A9A6A6FEA02426FEA1242AC
:102AD0009A62704700ED00E008B5104BDB6A13F016
:102AE000020F0ED10D4BDB6A13F0804F09D00C4B57
:102AF0001B783BB90B4B1B7843B90B4B1B889BB224
:102B000043B908BD0121FFF785FF08BD0121FFF78B
:102B1000A7FF08BDFFF7D0FFF3E700BF00ED00E01F
:102B200028ED00E029ED00E02AED00E008B50339CA
:102B3000032910D8DFE801F00205090DFFF7CCFFEB
:102B400008BD0021FFF766FF08BD0021FFF788FFE1
:102B500008BDFFF7B1FF08BD10B50446054B596825
:102B6000C1F30801FFF7E2FF2146002000F0A4F8BE
:102B700010BD00BF00ED00E0024A536943F01003AE
:102B80005361704700ED00E043B2002B08DB5B09A6
:102B900000F01F00012202FA00F0024A42F823006E
:102BA000704700BF00E100E043B2002B0DDB5B0982
:102BB00000F01F00012202FA00F02033034A42F81D
:102BC0002300BFF34F8FBFF36F8F704700E100E02A
:102BD000013143B2002B08DB4901C9B203F1604364
:102BE00003F5614383F80013704700F00F004901BB
:102BF000C9B2014B1954704714ED00E008B500F05C
:102C000037F808BD2DE9F0410546884617461E46AF
:102C10008C180A9B0422099905F0D3F90022EA6472
:102C20002A65C5F85880EF65A4F1200323F0070357
:102C3000084921F0010199611E60069959600799C0
:102C400099600899D9604FF08071D961AB642A66A8
:102C5000BDE8F081917F0000014910220A607047B1
:102C600010ED00E0404080F3118830BF704700BF96
:102C7000404080F31188DFF81CC0DCF800C01CF471
:102C8000006C0CBFEFF30880EFF3098000B5FFF78D
:102C900063FF00BD04ED00E038B504460D4604F0C6
:102CA000EFFF2946204600F007F838BD08B5014679
:102CB0000068FFF7F1FF08BD08B5FFF7D3FFFCE799
:102CC00000B572B60B4A906900281EBF00219161C1
:102CD00004F058FE62B6EFF30580A0F110004FEA51
:102CE000C0000549014409C998475DF804EBFFF7A6
:102CF0001DBE0000C82E002000010000202080F32F
:102D0000118805484FF40061401880F309880220BB
:102D100080F3148800F006B81057002030BFFFF78A
:102D2000FDBF00BF08B5074A074B23F07F03936040
:102D3000BFF34F8FBFF36F8F04F0AEFE04F0B8FE09
:102D400004F0D6FE00ED00E000000000BFF34F8F5E
:102D50000549CA6802F4E062044B1343CB60BFF339
:102D60004F8F00BFFDE700BF00ED00E00400FA0553
:102D700008B5FFF7D3FFFFF7D9FD08BD054B9860F5
:102D800021F01F01084340F01000D86042F001021A
:102D90001A61704790ED00E0144B1A68144B1B68E1
:102DA000C3F307239A421FD810B50024104B5C6070
:102DB0000BE00E4B596804EB44029300CA1892686A
:102DC000C9582046FFF7DAFF0134084B1B689C42C4
:102DD000EFD30522064B5A600122064B1A70BFF34F
:102DE0004F8FBFF36F8F10BD704700BF4C5F002047
:102DF00090ED00E06425002008B5FFF7CDFF00202E
:102E000008BDF0B59DF814401CB14FF0020C00272E
:102E10001AE04FF0000CFAE713F4004F11D101351E
:102E20002346072D0FD85C00A4B28F42F4D210F8CD
:102E300007E080262E411EEA060F18BF44F0010469
:102E4000EAE75440EBE701370CEB0104A74201D25B
:102E50000025E6E71846F0BD2DE9F043DDF81CC07B
:102E6000BCF1000F18D03E4CA4FB0C4E4FEA5E0E96
:102E70000EEB4E04A4450CBF74460EF10104B4F1F0
:102E8000804F0DD2A40001348C4210D878B10EEBE3
:102E90004E0E0446002736E000201060BDE8F083A7
:102EA0004FF0FF3313606FF00B00BDE8F083146048
:102EB0006FF00B00BDE8F08393F8008059789D789F
:102EC000284E4FEA980916F8099084F800904FEAC6
:102ED000081808F0300808EB211808F03F0816F829
:102EE000088084F80180890001F03C0101EBA51104
:102EF00001F03F01715CA17005F03F05715DE1706B
:102F00000337043403337745D6D367451CD2197889
:102F10000137BC451ED95D78124E8B08F35C2370D7
:102F20000B0103F0300303EB251303F03F03F35CC5
:102F30006370BC4510D9E31CAD0005F03C05715D24
:102F4000A1705C1C3D211970201A106000202070B7
:102F5000BDE8F0830025DFE7E31C3D21A170F0E729
:102F6000ABAAAAAA90820000F0B5059F4FF0000C12
:102F7000E646644624E001340135BC4202D21E5DBF
:102F8000202EF8D0BC422CD03E1B012E02D91E5D53
:102F90000D2E19D01E5D0A2E11D0002D78D13D2E98
:102FA00017D016F0800F76D13F4DAD5D7F2D75D0D7
:102FB0003F2D02D8BCF1000F73D10EF1010E013488
:102FC000BC420ED20025D8E71E1976780A2EE1D130
:102FD000F5E70CF1010CBCF1020FE2D96FF015001E
:102FE000F0BDBEF1000F17D04FEADE0606EB460635
:102FF00075000EF0070E0EEB4E0E4FEA4E0607362A
:1030000005EBD605A5EB0C0548B18D4207D88646E1
:10301000002703263D4609E000201060F0BD156042
:103020006FF00B00F0BD0025013C01335CB3197853
:103030000D29F9D00A29F7D02029F5D0DFF868C08A
:103040001CF80110402908BF013E01F03F0141EA90
:1030500087170135042DE7D12EB1C7F307418EF84C
:1030600000100EF1010E012E05D9C7F307218EF8CD
:1030700000100EF1010E022ED5D98EF800700EF15F
:10308000010E0025D0E7AEEB000010600020F0BD7F
:103090006FF01500F0BD6FF01500F0BD6FF015007A
:1030A000F0BD6FF01500F0BD1082000008B50446B9
:1030B0004FF02002EFF3118382F3118800F0FEFE3F
:1030C0002046FFF743FEFFF7CDFDFCE77047000009
:1030D0004FF02003EFF3118183F31188134B1A781B
:1030E00092B1531EDBB21148037093B9104B1B7899
:1030F000A3B90F4B01221A7081F311884FF0804160
:103100004A6000201870704781F311886FF0440006
:10311000704781F311886FF00F007047034B1A70EE
:1031200081F311886FF00A00704700BF6725002007
:103130006625002008B5002201211046FFF748FD52
:103140000020FFF721FD002008BD000010B54FF062
:103150002003EFF3118483F311882C4A1378581C51
:10316000107053B184F311884FF08043D3F80C34BE
:1031700013F4803F47D0002010BD254A1278A2B931
:103180000122234B1A7084F31188A1B30020FFF7AA
:103190000BFD4FF080430022C3F80021D3F8041345
:1031A0000122C3F804231A6009E0184A137084F35B
:1031B00011886FF00A0010BD20BF40BF20BF4FF044
:1031C0008043D3F80031002BF6D000224FF080432B
:1031D000C3F8002111F0010F02D10122C3F8082326
:1031E00001220C4BC3F880210020FFF7CDFC002208
:1031F000074B1A70B8E74FF080430022C3F8002154
:1032000001221A60F3E76FF0430010BD672500202C
:103210006625002000E100E02DE9F04180464FF0F6
:103220008043D3F80851D3F8042302F00102D3F805
:103230000C1401F48031D3F80071D3F80461D3F891
:103240000C01D3F810411DB14FF0000EC3F808E196
:1032500027B100274FF08043C3F8007132B129B184
:103260004FF080430122C3F808231A6126B10022DF
:103270004FF08043C3F8042110B964B9BDE8F08170
:103280004FF080460021C6F80C114046FFF720FFA2
:1032900001237361F1E74FF080430021C3F810115F
:1032A0000122C3F804234046FFF750FF0028E5D170
:1032B0000122024BC3F80021E0E700BF00E100E07B
:1032C0004FF02002EFF3118382F31188384A12780D
:1032D00052B183F311884FF08043D3F8183413F4BC
:1032E000803F62D00020704770B50D46044601262D
:1032F0002F4A167083F311880020FFF755FC4FF01A
:1033000080430022C3F80421D3F804230221C3F828
:103310000413C3F818559E6002E020BF40BF20BFD1
:103320004FF08043D3F80431002BF6D000214FF04A
:103330008043C3F8041112F0020F02D10222C3F835
:10334000082301221B4BC3F880210020FFF71CFC3F
:103350004FF080431822C3F808230022C3F80C2141
:10336000C3F8102115F0030F08D04FF08043D3F8B5
:10337000183413F4803F15D0002070BD1022C3F81C
:1033800038251822C3F804230122C3F8042300219E
:103390002046FFF7DBFE0028E7D10122054BC3F8EA
:1033A0000021E2E76FF0430070BD6FF0430070470B
:1033B0006525002000E100E0024BD3F80034002B2B
:1033C000FAD0704700E00140024B0B60012313600C
:1033D000704700BF6825002070B50446124BD3F833
:1033E00004654FF0805215690222C3F80425FFF7E7
:1033F000E3FF22680C4BC3F80825FFF7DDFF636885
:103400005B1B636022682A442260002BF1D1064BCB
:10341000C3F80465FFF7D0FF63680BB9002070BDE7
:103420004FF0FF3070BD00BF00E001404B68034427
:103430004B600B6803440B608B681B1A8B607047F2
:1034400000B583B0009001916846FFF7C5FF03B057
:103450005DF804FB10B50C464FF0FF31094804F04D
:1034600097FC54B90122084BC3F80425FFF7A4FFC9
:10347000044804F080FC002010BD0022024BC3F879
:103480000425F3E77025002000E0014070B54FF0FF
:1034900080531B69B2FBF3F5B1FBF3F003FB101093
:1034A00040BB03FB152343BB50184FF080542669E3
:1034B000636903FB06F3984205D8002901DB012369
:1034C00002E0002300E00023D3B115B90024204618
:1034D00070BD14460D460C4E4FF0FF31304604F0DF
:1034E00057FC21462846FFF7ABFF0446304604F060
:1034F00042FCECE76FF01504E9E76FF01504E6E72E
:103500006FF01504E3E700BF7025002070B582B0AE
:103510000446406820F0030610F0030020D0336812
:103520000193C0F10403A568AB4200D81D462A46AA
:10353000216801AB1844FDF78DF8FFF73DFF019BB3
:10354000336021462846FFF771FF09E0FFF734FF9B
:103550006368226812681A6021460420FFF766FF3C
:10356000A268032AF2D822B9FFF726FF002002B092
:1035700070BD63681B6802A840F8043D2168FDF730
:1035800069F8FFF719FF6368019A1A602146A0687D
:10359000FFF74CFFE8E700B585B001910290039278
:1035A00001A8FFF7B3FF05B05DF804FBF8B5CD182F
:1035B0004FF080500669446904FB06F4A54205D823
:1035C000002901DB012002E0002000E00020B0B172
:1035D00013B900242046F8BD1C4616460D46094F77
:1035E0004FF0FF31384604F0D3FB224631462846DF
:1035F000FFF7D1FF0446384604F0BDFBEAE76FF061
:103600001504E7E77025002070B5C8184FF0805505
:103610002E696C6904FB06F4A04205D8002901DB81
:10362000012002E0002000E0002040B10BB90020A2
:1036300070BD10461A46FDF70DF8002070BD6FF002
:10364000150070BD08B5084B4360012211460748BC
:1036500004F08CFB4FF080525169054B19601269E0
:103660005A60002008BD00BF0083000070250020C4
:10367000682500202DE9F04786B0894690464368CA
:103680001B6901AA05A9984700242646A246019B6A
:103690009A4516D2059F07EBCA077B68039300255E
:1036A0003B689D420AD202940496414602A8C8474C
:1036B00038B1039B1C4401360135F1E70AF1010AD8
:1036C000E5E706B0BDE8F087002007281ADC10B453
:1036D00002E00130072811DC0C4B1B68C34013F0DB
:1036E000010FF6D000F5A273094C54F82330C3F350
:1036F00004238B42EDD1002AEBD101E06FF01200E0
:1037000010BC70476FF01200704700BF8C2500207E
:103710000060004000688068006821B1D0F8102582
:103720001A6000207047D0F8101521FA02F202F05A
:1037300001021A60F5E700688068006861B92BB182
:10374000012303FA02F2C0F8082507E0012303FA77
:1037500002F2C0F80C2501E0C0F8043500207047E3
:1037600010B484684AB123680B602160636813B1A8
:10377000002010BC70476160FAE708462368002209
:10378000002BF5D0984202D01A461B68F8E73AB1F0
:103790000B6813606368994209D000230B60E7E768
:1037A0000B68236062689142F7D16360F5E762605D
:1037B000F3E70000E9B970B50D4614468668036862
:1037C0009B681A792146FFF77FFF002814DB01234D
:1037D00003FA04F4B2681443B460084A00F14001EB
:1037E000002442F8214003FA00F0C2F804032846FE
:1037F00070BD6FF02200704770BD00BF00600040D8
:10380000C1B970B50D461446866803689B681A797D
:103810002146FFF759FF00280FDB012303FA04F4C8
:10382000B26822EA0404B4608340044AC2F8083350
:10383000284670BD6FF02200704770BD00600040E8
:1038400038B500231D4600E00133072B16DC03F1D9
:103850004001194A52F82120002AF5D0164803F5F4
:10386000A27250F82210C1F3042103F14002002497
:1038700040F8224001228A401543E5E70F4B9B6840
:103880009A6815401C6805E022466CB123686BB14C
:1038900072B1246874B1A3681D42F5D063682A46EA
:1038A000214606489847EFE72346F0E70024F1E772
:1038B0000024EFE738BD00BF006000400C6000202E
:1038C0002DE9F0410546006880680068002940F055
:1038D0008B800C46C3F3013EC3F3813603F44031C1
:1038E00003F44077B7F5807F2CD0B7F5007F2BD05D
:1038F0000027B1F5803F29D013F0010F32D00C2FF3
:1039000026D0042F29D006EB8E063D4951F826100B
:10391000394341F0030102F5E07640F8261013F038
:1039200002006BD02968896891F8048013F0200F99
:103930005ED013F0400F22D113F0040F45D04FF4A6
:1039400080371EE00C27D4E70427D2E70021D3E715
:1039500001219140C0F80815D5E701219140C0F838
:103960000C15D0E706EB8E06DFF894E05EF82660D3
:103970003143394302F5E07640F82610CFE74FF4A3
:103980004037264614461F4B1868FCF791FC082860
:1039900032D0424621462846FFF796FE002817DB24
:1039A000012303FA00F217490B6813430B6047F039
:1039B0000107240204F4F8543C4300F5A270124BB2
:1039C00043F820403046BDE8F0814FF40037D8E797
:1039D0000C4B1B68DB4393FAA3F0B0FA80F0002B8A
:1039E000DED14FF0FF30DBE76FF02200BDE8F08161
:1039F0006FF02200BDE8F0816FF00400BDE8F081B7
:103A0000188300008C2500200060004008B50022CB
:103A100005210620FFF7DCF80620FFF7B5F80020A7
:103A200008BD08B5FFF7F2FF002008BD03689B68DA
:103A30001B68B1F5E14F5BD010D9B1F5613F5ED0A5
:103A400033D8B1F5614F55D029D9B1F5963F54D04F
:103A5000B1F5E13F1BD14FF0EB723BE0B1F5166FD2
:103A60003FD00BD9B1F5165F3ED013D9B1F5615FE8
:103A70003CD0B1F5964F0AD1274A2BE0B1F5167F1D
:103A800046D0B1F5966F29D0B1F5967F20D06FF072
:103A900015007047B1F5965FF9D1204A1AE0B1F5EB
:103AA000164FF4D14FF41D0214E0B1F5E12F29D0E7
:103AB00008D9B1F5612F28D0194A9142E7D14FF0CA
:103AC000805207E0174A9142E1D14FF0806201E055
:103AD0004FF4A032C3F82425002070474FF49E22F3
:103AE000F8E74FF41D22F5E70F4AF3E70F4AF1E735
:103AF0000F4AEFE74FF46B02ECE70E4AEAE74FF0AC
:103B00006C72E7E74FF0E862E4E74FF07062E1E7DC
:103B10004FF41C32DEE700BF00A04E0000B01300DF
:103B200040420F0090D003000050270000F03A0000
:103B300000C0750000903A0103689B681B68D3F8C9
:103B4000082132B10020C3F80801D3F818350B70F2
:103B500070474FF0FF30704703689B681A68C2F8DF
:103B60001C15D2F81C31002BFBD00023C2F81C31ED
:103B70000846704703689B681B68D3F8242132B15C
:103B8000D3F88004C3F8800400F00F0070470020D1
:103B9000FAE730B403689B681C68002307E0002044
:103BA000C4F81C01581CCB5CC4F81C35C3B21846C1
:103BB000D51A002D03DDD4F81C51002DEFD130BCF7
:103BC000704730B403689B681C68002307E000203E
:103BD000C4F80801581CD4F81855CD54C3B218467F
:103BE000D51A002D03DDD4F80851002DEFD130BCDB
:103BF000704703689B681A68D2F8043343F0800367
:103C0000C2F80433704703689B681A68D2F8083317
:103C100043F08003C2F80833704703689B681B6851
:103C2000D3F81C01704703689B681A68D2F8043304
:103C300043F00403C2F80433704703689B681A68B2
:103C4000D2F8083343F00403C2F80833704703681E
:103C50009B681B68D3F81C01B0FA80F040097047DC
:103C600003689B681B68D3F80801704703689B686A
:103C70001A68D2F8043343F40073C2F8043370476F
:103C800003689B681A68D2F8083343F40073C2F8DB
:103C90000833704710B50446FFF7BFFF10B101238A
:103CA000184610BD2046FFF7DBFF03460028F7D07B
:103CB0000123F5E70120704783685960704708B514
:103CC00083685B6803B1984708BD08B500220121ED
:103CD0000220FEF77DFF0220FEF756FF08BD000020
:103CE000F8B5044603689B681D681D4803F022FE72
:103CF000064643681F6840F201130D220021B847B1
:103D000073681F6800230E2219463046B8470D23FA
:103D1000C5F80C350E23C5F81435A3684FF4E1320D
:103D20001A60A36822689268526819682046FFF7F3
:103D30007DFE064608B13046F8BD0423C5F80035BF
:103D40000023C5F81C31C5F808310123AB602B6096
:103D5000044B636023689B689B6820469847EAE7AA
:103D60007C83000098830000084BC3F84005D3F81B
:103D70000435C01A20F07F400238054B984204D920
:103D80004FF40032034BC3F800217047001001408C
:103D9000FDFF7F0000E100E008B5154BD3F80435C6
:103DA000144A11685B1A23F07F43B3F5A37F17D938
:103DB000114AA2FB03029B1A02EB53031B0A0F4A90
:103DC0001068834200D8184640F2471303FB0013E3
:103DD00023F07F43074A1360094B186003F0F4FF98
:103DE000044B186800F24710FFF7BEFF08BD00BF84
:103DF000001001409425002021F1D490902500204E
:103E0000B45F002008B50022024BC3F84021FFF741
:103E1000C3FF08BD0010014008B50022064BC3F8DF
:103E200040214FF40032054BC3F88021FFF7B4FF67
:103E30000122034B1A6008BD0010014000E100E0C0
:103E40009025002070B5184803F074FD48B342680F
:103E50001268012190470024144B1C600126144B6A
:103E60001E60144DC5F8084540F24713C5F84035AB
:103E70004FF48033C5F84433C5F80433C5F84041E6
:103E80004FF400320C4BC3F88021224631461120FA
:103E9000FEF79EFE1120FEF777FEAE602E602046F4
:103EA00070BD4FF0FF3070BDE88200009425002007
:103EB000902500200010014000E100E010B54FF017
:103EC0002003EFF3118483F311881120FEF76CFEB9
:103ED000064B4FF48032C3F84823C3F8082301226D
:103EE0005A609A6084F3118810BD00BF0010014031
:103EF00010B50446094B196811B1094803F04CFE8E
:103F00000021084803F04EFE044B186020B100F178
:103F100008032360406810BD206010BDA02500206C
:103F2000246000203460002010B582B00EE0002133
:103F3000254B186803F036FE244B1860002824D166
:103F400002B010BD9DF807300A2B2DD0204B186809
:103F50004368DB6B002B33D098470028F0D01C4B14
:103F600018684368DB6A002B2CD098470028E7D0FC
:103F7000174B186843681B691BB101220DF107013B
:103F80009847124B1B68002BD1D0124B1B88B3F5FE
:103F9000007FD7D20D4A1268581C0E49088013447E
:103FA0009DF807201A72CDE7084B1968094C238841
:103FB0004B60094B186803F0EFFD00232380C5E731
:103FC0000020CAE70020D1E7982500209C2500208A
:103FD000BC290020A4250020B829002010B582B0FB
:103FE000194803F0A7FC194B1860002828D0436833
:103FF0008BB11B6C7BB1164998470CE001220DF187
:104000000701984707E0002474B1104B1868436813
:104010001B69002BF2D10D4B18684368DB6A002B3B
:10402000F1D098470446EFE700220A4B1A80074B6D
:10403000186843681B6A03B19847204602B010BD58
:104040004FF0FF34F9E700BF84830000BC29002053
:10405000293F0000A425002010B504460A2807D0F7
:10406000074B186843685B68E1B29847204610BD6B
:10407000034B186843685B680D219847F0E700BF61
:10408000BC29002070B506460D460024AC4207DA74
:10409000305DFFF7E1FFB0F1FF3F01D00134F5E7FC
:1040A00070BD70B582B005460C46164601A8FFF7F4
:1040B0001FFF019971B1013CA04200DC0446224679
:1040C0002846FCF7C7FA00232B5501233360E0187C
:1040D00002B070BD00203060FAE7000010B5002487
:1040E00008E004EB8412D30008491944084803F09F
:1040F00053FD0134012CF4D9054A064B1A60064AD7
:10410000064B1A60FFF76AFF10BD00BFA82500200C
:10411000246000209825002034600020B829002069
:1041200038B504461546436804481844FCF792FA2B
:1041300062682A446260002038BD00BFC4290020A4
:104140002DE9F043A3B0404B1B88ADF880303F4BC6
:104150005F68DFF80091D9F800000378013303703D
:1041600001254570C7F3072343EA0723438082886C
:10417000130A43EA022383800023009341F22102C1
:104180000821FEF73EFE0346ADF88600DFF8C88042
:10419000009541F2210239464046FEF732FE030AFD
:1041A00043EA0020ADF88600022120A8FFF76AFF4D
:1041B000BCB204F10A039BB21A0A42EA032322A901
:1041C00021F8043D022214A8FCF744FA0226ADF8B7
:1041D00084600822D9F800100DF15200FCF73AFA79
:1041E000BDF88400083080B2ADF884003A464146FC
:1041F00014AB1844FCF72EFABDF88400204480B2BA
:10420000ADF8840032460DF1860114AB1844FCF77A
:1042100021FABDF8843033449BB2ADF8843000936A
:1042200014AB02AA412103A8FEF716FEBDF8081040
:10423000ADF8841003A8FFF725FF29460448FFF7CF
:1042400021FF23B0BDE8F083508000009C5F002078
:10425000E8830000C0290020C429002008B5FFF72A
:104260006FFF08BDF0B585B015461C461E680239C3
:104270000091034603AA0A99A819FEF775FE40BBF0
:1042800007462368039A13442360022B02D838465A
:1042900005B0F0BD35F8022B160A46EA0226B6B282
:1042A000023BB34228BF33469EB201230093002352
:1042B00041F2210231462846FEF7A3FD0028E6D14F
:1042C000022EE4D92368023B23600022EA5401272E
:1042D000DDE74FF0FF37DAE770B5114C114D4FF0C5
:1042E000FF322146284602F067FF0F4E3046FCF7AA
:1042F00070F902463146204602F051FF00220023A9
:10430000204602F003FF2146284602F065FFFFF732
:1043100017FFFA2003F0B2FC0120FEF7C7FE70BDC4
:10432000182A0020F4290020F08200002DE9F04333
:10433000ADF5057D05460E460024049403944FF424
:10434000C872214605A8FCF7A9F973AB009378ABB6
:1043500022463146284603F095F940B303464FF014
:10436000FF34002526462F46002B40F0A780002F63
:1043700008BFB6F1FF3F00F0C5800020FDF759F8F7
:1043800003A9C0B2FCF7D0FF002840F0BD8056EA78
:10439000070363D10022674B1A60039882684FF0CD
:1043A0000009A94508BFA24251D2032587E06EAAA1
:1043B000614973A803F057FA00287DD19DF8CB31ED
:1043C00013F0010F11D1BDF8C86100276EAA5B4937
:1043D00073A803F048FAA0B99DF8CB3113F0010F90
:1043E00009D1BDF8C84100250EE06EA803F023F9FD
:1043F00006460F46EAE76EA803F01DF904460D468F
:1044000002E04FF0FF3400256EAA4D4973A803F077
:104410002AFA08B1162552E09DF8CB3113F0040FAB
:104420000AD069AB04AA05A96EA803F0ADF903464A
:10443000002899D00C2542E013F0010F03D1BDF8FC
:10444000C8010490EDE76EA803F0F5F8F9E7002144
:10445000FCF7CEFF002859D13A4B1C60354B1B6846
:104460000021B94208BFB34201D0212527E0049CB6
:104470002344344A126893420FD3049B05AA2D4962
:1044800009680398FCF794FF0546002840D1294AA3
:10449000136804990B44136011E00398FCF7C4FF00
:1044A000B4FBF0F300FB134414F0FF0FE5D0E4B2CB
:1044B000049B1C1B0494E0E7142500E00325224C18
:1044C0004FF0FF322146214802F076FE204E304662
:1044D000FCF77FF802463146204602F060FE2A468D
:1044E000EB17204602F012FEA5B11749174802F05B
:1044F00073FEFFF725FE0398FCF738FF0DF5057DE9
:10450000BDE8F0830325DAE70325D8E70325D6E7DE
:104510000325D4E7084D2846FCF75BF802462946F8
:10452000204602F03CFE034B1A680023204602F0AE
:10453000ADFDDAE73C2A0020188400001C8400004E
:1045400020840000442C0020182A0020F429002098
:10455000F082000030B5B1B0424C4FF0FF3221463E
:10456000414802F029FE414D2846FCF732F8024648
:104570002946204602F013FE4FF0FF3227A92046BD
:1045800002F015FE002403E00598FCF7EFFE01346D
:10459000012C5ADC2046FCF74CFF05A9C0B2FCF701
:1045A000C3FE0028F3D1202316AA00210598FCF7AA
:1045B000F3FE2F4B169A9A42E6D100230293019301
:1045C0000093402306AA059916A8FDF7B1FE00281E
:1045D000DAD10598FCF7CAFE4FF0FF321EA927A8D2
:1045E00002F0EAFD234D2846FBF7F3FF0246294679
:1045F0001EA802F0D4FD2246E3171EA802F086FD95
:104600001D4D2846FBF7E5FF024629461EA802F08D
:10461000C6FD9DF86C309DF86D20BDF86E101C989D
:10462000029001910092154A402106A8FCF7E4FD92
:1046300006A8FBF7CEFF024606A91EA802F0AFFDB2
:104640001EA927A802F0C8FDA1E7064C27A920460D
:1046500002F0C2FD2146044802F0BEFDFFF770FDE6
:1046600031B030BD182A0020F4290020F483000066
:104670003DB8F396FC830000048400000C84000025
:10468000072903D9037813B1022B00D0704770B506
:104690004288130A43EA02239BB2A1F10804A34211
:1046A00000D270BD0546194B18608288130A43EA90
:1046B0000223838000F10806154900224A6015484C
:1046C00002F0DFFCAB88012B07D0002BE9D1EB799E
:1046D000012B11D0052B14D070BDEB7913B1012B38
:1046E00005D070BD21463046FFF734FF70BD21462E
:1046F0003046FFF71BFE70BD21463046FFF7AEFD8A
:1047000070BD21463046FFF7E7FDCAE7C02900200B
:104710009C5F0020F4290020F0B585B00546FFF726
:10472000DDFC06212648FFF7ADFC0026002700240B
:104730001FE0029B2BBB013647F10007214A0023F3
:10474000BB4208BFB24214D205B0F0BD1E4A527837
:10475000092A1ED104AB002243F8042D00951B4A00
:10476000A11E1B48FFF77EFD012820D00026002750
:10477000002402AA291B14482044FFF792FC0028B9
:10478000D7DD0444029B002BF3D00F4B1B78062B84
:10479000DCD0042BE8D10C4B5B78142BE4D10095D2
:1047A00003AB0A4AA11E0A48FFF75CFDDCE7039948
:1047B00002390848FFF764FF002600270024D8E7E5
:1047C000EC83000040420F00482C0020402A0020CB
:1047D0004A2C0020422A00200020704730B5036890
:1047E000CD1A002D4CDD1C7814F0800F0AD15C1C12
:1047F00004601B78136013680268891A8B423CD8E6
:10480000002030BD04F07F04013C032C3BD8DFE8DE
:1048100004F0020A1523012D38DD5B78136003686C
:1048200002330360E7E7022D33DD5C789B7843EACF
:1048300004231360036803330360DCE7032D2BDDDF
:104840005D789C78240244EA0544DB7823431360B6
:10485000036804330360CEE7042D20DD5D789C7887
:10486000240444EA0564DD7844EA05241B792343E3
:104870001360036805330360BDE76FF05F0030BD70
:104880006FF05F0030BD6FF0630030BD6FF05F0010
:1048900030BD6FF05F0030BD6FF05F0030BD6FF076
:1048A0005F0030BD38B504680D1B002D07DD25788D
:1048B0009D4207D101340460FFF790FF38BD6FF0CF
:1048C0005F0038BD6FF0610038BD30B583B004467D
:1048D0001546022301AAFFF7E5FF034610B118466B
:1048E00003B030BD019A2168284600F0E4FA03467F
:1048F000226801990A442260F1E703E00022026085
:10490000043019464B1E0029F8D170474FF0004281
:1049100000231F2B04D8024202D152080133F8E7CA
:1049200018467047F0B500231D4613E01768FC1ABF
:10493000146051F8046BB4422CBF4FF0000E4FF0DE
:10494000010EBB4294BF73460EF10103A41B42F853
:10495000044B01358542E9D307E01168C81A42F8D3
:10496000040B8B4294BF00230123002BF5D1F0BD33
:10497000F0B40024F2E00E68A6FB0367A4192CBF74
:10498000012500253D441668A4192CBF01260026E8
:10499000354414604E68A3FB0667AD192CBF012493
:1049A00000243C445668AD192CBF0126002634442F
:1049B00055608E68A3FB0667A4192CBF012500254E
:1049C0003D449668A4192CBF012600263544946006
:1049D000CE68A3FB0667AD192CBF012400243C441C
:1049E000D668AD192CBF012600263444D5600E6967
:1049F000A3FB0667A4192CBF012500253D441669B9
:104A0000A4192CBF01260026354414614E69A3FB6E
:104A10000667AD192CBF012400243C445669AD192A
:104A20002CBF01260026344455618E69A3FB06671E
:104A3000A4192CBF012500253D449669A4192CBF5B
:104A40000126002635449461CE69A3FB0667AD19A3
:104A50002CBF012400243C44D669AD192CBF01268B
:104A600000263444D5610E6AA3FB0667A4192CBF47
:104A7000012500253D44166AA4192CBF01260026F5
:104A8000354414624E6AA3FB0667AD192CBF01249E
:104A900000243C44566AAD192CBF0126002634443C
:104AA00055628E6AA3FB0667A4192CBF0125002559
:104AB0003D44966AA4192CBF012600263544946211
:104AC000CE6AA3FB0667AD192CBF012400243C4429
:104AD000D66AAD192CBF012600263444D5620E6B70
:104AE000A3FB0667A4192CBF012500253D44166BC6
:104AF000A4192CBF01260026354414634E6BA3FB7A
:104B00000667AD192CBF012400243C44566BAD1937
:104B10002CBF01260026344455638E6BA3FB066729
:104B2000A4192CBF012500253D44966BA4192CBF68
:104B30000126002635449463CE6BA3FB0667AD19AE
:104B40002CBF012400243C44D66BAD192CBF012698
:104B500000263444D5631038403240310F283FF6E8
:104B60000AAF7AE00E68A6FB0367A4192CBF0125E3
:104B700000253D441668A4192CBF012600263544A3
:104B800014604E68A3FB0667AD192CBF01240024F6
:104B90003C445668AD192CBF0126002634445560AC
:104BA0008E68A3FB0667A4192CBF012500253D4490
:104BB0009668A4192CBF0126002635449460CE685F
:104BC000A3FB0667AD192CBF012400243C44D66822
:104BD000AD192CBF012600263444D5600E69A3FB15
:104BE0000667A4192CBF012500253D441669A419A8
:104BF0002CBF01260026354414614E69A3FB0667CD
:104C0000AD192CBF012400243C445669AD192CBFBA
:104C100001260026344455618E69A3FB0667A4195A
:104C20002CBF012500253D449669A4192CBF0126FF
:104C3000002635449461CE69A3FB0667AD192CBFED
:104C4000012400243C44D669AD192CBF012600265E
:104C50003444D561083820322031072882D813E047
:104C60000E68A6FB0367A5192CBF012400243C4451
:104C7000164656F8047BED192CBF012700273C444B
:104C800015600138324604310028E9D11368234405
:104C900042F8043B9C428CBF01240024F6D8F0BCAF
:104CA00070472AB32DE9F8431446824205D8DBB198
:104CB0004FF0FF301860BDE8F8831D464FF0000844
:104CC000814648EA0106434630464946FBF7D8FA92
:104CD000012908BF002801D34FF0FF3035B104FB94
:104CE00010642C60BDE8F8834FF0FF30BDE8F88316
:104CF0001BB14FF0FF30186070474FF0FF30704726
:104D000010B48B681C68A31C5B0003F008032344E9
:104D1000202106E004FB03F2C2F1020202FB03F3CE
:104D200049080729F6D85B42036010BC704720B1E0
:104D300001220260002242608260704780B110B59B
:104D40000446806830B16168FFF7D7FD054B1B68EA
:104D5000A06898470123236000236360A36010BD0F
:104D6000704700BFAC5F002042F21073994220D818
:104D70004368994201D80020704770B50D4604463B
:104D80000F4B1B680421284698470646A0B1A1682E
:104D900059B162689200FBF75DFC6168A068FFF79B
:104DA000ACFD084B1B68A06898476560A6600020B2
:104DB00070BD6FF00F0070476FF00F0070BD00BF47
:104DC000A45F0020AC5F0020F8B5884226D00D46D5
:104DD00006468C683CB14B68013B43B154F8232034
:104DE0002AB9013BF9E7FFF7A9FF002708E05C1C9F
:104DF0002B68336021463046FFF7B6FF074608B1FF
:104E00003846F8BD726892000021B068FBF746FC96
:104E1000A200A968B068FBF71DFCF1E70027EFE7E7
:104E200070B504460E460121FFF79EFF054608B106
:104E3000284670BD626892000021A068FBF72EFC36
:104E4000A36886EAE672A2EBE6721A60002E02DB25
:104E500001232360ECE74FF0FF33FAE74368B1EB3F
:104E6000431F09D283684A0953F8220001F01F0149
:104E7000C84000F0010070470020704710B544683A
:104E80008CB1013C2CB1836853F824300BB9013C40
:104E9000F8E7836853F82400FFF738FDC0F12000DD
:104EA00000EB441010BD002010BD08B5FFF7E6FF71
:104EB0000730C00808BDF8B505460E46144612F086
:104EC000030118BF012101EB920743689F420AD0FA
:104ED000FFF734FF2846FFF72AFF39462846FFF739
:104EE00043FF8646B0B900212846FFF799FF864662
:104EF00080B900230CE0AF6823F00300013C325D71
:104F0000D90001F018018A4039580A433A50013358
:104F1000002CF0D17046F8BDF8B506460D46174690
:104F2000FFF7C3FFB84218D804463A460021284686
:104F3000FBF7B4FB7A1E00230BE0B06823F00301FB
:104F40004158D80000F01800C140A954013A01337B
:104F5000013C002CF1D10020F8BD6FF00700F8BD36
:104F6000F8B505460F464C0901F01F06FFF786FF0E
:104F700038446B68B0EB431F02D834B36B6817E05A
:104F800010F01F0118BF012101EB50112846FFF757
:104F9000EBFE03460028F0D032E0A9686FF04040F5
:104FA0001F181A1B024451F8222041F82720013B08
:104FB000A342F2D807E0A96803F18042013A002039
:104FC00041F82200013B002BF5D10EB1002713E080
:104FD000002315E0A86850F82410C6F1200301FA58
:104FE00006F240F82420A86850F824203A4340F8FC
:104FF0002420013421FA03F769688C42EAD30023A4
:105000001846F8BDF8B54C0943689C420BD801F02E
:105010001F0106D0BCB900293AD042684FF0000EFB
:1050200032E00029F6D00021FFF7FAFEF8BD8268D1
:105030001D1952F8255042F8235001334268121BC3
:105040009342F4D306E00023F8E78268002442F894
:105050002340013342689342F7D3DCE7876802F1CB
:105060008043013B57F82360C1F1200426FA01F583
:1050700047F82350876857F8235045EA0E0547F84C
:105080002350013A06FA04FE002AE7D10020F8BDB9
:105090000020F8BD30B4436843B1846803F1804216
:1050A000013A54F822200AB9013BF5E74A6842B1B7
:1050B0008D6802F18044013C55F824400CB9013A56
:1050C000F5E703B99AB1934213D815D36BB184684D
:1050D00003F18042013A54F822408D6855F82220AD
:1050E00094420CD80DD3013BF0E7002002E00020F1
:1050F00000E0012030BC70474FF0FF30FAE701209C
:10510000F8E74FF0FF30F5E72DE9F04F83B00C9C46
:10511000656854680134A5425ED30C9CA468002CD9
:105120005DD0019391468B468246AA00002120461D
:10513000FBF7B4FA0C9B9D68D9F80480DBF80430C7
:10514000434528BF43460093002621E0DAF80830A3
:1051500053F826702B68DBF808100C6804FB073442
:10516000019B03FB04F43B462A460098FFF700FC32
:1051700023462A46D9F808104046FFF7F9FB2A1DB6
:105180002F6008F10103002142F823100136154673
:105190004645DBD308F1010292002946DAF80800FF
:1051A000FBF758FA49465046FFF774FF00280ADB20
:1051B000DAF80820D9F808104046FFF7B3FB0020C2
:1051C00003B0BDE8F08F0C9B9A68DAF808104046EF
:1051D000FFF7A8FB0020F3E76FF00300F0E76FF0A4
:1051E0000300EDE710B586B0012405940294039402
:1051F00005AC0494009313460A4602A9FFF784FF06
:1052000006B010BD70B4436843B1846803F18042B6
:10521000013A54F822200AB9013BF5E74A6842B145
:105220008D6802F18044013C55F824400CB9013AE4
:10523000F5E703B942B393421BD893421DD30668E6
:10524000002E02DD0A68002A20DB0A68002A01DD40
:10525000002E1DDBB3B1846803F18042013A54F89B
:1052600022408D6855F82220944203D808D3013B90
:10527000F0E70668304670BC70470E687642F9E782
:105280007642F7E70026F5E70026F3E70126F1E787
:105290004FF0FF36EEE700B585B081EAE173A3EB8E
:1052A000E173009300290BDB012301930123029397
:1052B000CDF80CD001A9FFF7A5FF05B05DF804FB00
:1052C0004FF0FF33F1E7F8B507461446904214D08B
:1052D000B94205D03846FFF777FD8646002843D10E
:1052E00001233B6066685EB1A26806F18043013B22
:1052F00052F8233023B9013EF5E70C460146E7E7B3
:1053000031463846FFF730FD864668BBA068BB686B
:10531000002425460EE050F8041B1A68A4182CBF80
:10532000012200220C4443F8044BA14294BF1446CE
:10533000541C0135B542EED308E01A68224443F804
:10534000042B944294BF00240124013564B17A688F
:105350009542F2D3691C3846FFF706FD864618B918
:10536000BB6803EB8503E8E77046F8BDF0B585B090
:1053700005460E46144611463046FFF78BFE0028C0
:105380002CDB01A8FFF7D3FCAC4214D0AE4205D011
:1053900031462846FFF718FD0746C8B901232B60A0
:1053A000606880B1A26800F18043013B52F823306D
:1053B0004BB90138F5E7214601A8FFF705FD07467F
:1053C00030B901ACE2E7AA68A168FFF7ABFA0027A1
:1053D00001A8FFF7B3FC384605B0F0BD6FF0090730
:1053E000F9E7F8B507460C4615460E68136803FB47
:1053F00006F3002B06DBFFF766FF034600B93E60AD
:105400001846F8BD11462046FFF744FE002809DB88
:105410002A4621463846FFF7A9FF03460028EFD168
:105420003E60EDE7224629463846FFF79FFF0346D8
:105430000028E5D176423E60E2E7F8B507460C4623
:1054400015460E68136803FB06F3002B1ADD1146A0
:105450002046FFF71FFE002809DB2A462146384672
:10546000FFF784FF034600B93E601846F8BD2246A8
:1054700029463846FFF77AFF03460028F5D17642E1
:105480003E60F2E7FFF71FFF03460028EDD13E60C4
:10549000EBE72DE9F04387B080460E46174603A898
:1054A000FFF745FC6846FFF742FCB0450CD0B84515
:1054B00012D07568C5B1B26805F18043013B52F85E
:1054C00023308BB9013DF5E7314603A8FFF77CFC9B
:1054D0008146D0B903AEEAE739466846FFF774FC67
:1054E000814690B96F46E4E77C6844B1BA6804F13C
:1054F0008043013B52F823300BB9013CF5E72919F1
:105500004046FFF731FC814648B16846FFF716FC7C
:1055100003A8FFF713FC484607B0BDE8F08300215D
:105520004046FFF77DFC814678B1EEE7D8F80810D9
:1055300004F18042013ABB6853F8223001EB820249
:10554000B1682846FFF714FA013C002CEED132680E
:105550003B6803FB02F3C8F80030D6E700B585B01E
:10556000012301930293CDF80CD0009201AAFFF71A
:1055700090FF05B05DF804FB2DE9F04F97B00746AA
:10558000884615461C4600211846FFF784FE002871
:1055900000F0C38113A8FFF7CAFB10A8FFF7C7FBF1
:1055A0000DA8FFF7C4FB0AA8FFF7C1FB07A8FFF788
:1055B000BEFB21462846FFF76DFD002818DB294673
:1055C00013A8FFF701FC064630B313A8FFF7B6FB9C
:1055D00010A8FFF7B3FB0DA8FFF7B0FB0AA8FFF771
:1055E000ADFB07A8FFF7AAFB304617B0BDE8F08F68
:1055F00037B100213846FFF713FC06460028E4D1F6
:10560000B8F1000F00F08C8129464046FFF7DCFB23
:1056100006460028D9D1E7E7214610A8FFF7D4FBBA
:1056200006460028D1D101231093139369680231F3
:105630000DA8FFF799FB06460028C6D100210DA84A
:10564000FFF7EEFB06460028BFD102210AA8FFF7AC
:105650008BFB06460028B8D1032107A8FFF784FB7F
:1056600006460028B1D110A8FFF708FC00F01F0083
:105670001E2811D8C0F11F030093194613A8FFF785
:105680006FFC06460028A0D1009910A8FFF768FC1F
:105690000646002899D101E000230093149B03F1F2
:1056A000FF3B119B0193013B0293ABEB03094FEAD4
:1056B000491A514610A8FFF753FC0646002884D12A
:1056C00010A913A8FFF79EFD00280EDB0F9A52F8D1
:1056D0002930013342F8293010AA13A90846FFF7F0
:1056E000ACFE06460028EBD06FE7514610A8FFF746
:1056F00089FC064600287FF468AF04950594029C57
:10570000A34531D8049D059C67B10DA93846FFF724
:105710005BFB064600287FF458AF2A68236803FB2A
:1057200002F33B60B8F1000F3FF44FAF009913A8AC
:10573000FFF768FC064600287FF447AF2B6816A9E0
:1057400041F80C3D4046FFF73FFB064600287FF43A
:105750003CAF00214046FFF79EFD00287FF435AFA7
:105760000123C8F8003030E7DDF854E04FEA8B033E
:1057700002935EF82B00A3000393129B53F824209E
:10578000904218D3ABEB040303F18043013B4FF08D
:10579000FF310F9A42F823100F9AABEB040505F185
:1057A000804909F1FF394FEA890A52F8293001335B
:1057B00042F829304AE00F9DABEB04066FF04043FE
:1057C0001E440BEB030100235EF82110FFF769FA7A
:1057D00045F82600E0E700231360129B039A9A58CD
:1057E0000C9B5A600F9B53F80A200AA90846FFF742
:1057F000B5FE064600287FF4E8AE002107A8FFF7B3
:105800000FFB064600287FF4E0AE099ABBF1010FBA
:1058100035D90BF18043023B159951F823301360C1
:10582000099ABBF1000F2CD00BF18043013B159975
:1058300051F823305360159B029A9A58099B9A603D
:1058400007A90AA8FFF7DEFC00281CDD0F9A52F812
:105850000A30013B42F80A3000210AA8FFF7E0FABB
:10586000064600287FF4B1AE0C9A002CB3D0019B01
:1058700003F18043023B129951F82330ACE7002337
:10588000CDE70023D6E70F9B53F8292010A90AA8DB
:10589000FFF764FE064600287FF497AE05F1006A24
:1058A0000AF1FF3A4FEA4A1A51460AA8FFF758FB95
:1058B000064600287FF489AE0AAA13A90846FFF716
:1058C000BCFD064600287FF480AE002113A8FFF738
:1058D000E2FC00281EDA10A90AA8FFF775FA0646AE
:1058E00000287FF472AE51460AA8FFF739FB06463E
:1058F00000287FF46AAE0AAA13A90846FFF771FDD3
:10590000064600287FF461AE0F9A52F82930013B19
:1059100042F829300BF1FF3BF2E66FF00B0663E62D
:10592000002661E670B504460E4615460021104675
:10593000FFF7B1FC002826DB2B463246214600202B
:10594000FFF71AFE064668B900212046FFF7A3FCC0
:10595000002809DA2A4621462046FFF742FD06467E
:105960000028F1D0304670BD29462046FFF74AFC9A
:105970000028F7DB2A4621462046FFF75EFD064653
:105980000028F1D0EEE76FF00906EBE72DE9F04FC4
:10599000ADF2446D81468A4616461D46DDF86876AE
:1059A00000211846FFF777FC002840F33082AB68EF
:1059B0001B6813F0010F00F02D8200213046FFF725
:1059C0006AFC0028C0F2298229460DF23C60FFF7EC
:1059D00097F90DF5C660FFF7AAF90DF22460FFF7FD
:1059E000A6F906A8FFF7A3F94FF4C062002109A8A1
:1059F000FAF754FE3046FFF741FAB0F5287F07D298
:105A0000EF2816D84F2816D8172816D9032400E0F7
:105A10000624062C00D906246B6803F1010B5946B5
:105A20004846FFF7A1F9804648B1631E01259D4015
:105A3000D2E10524EDE70424EBE70124E9E7594628
:105A40000CA8FFF791F980460028EED14FEA4B01F0
:105A50000DF22460FFF788F980460028E5D1DAF8D6
:105A600000300493B3F1FF3F00F09A80002F00F064
:105A7000A480BB68002B00F0A0800C2239460DF5F5
:105A8000C660FAF7E7FD29465046FFF7BBFB002842
:105A9000C0F2BA802A4651460CA8FFF743FF804661
:105AA0000028C2D10DF224630093DDF83C362A466B
:105AB0000DF5C6610CA8FFF727FB80460028B4D17E
:105AC0000DF5C6614846FFF77FF980460028ACD146
:105AD0000DF22463DDF83C2629464846FFF782FB99
